{
	"contracts/Votingcontract.sol": {
		"VotingContract": {
			"abi": [
				{
					"anonymous": false,
					"inputs": [
						{
							"indexed": true,
							"internalType": "uint256",
							"name": "proposalId",
							"type": "uint256"
						},
						{
							"indexed": true,
							"internalType": "address",
							"name": "voter",
							"type": "address"
						},
						{
							"indexed": false,
							"internalType": "bool",
							"name": "support",
							"type": "bool"
						}
					],
					"name": "Voted",
					"type": "event"
				},
				{
					"inputs": [
						{
							"internalType": "uint256",
							"name": "proposalId",
							"type": "uint256"
						}
					],
					"name": "getVoteCount",
					"outputs": [
						{
							"internalType": "uint256",
							"name": "",
							"type": "uint256"
						},
						{
							"internalType": "uint256",
							"name": "",
							"type": "uint256"
						}
					],
					"stateMutability": "view",
					"type": "function"
				},
				{
					"inputs": [
						{
							"internalType": "uint256",
							"name": "",
							"type": "uint256"
						},
						{
							"internalType": "address",
							"name": "",
							"type": "address"
						}
					],
					"name": "hasVoted",
					"outputs": [
						{
							"internalType": "bool",
							"name": "",
							"type": "bool"
						}
					],
					"stateMutability": "view",
					"type": "function"
				},
				{
					"inputs": [
						{
							"internalType": "uint256",
							"name": "proposalId",
							"type": "uint256"
						},
						{
							"internalType": "bool",
							"name": "support",
							"type": "bool"
						}
					],
					"name": "vote",
					"outputs": [],
					"stateMutability": "nonpayable",
					"type": "function"
				},
				{
					"inputs": [
						{
							"internalType": "uint256",
							"name": "",
							"type": "uint256"
						}
					],
					"name": "votesAgainst",
					"outputs": [
						{
							"internalType": "uint256",
							"name": "",
							"type": "uint256"
						}
					],
					"stateMutability": "view",
					"type": "function"
				},
				{
					"inputs": [
						{
							"internalType": "uint256",
							"name": "",
							"type": "uint256"
						}
					],
					"name": "votesFor",
					"outputs": [
						{
							"internalType": "uint256",
							"name": "",
							"type": "uint256"
						}
					],
					"stateMutability": "view",
					"type": "function"
				}
			],
			"devdoc": {
				"kind": "dev",
				"methods": {},
				"version": 1
			},
			"evm": {
				"assembly": "    /* \"contracts/Votingcontract.sol\":60:966  contract VotingContract {... */\n  mstore(0x40, 0x80)\n  callvalue\n  dup1\n  iszero\n  tag_1\n  jumpi\n  0x00\n  dup1\n  revert\ntag_1:\n  pop\n  dataSize(sub_0)\n  dup1\n  dataOffset(sub_0)\n  0x00\n  codecopy\n  0x00\n  return\nstop\n\nsub_0: assembly {\n        /* \"contracts/Votingcontract.sol\":60:966  contract VotingContract {... */\n      mstore(0x40, 0x80)\n      callvalue\n      dup1\n      iszero\n      tag_1\n      jumpi\n      0x00\n      dup1\n      revert\n    tag_1:\n      pop\n      jumpi(tag_2, lt(calldatasize, 0x04))\n      shr(0xe0, calldataload(0x00))\n      dup1\n      0x23b4a998\n      eq\n      tag_3\n      jumpi\n      dup1\n      0x43859632\n      eq\n      tag_4\n      jumpi\n      dup1\n      0xb2c2f2e8\n      eq\n      tag_5\n      jumpi\n      dup1\n      0xb7f3b597\n      eq\n      tag_6\n      jumpi\n      dup1\n      0xc9d27afe\n      eq\n      tag_7\n      jumpi\n    tag_2:\n      0x00\n      dup1\n      revert\n        /* \"contracts/Votingcontract.sol\":240:281  mapping(uint => uint) public votesAgainst */\n    tag_3:\n      tag_8\n      0x04\n      dup1\n      calldatasize\n      sub\n      dup2\n      add\n      swap1\n      tag_9\n      swap2\n      swap1\n      tag_10\n      jump\t// in\n    tag_9:\n      tag_11\n      jump\t// in\n    tag_8:\n      mload(0x40)\n      tag_12\n      swap2\n      swap1\n      tag_13\n      jump\t// in\n    tag_12:\n      mload(0x40)\n      dup1\n      swap2\n      sub\n      swap1\n      return\n        /* \"contracts/Votingcontract.sol\":288:345  mapping(uint => mapping(address => bool)) public hasVoted */\n    tag_4:\n      tag_14\n      0x04\n      dup1\n      calldatasize\n      sub\n      dup2\n      add\n      swap1\n      tag_15\n      swap2\n      swap1\n      tag_16\n      jump\t// in\n    tag_15:\n      tag_17\n      jump\t// in\n    tag_14:\n      mload(0x40)\n      tag_18\n      swap2\n      swap1\n      tag_19\n      jump\t// in\n    tag_18:\n      mload(0x40)\n      dup1\n      swap2\n      sub\n      swap1\n      return\n        /* \"contracts/Votingcontract.sol\":815:963  function getVoteCount(uint proposalId) external view returns (uint, uint) {... */\n    tag_5:\n      tag_20\n      0x04\n      dup1\n      calldatasize\n      sub\n      dup2\n      add\n      swap1\n      tag_21\n      swap2\n      swap1\n      tag_10\n      jump\t// in\n    tag_21:\n      tag_22\n      jump\t// in\n    tag_20:\n      mload(0x40)\n      tag_23\n      swap3\n      swap2\n      swap1\n      tag_24\n      jump\t// in\n    tag_23:\n      mload(0x40)\n      dup1\n      swap2\n      sub\n      swap1\n      return\n        /* \"contracts/Votingcontract.sol\":196:233  mapping(uint => uint) public votesFor */\n    tag_6:\n      tag_25\n      0x04\n      dup1\n      calldatasize\n      sub\n      dup2\n      add\n      swap1\n      tag_26\n      swap2\n      swap1\n      tag_10\n      jump\t// in\n    tag_26:\n      tag_27\n      jump\t// in\n    tag_25:\n      mload(0x40)\n      tag_28\n      swap2\n      swap1\n      tag_13\n      jump\t// in\n    tag_28:\n      mload(0x40)\n      dup1\n      swap2\n      sub\n      swap1\n      return\n        /* \"contracts/Votingcontract.sol\":436:807  function vote(uint proposalId, bool support) external {... */\n    tag_7:\n      tag_29\n      0x04\n      dup1\n      calldatasize\n      sub\n      dup2\n      add\n      swap1\n      tag_30\n      swap2\n      swap1\n      tag_31\n      jump\t// in\n    tag_30:\n      tag_32\n      jump\t// in\n    tag_29:\n      stop\n        /* \"contracts/Votingcontract.sol\":240:281  mapping(uint => uint) public votesAgainst */\n    tag_11:\n      mstore(0x20, 0x01)\n      dup1\n      0x00\n      mstore\n      keccak256(0x00, 0x40)\n      0x00\n      swap2\n      pop\n      swap1\n      pop\n      sload\n      dup2\n      jump\t// out\n        /* \"contracts/Votingcontract.sol\":288:345  mapping(uint => mapping(address => bool)) public hasVoted */\n    tag_17:\n      mstore(0x20, 0x02)\n      dup2\n      0x00\n      mstore\n      mstore(0x20, keccak256(0x00, 0x40))\n      dup1\n      0x00\n      mstore\n      keccak256(0x00, 0x40)\n      0x00\n      swap2\n      pop\n      swap2\n      pop\n      swap1\n      sload\n      swap1\n      0x0100\n      exp\n      swap1\n      div\n      0xff\n      and\n      dup2\n      jump\t// out\n        /* \"contracts/Votingcontract.sol\":815:963  function getVoteCount(uint proposalId) external view returns (uint, uint) {... */\n    tag_22:\n        /* \"contracts/Votingcontract.sol\":877:881  uint */\n      0x00\n        /* \"contracts/Votingcontract.sol\":883:887  uint */\n      dup1\n        /* \"contracts/Votingcontract.sol\":908:916  votesFor */\n      0x00\n        /* \"contracts/Votingcontract.sol\":908:928  votesFor[proposalId] */\n      dup1\n        /* \"contracts/Votingcontract.sol\":917:927  proposalId */\n      dup5\n        /* \"contracts/Votingcontract.sol\":908:928  votesFor[proposalId] */\n      dup2\n      mstore\n      0x20\n      add\n      swap1\n      dup2\n      mstore\n      0x20\n      add\n      0x00\n      keccak256\n      sload\n        /* \"contracts/Votingcontract.sol\":930:942  votesAgainst */\n      0x01\n        /* \"contracts/Votingcontract.sol\":930:954  votesAgainst[proposalId] */\n      0x00\n        /* \"contracts/Votingcontract.sol\":943:953  proposalId */\n      dup6\n        /* \"contracts/Votingcontract.sol\":930:954  votesAgainst[proposalId] */\n      dup2\n      mstore\n      0x20\n      add\n      swap1\n      dup2\n      mstore\n      0x20\n      add\n      0x00\n      keccak256\n      sload\n        /* \"contracts/Votingcontract.sol\":900:955  return (votesFor[proposalId], votesAgainst[proposalId]) */\n      swap2\n      pop\n      swap2\n      pop\n        /* \"contracts/Votingcontract.sol\":815:963  function getVoteCount(uint proposalId) external view returns (uint, uint) {... */\n      swap2\n      pop\n      swap2\n      jump\t// out\n        /* \"contracts/Votingcontract.sol\":196:233  mapping(uint => uint) public votesFor */\n    tag_27:\n      mstore(0x20, 0x00)\n      dup1\n      0x00\n      mstore\n      keccak256(0x00, 0x40)\n      0x00\n      swap2\n      pop\n      swap1\n      pop\n      sload\n      dup2\n      jump\t// out\n        /* \"contracts/Votingcontract.sol\":436:807  function vote(uint proposalId, bool support) external {... */\n    tag_32:\n        /* \"contracts/Votingcontract.sol\":510:518  hasVoted */\n      0x02\n        /* \"contracts/Votingcontract.sol\":510:530  hasVoted[proposalId] */\n      0x00\n        /* \"contracts/Votingcontract.sol\":519:529  proposalId */\n      dup4\n        /* \"contracts/Votingcontract.sol\":510:530  hasVoted[proposalId] */\n      dup2\n      mstore\n      0x20\n      add\n      swap1\n      dup2\n      mstore\n      0x20\n      add\n      0x00\n      keccak256\n        /* \"contracts/Votingcontract.sol\":510:542  hasVoted[proposalId][msg.sender] */\n      0x00\n        /* \"contracts/Votingcontract.sol\":531:541  msg.sender */\n      caller\n        /* \"contracts/Votingcontract.sol\":510:542  hasVoted[proposalId][msg.sender] */\n      0xffffffffffffffffffffffffffffffffffffffff\n      and\n      0xffffffffffffffffffffffffffffffffffffffff\n      and\n      dup2\n      mstore\n      0x20\n      add\n      swap1\n      dup2\n      mstore\n      0x20\n      add\n      0x00\n      keccak256\n      0x00\n      swap1\n      sload\n      swap1\n      0x0100\n      exp\n      swap1\n      div\n      0xff\n      and\n        /* \"contracts/Votingcontract.sol\":509:542  !hasVoted[proposalId][msg.sender] */\n      iszero\n        /* \"contracts/Votingcontract.sol\":501:560  require(!hasVoted[proposalId][msg.sender], \"Already voted\") */\n      tag_35\n      jumpi\n      mload(0x40)\n      0x08c379a000000000000000000000000000000000000000000000000000000000\n      dup2\n      mstore\n      0x04\n      add\n      tag_36\n      swap1\n      tag_37\n      jump\t// in\n    tag_36:\n      mload(0x40)\n      dup1\n      swap2\n      sub\n      swap1\n      revert\n    tag_35:\n        /* \"contracts/Votingcontract.sol\":577:584  support */\n      dup1\n        /* \"contracts/Votingcontract.sol\":573:694  if (support) {... */\n      iszero\n      tag_38\n      jumpi\n        /* \"contracts/Votingcontract.sol\":601:609  votesFor */\n      0x00\n        /* \"contracts/Votingcontract.sol\":601:621  votesFor[proposalId] */\n      dup1\n        /* \"contracts/Votingcontract.sol\":610:620  proposalId */\n      dup4\n        /* \"contracts/Votingcontract.sol\":601:621  votesFor[proposalId] */\n      dup2\n      mstore\n      0x20\n      add\n      swap1\n      dup2\n      mstore\n      0x20\n      add\n      0x00\n      keccak256\n      0x00\n        /* \"contracts/Votingcontract.sol\":601:623  votesFor[proposalId]++ */\n      dup2\n      sload\n      dup1\n      swap3\n      swap2\n      swap1\n      tag_39\n      swap1\n      tag_40\n      jump\t// in\n    tag_39:\n      swap2\n      swap1\n      pop\n      sstore\n      pop\n        /* \"contracts/Votingcontract.sol\":573:694  if (support) {... */\n      jump(tag_41)\n    tag_38:\n        /* \"contracts/Votingcontract.sol\":656:668  votesAgainst */\n      0x01\n        /* \"contracts/Votingcontract.sol\":656:680  votesAgainst[proposalId] */\n      0x00\n        /* \"contracts/Votingcontract.sol\":669:679  proposalId */\n      dup4\n        /* \"contracts/Votingcontract.sol\":656:680  votesAgainst[proposalId] */\n      dup2\n      mstore\n      0x20\n      add\n      swap1\n      dup2\n      mstore\n      0x20\n      add\n      0x00\n      keccak256\n      0x00\n        /* \"contracts/Votingcontract.sol\":656:682  votesAgainst[proposalId]++ */\n      dup2\n      sload\n      dup1\n      swap3\n      swap2\n      swap1\n      tag_42\n      swap1\n      tag_40\n      jump\t// in\n    tag_42:\n      swap2\n      swap1\n      pop\n      sstore\n      pop\n        /* \"contracts/Votingcontract.sol\":573:694  if (support) {... */\n    tag_41:\n        /* \"contracts/Votingcontract.sol\":741:745  true */\n      0x01\n        /* \"contracts/Votingcontract.sol\":706:714  hasVoted */\n      0x02\n        /* \"contracts/Votingcontract.sol\":706:726  hasVoted[proposalId] */\n      0x00\n        /* \"contracts/Votingcontract.sol\":715:725  proposalId */\n      dup5\n        /* \"contracts/Votingcontract.sol\":706:726  hasVoted[proposalId] */\n      dup2\n      mstore\n      0x20\n      add\n      swap1\n      dup2\n      mstore\n      0x20\n      add\n      0x00\n      keccak256\n        /* \"contracts/Votingcontract.sol\":706:738  hasVoted[proposalId][msg.sender] */\n      0x00\n        /* \"contracts/Votingcontract.sol\":727:737  msg.sender */\n      caller\n        /* \"contracts/Votingcontract.sol\":706:738  hasVoted[proposalId][msg.sender] */\n      0xffffffffffffffffffffffffffffffffffffffff\n      and\n      0xffffffffffffffffffffffffffffffffffffffff\n      and\n      dup2\n      mstore\n      0x20\n      add\n      swap1\n      dup2\n      mstore\n      0x20\n      add\n      0x00\n      keccak256\n      0x00\n        /* \"contracts/Votingcontract.sol\":706:745  hasVoted[proposalId][msg.sender] = true */\n      0x0100\n      exp\n      dup2\n      sload\n      dup2\n      0xff\n      mul\n      not\n      and\n      swap1\n      dup4\n      iszero\n      iszero\n      mul\n      or\n      swap1\n      sstore\n      pop\n        /* \"contracts/Votingcontract.sol\":779:789  msg.sender */\n      caller\n        /* \"contracts/Votingcontract.sol\":761:799  Voted(proposalId, msg.sender, support) */\n      0xffffffffffffffffffffffffffffffffffffffff\n      and\n        /* \"contracts/Votingcontract.sol\":767:777  proposalId */\n      dup3\n        /* \"contracts/Votingcontract.sol\":761:799  Voted(proposalId, msg.sender, support) */\n      0xf2913dbe661ee2acc4a046d8fbcdc792373bda34c41c6086484b5345e5785e5f\n        /* \"contracts/Votingcontract.sol\":791:798  support */\n      dup4\n        /* \"contracts/Votingcontract.sol\":761:799  Voted(proposalId, msg.sender, support) */\n      mload(0x40)\n      tag_43\n      swap2\n      swap1\n      tag_19\n      jump\t// in\n    tag_43:\n      mload(0x40)\n      dup1\n      swap2\n      sub\n      swap1\n      log3\n        /* \"contracts/Votingcontract.sol\":436:807  function vote(uint proposalId, bool support) external {... */\n      pop\n      pop\n      jump\t// out\n        /* \"#utility.yul\":88:205   */\n    tag_45:\n        /* \"#utility.yul\":197:198   */\n      0x00\n        /* \"#utility.yul\":194:195   */\n      dup1\n        /* \"#utility.yul\":187:199   */\n      revert\n        /* \"#utility.yul\":334:411   */\n    tag_47:\n        /* \"#utility.yul\":371:378   */\n      0x00\n        /* \"#utility.yul\":400:405   */\n      dup2\n        /* \"#utility.yul\":389:405   */\n      swap1\n      pop\n        /* \"#utility.yul\":334:411   */\n      swap2\n      swap1\n      pop\n      jump\t// out\n        /* \"#utility.yul\":417:539   */\n    tag_48:\n        /* \"#utility.yul\":490:514   */\n      tag_69\n        /* \"#utility.yul\":508:513   */\n      dup2\n        /* \"#utility.yul\":490:514   */\n      tag_47\n      jump\t// in\n    tag_69:\n        /* \"#utility.yul\":483:488   */\n      dup2\n        /* \"#utility.yul\":480:515   */\n      eq\n        /* \"#utility.yul\":470:533   */\n      tag_70\n      jumpi\n        /* \"#utility.yul\":529:530   */\n      0x00\n        /* \"#utility.yul\":526:527   */\n      dup1\n        /* \"#utility.yul\":519:531   */\n      revert\n        /* \"#utility.yul\":470:533   */\n    tag_70:\n        /* \"#utility.yul\":417:539   */\n      pop\n      jump\t// out\n        /* \"#utility.yul\":545:684   */\n    tag_49:\n        /* \"#utility.yul\":591:596   */\n      0x00\n        /* \"#utility.yul\":629:635   */\n      dup2\n        /* \"#utility.yul\":616:636   */\n      calldataload\n        /* \"#utility.yul\":607:636   */\n      swap1\n      pop\n        /* \"#utility.yul\":645:678   */\n      tag_72\n        /* \"#utility.yul\":672:677   */\n      dup2\n        /* \"#utility.yul\":645:678   */\n      tag_48\n      jump\t// in\n    tag_72:\n        /* \"#utility.yul\":545:684   */\n      swap3\n      swap2\n      pop\n      pop\n      jump\t// out\n        /* \"#utility.yul\":690:1019   */\n    tag_10:\n        /* \"#utility.yul\":749:755   */\n      0x00\n        /* \"#utility.yul\":798:800   */\n      0x20\n        /* \"#utility.yul\":786:795   */\n      dup3\n        /* \"#utility.yul\":777:784   */\n      dup5\n        /* \"#utility.yul\":773:796   */\n      sub\n        /* \"#utility.yul\":769:801   */\n      slt\n        /* \"#utility.yul\":766:885   */\n      iszero\n      tag_74\n      jumpi\n        /* \"#utility.yul\":804:883   */\n      tag_75\n      tag_45\n      jump\t// in\n    tag_75:\n        /* \"#utility.yul\":766:885   */\n    tag_74:\n        /* \"#utility.yul\":924:925   */\n      0x00\n        /* \"#utility.yul\":949:1002   */\n      tag_76\n        /* \"#utility.yul\":994:1001   */\n      dup5\n        /* \"#utility.yul\":985:991   */\n      dup3\n        /* \"#utility.yul\":974:983   */\n      dup6\n        /* \"#utility.yul\":970:992   */\n      add\n        /* \"#utility.yul\":949:1002   */\n      tag_49\n      jump\t// in\n    tag_76:\n        /* \"#utility.yul\":939:1002   */\n      swap2\n      pop\n        /* \"#utility.yul\":895:1012   */\n      pop\n        /* \"#utility.yul\":690:1019   */\n      swap3\n      swap2\n      pop\n      pop\n      jump\t// out\n        /* \"#utility.yul\":1025:1143   */\n    tag_50:\n        /* \"#utility.yul\":1112:1136   */\n      tag_78\n        /* \"#utility.yul\":1130:1135   */\n      dup2\n        /* \"#utility.yul\":1112:1136   */\n      tag_47\n      jump\t// in\n    tag_78:\n        /* \"#utility.yul\":1107:1110   */\n      dup3\n        /* \"#utility.yul\":1100:1137   */\n      mstore\n        /* \"#utility.yul\":1025:1143   */\n      pop\n      pop\n      jump\t// out\n        /* \"#utility.yul\":1149:1371   */\n    tag_13:\n        /* \"#utility.yul\":1242:1246   */\n      0x00\n        /* \"#utility.yul\":1280:1282   */\n      0x20\n        /* \"#utility.yul\":1269:1278   */\n      dup3\n        /* \"#utility.yul\":1265:1283   */\n      add\n        /* \"#utility.yul\":1257:1283   */\n      swap1\n      pop\n        /* \"#utility.yul\":1293:1364   */\n      tag_80\n        /* \"#utility.yul\":1361:1362   */\n      0x00\n        /* \"#utility.yul\":1350:1359   */\n      dup4\n        /* \"#utility.yul\":1346:1363   */\n      add\n        /* \"#utility.yul\":1337:1343   */\n      dup5\n        /* \"#utility.yul\":1293:1364   */\n      tag_50\n      jump\t// in\n    tag_80:\n        /* \"#utility.yul\":1149:1371   */\n      swap3\n      swap2\n      pop\n      pop\n      jump\t// out\n        /* \"#utility.yul\":1377:1503   */\n    tag_51:\n        /* \"#utility.yul\":1414:1421   */\n      0x00\n        /* \"#utility.yul\":1454:1496   */\n      0xffffffffffffffffffffffffffffffffffffffff\n        /* \"#utility.yul\":1447:1452   */\n      dup3\n        /* \"#utility.yul\":1443:1497   */\n      and\n        /* \"#utility.yul\":1432:1497   */\n      swap1\n      pop\n        /* \"#utility.yul\":1377:1503   */\n      swap2\n      swap1\n      pop\n      jump\t// out\n        /* \"#utility.yul\":1509:1605   */\n    tag_52:\n        /* \"#utility.yul\":1546:1553   */\n      0x00\n        /* \"#utility.yul\":1575:1599   */\n      tag_83\n        /* \"#utility.yul\":1593:1598   */\n      dup3\n        /* \"#utility.yul\":1575:1599   */\n      tag_51\n      jump\t// in\n    tag_83:\n        /* \"#utility.yul\":1564:1599   */\n      swap1\n      pop\n        /* \"#utility.yul\":1509:1605   */\n      swap2\n      swap1\n      pop\n      jump\t// out\n        /* \"#utility.yul\":1611:1733   */\n    tag_53:\n        /* \"#utility.yul\":1684:1708   */\n      tag_85\n        /* \"#utility.yul\":1702:1707   */\n      dup2\n        /* \"#utility.yul\":1684:1708   */\n      tag_52\n      jump\t// in\n    tag_85:\n        /* \"#utility.yul\":1677:1682   */\n      dup2\n        /* \"#utility.yul\":1674:1709   */\n      eq\n        /* \"#utility.yul\":1664:1727   */\n      tag_86\n      jumpi\n        /* \"#utility.yul\":1723:1724   */\n      0x00\n        /* \"#utility.yul\":1720:1721   */\n      dup1\n        /* \"#utility.yul\":1713:1725   */\n      revert\n        /* \"#utility.yul\":1664:1727   */\n    tag_86:\n        /* \"#utility.yul\":1611:1733   */\n      pop\n      jump\t// out\n        /* \"#utility.yul\":1739:1878   */\n    tag_54:\n        /* \"#utility.yul\":1785:1790   */\n      0x00\n        /* \"#utility.yul\":1823:1829   */\n      dup2\n        /* \"#utility.yul\":1810:1830   */\n      calldataload\n        /* \"#utility.yul\":1801:1830   */\n      swap1\n      pop\n        /* \"#utility.yul\":1839:1872   */\n      tag_88\n        /* \"#utility.yul\":1866:1871   */\n      dup2\n        /* \"#utility.yul\":1839:1872   */\n      tag_53\n      jump\t// in\n    tag_88:\n        /* \"#utility.yul\":1739:1878   */\n      swap3\n      swap2\n      pop\n      pop\n      jump\t// out\n        /* \"#utility.yul\":1884:2358   */\n    tag_16:\n        /* \"#utility.yul\":1952:1958   */\n      0x00\n        /* \"#utility.yul\":1960:1966   */\n      dup1\n        /* \"#utility.yul\":2009:2011   */\n      0x40\n        /* \"#utility.yul\":1997:2006   */\n      dup4\n        /* \"#utility.yul\":1988:1995   */\n      dup6\n        /* \"#utility.yul\":1984:2007   */\n      sub\n        /* \"#utility.yul\":1980:2012   */\n      slt\n        /* \"#utility.yul\":1977:2096   */\n      iszero\n      tag_90\n      jumpi\n        /* \"#utility.yul\":2015:2094   */\n      tag_91\n      tag_45\n      jump\t// in\n    tag_91:\n        /* \"#utility.yul\":1977:2096   */\n    tag_90:\n        /* \"#utility.yul\":2135:2136   */\n      0x00\n        /* \"#utility.yul\":2160:2213   */\n      tag_92\n        /* \"#utility.yul\":2205:2212   */\n      dup6\n        /* \"#utility.yul\":2196:2202   */\n      dup3\n        /* \"#utility.yul\":2185:2194   */\n      dup7\n        /* \"#utility.yul\":2181:2203   */\n      add\n        /* \"#utility.yul\":2160:2213   */\n      tag_49\n      jump\t// in\n    tag_92:\n        /* \"#utility.yul\":2150:2213   */\n      swap3\n      pop\n        /* \"#utility.yul\":2106:2223   */\n      pop\n        /* \"#utility.yul\":2262:2264   */\n      0x20\n        /* \"#utility.yul\":2288:2341   */\n      tag_93\n        /* \"#utility.yul\":2333:2340   */\n      dup6\n        /* \"#utility.yul\":2324:2330   */\n      dup3\n        /* \"#utility.yul\":2313:2322   */\n      dup7\n        /* \"#utility.yul\":2309:2331   */\n      add\n        /* \"#utility.yul\":2288:2341   */\n      tag_54\n      jump\t// in\n    tag_93:\n        /* \"#utility.yul\":2278:2341   */\n      swap2\n      pop\n        /* \"#utility.yul\":2233:2351   */\n      pop\n        /* \"#utility.yul\":1884:2358   */\n      swap3\n      pop\n      swap3\n      swap1\n      pop\n      jump\t// out\n        /* \"#utility.yul\":2364:2454   */\n    tag_55:\n        /* \"#utility.yul\":2398:2405   */\n      0x00\n        /* \"#utility.yul\":2441:2446   */\n      dup2\n        /* \"#utility.yul\":2434:2447   */\n      iszero\n        /* \"#utility.yul\":2427:2448   */\n      iszero\n        /* \"#utility.yul\":2416:2448   */\n      swap1\n      pop\n        /* \"#utility.yul\":2364:2454   */\n      swap2\n      swap1\n      pop\n      jump\t// out\n        /* \"#utility.yul\":2460:2569   */\n    tag_56:\n        /* \"#utility.yul\":2541:2562   */\n      tag_96\n        /* \"#utility.yul\":2556:2561   */\n      dup2\n        /* \"#utility.yul\":2541:2562   */\n      tag_55\n      jump\t// in\n    tag_96:\n        /* \"#utility.yul\":2536:2539   */\n      dup3\n        /* \"#utility.yul\":2529:2563   */\n      mstore\n        /* \"#utility.yul\":2460:2569   */\n      pop\n      pop\n      jump\t// out\n        /* \"#utility.yul\":2575:2785   */\n    tag_19:\n        /* \"#utility.yul\":2662:2666   */\n      0x00\n        /* \"#utility.yul\":2700:2702   */\n      0x20\n        /* \"#utility.yul\":2689:2698   */\n      dup3\n        /* \"#utility.yul\":2685:2703   */\n      add\n        /* \"#utility.yul\":2677:2703   */\n      swap1\n      pop\n        /* \"#utility.yul\":2713:2778   */\n      tag_98\n        /* \"#utility.yul\":2775:2776   */\n      0x00\n        /* \"#utility.yul\":2764:2773   */\n      dup4\n        /* \"#utility.yul\":2760:2777   */\n      add\n        /* \"#utility.yul\":2751:2757   */\n      dup5\n        /* \"#utility.yul\":2713:2778   */\n      tag_56\n      jump\t// in\n    tag_98:\n        /* \"#utility.yul\":2575:2785   */\n      swap3\n      swap2\n      pop\n      pop\n      jump\t// out\n        /* \"#utility.yul\":2791:3123   */\n    tag_24:\n        /* \"#utility.yul\":2912:2916   */\n      0x00\n        /* \"#utility.yul\":2950:2952   */\n      0x40\n        /* \"#utility.yul\":2939:2948   */\n      dup3\n        /* \"#utility.yul\":2935:2953   */\n      add\n        /* \"#utility.yul\":2927:2953   */\n      swap1\n      pop\n        /* \"#utility.yul\":2963:3034   */\n      tag_100\n        /* \"#utility.yul\":3031:3032   */\n      0x00\n        /* \"#utility.yul\":3020:3029   */\n      dup4\n        /* \"#utility.yul\":3016:3033   */\n      add\n        /* \"#utility.yul\":3007:3013   */\n      dup6\n        /* \"#utility.yul\":2963:3034   */\n      tag_50\n      jump\t// in\n    tag_100:\n        /* \"#utility.yul\":3044:3116   */\n      tag_101\n        /* \"#utility.yul\":3112:3114   */\n      0x20\n        /* \"#utility.yul\":3101:3110   */\n      dup4\n        /* \"#utility.yul\":3097:3115   */\n      add\n        /* \"#utility.yul\":3088:3094   */\n      dup5\n        /* \"#utility.yul\":3044:3116   */\n      tag_50\n      jump\t// in\n    tag_101:\n        /* \"#utility.yul\":2791:3123   */\n      swap4\n      swap3\n      pop\n      pop\n      pop\n      jump\t// out\n        /* \"#utility.yul\":3129:3245   */\n    tag_57:\n        /* \"#utility.yul\":3199:3220   */\n      tag_103\n        /* \"#utility.yul\":3214:3219   */\n      dup2\n        /* \"#utility.yul\":3199:3220   */\n      tag_55\n      jump\t// in\n    tag_103:\n        /* \"#utility.yul\":3192:3197   */\n      dup2\n        /* \"#utility.yul\":3189:3221   */\n      eq\n        /* \"#utility.yul\":3179:3239   */\n      tag_104\n      jumpi\n        /* \"#utility.yul\":3235:3236   */\n      0x00\n        /* \"#utility.yul\":3232:3233   */\n      dup1\n        /* \"#utility.yul\":3225:3237   */\n      revert\n        /* \"#utility.yul\":3179:3239   */\n    tag_104:\n        /* \"#utility.yul\":3129:3245   */\n      pop\n      jump\t// out\n        /* \"#utility.yul\":3251:3384   */\n    tag_58:\n        /* \"#utility.yul\":3294:3299   */\n      0x00\n        /* \"#utility.yul\":3332:3338   */\n      dup2\n        /* \"#utility.yul\":3319:3339   */\n      calldataload\n        /* \"#utility.yul\":3310:3339   */\n      swap1\n      pop\n        /* \"#utility.yul\":3348:3378   */\n      tag_106\n        /* \"#utility.yul\":3372:3377   */\n      dup2\n        /* \"#utility.yul\":3348:3378   */\n      tag_57\n      jump\t// in\n    tag_106:\n        /* \"#utility.yul\":3251:3384   */\n      swap3\n      swap2\n      pop\n      pop\n      jump\t// out\n        /* \"#utility.yul\":3390:3858   */\n    tag_31:\n        /* \"#utility.yul\":3455:3461   */\n      0x00\n        /* \"#utility.yul\":3463:3469   */\n      dup1\n        /* \"#utility.yul\":3512:3514   */\n      0x40\n        /* \"#utility.yul\":3500:3509   */\n      dup4\n        /* \"#utility.yul\":3491:3498   */\n      dup6\n        /* \"#utility.yul\":3487:3510   */\n      sub\n        /* \"#utility.yul\":3483:3515   */\n      slt\n        /* \"#utility.yul\":3480:3599   */\n      iszero\n      tag_108\n      jumpi\n        /* \"#utility.yul\":3518:3597   */\n      tag_109\n      tag_45\n      jump\t// in\n    tag_109:\n        /* \"#utility.yul\":3480:3599   */\n    tag_108:\n        /* \"#utility.yul\":3638:3639   */\n      0x00\n        /* \"#utility.yul\":3663:3716   */\n      tag_110\n        /* \"#utility.yul\":3708:3715   */\n      dup6\n        /* \"#utility.yul\":3699:3705   */\n      dup3\n        /* \"#utility.yul\":3688:3697   */\n      dup7\n        /* \"#utility.yul\":3684:3706   */\n      add\n        /* \"#utility.yul\":3663:3716   */\n      tag_49\n      jump\t// in\n    tag_110:\n        /* \"#utility.yul\":3653:3716   */\n      swap3\n      pop\n        /* \"#utility.yul\":3609:3726   */\n      pop\n        /* \"#utility.yul\":3765:3767   */\n      0x20\n        /* \"#utility.yul\":3791:3841   */\n      tag_111\n        /* \"#utility.yul\":3833:3840   */\n      dup6\n        /* \"#utility.yul\":3824:3830   */\n      dup3\n        /* \"#utility.yul\":3813:3822   */\n      dup7\n        /* \"#utility.yul\":3809:3831   */\n      add\n        /* \"#utility.yul\":3791:3841   */\n      tag_58\n      jump\t// in\n    tag_111:\n        /* \"#utility.yul\":3781:3841   */\n      swap2\n      pop\n        /* \"#utility.yul\":3736:3851   */\n      pop\n        /* \"#utility.yul\":3390:3858   */\n      swap3\n      pop\n      swap3\n      swap1\n      pop\n      jump\t// out\n        /* \"#utility.yul\":3864:4033   */\n    tag_59:\n        /* \"#utility.yul\":3948:3959   */\n      0x00\n        /* \"#utility.yul\":3982:3988   */\n      dup3\n        /* \"#utility.yul\":3977:3980   */\n      dup3\n        /* \"#utility.yul\":3970:3989   */\n      mstore\n        /* \"#utility.yul\":4022:4026   */\n      0x20\n        /* \"#utility.yul\":4017:4020   */\n      dup3\n        /* \"#utility.yul\":4013:4027   */\n      add\n        /* \"#utility.yul\":3998:4027   */\n      swap1\n      pop\n        /* \"#utility.yul\":3864:4033   */\n      swap3\n      swap2\n      pop\n      pop\n      jump\t// out\n        /* \"#utility.yul\":4039:4202   */\n    tag_60:\n        /* \"#utility.yul\":4179:4194   */\n      0x416c726561647920766f74656400000000000000000000000000000000000000\n        /* \"#utility.yul\":4175:4176   */\n      0x00\n        /* \"#utility.yul\":4167:4173   */\n      dup3\n        /* \"#utility.yul\":4163:4177   */\n      add\n        /* \"#utility.yul\":4156:4195   */\n      mstore\n        /* \"#utility.yul\":4039:4202   */\n      pop\n      jump\t// out\n        /* \"#utility.yul\":4208:4574   */\n    tag_61:\n        /* \"#utility.yul\":4350:4353   */\n      0x00\n        /* \"#utility.yul\":4371:4438   */\n      tag_115\n        /* \"#utility.yul\":4435:4437   */\n      0x0d\n        /* \"#utility.yul\":4430:4433   */\n      dup4\n        /* \"#utility.yul\":4371:4438   */\n      tag_59\n      jump\t// in\n    tag_115:\n        /* \"#utility.yul\":4364:4438   */\n      swap2\n      pop\n        /* \"#utility.yul\":4447:4540   */\n      tag_116\n        /* \"#utility.yul\":4536:4539   */\n      dup3\n        /* \"#utility.yul\":4447:4540   */\n      tag_60\n      jump\t// in\n    tag_116:\n        /* \"#utility.yul\":4565:4567   */\n      0x20\n        /* \"#utility.yul\":4560:4563   */\n      dup3\n        /* \"#utility.yul\":4556:4568   */\n      add\n        /* \"#utility.yul\":4549:4568   */\n      swap1\n      pop\n        /* \"#utility.yul\":4208:4574   */\n      swap2\n      swap1\n      pop\n      jump\t// out\n        /* \"#utility.yul\":4580:4999   */\n    tag_37:\n        /* \"#utility.yul\":4746:4750   */\n      0x00\n        /* \"#utility.yul\":4784:4786   */\n      0x20\n        /* \"#utility.yul\":4773:4782   */\n      dup3\n        /* \"#utility.yul\":4769:4787   */\n      add\n        /* \"#utility.yul\":4761:4787   */\n      swap1\n      pop\n        /* \"#utility.yul\":4833:4842   */\n      dup2\n        /* \"#utility.yul\":4827:4831   */\n      dup2\n        /* \"#utility.yul\":4823:4843   */\n      sub\n        /* \"#utility.yul\":4819:4820   */\n      0x00\n        /* \"#utility.yul\":4808:4817   */\n      dup4\n        /* \"#utility.yul\":4804:4821   */\n      add\n        /* \"#utility.yul\":4797:4844   */\n      mstore\n        /* \"#utility.yul\":4861:4992   */\n      tag_118\n        /* \"#utility.yul\":4987:4991   */\n      dup2\n        /* \"#utility.yul\":4861:4992   */\n      tag_61\n      jump\t// in\n    tag_118:\n        /* \"#utility.yul\":4853:4992   */\n      swap1\n      pop\n        /* \"#utility.yul\":4580:4999   */\n      swap2\n      swap1\n      pop\n      jump\t// out\n        /* \"#utility.yul\":5005:5185   */\n    tag_62:\n        /* \"#utility.yul\":5053:5130   */\n      0x4e487b7100000000000000000000000000000000000000000000000000000000\n        /* \"#utility.yul\":5050:5051   */\n      0x00\n        /* \"#utility.yul\":5043:5131   */\n      mstore\n        /* \"#utility.yul\":5150:5154   */\n      0x11\n        /* \"#utility.yul\":5147:5148   */\n      0x04\n        /* \"#utility.yul\":5140:5155   */\n      mstore\n        /* \"#utility.yul\":5174:5178   */\n      0x24\n        /* \"#utility.yul\":5171:5172   */\n      0x00\n        /* \"#utility.yul\":5164:5179   */\n      revert\n        /* \"#utility.yul\":5191:5424   */\n    tag_40:\n        /* \"#utility.yul\":5230:5233   */\n      0x00\n        /* \"#utility.yul\":5253:5277   */\n      tag_121\n        /* \"#utility.yul\":5271:5276   */\n      dup3\n        /* \"#utility.yul\":5253:5277   */\n      tag_47\n      jump\t// in\n    tag_121:\n        /* \"#utility.yul\":5244:5277   */\n      swap2\n      pop\n        /* \"#utility.yul\":5299:5365   */\n      0xffffffffffffffffffffffffffffffffffffffffffffffffffffffffffffffff\n        /* \"#utility.yul\":5292:5297   */\n      dup3\n        /* \"#utility.yul\":5289:5366   */\n      sub\n        /* \"#utility.yul\":5286:5389   */\n      tag_122\n      jumpi\n        /* \"#utility.yul\":5369:5387   */\n      tag_123\n      tag_62\n      jump\t// in\n    tag_123:\n        /* \"#utility.yul\":5286:5389   */\n    tag_122:\n        /* \"#utility.yul\":5416:5417   */\n      0x01\n        /* \"#utility.yul\":5409:5414   */\n      dup3\n        /* \"#utility.yul\":5405:5418   */\n      add\n        /* \"#utility.yul\":5398:5418   */\n      swap1\n      pop\n        /* \"#utility.yul\":5191:5424   */\n      swap2\n      swap1\n      pop\n      jump\t// out\n\n    auxdata: 0xa26469706673582212204bcddfeb4b03058d02dd3b0a9d823fafad8887d6bdee7f3ee6bf97873db40dad64736f6c634300081a0033\n}\n",
				"bytecode": {
					"linkReferences": {},
					"object": "6080604052348015600e575f80fd5b506106648061001c5f395ff3fe608060405234801561000f575f80fd5b5060043610610055575f3560e01c806323b4a998146100595780634385963214610089578063b2c2f2e8146100b9578063b7f3b597146100ea578063c9d27afe1461011a575b5f80fd5b610073600480360381019061006e9190610395565b610136565b60405161008091906103cf565b60405180910390f35b6100a3600480360381019061009e9190610442565b61014b565b6040516100b0919061049a565b60405180910390f35b6100d360048036038101906100ce9190610395565b610175565b6040516100e19291906104b3565b60405180910390f35b61010460048036038101906100ff9190610395565b6101a3565b60405161011191906103cf565b60405180910390f35b610134600480360381019061012f9190610504565b6101b7565b005b6001602052805f5260405f205f915090505481565b6002602052815f5260405f20602052805f5260405f205f915091509054906101000a900460ff1681565b5f805f808481526020019081526020015f205460015f8581526020019081526020015f205491509150915091565b5f602052805f5260405f205f915090505481565b60025f8381526020019081526020015f205f3373ffffffffffffffffffffffffffffffffffffffff1673ffffffffffffffffffffffffffffffffffffffff1681526020019081526020015f205f9054906101000a900460ff1615610250576040517f08c379a00000000000000000000000000000000000000000000000000000000081526004016102479061059c565b60405180910390fd5b8015610280575f808381526020019081526020015f205f815480929190610276906105e7565b91905055506102a7565b60015f8381526020019081526020015f205f8154809291906102a1906105e7565b91905055505b600160025f8481526020019081526020015f205f3373ffffffffffffffffffffffffffffffffffffffff1673ffffffffffffffffffffffffffffffffffffffff1681526020019081526020015f205f6101000a81548160ff0219169083151502179055503373ffffffffffffffffffffffffffffffffffffffff16827ff2913dbe661ee2acc4a046d8fbcdc792373bda34c41c6086484b5345e5785e5f83604051610352919061049a565b60405180910390a35050565b5f80fd5b5f819050919050565b61037481610362565b811461037e575f80fd5b50565b5f8135905061038f8161036b565b92915050565b5f602082840312156103aa576103a961035e565b5b5f6103b784828501610381565b91505092915050565b6103c981610362565b82525050565b5f6020820190506103e25f8301846103c0565b92915050565b5f73ffffffffffffffffffffffffffffffffffffffff82169050919050565b5f610411826103e8565b9050919050565b61042181610407565b811461042b575f80fd5b50565b5f8135905061043c81610418565b92915050565b5f80604083850312156104585761045761035e565b5b5f61046585828601610381565b92505060206104768582860161042e565b9150509250929050565b5f8115159050919050565b61049481610480565b82525050565b5f6020820190506104ad5f83018461048b565b92915050565b5f6040820190506104c65f8301856103c0565b6104d360208301846103c0565b9392505050565b6104e381610480565b81146104ed575f80fd5b50565b5f813590506104fe816104da565b92915050565b5f806040838503121561051a5761051961035e565b5b5f61052785828601610381565b9250506020610538858286016104f0565b9150509250929050565b5f82825260208201905092915050565b7f416c726561647920766f746564000000000000000000000000000000000000005f82015250565b5f610586600d83610542565b915061059182610552565b602082019050919050565b5f6020820190508181035f8301526105b38161057a565b9050919050565b7f4e487b71000000000000000000000000000000000000000000000000000000005f52601160045260245ffd5b5f6105f182610362565b91507fffffffffffffffffffffffffffffffffffffffffffffffffffffffffffffffff8203610623576106226105ba565b5b60018201905091905056fea26469706673582212204bcddfeb4b03058d02dd3b0a9d823fafad8887d6bdee7f3ee6bf97873db40dad64736f6c634300081a0033",
					"opcodes": "PUSH1 0x80 PUSH1 0x40 MSTORE CALLVALUE DUP1 ISZERO PUSH1 0xE JUMPI PUSH0 DUP1 REVERT JUMPDEST POP PUSH2 0x664 DUP1 PUSH2 0x1C PUSH0 CODECOPY PUSH0 RETURN INVALID PUSH1 0x80 PUSH1 0x40 MSTORE CALLVALUE DUP1 ISZERO PUSH2 0xF JUMPI PUSH0 DUP1 REVERT JUMPDEST POP PUSH1 0x4 CALLDATASIZE LT PUSH2 0x55 JUMPI PUSH0 CALLDATALOAD PUSH1 0xE0 SHR DUP1 PUSH4 0x23B4A998 EQ PUSH2 0x59 JUMPI DUP1 PUSH4 0x43859632 EQ PUSH2 0x89 JUMPI DUP1 PUSH4 0xB2C2F2E8 EQ PUSH2 0xB9 JUMPI DUP1 PUSH4 0xB7F3B597 EQ PUSH2 0xEA JUMPI DUP1 PUSH4 0xC9D27AFE EQ PUSH2 0x11A JUMPI JUMPDEST PUSH0 DUP1 REVERT JUMPDEST PUSH2 0x73 PUSH1 0x4 DUP1 CALLDATASIZE SUB DUP2 ADD SWAP1 PUSH2 0x6E SWAP2 SWAP1 PUSH2 0x395 JUMP JUMPDEST PUSH2 0x136 JUMP JUMPDEST PUSH1 0x40 MLOAD PUSH2 0x80 SWAP2 SWAP1 PUSH2 0x3CF JUMP JUMPDEST PUSH1 0x40 MLOAD DUP1 SWAP2 SUB SWAP1 RETURN JUMPDEST PUSH2 0xA3 PUSH1 0x4 DUP1 CALLDATASIZE SUB DUP2 ADD SWAP1 PUSH2 0x9E SWAP2 SWAP1 PUSH2 0x442 JUMP JUMPDEST PUSH2 0x14B JUMP JUMPDEST PUSH1 0x40 MLOAD PUSH2 0xB0 SWAP2 SWAP1 PUSH2 0x49A JUMP JUMPDEST PUSH1 0x40 MLOAD DUP1 SWAP2 SUB SWAP1 RETURN JUMPDEST PUSH2 0xD3 PUSH1 0x4 DUP1 CALLDATASIZE SUB DUP2 ADD SWAP1 PUSH2 0xCE SWAP2 SWAP1 PUSH2 0x395 JUMP JUMPDEST PUSH2 0x175 JUMP JUMPDEST PUSH1 0x40 MLOAD PUSH2 0xE1 SWAP3 SWAP2 SWAP1 PUSH2 0x4B3 JUMP JUMPDEST PUSH1 0x40 MLOAD DUP1 SWAP2 SUB SWAP1 RETURN JUMPDEST PUSH2 0x104 PUSH1 0x4 DUP1 CALLDATASIZE SUB DUP2 ADD SWAP1 PUSH2 0xFF SWAP2 SWAP1 PUSH2 0x395 JUMP JUMPDEST PUSH2 0x1A3 JUMP JUMPDEST PUSH1 0x40 MLOAD PUSH2 0x111 SWAP2 SWAP1 PUSH2 0x3CF JUMP JUMPDEST PUSH1 0x40 MLOAD DUP1 SWAP2 SUB SWAP1 RETURN JUMPDEST PUSH2 0x134 PUSH1 0x4 DUP1 CALLDATASIZE SUB DUP2 ADD SWAP1 PUSH2 0x12F SWAP2 SWAP1 PUSH2 0x504 JUMP JUMPDEST PUSH2 0x1B7 JUMP JUMPDEST STOP JUMPDEST PUSH1 0x1 PUSH1 0x20 MSTORE DUP1 PUSH0 MSTORE PUSH1 0x40 PUSH0 KECCAK256 PUSH0 SWAP2 POP SWAP1 POP SLOAD DUP2 JUMP JUMPDEST PUSH1 0x2 PUSH1 0x20 MSTORE DUP2 PUSH0 MSTORE PUSH1 0x40 PUSH0 KECCAK256 PUSH1 0x20 MSTORE DUP1 PUSH0 MSTORE PUSH1 0x40 PUSH0 KECCAK256 PUSH0 SWAP2 POP SWAP2 POP SWAP1 SLOAD SWAP1 PUSH2 0x100 EXP SWAP1 DIV PUSH1 0xFF AND DUP2 JUMP JUMPDEST PUSH0 DUP1 PUSH0 DUP1 DUP5 DUP2 MSTORE PUSH1 0x20 ADD SWAP1 DUP2 MSTORE PUSH1 0x20 ADD PUSH0 KECCAK256 SLOAD PUSH1 0x1 PUSH0 DUP6 DUP2 MSTORE PUSH1 0x20 ADD SWAP1 DUP2 MSTORE PUSH1 0x20 ADD PUSH0 KECCAK256 SLOAD SWAP2 POP SWAP2 POP SWAP2 POP SWAP2 JUMP JUMPDEST PUSH0 PUSH1 0x20 MSTORE DUP1 PUSH0 MSTORE PUSH1 0x40 PUSH0 KECCAK256 PUSH0 SWAP2 POP SWAP1 POP SLOAD DUP2 JUMP JUMPDEST PUSH1 0x2 PUSH0 DUP4 DUP2 MSTORE PUSH1 0x20 ADD SWAP1 DUP2 MSTORE PUSH1 0x20 ADD PUSH0 KECCAK256 PUSH0 CALLER PUSH20 0xFFFFFFFFFFFFFFFFFFFFFFFFFFFFFFFFFFFFFFFF AND PUSH20 0xFFFFFFFFFFFFFFFFFFFFFFFFFFFFFFFFFFFFFFFF AND DUP2 MSTORE PUSH1 0x20 ADD SWAP1 DUP2 MSTORE PUSH1 0x20 ADD PUSH0 KECCAK256 PUSH0 SWAP1 SLOAD SWAP1 PUSH2 0x100 EXP SWAP1 DIV PUSH1 0xFF AND ISZERO PUSH2 0x250 JUMPI PUSH1 0x40 MLOAD PUSH32 0x8C379A000000000000000000000000000000000000000000000000000000000 DUP2 MSTORE PUSH1 0x4 ADD PUSH2 0x247 SWAP1 PUSH2 0x59C JUMP JUMPDEST PUSH1 0x40 MLOAD DUP1 SWAP2 SUB SWAP1 REVERT JUMPDEST DUP1 ISZERO PUSH2 0x280 JUMPI PUSH0 DUP1 DUP4 DUP2 MSTORE PUSH1 0x20 ADD SWAP1 DUP2 MSTORE PUSH1 0x20 ADD PUSH0 KECCAK256 PUSH0 DUP2 SLOAD DUP1 SWAP3 SWAP2 SWAP1 PUSH2 0x276 SWAP1 PUSH2 0x5E7 JUMP JUMPDEST SWAP2 SWAP1 POP SSTORE POP PUSH2 0x2A7 JUMP JUMPDEST PUSH1 0x1 PUSH0 DUP4 DUP2 MSTORE PUSH1 0x20 ADD SWAP1 DUP2 MSTORE PUSH1 0x20 ADD PUSH0 KECCAK256 PUSH0 DUP2 SLOAD DUP1 SWAP3 SWAP2 SWAP1 PUSH2 0x2A1 SWAP1 PUSH2 0x5E7 JUMP JUMPDEST SWAP2 SWAP1 POP SSTORE POP JUMPDEST PUSH1 0x1 PUSH1 0x2 PUSH0 DUP5 DUP2 MSTORE PUSH1 0x20 ADD SWAP1 DUP2 MSTORE PUSH1 0x20 ADD PUSH0 KECCAK256 PUSH0 CALLER PUSH20 0xFFFFFFFFFFFFFFFFFFFFFFFFFFFFFFFFFFFFFFFF AND PUSH20 0xFFFFFFFFFFFFFFFFFFFFFFFFFFFFFFFFFFFFFFFF AND DUP2 MSTORE PUSH1 0x20 ADD SWAP1 DUP2 MSTORE PUSH1 0x20 ADD PUSH0 KECCAK256 PUSH0 PUSH2 0x100 EXP DUP2 SLOAD DUP2 PUSH1 0xFF MUL NOT AND SWAP1 DUP4 ISZERO ISZERO MUL OR SWAP1 SSTORE POP CALLER PUSH20 0xFFFFFFFFFFFFFFFFFFFFFFFFFFFFFFFFFFFFFFFF AND DUP3 PUSH32 0xF2913DBE661EE2ACC4A046D8FBCDC792373BDA34C41C6086484B5345E5785E5F DUP4 PUSH1 0x40 MLOAD PUSH2 0x352 SWAP2 SWAP1 PUSH2 0x49A JUMP JUMPDEST PUSH1 0x40 MLOAD DUP1 SWAP2 SUB SWAP1 LOG3 POP POP JUMP JUMPDEST PUSH0 DUP1 REVERT JUMPDEST PUSH0 DUP2 SWAP1 POP SWAP2 SWAP1 POP JUMP JUMPDEST PUSH2 0x374 DUP2 PUSH2 0x362 JUMP JUMPDEST DUP2 EQ PUSH2 0x37E JUMPI PUSH0 DUP1 REVERT JUMPDEST POP JUMP JUMPDEST PUSH0 DUP2 CALLDATALOAD SWAP1 POP PUSH2 0x38F DUP2 PUSH2 0x36B JUMP JUMPDEST SWAP3 SWAP2 POP POP JUMP JUMPDEST PUSH0 PUSH1 0x20 DUP3 DUP5 SUB SLT ISZERO PUSH2 0x3AA JUMPI PUSH2 0x3A9 PUSH2 0x35E JUMP JUMPDEST JUMPDEST PUSH0 PUSH2 0x3B7 DUP5 DUP3 DUP6 ADD PUSH2 0x381 JUMP JUMPDEST SWAP2 POP POP SWAP3 SWAP2 POP POP JUMP JUMPDEST PUSH2 0x3C9 DUP2 PUSH2 0x362 JUMP JUMPDEST DUP3 MSTORE POP POP JUMP JUMPDEST PUSH0 PUSH1 0x20 DUP3 ADD SWAP1 POP PUSH2 0x3E2 PUSH0 DUP4 ADD DUP5 PUSH2 0x3C0 JUMP JUMPDEST SWAP3 SWAP2 POP POP JUMP JUMPDEST PUSH0 PUSH20 0xFFFFFFFFFFFFFFFFFFFFFFFFFFFFFFFFFFFFFFFF DUP3 AND SWAP1 POP SWAP2 SWAP1 POP JUMP JUMPDEST PUSH0 PUSH2 0x411 DUP3 PUSH2 0x3E8 JUMP JUMPDEST SWAP1 POP SWAP2 SWAP1 POP JUMP JUMPDEST PUSH2 0x421 DUP2 PUSH2 0x407 JUMP JUMPDEST DUP2 EQ PUSH2 0x42B JUMPI PUSH0 DUP1 REVERT JUMPDEST POP JUMP JUMPDEST PUSH0 DUP2 CALLDATALOAD SWAP1 POP PUSH2 0x43C DUP2 PUSH2 0x418 JUMP JUMPDEST SWAP3 SWAP2 POP POP JUMP JUMPDEST PUSH0 DUP1 PUSH1 0x40 DUP4 DUP6 SUB SLT ISZERO PUSH2 0x458 JUMPI PUSH2 0x457 PUSH2 0x35E JUMP JUMPDEST JUMPDEST PUSH0 PUSH2 0x465 DUP6 DUP3 DUP7 ADD PUSH2 0x381 JUMP JUMPDEST SWAP3 POP POP PUSH1 0x20 PUSH2 0x476 DUP6 DUP3 DUP7 ADD PUSH2 0x42E JUMP JUMPDEST SWAP2 POP POP SWAP3 POP SWAP3 SWAP1 POP JUMP JUMPDEST PUSH0 DUP2 ISZERO ISZERO SWAP1 POP SWAP2 SWAP1 POP JUMP JUMPDEST PUSH2 0x494 DUP2 PUSH2 0x480 JUMP JUMPDEST DUP3 MSTORE POP POP JUMP JUMPDEST PUSH0 PUSH1 0x20 DUP3 ADD SWAP1 POP PUSH2 0x4AD PUSH0 DUP4 ADD DUP5 PUSH2 0x48B JUMP JUMPDEST SWAP3 SWAP2 POP POP JUMP JUMPDEST PUSH0 PUSH1 0x40 DUP3 ADD SWAP1 POP PUSH2 0x4C6 PUSH0 DUP4 ADD DUP6 PUSH2 0x3C0 JUMP JUMPDEST PUSH2 0x4D3 PUSH1 0x20 DUP4 ADD DUP5 PUSH2 0x3C0 JUMP JUMPDEST SWAP4 SWAP3 POP POP POP JUMP JUMPDEST PUSH2 0x4E3 DUP2 PUSH2 0x480 JUMP JUMPDEST DUP2 EQ PUSH2 0x4ED JUMPI PUSH0 DUP1 REVERT JUMPDEST POP JUMP JUMPDEST PUSH0 DUP2 CALLDATALOAD SWAP1 POP PUSH2 0x4FE DUP2 PUSH2 0x4DA JUMP JUMPDEST SWAP3 SWAP2 POP POP JUMP JUMPDEST PUSH0 DUP1 PUSH1 0x40 DUP4 DUP6 SUB SLT ISZERO PUSH2 0x51A JUMPI PUSH2 0x519 PUSH2 0x35E JUMP JUMPDEST JUMPDEST PUSH0 PUSH2 0x527 DUP6 DUP3 DUP7 ADD PUSH2 0x381 JUMP JUMPDEST SWAP3 POP POP PUSH1 0x20 PUSH2 0x538 DUP6 DUP3 DUP7 ADD PUSH2 0x4F0 JUMP JUMPDEST SWAP2 POP POP SWAP3 POP SWAP3 SWAP1 POP JUMP JUMPDEST PUSH0 DUP3 DUP3 MSTORE PUSH1 0x20 DUP3 ADD SWAP1 POP SWAP3 SWAP2 POP POP JUMP JUMPDEST PUSH32 0x416C726561647920766F74656400000000000000000000000000000000000000 PUSH0 DUP3 ADD MSTORE POP JUMP JUMPDEST PUSH0 PUSH2 0x586 PUSH1 0xD DUP4 PUSH2 0x542 JUMP JUMPDEST SWAP2 POP PUSH2 0x591 DUP3 PUSH2 0x552 JUMP JUMPDEST PUSH1 0x20 DUP3 ADD SWAP1 POP SWAP2 SWAP1 POP JUMP JUMPDEST PUSH0 PUSH1 0x20 DUP3 ADD SWAP1 POP DUP2 DUP2 SUB PUSH0 DUP4 ADD MSTORE PUSH2 0x5B3 DUP2 PUSH2 0x57A JUMP JUMPDEST SWAP1 POP SWAP2 SWAP1 POP JUMP JUMPDEST PUSH32 0x4E487B7100000000000000000000000000000000000000000000000000000000 PUSH0 MSTORE PUSH1 0x11 PUSH1 0x4 MSTORE PUSH1 0x24 PUSH0 REVERT JUMPDEST PUSH0 PUSH2 0x5F1 DUP3 PUSH2 0x362 JUMP JUMPDEST SWAP2 POP PUSH32 0xFFFFFFFFFFFFFFFFFFFFFFFFFFFFFFFFFFFFFFFFFFFFFFFFFFFFFFFFFFFFFFFF DUP3 SUB PUSH2 0x623 JUMPI PUSH2 0x622 PUSH2 0x5BA JUMP JUMPDEST JUMPDEST PUSH1 0x1 DUP3 ADD SWAP1 POP SWAP2 SWAP1 POP JUMP INVALID LOG2 PUSH5 0x6970667358 0x22 SLT KECCAK256 0x4B 0xCD 0xDF 0xEB 0x4B SUB SDIV DUP14 MUL 0xDD EXTCODESIZE EXP SWAP14 DUP3 EXTCODEHASH 0xAF 0xAD DUP9 DUP8 0xD6 0xBD 0xEE PUSH32 0x3EE6BF97873DB40DAD64736F6C634300081A0033000000000000000000000000 "
				},
				"gasEstimates": {
					"creation": {
						"codeDepositCost": "327200",
						"executionCost": "366",
						"totalCost": "327566"
					},
					"external": {
						"getVoteCount(uint256)": "infinite",
						"hasVoted(uint256,address)": "3071",
						"vote(uint256,bool)": "infinite",
						"votesAgainst(uint256)": "infinite",
						"votesFor(uint256)": "infinite"
					}
				},
				"methodIdentifiers": {
					"getVoteCount(uint256)": "b2c2f2e8",
					"hasVoted(uint256,address)": "43859632",
					"vote(uint256,bool)": "c9d27afe",
					"votesAgainst(uint256)": "23b4a998",
					"votesFor(uint256)": "b7f3b597"
				}
			},
			"storageLayout": {
				"storage": [
					{
						"astId": 10,
						"contract": "contracts/Votingcontract.sol:VotingContract",
						"label": "votesFor",
						"offset": 0,
						"slot": "0",
						"type": "t_mapping(t_uint256,t_uint256)"
					},
					{
						"astId": 14,
						"contract": "contracts/Votingcontract.sol:VotingContract",
						"label": "votesAgainst",
						"offset": 0,
						"slot": "1",
						"type": "t_mapping(t_uint256,t_uint256)"
					},
					{
						"astId": 20,
						"contract": "contracts/Votingcontract.sol:VotingContract",
						"label": "hasVoted",
						"offset": 0,
						"slot": "2",
						"type": "t_mapping(t_uint256,t_mapping(t_address,t_bool))"
					}
				],
				"types": {
					"t_address": {
						"encoding": "inplace",
						"label": "address",
						"numberOfBytes": "20"
					},
					"t_bool": {
						"encoding": "inplace",
						"label": "bool",
						"numberOfBytes": "1"
					},
					"t_mapping(t_address,t_bool)": {
						"encoding": "mapping",
						"key": "t_address",
						"label": "mapping(address => bool)",
						"numberOfBytes": "32",
						"value": "t_bool"
					},
					"t_mapping(t_uint256,t_mapping(t_address,t_bool))": {
						"encoding": "mapping",
						"key": "t_uint256",
						"label": "mapping(uint256 => mapping(address => bool))",
						"numberOfBytes": "32",
						"value": "t_mapping(t_address,t_bool)"
					},
					"t_mapping(t_uint256,t_uint256)": {
						"encoding": "mapping",
						"key": "t_uint256",
						"label": "mapping(uint256 => uint256)",
						"numberOfBytes": "32",
						"value": "t_uint256"
					},
					"t_uint256": {
						"encoding": "inplace",
						"label": "uint256",
						"numberOfBytes": "32"
					}
				}
			},
			"userdoc": {
				"kind": "user",
				"methods": {},
				"version": 1
			}
		}
	}
}