{
	"contracts/GovernanceandMembership.sol": {
		"RealEstateDAO": {
			"abi": [
				{
					"inputs": [],
					"stateMutability": "nonpayable",
					"type": "constructor"
				},
				{
					"inputs": [
						{
							"internalType": "address",
							"name": "_member",
							"type": "address"
						}
					],
					"name": "addMember",
					"outputs": [],
					"stateMutability": "nonpayable",
					"type": "function"
				},
				{
					"inputs": [],
					"name": "admin",
					"outputs": [
						{
							"internalType": "address",
							"name": "",
							"type": "address"
						}
					],
					"stateMutability": "view",
					"type": "function"
				},
				{
					"inputs": [
						{
							"internalType": "address",
							"name": "",
							"type": "address"
						}
					],
					"name": "members",
					"outputs": [
						{
							"internalType": "bool",
							"name": "",
							"type": "bool"
						}
					],
					"stateMutability": "view",
					"type": "function"
				},
				{
					"inputs": [
						{
							"internalType": "address",
							"name": "_member",
							"type": "address"
						}
					],
					"name": "removeMember",
					"outputs": [],
					"stateMutability": "nonpayable",
					"type": "function"
				},
				{
					"inputs": [],
					"name": "totalMembers",
					"outputs": [
						{
							"internalType": "uint256",
							"name": "",
							"type": "uint256"
						}
					],
					"stateMutability": "view",
					"type": "function"
				}
			],
			"devdoc": {
				"kind": "dev",
				"methods": {},
				"version": 1
			},
			"evm": {
				"assembly": "    /* \"contracts/GovernanceandMembership.sol\":60:987  contract RealEstateDAO {... */\n  mstore(0x40, 0x80)\n    /* \"contracts/GovernanceandMembership.sol\":203:318  constructor() {... */\n  callvalue\n  dup1\n  iszero\n  tag_1\n  jumpi\n  0x00\n  dup1\n  revert\ntag_1:\n  pop\n    /* \"contracts/GovernanceandMembership.sol\":236:246  msg.sender */\n  caller\n    /* \"contracts/GovernanceandMembership.sol\":228:233  admin */\n  0x00\n  dup1\n    /* \"contracts/GovernanceandMembership.sol\":228:246  admin = msg.sender */\n  0x0100\n  exp\n  dup2\n  sload\n  dup2\n  0xffffffffffffffffffffffffffffffffffffffff\n  mul\n  not\n  and\n  swap1\n  dup4\n  0xffffffffffffffffffffffffffffffffffffffff\n  and\n  mul\n  or\n  swap1\n  sstore\n  pop\n    /* \"contracts/GovernanceandMembership.sol\":279:283  true */\n  0x01\n    /* \"contracts/GovernanceandMembership.sol\":257:264  members */\n  0x02\n    /* \"contracts/GovernanceandMembership.sol\":257:276  members[msg.sender] */\n  0x00\n    /* \"contracts/GovernanceandMembership.sol\":265:275  msg.sender */\n  caller\n    /* \"contracts/GovernanceandMembership.sol\":257:276  members[msg.sender] */\n  0xffffffffffffffffffffffffffffffffffffffff\n  and\n  0xffffffffffffffffffffffffffffffffffffffff\n  and\n  dup2\n  mstore\n  0x20\n  add\n  swap1\n  dup2\n  mstore\n  0x20\n  add\n  0x00\n  keccak256\n  0x00\n    /* \"contracts/GovernanceandMembership.sol\":257:283  members[msg.sender] = true */\n  0x0100\n  exp\n  dup2\n  sload\n  dup2\n  0xff\n  mul\n  not\n  and\n  swap1\n  dup4\n  iszero\n  iszero\n  mul\n  or\n  swap1\n  sstore\n  pop\n    /* \"contracts/GovernanceandMembership.sol\":309:310  1 */\n  0x01\n    /* \"contracts/GovernanceandMembership.sol\":294:306  totalMembers */\n  dup1\n    /* \"contracts/GovernanceandMembership.sol\":294:310  totalMembers = 1 */\n  dup2\n  swap1\n  sstore\n  pop\n    /* \"contracts/GovernanceandMembership.sol\":60:987  contract RealEstateDAO {... */\n  dataSize(sub_0)\n  dup1\n  dataOffset(sub_0)\n  0x00\n  codecopy\n  0x00\n  return\nstop\n\nsub_0: assembly {\n        /* \"contracts/GovernanceandMembership.sol\":60:987  contract RealEstateDAO {... */\n      mstore(0x40, 0x80)\n      callvalue\n      dup1\n      iszero\n      tag_1\n      jumpi\n      0x00\n      dup1\n      revert\n    tag_1:\n      pop\n      jumpi(tag_2, lt(calldatasize, 0x04))\n      shr(0xe0, calldataload(0x00))\n      dup1\n      0x08ae4b0c\n      eq\n      tag_3\n      jumpi\n      dup1\n      0x0b1ca49a\n      eq\n      tag_4\n      jumpi\n      dup1\n      0x76e92559\n      eq\n      tag_5\n      jumpi\n      dup1\n      0xca6d56dc\n      eq\n      tag_6\n      jumpi\n      dup1\n      0xf851a440\n      eq\n      tag_7\n      jumpi\n    tag_2:\n      0x00\n      dup1\n      revert\n        /* \"contracts/GovernanceandMembership.sol\":151:190  mapping(address => bool) public members */\n    tag_3:\n      tag_8\n      0x04\n      dup1\n      calldatasize\n      sub\n      dup2\n      add\n      swap1\n      tag_9\n      swap2\n      swap1\n      tag_10\n      jump\t// in\n    tag_9:\n      tag_11\n      jump\t// in\n    tag_8:\n      mload(0x40)\n      tag_12\n      swap2\n      swap1\n      tag_13\n      jump\t// in\n    tag_12:\n      mload(0x40)\n      dup1\n      swap2\n      sub\n      swap1\n      return\n        /* \"contracts/GovernanceandMembership.sol\":656:902  function removeMember(address _member) external onlyAdmin {... */\n    tag_4:\n      tag_14\n      0x04\n      dup1\n      calldatasize\n      sub\n      dup2\n      add\n      swap1\n      tag_15\n      swap2\n      swap1\n      tag_10\n      jump\t// in\n    tag_15:\n      tag_16\n      jump\t// in\n    tag_14:\n      stop\n        /* \"contracts/GovernanceandMembership.sol\":117:144  uint256 public totalMembers */\n    tag_5:\n      tag_17\n      tag_18\n      jump\t// in\n    tag_17:\n      mload(0x40)\n      tag_19\n      swap2\n      swap1\n      tag_20\n      jump\t// in\n    tag_19:\n      mload(0x40)\n      dup1\n      swap2\n      sub\n      swap1\n      return\n        /* \"contracts/GovernanceandMembership.sol\":460:644  function addMember(address _member) external onlyAdmin {... */\n    tag_6:\n      tag_21\n      0x04\n      dup1\n      calldatasize\n      sub\n      dup2\n      add\n      swap1\n      tag_22\n      swap2\n      swap1\n      tag_10\n      jump\t// in\n    tag_22:\n      tag_23\n      jump\t// in\n    tag_21:\n      stop\n        /* \"contracts/GovernanceandMembership.sol\":90:110  address public admin */\n    tag_7:\n      tag_24\n      tag_25\n      jump\t// in\n    tag_24:\n      mload(0x40)\n      tag_26\n      swap2\n      swap1\n      tag_27\n      jump\t// in\n    tag_26:\n      mload(0x40)\n      dup1\n      swap2\n      sub\n      swap1\n      return\n        /* \"contracts/GovernanceandMembership.sol\":151:190  mapping(address => bool) public members */\n    tag_11:\n      mstore(0x20, 0x02)\n      dup1\n      0x00\n      mstore\n      keccak256(0x00, 0x40)\n      0x00\n      swap2\n      pop\n      sload\n      swap1\n      0x0100\n      exp\n      swap1\n      div\n      0xff\n      and\n      dup2\n      jump\t// out\n        /* \"contracts/GovernanceandMembership.sol\":656:902  function removeMember(address _member) external onlyAdmin {... */\n    tag_16:\n        /* \"contracts/GovernanceandMembership.sol\":384:389  admin */\n      0x00\n      dup1\n      sload\n      swap1\n      0x0100\n      exp\n      swap1\n      div\n      0xffffffffffffffffffffffffffffffffffffffff\n      and\n        /* \"contracts/GovernanceandMembership.sol\":370:389  msg.sender == admin */\n      0xffffffffffffffffffffffffffffffffffffffff\n      and\n        /* \"contracts/GovernanceandMembership.sol\":370:380  msg.sender */\n      caller\n        /* \"contracts/GovernanceandMembership.sol\":370:389  msg.sender == admin */\n      0xffffffffffffffffffffffffffffffffffffffff\n      and\n      eq\n        /* \"contracts/GovernanceandMembership.sol\":362:428  require(msg.sender == admin, \"Only admin can perform this action\") */\n      tag_29\n      jumpi\n      mload(0x40)\n      0x08c379a000000000000000000000000000000000000000000000000000000000\n      dup2\n      mstore\n      0x04\n      add\n      tag_30\n      swap1\n      tag_31\n      jump\t// in\n    tag_30:\n      mload(0x40)\n      dup1\n      swap2\n      sub\n      swap1\n      revert\n    tag_29:\n        /* \"contracts/GovernanceandMembership.sol\":733:740  members */\n      0x02\n        /* \"contracts/GovernanceandMembership.sol\":733:749  members[_member] */\n      0x00\n        /* \"contracts/GovernanceandMembership.sol\":741:748  _member */\n      dup3\n        /* \"contracts/GovernanceandMembership.sol\":733:749  members[_member] */\n      0xffffffffffffffffffffffffffffffffffffffff\n      and\n      0xffffffffffffffffffffffffffffffffffffffff\n      and\n      dup2\n      mstore\n      0x20\n      add\n      swap1\n      dup2\n      mstore\n      0x20\n      add\n      0x00\n      keccak256\n      0x00\n      swap1\n      sload\n      swap1\n      0x0100\n      exp\n      swap1\n      div\n      0xff\n      and\n        /* \"contracts/GovernanceandMembership.sol\":725:775  require(members[_member], \"Member does not exist\") */\n      tag_33\n      jumpi\n      mload(0x40)\n      0x08c379a000000000000000000000000000000000000000000000000000000000\n      dup2\n      mstore\n      0x04\n      add\n      tag_34\n      swap1\n      tag_35\n      jump\t// in\n    tag_34:\n      mload(0x40)\n      dup1\n      swap2\n      sub\n      swap1\n      revert\n    tag_33:\n        /* \"contracts/GovernanceandMembership.sol\":805:810  admin */\n      0x00\n      dup1\n      sload\n      swap1\n      0x0100\n      exp\n      swap1\n      div\n      0xffffffffffffffffffffffffffffffffffffffff\n      and\n        /* \"contracts/GovernanceandMembership.sol\":794:810  _member != admin */\n      0xffffffffffffffffffffffffffffffffffffffff\n      and\n        /* \"contracts/GovernanceandMembership.sol\":794:801  _member */\n      dup2\n        /* \"contracts/GovernanceandMembership.sol\":794:810  _member != admin */\n      0xffffffffffffffffffffffffffffffffffffffff\n      and\n      sub\n        /* \"contracts/GovernanceandMembership.sol\":786:834  require(_member != admin, \"Cannot remove admin\") */\n      tag_36\n      jumpi\n      mload(0x40)\n      0x08c379a000000000000000000000000000000000000000000000000000000000\n      dup2\n      mstore\n      0x04\n      add\n      tag_37\n      swap1\n      tag_38\n      jump\t// in\n    tag_37:\n      mload(0x40)\n      dup1\n      swap2\n      sub\n      swap1\n      revert\n    tag_36:\n        /* \"contracts/GovernanceandMembership.sol\":864:869  false */\n      0x00\n        /* \"contracts/GovernanceandMembership.sol\":845:852  members */\n      0x02\n        /* \"contracts/GovernanceandMembership.sol\":845:861  members[_member] */\n      0x00\n        /* \"contracts/GovernanceandMembership.sol\":853:860  _member */\n      dup4\n        /* \"contracts/GovernanceandMembership.sol\":845:861  members[_member] */\n      0xffffffffffffffffffffffffffffffffffffffff\n      and\n      0xffffffffffffffffffffffffffffffffffffffff\n      and\n      dup2\n      mstore\n      0x20\n      add\n      swap1\n      dup2\n      mstore\n      0x20\n      add\n      0x00\n      keccak256\n      0x00\n        /* \"contracts/GovernanceandMembership.sol\":845:869  members[_member] = false */\n      0x0100\n      exp\n      dup2\n      sload\n      dup2\n      0xff\n      mul\n      not\n      and\n      swap1\n      dup4\n      iszero\n      iszero\n      mul\n      or\n      swap1\n      sstore\n      pop\n        /* \"contracts/GovernanceandMembership.sol\":880:892  totalMembers */\n      0x01\n      0x00\n        /* \"contracts/GovernanceandMembership.sol\":880:894  totalMembers-- */\n      dup2\n      sload\n      dup1\n      swap3\n      swap2\n      swap1\n      tag_39\n      swap1\n      tag_40\n      jump\t// in\n    tag_39:\n      swap2\n      swap1\n      pop\n      sstore\n      pop\n        /* \"contracts/GovernanceandMembership.sol\":656:902  function removeMember(address _member) external onlyAdmin {... */\n      pop\n      jump\t// out\n        /* \"contracts/GovernanceandMembership.sol\":117:144  uint256 public totalMembers */\n    tag_18:\n      sload(0x01)\n      dup2\n      jump\t// out\n        /* \"contracts/GovernanceandMembership.sol\":460:644  function addMember(address _member) external onlyAdmin {... */\n    tag_23:\n        /* \"contracts/GovernanceandMembership.sol\":384:389  admin */\n      0x00\n      dup1\n      sload\n      swap1\n      0x0100\n      exp\n      swap1\n      div\n      0xffffffffffffffffffffffffffffffffffffffff\n      and\n        /* \"contracts/GovernanceandMembership.sol\":370:389  msg.sender == admin */\n      0xffffffffffffffffffffffffffffffffffffffff\n      and\n        /* \"contracts/GovernanceandMembership.sol\":370:380  msg.sender */\n      caller\n        /* \"contracts/GovernanceandMembership.sol\":370:389  msg.sender == admin */\n      0xffffffffffffffffffffffffffffffffffffffff\n      and\n      eq\n        /* \"contracts/GovernanceandMembership.sol\":362:428  require(msg.sender == admin, \"Only admin can perform this action\") */\n      tag_42\n      jumpi\n      mload(0x40)\n      0x08c379a000000000000000000000000000000000000000000000000000000000\n      dup2\n      mstore\n      0x04\n      add\n      tag_43\n      swap1\n      tag_31\n      jump\t// in\n    tag_43:\n      mload(0x40)\n      dup1\n      swap2\n      sub\n      swap1\n      revert\n    tag_42:\n        /* \"contracts/GovernanceandMembership.sol\":535:542  members */\n      0x02\n        /* \"contracts/GovernanceandMembership.sol\":535:551  members[_member] */\n      0x00\n        /* \"contracts/GovernanceandMembership.sol\":543:550  _member */\n      dup3\n        /* \"contracts/GovernanceandMembership.sol\":535:551  members[_member] */\n      0xffffffffffffffffffffffffffffffffffffffff\n      and\n      0xffffffffffffffffffffffffffffffffffffffff\n      and\n      dup2\n      mstore\n      0x20\n      add\n      swap1\n      dup2\n      mstore\n      0x20\n      add\n      0x00\n      keccak256\n      0x00\n      swap1\n      sload\n      swap1\n      0x0100\n      exp\n      swap1\n      div\n      0xff\n      and\n        /* \"contracts/GovernanceandMembership.sol\":534:551  !members[_member] */\n      iszero\n        /* \"contracts/GovernanceandMembership.sol\":526:577  require(!members[_member], \"Member already exists\") */\n      tag_45\n      jumpi\n      mload(0x40)\n      0x08c379a000000000000000000000000000000000000000000000000000000000\n      dup2\n      mstore\n      0x04\n      add\n      tag_46\n      swap1\n      tag_47\n      jump\t// in\n    tag_46:\n      mload(0x40)\n      dup1\n      swap2\n      sub\n      swap1\n      revert\n    tag_45:\n        /* \"contracts/GovernanceandMembership.sol\":607:611  true */\n      0x01\n        /* \"contracts/GovernanceandMembership.sol\":588:595  members */\n      0x02\n        /* \"contracts/GovernanceandMembership.sol\":588:604  members[_member] */\n      0x00\n        /* \"contracts/GovernanceandMembership.sol\":596:603  _member */\n      dup4\n        /* \"contracts/GovernanceandMembership.sol\":588:604  members[_member] */\n      0xffffffffffffffffffffffffffffffffffffffff\n      and\n      0xffffffffffffffffffffffffffffffffffffffff\n      and\n      dup2\n      mstore\n      0x20\n      add\n      swap1\n      dup2\n      mstore\n      0x20\n      add\n      0x00\n      keccak256\n      0x00\n        /* \"contracts/GovernanceandMembership.sol\":588:611  members[_member] = true */\n      0x0100\n      exp\n      dup2\n      sload\n      dup2\n      0xff\n      mul\n      not\n      and\n      swap1\n      dup4\n      iszero\n      iszero\n      mul\n      or\n      swap1\n      sstore\n      pop\n        /* \"contracts/GovernanceandMembership.sol\":622:634  totalMembers */\n      0x01\n      0x00\n        /* \"contracts/GovernanceandMembership.sol\":622:636  totalMembers++ */\n      dup2\n      sload\n      dup1\n      swap3\n      swap2\n      swap1\n      tag_48\n      swap1\n      tag_49\n      jump\t// in\n    tag_48:\n      swap2\n      swap1\n      pop\n      sstore\n      pop\n        /* \"contracts/GovernanceandMembership.sol\":460:644  function addMember(address _member) external onlyAdmin {... */\n      pop\n      jump\t// out\n        /* \"contracts/GovernanceandMembership.sol\":90:110  address public admin */\n    tag_25:\n      0x00\n      dup1\n      sload\n      swap1\n      0x0100\n      exp\n      swap1\n      div\n      0xffffffffffffffffffffffffffffffffffffffff\n      and\n      dup2\n      jump\t// out\n        /* \"#utility.yul\":88:205   */\n    tag_51:\n        /* \"#utility.yul\":197:198   */\n      0x00\n        /* \"#utility.yul\":194:195   */\n      dup1\n        /* \"#utility.yul\":187:199   */\n      revert\n        /* \"#utility.yul\":334:460   */\n    tag_53:\n        /* \"#utility.yul\":371:378   */\n      0x00\n        /* \"#utility.yul\":411:453   */\n      0xffffffffffffffffffffffffffffffffffffffff\n        /* \"#utility.yul\":404:409   */\n      dup3\n        /* \"#utility.yul\":400:454   */\n      and\n        /* \"#utility.yul\":389:454   */\n      swap1\n      pop\n        /* \"#utility.yul\":334:460   */\n      swap2\n      swap1\n      pop\n      jump\t// out\n        /* \"#utility.yul\":466:562   */\n    tag_54:\n        /* \"#utility.yul\":503:510   */\n      0x00\n        /* \"#utility.yul\":532:556   */\n      tag_78\n        /* \"#utility.yul\":550:555   */\n      dup3\n        /* \"#utility.yul\":532:556   */\n      tag_53\n      jump\t// in\n    tag_78:\n        /* \"#utility.yul\":521:556   */\n      swap1\n      pop\n        /* \"#utility.yul\":466:562   */\n      swap2\n      swap1\n      pop\n      jump\t// out\n        /* \"#utility.yul\":568:690   */\n    tag_55:\n        /* \"#utility.yul\":641:665   */\n      tag_80\n        /* \"#utility.yul\":659:664   */\n      dup2\n        /* \"#utility.yul\":641:665   */\n      tag_54\n      jump\t// in\n    tag_80:\n        /* \"#utility.yul\":634:639   */\n      dup2\n        /* \"#utility.yul\":631:666   */\n      eq\n        /* \"#utility.yul\":621:684   */\n      tag_81\n      jumpi\n        /* \"#utility.yul\":680:681   */\n      0x00\n        /* \"#utility.yul\":677:678   */\n      dup1\n        /* \"#utility.yul\":670:682   */\n      revert\n        /* \"#utility.yul\":621:684   */\n    tag_81:\n        /* \"#utility.yul\":568:690   */\n      pop\n      jump\t// out\n        /* \"#utility.yul\":696:835   */\n    tag_56:\n        /* \"#utility.yul\":742:747   */\n      0x00\n        /* \"#utility.yul\":780:786   */\n      dup2\n        /* \"#utility.yul\":767:787   */\n      calldataload\n        /* \"#utility.yul\":758:787   */\n      swap1\n      pop\n        /* \"#utility.yul\":796:829   */\n      tag_83\n        /* \"#utility.yul\":823:828   */\n      dup2\n        /* \"#utility.yul\":796:829   */\n      tag_55\n      jump\t// in\n    tag_83:\n        /* \"#utility.yul\":696:835   */\n      swap3\n      swap2\n      pop\n      pop\n      jump\t// out\n        /* \"#utility.yul\":841:1170   */\n    tag_10:\n        /* \"#utility.yul\":900:906   */\n      0x00\n        /* \"#utility.yul\":949:951   */\n      0x20\n        /* \"#utility.yul\":937:946   */\n      dup3\n        /* \"#utility.yul\":928:935   */\n      dup5\n        /* \"#utility.yul\":924:947   */\n      sub\n        /* \"#utility.yul\":920:952   */\n      slt\n        /* \"#utility.yul\":917:1036   */\n      iszero\n      tag_85\n      jumpi\n        /* \"#utility.yul\":955:1034   */\n      tag_86\n      tag_51\n      jump\t// in\n    tag_86:\n        /* \"#utility.yul\":917:1036   */\n    tag_85:\n        /* \"#utility.yul\":1075:1076   */\n      0x00\n        /* \"#utility.yul\":1100:1153   */\n      tag_87\n        /* \"#utility.yul\":1145:1152   */\n      dup5\n        /* \"#utility.yul\":1136:1142   */\n      dup3\n        /* \"#utility.yul\":1125:1134   */\n      dup6\n        /* \"#utility.yul\":1121:1143   */\n      add\n        /* \"#utility.yul\":1100:1153   */\n      tag_56\n      jump\t// in\n    tag_87:\n        /* \"#utility.yul\":1090:1153   */\n      swap2\n      pop\n        /* \"#utility.yul\":1046:1163   */\n      pop\n        /* \"#utility.yul\":841:1170   */\n      swap3\n      swap2\n      pop\n      pop\n      jump\t// out\n        /* \"#utility.yul\":1176:1266   */\n    tag_57:\n        /* \"#utility.yul\":1210:1217   */\n      0x00\n        /* \"#utility.yul\":1253:1258   */\n      dup2\n        /* \"#utility.yul\":1246:1259   */\n      iszero\n        /* \"#utility.yul\":1239:1260   */\n      iszero\n        /* \"#utility.yul\":1228:1260   */\n      swap1\n      pop\n        /* \"#utility.yul\":1176:1266   */\n      swap2\n      swap1\n      pop\n      jump\t// out\n        /* \"#utility.yul\":1272:1381   */\n    tag_58:\n        /* \"#utility.yul\":1353:1374   */\n      tag_90\n        /* \"#utility.yul\":1368:1373   */\n      dup2\n        /* \"#utility.yul\":1353:1374   */\n      tag_57\n      jump\t// in\n    tag_90:\n        /* \"#utility.yul\":1348:1351   */\n      dup3\n        /* \"#utility.yul\":1341:1375   */\n      mstore\n        /* \"#utility.yul\":1272:1381   */\n      pop\n      pop\n      jump\t// out\n        /* \"#utility.yul\":1387:1597   */\n    tag_13:\n        /* \"#utility.yul\":1474:1478   */\n      0x00\n        /* \"#utility.yul\":1512:1514   */\n      0x20\n        /* \"#utility.yul\":1501:1510   */\n      dup3\n        /* \"#utility.yul\":1497:1515   */\n      add\n        /* \"#utility.yul\":1489:1515   */\n      swap1\n      pop\n        /* \"#utility.yul\":1525:1590   */\n      tag_92\n        /* \"#utility.yul\":1587:1588   */\n      0x00\n        /* \"#utility.yul\":1576:1585   */\n      dup4\n        /* \"#utility.yul\":1572:1589   */\n      add\n        /* \"#utility.yul\":1563:1569   */\n      dup5\n        /* \"#utility.yul\":1525:1590   */\n      tag_58\n      jump\t// in\n    tag_92:\n        /* \"#utility.yul\":1387:1597   */\n      swap3\n      swap2\n      pop\n      pop\n      jump\t// out\n        /* \"#utility.yul\":1603:1680   */\n    tag_59:\n        /* \"#utility.yul\":1640:1647   */\n      0x00\n        /* \"#utility.yul\":1669:1674   */\n      dup2\n        /* \"#utility.yul\":1658:1674   */\n      swap1\n      pop\n        /* \"#utility.yul\":1603:1680   */\n      swap2\n      swap1\n      pop\n      jump\t// out\n        /* \"#utility.yul\":1686:1804   */\n    tag_60:\n        /* \"#utility.yul\":1773:1797   */\n      tag_95\n        /* \"#utility.yul\":1791:1796   */\n      dup2\n        /* \"#utility.yul\":1773:1797   */\n      tag_59\n      jump\t// in\n    tag_95:\n        /* \"#utility.yul\":1768:1771   */\n      dup3\n        /* \"#utility.yul\":1761:1798   */\n      mstore\n        /* \"#utility.yul\":1686:1804   */\n      pop\n      pop\n      jump\t// out\n        /* \"#utility.yul\":1810:2032   */\n    tag_20:\n        /* \"#utility.yul\":1903:1907   */\n      0x00\n        /* \"#utility.yul\":1941:1943   */\n      0x20\n        /* \"#utility.yul\":1930:1939   */\n      dup3\n        /* \"#utility.yul\":1926:1944   */\n      add\n        /* \"#utility.yul\":1918:1944   */\n      swap1\n      pop\n        /* \"#utility.yul\":1954:2025   */\n      tag_97\n        /* \"#utility.yul\":2022:2023   */\n      0x00\n        /* \"#utility.yul\":2011:2020   */\n      dup4\n        /* \"#utility.yul\":2007:2024   */\n      add\n        /* \"#utility.yul\":1998:2004   */\n      dup5\n        /* \"#utility.yul\":1954:2025   */\n      tag_60\n      jump\t// in\n    tag_97:\n        /* \"#utility.yul\":1810:2032   */\n      swap3\n      swap2\n      pop\n      pop\n      jump\t// out\n        /* \"#utility.yul\":2038:2156   */\n    tag_61:\n        /* \"#utility.yul\":2125:2149   */\n      tag_99\n        /* \"#utility.yul\":2143:2148   */\n      dup2\n        /* \"#utility.yul\":2125:2149   */\n      tag_54\n      jump\t// in\n    tag_99:\n        /* \"#utility.yul\":2120:2123   */\n      dup3\n        /* \"#utility.yul\":2113:2150   */\n      mstore\n        /* \"#utility.yul\":2038:2156   */\n      pop\n      pop\n      jump\t// out\n        /* \"#utility.yul\":2162:2384   */\n    tag_27:\n        /* \"#utility.yul\":2255:2259   */\n      0x00\n        /* \"#utility.yul\":2293:2295   */\n      0x20\n        /* \"#utility.yul\":2282:2291   */\n      dup3\n        /* \"#utility.yul\":2278:2296   */\n      add\n        /* \"#utility.yul\":2270:2296   */\n      swap1\n      pop\n        /* \"#utility.yul\":2306:2377   */\n      tag_101\n        /* \"#utility.yul\":2374:2375   */\n      0x00\n        /* \"#utility.yul\":2363:2372   */\n      dup4\n        /* \"#utility.yul\":2359:2376   */\n      add\n        /* \"#utility.yul\":2350:2356   */\n      dup5\n        /* \"#utility.yul\":2306:2377   */\n      tag_61\n      jump\t// in\n    tag_101:\n        /* \"#utility.yul\":2162:2384   */\n      swap3\n      swap2\n      pop\n      pop\n      jump\t// out\n        /* \"#utility.yul\":2390:2559   */\n    tag_62:\n        /* \"#utility.yul\":2474:2485   */\n      0x00\n        /* \"#utility.yul\":2508:2514   */\n      dup3\n        /* \"#utility.yul\":2503:2506   */\n      dup3\n        /* \"#utility.yul\":2496:2515   */\n      mstore\n        /* \"#utility.yul\":2548:2552   */\n      0x20\n        /* \"#utility.yul\":2543:2546   */\n      dup3\n        /* \"#utility.yul\":2539:2553   */\n      add\n        /* \"#utility.yul\":2524:2553   */\n      swap1\n      pop\n        /* \"#utility.yul\":2390:2559   */\n      swap3\n      swap2\n      pop\n      pop\n      jump\t// out\n        /* \"#utility.yul\":2565:2786   */\n    tag_63:\n        /* \"#utility.yul\":2705:2739   */\n      0x4f6e6c792061646d696e2063616e20706572666f726d20746869732061637469\n        /* \"#utility.yul\":2701:2702   */\n      0x00\n        /* \"#utility.yul\":2693:2699   */\n      dup3\n        /* \"#utility.yul\":2689:2703   */\n      add\n        /* \"#utility.yul\":2682:2740   */\n      mstore\n        /* \"#utility.yul\":2774:2778   */\n      0x6f6e000000000000000000000000000000000000000000000000000000000000\n        /* \"#utility.yul\":2769:2771   */\n      0x20\n        /* \"#utility.yul\":2761:2767   */\n      dup3\n        /* \"#utility.yul\":2757:2772   */\n      add\n        /* \"#utility.yul\":2750:2779   */\n      mstore\n        /* \"#utility.yul\":2565:2786   */\n      pop\n      jump\t// out\n        /* \"#utility.yul\":2792:3158   */\n    tag_64:\n        /* \"#utility.yul\":2934:2937   */\n      0x00\n        /* \"#utility.yul\":2955:3022   */\n      tag_105\n        /* \"#utility.yul\":3019:3021   */\n      0x22\n        /* \"#utility.yul\":3014:3017   */\n      dup4\n        /* \"#utility.yul\":2955:3022   */\n      tag_62\n      jump\t// in\n    tag_105:\n        /* \"#utility.yul\":2948:3022   */\n      swap2\n      pop\n        /* \"#utility.yul\":3031:3124   */\n      tag_106\n        /* \"#utility.yul\":3120:3123   */\n      dup3\n        /* \"#utility.yul\":3031:3124   */\n      tag_63\n      jump\t// in\n    tag_106:\n        /* \"#utility.yul\":3149:3151   */\n      0x40\n        /* \"#utility.yul\":3144:3147   */\n      dup3\n        /* \"#utility.yul\":3140:3152   */\n      add\n        /* \"#utility.yul\":3133:3152   */\n      swap1\n      pop\n        /* \"#utility.yul\":2792:3158   */\n      swap2\n      swap1\n      pop\n      jump\t// out\n        /* \"#utility.yul\":3164:3583   */\n    tag_31:\n        /* \"#utility.yul\":3330:3334   */\n      0x00\n        /* \"#utility.yul\":3368:3370   */\n      0x20\n        /* \"#utility.yul\":3357:3366   */\n      dup3\n        /* \"#utility.yul\":3353:3371   */\n      add\n        /* \"#utility.yul\":3345:3371   */\n      swap1\n      pop\n        /* \"#utility.yul\":3417:3426   */\n      dup2\n        /* \"#utility.yul\":3411:3415   */\n      dup2\n        /* \"#utility.yul\":3407:3427   */\n      sub\n        /* \"#utility.yul\":3403:3404   */\n      0x00\n        /* \"#utility.yul\":3392:3401   */\n      dup4\n        /* \"#utility.yul\":3388:3405   */\n      add\n        /* \"#utility.yul\":3381:3428   */\n      mstore\n        /* \"#utility.yul\":3445:3576   */\n      tag_108\n        /* \"#utility.yul\":3571:3575   */\n      dup2\n        /* \"#utility.yul\":3445:3576   */\n      tag_64\n      jump\t// in\n    tag_108:\n        /* \"#utility.yul\":3437:3576   */\n      swap1\n      pop\n        /* \"#utility.yul\":3164:3583   */\n      swap2\n      swap1\n      pop\n      jump\t// out\n        /* \"#utility.yul\":3589:3760   */\n    tag_65:\n        /* \"#utility.yul\":3729:3752   */\n      0x4d656d62657220646f6573206e6f742065786973740000000000000000000000\n        /* \"#utility.yul\":3725:3726   */\n      0x00\n        /* \"#utility.yul\":3717:3723   */\n      dup3\n        /* \"#utility.yul\":3713:3727   */\n      add\n        /* \"#utility.yul\":3706:3753   */\n      mstore\n        /* \"#utility.yul\":3589:3760   */\n      pop\n      jump\t// out\n        /* \"#utility.yul\":3766:4132   */\n    tag_66:\n        /* \"#utility.yul\":3908:3911   */\n      0x00\n        /* \"#utility.yul\":3929:3996   */\n      tag_111\n        /* \"#utility.yul\":3993:3995   */\n      0x15\n        /* \"#utility.yul\":3988:3991   */\n      dup4\n        /* \"#utility.yul\":3929:3996   */\n      tag_62\n      jump\t// in\n    tag_111:\n        /* \"#utility.yul\":3922:3996   */\n      swap2\n      pop\n        /* \"#utility.yul\":4005:4098   */\n      tag_112\n        /* \"#utility.yul\":4094:4097   */\n      dup3\n        /* \"#utility.yul\":4005:4098   */\n      tag_65\n      jump\t// in\n    tag_112:\n        /* \"#utility.yul\":4123:4125   */\n      0x20\n        /* \"#utility.yul\":4118:4121   */\n      dup3\n        /* \"#utility.yul\":4114:4126   */\n      add\n        /* \"#utility.yul\":4107:4126   */\n      swap1\n      pop\n        /* \"#utility.yul\":3766:4132   */\n      swap2\n      swap1\n      pop\n      jump\t// out\n        /* \"#utility.yul\":4138:4557   */\n    tag_35:\n        /* \"#utility.yul\":4304:4308   */\n      0x00\n        /* \"#utility.yul\":4342:4344   */\n      0x20\n        /* \"#utility.yul\":4331:4340   */\n      dup3\n        /* \"#utility.yul\":4327:4345   */\n      add\n        /* \"#utility.yul\":4319:4345   */\n      swap1\n      pop\n        /* \"#utility.yul\":4391:4400   */\n      dup2\n        /* \"#utility.yul\":4385:4389   */\n      dup2\n        /* \"#utility.yul\":4381:4401   */\n      sub\n        /* \"#utility.yul\":4377:4378   */\n      0x00\n        /* \"#utility.yul\":4366:4375   */\n      dup4\n        /* \"#utility.yul\":4362:4379   */\n      add\n        /* \"#utility.yul\":4355:4402   */\n      mstore\n        /* \"#utility.yul\":4419:4550   */\n      tag_114\n        /* \"#utility.yul\":4545:4549   */\n      dup2\n        /* \"#utility.yul\":4419:4550   */\n      tag_66\n      jump\t// in\n    tag_114:\n        /* \"#utility.yul\":4411:4550   */\n      swap1\n      pop\n        /* \"#utility.yul\":4138:4557   */\n      swap2\n      swap1\n      pop\n      jump\t// out\n        /* \"#utility.yul\":4563:4732   */\n    tag_67:\n        /* \"#utility.yul\":4703:4724   */\n      0x43616e6e6f742072656d6f76652061646d696e00000000000000000000000000\n        /* \"#utility.yul\":4699:4700   */\n      0x00\n        /* \"#utility.yul\":4691:4697   */\n      dup3\n        /* \"#utility.yul\":4687:4701   */\n      add\n        /* \"#utility.yul\":4680:4725   */\n      mstore\n        /* \"#utility.yul\":4563:4732   */\n      pop\n      jump\t// out\n        /* \"#utility.yul\":4738:5104   */\n    tag_68:\n        /* \"#utility.yul\":4880:4883   */\n      0x00\n        /* \"#utility.yul\":4901:4968   */\n      tag_117\n        /* \"#utility.yul\":4965:4967   */\n      0x13\n        /* \"#utility.yul\":4960:4963   */\n      dup4\n        /* \"#utility.yul\":4901:4968   */\n      tag_62\n      jump\t// in\n    tag_117:\n        /* \"#utility.yul\":4894:4968   */\n      swap2\n      pop\n        /* \"#utility.yul\":4977:5070   */\n      tag_118\n        /* \"#utility.yul\":5066:5069   */\n      dup3\n        /* \"#utility.yul\":4977:5070   */\n      tag_67\n      jump\t// in\n    tag_118:\n        /* \"#utility.yul\":5095:5097   */\n      0x20\n        /* \"#utility.yul\":5090:5093   */\n      dup3\n        /* \"#utility.yul\":5086:5098   */\n      add\n        /* \"#utility.yul\":5079:5098   */\n      swap1\n      pop\n        /* \"#utility.yul\":4738:5104   */\n      swap2\n      swap1\n      pop\n      jump\t// out\n        /* \"#utility.yul\":5110:5529   */\n    tag_38:\n        /* \"#utility.yul\":5276:5280   */\n      0x00\n        /* \"#utility.yul\":5314:5316   */\n      0x20\n        /* \"#utility.yul\":5303:5312   */\n      dup3\n        /* \"#utility.yul\":5299:5317   */\n      add\n        /* \"#utility.yul\":5291:5317   */\n      swap1\n      pop\n        /* \"#utility.yul\":5363:5372   */\n      dup2\n        /* \"#utility.yul\":5357:5361   */\n      dup2\n        /* \"#utility.yul\":5353:5373   */\n      sub\n        /* \"#utility.yul\":5349:5350   */\n      0x00\n        /* \"#utility.yul\":5338:5347   */\n      dup4\n        /* \"#utility.yul\":5334:5351   */\n      add\n        /* \"#utility.yul\":5327:5374   */\n      mstore\n        /* \"#utility.yul\":5391:5522   */\n      tag_120\n        /* \"#utility.yul\":5517:5521   */\n      dup2\n        /* \"#utility.yul\":5391:5522   */\n      tag_68\n      jump\t// in\n    tag_120:\n        /* \"#utility.yul\":5383:5522   */\n      swap1\n      pop\n        /* \"#utility.yul\":5110:5529   */\n      swap2\n      swap1\n      pop\n      jump\t// out\n        /* \"#utility.yul\":5535:5715   */\n    tag_69:\n        /* \"#utility.yul\":5583:5660   */\n      0x4e487b7100000000000000000000000000000000000000000000000000000000\n        /* \"#utility.yul\":5580:5581   */\n      0x00\n        /* \"#utility.yul\":5573:5661   */\n      mstore\n        /* \"#utility.yul\":5680:5684   */\n      0x11\n        /* \"#utility.yul\":5677:5678   */\n      0x04\n        /* \"#utility.yul\":5670:5685   */\n      mstore\n        /* \"#utility.yul\":5704:5708   */\n      0x24\n        /* \"#utility.yul\":5701:5702   */\n      0x00\n        /* \"#utility.yul\":5694:5709   */\n      revert\n        /* \"#utility.yul\":5721:5892   */\n    tag_40:\n        /* \"#utility.yul\":5760:5763   */\n      0x00\n        /* \"#utility.yul\":5783:5807   */\n      tag_123\n        /* \"#utility.yul\":5801:5806   */\n      dup3\n        /* \"#utility.yul\":5783:5807   */\n      tag_59\n      jump\t// in\n    tag_123:\n        /* \"#utility.yul\":5774:5807   */\n      swap2\n      pop\n        /* \"#utility.yul\":5829:5833   */\n      0x00\n        /* \"#utility.yul\":5822:5827   */\n      dup3\n        /* \"#utility.yul\":5819:5834   */\n      sub\n        /* \"#utility.yul\":5816:5857   */\n      tag_124\n      jumpi\n        /* \"#utility.yul\":5837:5855   */\n      tag_125\n      tag_69\n      jump\t// in\n    tag_125:\n        /* \"#utility.yul\":5816:5857   */\n    tag_124:\n        /* \"#utility.yul\":5884:5885   */\n      0x01\n        /* \"#utility.yul\":5877:5882   */\n      dup3\n        /* \"#utility.yul\":5873:5886   */\n      sub\n        /* \"#utility.yul\":5866:5886   */\n      swap1\n      pop\n        /* \"#utility.yul\":5721:5892   */\n      swap2\n      swap1\n      pop\n      jump\t// out\n        /* \"#utility.yul\":5898:6069   */\n    tag_70:\n        /* \"#utility.yul\":6038:6061   */\n      0x4d656d62657220616c7265616479206578697374730000000000000000000000\n        /* \"#utility.yul\":6034:6035   */\n      0x00\n        /* \"#utility.yul\":6026:6032   */\n      dup3\n        /* \"#utility.yul\":6022:6036   */\n      add\n        /* \"#utility.yul\":6015:6062   */\n      mstore\n        /* \"#utility.yul\":5898:6069   */\n      pop\n      jump\t// out\n        /* \"#utility.yul\":6075:6441   */\n    tag_71:\n        /* \"#utility.yul\":6217:6220   */\n      0x00\n        /* \"#utility.yul\":6238:6305   */\n      tag_128\n        /* \"#utility.yul\":6302:6304   */\n      0x15\n        /* \"#utility.yul\":6297:6300   */\n      dup4\n        /* \"#utility.yul\":6238:6305   */\n      tag_62\n      jump\t// in\n    tag_128:\n        /* \"#utility.yul\":6231:6305   */\n      swap2\n      pop\n        /* \"#utility.yul\":6314:6407   */\n      tag_129\n        /* \"#utility.yul\":6403:6406   */\n      dup3\n        /* \"#utility.yul\":6314:6407   */\n      tag_70\n      jump\t// in\n    tag_129:\n        /* \"#utility.yul\":6432:6434   */\n      0x20\n        /* \"#utility.yul\":6427:6430   */\n      dup3\n        /* \"#utility.yul\":6423:6435   */\n      add\n        /* \"#utility.yul\":6416:6435   */\n      swap1\n      pop\n        /* \"#utility.yul\":6075:6441   */\n      swap2\n      swap1\n      pop\n      jump\t// out\n        /* \"#utility.yul\":6447:6866   */\n    tag_47:\n        /* \"#utility.yul\":6613:6617   */\n      0x00\n        /* \"#utility.yul\":6651:6653   */\n      0x20\n        /* \"#utility.yul\":6640:6649   */\n      dup3\n        /* \"#utility.yul\":6636:6654   */\n      add\n        /* \"#utility.yul\":6628:6654   */\n      swap1\n      pop\n        /* \"#utility.yul\":6700:6709   */\n      dup2\n        /* \"#utility.yul\":6694:6698   */\n      dup2\n        /* \"#utility.yul\":6690:6710   */\n      sub\n        /* \"#utility.yul\":6686:6687   */\n      0x00\n        /* \"#utility.yul\":6675:6684   */\n      dup4\n        /* \"#utility.yul\":6671:6688   */\n      add\n        /* \"#utility.yul\":6664:6711   */\n      mstore\n        /* \"#utility.yul\":6728:6859   */\n      tag_131\n        /* \"#utility.yul\":6854:6858   */\n      dup2\n        /* \"#utility.yul\":6728:6859   */\n      tag_71\n      jump\t// in\n    tag_131:\n        /* \"#utility.yul\":6720:6859   */\n      swap1\n      pop\n        /* \"#utility.yul\":6447:6866   */\n      swap2\n      swap1\n      pop\n      jump\t// out\n        /* \"#utility.yul\":6872:7105   */\n    tag_49:\n        /* \"#utility.yul\":6911:6914   */\n      0x00\n        /* \"#utility.yul\":6934:6958   */\n      tag_133\n        /* \"#utility.yul\":6952:6957   */\n      dup3\n        /* \"#utility.yul\":6934:6958   */\n      tag_59\n      jump\t// in\n    tag_133:\n        /* \"#utility.yul\":6925:6958   */\n      swap2\n      pop\n        /* \"#utility.yul\":6980:7046   */\n      0xffffffffffffffffffffffffffffffffffffffffffffffffffffffffffffffff\n        /* \"#utility.yul\":6973:6978   */\n      dup3\n        /* \"#utility.yul\":6970:7047   */\n      sub\n        /* \"#utility.yul\":6967:7070   */\n      tag_134\n      jumpi\n        /* \"#utility.yul\":7050:7068   */\n      tag_135\n      tag_69\n      jump\t// in\n    tag_135:\n        /* \"#utility.yul\":6967:7070   */\n    tag_134:\n        /* \"#utility.yul\":7097:7098   */\n      0x01\n        /* \"#utility.yul\":7090:7095   */\n      dup3\n        /* \"#utility.yul\":7086:7099   */\n      add\n        /* \"#utility.yul\":7079:7099   */\n      swap1\n      pop\n        /* \"#utility.yul\":6872:7105   */\n      swap2\n      swap1\n      pop\n      jump\t// out\n\n    auxdata: 0xa2646970667358221220b6699bbf766a1fbf38e31cb2d091ef35921fc97c864bb5caf2eea700b398c6db64736f6c634300081a0033\n}\n",
				"bytecode": {
					"linkReferences": {},
					"object": "6080604052348015600e575f80fd5b50335f806101000a81548173ffffffffffffffffffffffffffffffffffffffff021916908373ffffffffffffffffffffffffffffffffffffffff160217905550600160025f3373ffffffffffffffffffffffffffffffffffffffff1673ffffffffffffffffffffffffffffffffffffffff1681526020019081526020015f205f6101000a81548160ff02191690831515021790555060018081905550610896806100b75f395ff3fe608060405234801561000f575f80fd5b5060043610610055575f3560e01c806308ae4b0c146100595780630b1ca49a1461008957806376e92559146100a5578063ca6d56dc146100c3578063f851a440146100df575b5f80fd5b610073600480360381019061006e9190610538565b6100fd565b604051610080919061057d565b60405180910390f35b6100a3600480360381019061009e9190610538565b61011a565b005b6100ad61032b565b6040516100ba91906105ae565b60405180910390f35b6100dd60048036038101906100d89190610538565b610331565b005b6100e76104b7565b6040516100f491906105d6565b60405180910390f35b6002602052805f5260405f205f915054906101000a900460ff1681565b5f8054906101000a900473ffffffffffffffffffffffffffffffffffffffff1673ffffffffffffffffffffffffffffffffffffffff163373ffffffffffffffffffffffffffffffffffffffff16146101a7576040517f08c379a000000000000000000000000000000000000000000000000000000000815260040161019e9061066f565b60405180910390fd5b60025f8273ffffffffffffffffffffffffffffffffffffffff1673ffffffffffffffffffffffffffffffffffffffff1681526020019081526020015f205f9054906101000a900460ff16610230576040517f08c379a0000000000000000000000000000000000000000000000000000000008152600401610227906106d7565b60405180910390fd5b5f8054906101000a900473ffffffffffffffffffffffffffffffffffffffff1673ffffffffffffffffffffffffffffffffffffffff168173ffffffffffffffffffffffffffffffffffffffff16036102bd576040517f08c379a00000000000000000000000000000000000000000000000000000000081526004016102b49061073f565b60405180910390fd5b5f60025f8373ffffffffffffffffffffffffffffffffffffffff1673ffffffffffffffffffffffffffffffffffffffff1681526020019081526020015f205f6101000a81548160ff02191690831515021790555060015f8154809291906103239061078a565b919050555050565b60015481565b5f8054906101000a900473ffffffffffffffffffffffffffffffffffffffff1673ffffffffffffffffffffffffffffffffffffffff163373ffffffffffffffffffffffffffffffffffffffff16146103be576040517f08c379a00000000000000000000000000000000000000000000000000000000081526004016103b59061066f565b60405180910390fd5b60025f8273ffffffffffffffffffffffffffffffffffffffff1673ffffffffffffffffffffffffffffffffffffffff1681526020019081526020015f205f9054906101000a900460ff1615610448576040517f08c379a000000000000000000000000000000000000000000000000000000000815260040161043f906107fb565b60405180910390fd5b600160025f8373ffffffffffffffffffffffffffffffffffffffff1673ffffffffffffffffffffffffffffffffffffffff1681526020019081526020015f205f6101000a81548160ff02191690831515021790555060015f8154809291906104af90610819565b919050555050565b5f8054906101000a900473ffffffffffffffffffffffffffffffffffffffff1681565b5f80fd5b5f73ffffffffffffffffffffffffffffffffffffffff82169050919050565b5f610507826104de565b9050919050565b610517816104fd565b8114610521575f80fd5b50565b5f813590506105328161050e565b92915050565b5f6020828403121561054d5761054c6104da565b5b5f61055a84828501610524565b91505092915050565b5f8115159050919050565b61057781610563565b82525050565b5f6020820190506105905f83018461056e565b92915050565b5f819050919050565b6105a881610596565b82525050565b5f6020820190506105c15f83018461059f565b92915050565b6105d0816104fd565b82525050565b5f6020820190506105e95f8301846105c7565b92915050565b5f82825260208201905092915050565b7f4f6e6c792061646d696e2063616e20706572666f726d207468697320616374695f8201527f6f6e000000000000000000000000000000000000000000000000000000000000602082015250565b5f6106596022836105ef565b9150610664826105ff565b604082019050919050565b5f6020820190508181035f8301526106868161064d565b9050919050565b7f4d656d62657220646f6573206e6f7420657869737400000000000000000000005f82015250565b5f6106c16015836105ef565b91506106cc8261068d565b602082019050919050565b5f6020820190508181035f8301526106ee816106b5565b9050919050565b7f43616e6e6f742072656d6f76652061646d696e000000000000000000000000005f82015250565b5f6107296013836105ef565b9150610734826106f5565b602082019050919050565b5f6020820190508181035f8301526107568161071d565b9050919050565b7f4e487b71000000000000000000000000000000000000000000000000000000005f52601160045260245ffd5b5f61079482610596565b91505f82036107a6576107a561075d565b5b600182039050919050565b7f4d656d62657220616c72656164792065786973747300000000000000000000005f82015250565b5f6107e56015836105ef565b91506107f0826107b1565b602082019050919050565b5f6020820190508181035f830152610812816107d9565b9050919050565b5f61082382610596565b91507fffffffffffffffffffffffffffffffffffffffffffffffffffffffffffffffff82036108555761085461075d565b5b60018201905091905056fea2646970667358221220b6699bbf766a1fbf38e31cb2d091ef35921fc97c864bb5caf2eea700b398c6db64736f6c634300081a0033",
					"opcodes": "PUSH1 0x80 PUSH1 0x40 MSTORE CALLVALUE DUP1 ISZERO PUSH1 0xE JUMPI PUSH0 DUP1 REVERT JUMPDEST POP CALLER PUSH0 DUP1 PUSH2 0x100 EXP DUP2 SLOAD DUP2 PUSH20 0xFFFFFFFFFFFFFFFFFFFFFFFFFFFFFFFFFFFFFFFF MUL NOT AND SWAP1 DUP4 PUSH20 0xFFFFFFFFFFFFFFFFFFFFFFFFFFFFFFFFFFFFFFFF AND MUL OR SWAP1 SSTORE POP PUSH1 0x1 PUSH1 0x2 PUSH0 CALLER PUSH20 0xFFFFFFFFFFFFFFFFFFFFFFFFFFFFFFFFFFFFFFFF AND PUSH20 0xFFFFFFFFFFFFFFFFFFFFFFFFFFFFFFFFFFFFFFFF AND DUP2 MSTORE PUSH1 0x20 ADD SWAP1 DUP2 MSTORE PUSH1 0x20 ADD PUSH0 KECCAK256 PUSH0 PUSH2 0x100 EXP DUP2 SLOAD DUP2 PUSH1 0xFF MUL NOT AND SWAP1 DUP4 ISZERO ISZERO MUL OR SWAP1 SSTORE POP PUSH1 0x1 DUP1 DUP2 SWAP1 SSTORE POP PUSH2 0x896 DUP1 PUSH2 0xB7 PUSH0 CODECOPY PUSH0 RETURN INVALID PUSH1 0x80 PUSH1 0x40 MSTORE CALLVALUE DUP1 ISZERO PUSH2 0xF JUMPI PUSH0 DUP1 REVERT JUMPDEST POP PUSH1 0x4 CALLDATASIZE LT PUSH2 0x55 JUMPI PUSH0 CALLDATALOAD PUSH1 0xE0 SHR DUP1 PUSH4 0x8AE4B0C EQ PUSH2 0x59 JUMPI DUP1 PUSH4 0xB1CA49A EQ PUSH2 0x89 JUMPI DUP1 PUSH4 0x76E92559 EQ PUSH2 0xA5 JUMPI DUP1 PUSH4 0xCA6D56DC EQ PUSH2 0xC3 JUMPI DUP1 PUSH4 0xF851A440 EQ PUSH2 0xDF JUMPI JUMPDEST PUSH0 DUP1 REVERT JUMPDEST PUSH2 0x73 PUSH1 0x4 DUP1 CALLDATASIZE SUB DUP2 ADD SWAP1 PUSH2 0x6E SWAP2 SWAP1 PUSH2 0x538 JUMP JUMPDEST PUSH2 0xFD JUMP JUMPDEST PUSH1 0x40 MLOAD PUSH2 0x80 SWAP2 SWAP1 PUSH2 0x57D JUMP JUMPDEST PUSH1 0x40 MLOAD DUP1 SWAP2 SUB SWAP1 RETURN JUMPDEST PUSH2 0xA3 PUSH1 0x4 DUP1 CALLDATASIZE SUB DUP2 ADD SWAP1 PUSH2 0x9E SWAP2 SWAP1 PUSH2 0x538 JUMP JUMPDEST PUSH2 0x11A JUMP JUMPDEST STOP JUMPDEST PUSH2 0xAD PUSH2 0x32B JUMP JUMPDEST PUSH1 0x40 MLOAD PUSH2 0xBA SWAP2 SWAP1 PUSH2 0x5AE JUMP JUMPDEST PUSH1 0x40 MLOAD DUP1 SWAP2 SUB SWAP1 RETURN JUMPDEST PUSH2 0xDD PUSH1 0x4 DUP1 CALLDATASIZE SUB DUP2 ADD SWAP1 PUSH2 0xD8 SWAP2 SWAP1 PUSH2 0x538 JUMP JUMPDEST PUSH2 0x331 JUMP JUMPDEST STOP JUMPDEST PUSH2 0xE7 PUSH2 0x4B7 JUMP JUMPDEST PUSH1 0x40 MLOAD PUSH2 0xF4 SWAP2 SWAP1 PUSH2 0x5D6 JUMP JUMPDEST PUSH1 0x40 MLOAD DUP1 SWAP2 SUB SWAP1 RETURN JUMPDEST PUSH1 0x2 PUSH1 0x20 MSTORE DUP1 PUSH0 MSTORE PUSH1 0x40 PUSH0 KECCAK256 PUSH0 SWAP2 POP SLOAD SWAP1 PUSH2 0x100 EXP SWAP1 DIV PUSH1 0xFF AND DUP2 JUMP JUMPDEST PUSH0 DUP1 SLOAD SWAP1 PUSH2 0x100 EXP SWAP1 DIV PUSH20 0xFFFFFFFFFFFFFFFFFFFFFFFFFFFFFFFFFFFFFFFF AND PUSH20 0xFFFFFFFFFFFFFFFFFFFFFFFFFFFFFFFFFFFFFFFF AND CALLER PUSH20 0xFFFFFFFFFFFFFFFFFFFFFFFFFFFFFFFFFFFFFFFF AND EQ PUSH2 0x1A7 JUMPI PUSH1 0x40 MLOAD PUSH32 0x8C379A000000000000000000000000000000000000000000000000000000000 DUP2 MSTORE PUSH1 0x4 ADD PUSH2 0x19E SWAP1 PUSH2 0x66F JUMP JUMPDEST PUSH1 0x40 MLOAD DUP1 SWAP2 SUB SWAP1 REVERT JUMPDEST PUSH1 0x2 PUSH0 DUP3 PUSH20 0xFFFFFFFFFFFFFFFFFFFFFFFFFFFFFFFFFFFFFFFF AND PUSH20 0xFFFFFFFFFFFFFFFFFFFFFFFFFFFFFFFFFFFFFFFF AND DUP2 MSTORE PUSH1 0x20 ADD SWAP1 DUP2 MSTORE PUSH1 0x20 ADD PUSH0 KECCAK256 PUSH0 SWAP1 SLOAD SWAP1 PUSH2 0x100 EXP SWAP1 DIV PUSH1 0xFF AND PUSH2 0x230 JUMPI PUSH1 0x40 MLOAD PUSH32 0x8C379A000000000000000000000000000000000000000000000000000000000 DUP2 MSTORE PUSH1 0x4 ADD PUSH2 0x227 SWAP1 PUSH2 0x6D7 JUMP JUMPDEST PUSH1 0x40 MLOAD DUP1 SWAP2 SUB SWAP1 REVERT JUMPDEST PUSH0 DUP1 SLOAD SWAP1 PUSH2 0x100 EXP SWAP1 DIV PUSH20 0xFFFFFFFFFFFFFFFFFFFFFFFFFFFFFFFFFFFFFFFF AND PUSH20 0xFFFFFFFFFFFFFFFFFFFFFFFFFFFFFFFFFFFFFFFF AND DUP2 PUSH20 0xFFFFFFFFFFFFFFFFFFFFFFFFFFFFFFFFFFFFFFFF AND SUB PUSH2 0x2BD JUMPI PUSH1 0x40 MLOAD PUSH32 0x8C379A000000000000000000000000000000000000000000000000000000000 DUP2 MSTORE PUSH1 0x4 ADD PUSH2 0x2B4 SWAP1 PUSH2 0x73F JUMP JUMPDEST PUSH1 0x40 MLOAD DUP1 SWAP2 SUB SWAP1 REVERT JUMPDEST PUSH0 PUSH1 0x2 PUSH0 DUP4 PUSH20 0xFFFFFFFFFFFFFFFFFFFFFFFFFFFFFFFFFFFFFFFF AND PUSH20 0xFFFFFFFFFFFFFFFFFFFFFFFFFFFFFFFFFFFFFFFF AND DUP2 MSTORE PUSH1 0x20 ADD SWAP1 DUP2 MSTORE PUSH1 0x20 ADD PUSH0 KECCAK256 PUSH0 PUSH2 0x100 EXP DUP2 SLOAD DUP2 PUSH1 0xFF MUL NOT AND SWAP1 DUP4 ISZERO ISZERO MUL OR SWAP1 SSTORE POP PUSH1 0x1 PUSH0 DUP2 SLOAD DUP1 SWAP3 SWAP2 SWAP1 PUSH2 0x323 SWAP1 PUSH2 0x78A JUMP JUMPDEST SWAP2 SWAP1 POP SSTORE POP POP JUMP JUMPDEST PUSH1 0x1 SLOAD DUP2 JUMP JUMPDEST PUSH0 DUP1 SLOAD SWAP1 PUSH2 0x100 EXP SWAP1 DIV PUSH20 0xFFFFFFFFFFFFFFFFFFFFFFFFFFFFFFFFFFFFFFFF AND PUSH20 0xFFFFFFFFFFFFFFFFFFFFFFFFFFFFFFFFFFFFFFFF AND CALLER PUSH20 0xFFFFFFFFFFFFFFFFFFFFFFFFFFFFFFFFFFFFFFFF AND EQ PUSH2 0x3BE JUMPI PUSH1 0x40 MLOAD PUSH32 0x8C379A000000000000000000000000000000000000000000000000000000000 DUP2 MSTORE PUSH1 0x4 ADD PUSH2 0x3B5 SWAP1 PUSH2 0x66F JUMP JUMPDEST PUSH1 0x40 MLOAD DUP1 SWAP2 SUB SWAP1 REVERT JUMPDEST PUSH1 0x2 PUSH0 DUP3 PUSH20 0xFFFFFFFFFFFFFFFFFFFFFFFFFFFFFFFFFFFFFFFF AND PUSH20 0xFFFFFFFFFFFFFFFFFFFFFFFFFFFFFFFFFFFFFFFF AND DUP2 MSTORE PUSH1 0x20 ADD SWAP1 DUP2 MSTORE PUSH1 0x20 ADD PUSH0 KECCAK256 PUSH0 SWAP1 SLOAD SWAP1 PUSH2 0x100 EXP SWAP1 DIV PUSH1 0xFF AND ISZERO PUSH2 0x448 JUMPI PUSH1 0x40 MLOAD PUSH32 0x8C379A000000000000000000000000000000000000000000000000000000000 DUP2 MSTORE PUSH1 0x4 ADD PUSH2 0x43F SWAP1 PUSH2 0x7FB JUMP JUMPDEST PUSH1 0x40 MLOAD DUP1 SWAP2 SUB SWAP1 REVERT JUMPDEST PUSH1 0x1 PUSH1 0x2 PUSH0 DUP4 PUSH20 0xFFFFFFFFFFFFFFFFFFFFFFFFFFFFFFFFFFFFFFFF AND PUSH20 0xFFFFFFFFFFFFFFFFFFFFFFFFFFFFFFFFFFFFFFFF AND DUP2 MSTORE PUSH1 0x20 ADD SWAP1 DUP2 MSTORE PUSH1 0x20 ADD PUSH0 KECCAK256 PUSH0 PUSH2 0x100 EXP DUP2 SLOAD DUP2 PUSH1 0xFF MUL NOT AND SWAP1 DUP4 ISZERO ISZERO MUL OR SWAP1 SSTORE POP PUSH1 0x1 PUSH0 DUP2 SLOAD DUP1 SWAP3 SWAP2 SWAP1 PUSH2 0x4AF SWAP1 PUSH2 0x819 JUMP JUMPDEST SWAP2 SWAP1 POP SSTORE POP POP JUMP JUMPDEST PUSH0 DUP1 SLOAD SWAP1 PUSH2 0x100 EXP SWAP1 DIV PUSH20 0xFFFFFFFFFFFFFFFFFFFFFFFFFFFFFFFFFFFFFFFF AND DUP2 JUMP JUMPDEST PUSH0 DUP1 REVERT JUMPDEST PUSH0 PUSH20 0xFFFFFFFFFFFFFFFFFFFFFFFFFFFFFFFFFFFFFFFF DUP3 AND SWAP1 POP SWAP2 SWAP1 POP JUMP JUMPDEST PUSH0 PUSH2 0x507 DUP3 PUSH2 0x4DE JUMP JUMPDEST SWAP1 POP SWAP2 SWAP1 POP JUMP JUMPDEST PUSH2 0x517 DUP2 PUSH2 0x4FD JUMP JUMPDEST DUP2 EQ PUSH2 0x521 JUMPI PUSH0 DUP1 REVERT JUMPDEST POP JUMP JUMPDEST PUSH0 DUP2 CALLDATALOAD SWAP1 POP PUSH2 0x532 DUP2 PUSH2 0x50E JUMP JUMPDEST SWAP3 SWAP2 POP POP JUMP JUMPDEST PUSH0 PUSH1 0x20 DUP3 DUP5 SUB SLT ISZERO PUSH2 0x54D JUMPI PUSH2 0x54C PUSH2 0x4DA JUMP JUMPDEST JUMPDEST PUSH0 PUSH2 0x55A DUP5 DUP3 DUP6 ADD PUSH2 0x524 JUMP JUMPDEST SWAP2 POP POP SWAP3 SWAP2 POP POP JUMP JUMPDEST PUSH0 DUP2 ISZERO ISZERO SWAP1 POP SWAP2 SWAP1 POP JUMP JUMPDEST PUSH2 0x577 DUP2 PUSH2 0x563 JUMP JUMPDEST DUP3 MSTORE POP POP JUMP JUMPDEST PUSH0 PUSH1 0x20 DUP3 ADD SWAP1 POP PUSH2 0x590 PUSH0 DUP4 ADD DUP5 PUSH2 0x56E JUMP JUMPDEST SWAP3 SWAP2 POP POP JUMP JUMPDEST PUSH0 DUP2 SWAP1 POP SWAP2 SWAP1 POP JUMP JUMPDEST PUSH2 0x5A8 DUP2 PUSH2 0x596 JUMP JUMPDEST DUP3 MSTORE POP POP JUMP JUMPDEST PUSH0 PUSH1 0x20 DUP3 ADD SWAP1 POP PUSH2 0x5C1 PUSH0 DUP4 ADD DUP5 PUSH2 0x59F JUMP JUMPDEST SWAP3 SWAP2 POP POP JUMP JUMPDEST PUSH2 0x5D0 DUP2 PUSH2 0x4FD JUMP JUMPDEST DUP3 MSTORE POP POP JUMP JUMPDEST PUSH0 PUSH1 0x20 DUP3 ADD SWAP1 POP PUSH2 0x5E9 PUSH0 DUP4 ADD DUP5 PUSH2 0x5C7 JUMP JUMPDEST SWAP3 SWAP2 POP POP JUMP JUMPDEST PUSH0 DUP3 DUP3 MSTORE PUSH1 0x20 DUP3 ADD SWAP1 POP SWAP3 SWAP2 POP POP JUMP JUMPDEST PUSH32 0x4F6E6C792061646D696E2063616E20706572666F726D20746869732061637469 PUSH0 DUP3 ADD MSTORE PUSH32 0x6F6E000000000000000000000000000000000000000000000000000000000000 PUSH1 0x20 DUP3 ADD MSTORE POP JUMP JUMPDEST PUSH0 PUSH2 0x659 PUSH1 0x22 DUP4 PUSH2 0x5EF JUMP JUMPDEST SWAP2 POP PUSH2 0x664 DUP3 PUSH2 0x5FF JUMP JUMPDEST PUSH1 0x40 DUP3 ADD SWAP1 POP SWAP2 SWAP1 POP JUMP JUMPDEST PUSH0 PUSH1 0x20 DUP3 ADD SWAP1 POP DUP2 DUP2 SUB PUSH0 DUP4 ADD MSTORE PUSH2 0x686 DUP2 PUSH2 0x64D JUMP JUMPDEST SWAP1 POP SWAP2 SWAP1 POP JUMP JUMPDEST PUSH32 0x4D656D62657220646F6573206E6F742065786973740000000000000000000000 PUSH0 DUP3 ADD MSTORE POP JUMP JUMPDEST PUSH0 PUSH2 0x6C1 PUSH1 0x15 DUP4 PUSH2 0x5EF JUMP JUMPDEST SWAP2 POP PUSH2 0x6CC DUP3 PUSH2 0x68D JUMP JUMPDEST PUSH1 0x20 DUP3 ADD SWAP1 POP SWAP2 SWAP1 POP JUMP JUMPDEST PUSH0 PUSH1 0x20 DUP3 ADD SWAP1 POP DUP2 DUP2 SUB PUSH0 DUP4 ADD MSTORE PUSH2 0x6EE DUP2 PUSH2 0x6B5 JUMP JUMPDEST SWAP1 POP SWAP2 SWAP1 POP JUMP JUMPDEST PUSH32 0x43616E6E6F742072656D6F76652061646D696E00000000000000000000000000 PUSH0 DUP3 ADD MSTORE POP JUMP JUMPDEST PUSH0 PUSH2 0x729 PUSH1 0x13 DUP4 PUSH2 0x5EF JUMP JUMPDEST SWAP2 POP PUSH2 0x734 DUP3 PUSH2 0x6F5 JUMP JUMPDEST PUSH1 0x20 DUP3 ADD SWAP1 POP SWAP2 SWAP1 POP JUMP JUMPDEST PUSH0 PUSH1 0x20 DUP3 ADD SWAP1 POP DUP2 DUP2 SUB PUSH0 DUP4 ADD MSTORE PUSH2 0x756 DUP2 PUSH2 0x71D JUMP JUMPDEST SWAP1 POP SWAP2 SWAP1 POP JUMP JUMPDEST PUSH32 0x4E487B7100000000000000000000000000000000000000000000000000000000 PUSH0 MSTORE PUSH1 0x11 PUSH1 0x4 MSTORE PUSH1 0x24 PUSH0 REVERT JUMPDEST PUSH0 PUSH2 0x794 DUP3 PUSH2 0x596 JUMP JUMPDEST SWAP2 POP PUSH0 DUP3 SUB PUSH2 0x7A6 JUMPI PUSH2 0x7A5 PUSH2 0x75D JUMP JUMPDEST JUMPDEST PUSH1 0x1 DUP3 SUB SWAP1 POP SWAP2 SWAP1 POP JUMP JUMPDEST PUSH32 0x4D656D62657220616C7265616479206578697374730000000000000000000000 PUSH0 DUP3 ADD MSTORE POP JUMP JUMPDEST PUSH0 PUSH2 0x7E5 PUSH1 0x15 DUP4 PUSH2 0x5EF JUMP JUMPDEST SWAP2 POP PUSH2 0x7F0 DUP3 PUSH2 0x7B1 JUMP JUMPDEST PUSH1 0x20 DUP3 ADD SWAP1 POP SWAP2 SWAP1 POP JUMP JUMPDEST PUSH0 PUSH1 0x20 DUP3 ADD SWAP1 POP DUP2 DUP2 SUB PUSH0 DUP4 ADD MSTORE PUSH2 0x812 DUP2 PUSH2 0x7D9 JUMP JUMPDEST SWAP1 POP SWAP2 SWAP1 POP JUMP JUMPDEST PUSH0 PUSH2 0x823 DUP3 PUSH2 0x596 JUMP JUMPDEST SWAP2 POP PUSH32 0xFFFFFFFFFFFFFFFFFFFFFFFFFFFFFFFFFFFFFFFFFFFFFFFFFFFFFFFFFFFFFFFF DUP3 SUB PUSH2 0x855 JUMPI PUSH2 0x854 PUSH2 0x75D JUMP JUMPDEST JUMPDEST PUSH1 0x1 DUP3 ADD SWAP1 POP SWAP2 SWAP1 POP JUMP INVALID LOG2 PUSH5 0x6970667358 0x22 SLT KECCAK256 0xB6 PUSH10 0x9BBF766A1FBF38E31CB2 0xD0 SWAP2 0xEF CALLDATALOAD SWAP3 0x1F 0xC9 PUSH29 0x864BB5CAF2EEA700B398C6DB64736F6C634300081A0033000000000000 "
				},
				"gasEstimates": {
					"creation": {
						"codeDepositCost": "439600",
						"executionCost": "71204",
						"totalCost": "510804"
					},
					"external": {
						"addMember(address)": "53610",
						"admin()": "2571",
						"members(address)": "2811",
						"removeMember(address)": "55728",
						"totalMembers()": "2447"
					}
				},
				"methodIdentifiers": {
					"addMember(address)": "ca6d56dc",
					"admin()": "f851a440",
					"members(address)": "08ae4b0c",
					"removeMember(address)": "0b1ca49a",
					"totalMembers()": "76e92559"
				}
			},
			"storageLayout": {
				"storage": [
					{
						"astId": 3,
						"contract": "contracts/GovernanceandMembership.sol:RealEstateDAO",
						"label": "admin",
						"offset": 0,
						"slot": "0",
						"type": "t_address"
					},
					{
						"astId": 5,
						"contract": "contracts/GovernanceandMembership.sol:RealEstateDAO",
						"label": "totalMembers",
						"offset": 0,
						"slot": "1",
						"type": "t_uint256"
					},
					{
						"astId": 9,
						"contract": "contracts/GovernanceandMembership.sol:RealEstateDAO",
						"label": "members",
						"offset": 0,
						"slot": "2",
						"type": "t_mapping(t_address,t_bool)"
					}
				],
				"types": {
					"t_address": {
						"encoding": "inplace",
						"label": "address",
						"numberOfBytes": "20"
					},
					"t_bool": {
						"encoding": "inplace",
						"label": "bool",
						"numberOfBytes": "1"
					},
					"t_mapping(t_address,t_bool)": {
						"encoding": "mapping",
						"key": "t_address",
						"label": "mapping(address => bool)",
						"numberOfBytes": "32",
						"value": "t_bool"
					},
					"t_uint256": {
						"encoding": "inplace",
						"label": "uint256",
						"numberOfBytes": "32"
					}
				}
			},
			"userdoc": {
				"kind": "user",
				"methods": {},
				"version": 1
			}
		}
	}
}