{
	"contracts/PropertyManagement.sol": {
		"RealEstate": {
			"abi": [
				{
					"inputs": [
						{
							"internalType": "string",
							"name": "_name",
							"type": "string"
						},
						{
							"internalType": "string",
							"name": "_location",
							"type": "string"
						},
						{
							"internalType": "uint256",
							"name": "_value",
							"type": "uint256"
						}
					],
					"name": "addProperty",
					"outputs": [],
					"stateMutability": "nonpayable",
					"type": "function"
				},
				{
					"inputs": [
						{
							"internalType": "uint256",
							"name": "_propertyId",
							"type": "uint256"
						}
					],
					"name": "buyProperty",
					"outputs": [],
					"stateMutability": "payable",
					"type": "function"
				},
				{
					"inputs": [
						{
							"internalType": "uint256",
							"name": "_propertyId",
							"type": "uint256"
						}
					],
					"name": "getProperty",
					"outputs": [
						{
							"internalType": "string",
							"name": "name",
							"type": "string"
						},
						{
							"internalType": "string",
							"name": "location",
							"type": "string"
						},
						{
							"internalType": "uint256",
							"name": "value",
							"type": "uint256"
						},
						{
							"internalType": "address",
							"name": "owner",
							"type": "address"
						},
						{
							"internalType": "bool",
							"name": "isAvailable",
							"type": "bool"
						}
					],
					"stateMutability": "view",
					"type": "function"
				},
				{
					"inputs": [
						{
							"internalType": "uint256",
							"name": "",
							"type": "uint256"
						}
					],
					"name": "properties",
					"outputs": [
						{
							"internalType": "uint256",
							"name": "id",
							"type": "uint256"
						},
						{
							"internalType": "string",
							"name": "name",
							"type": "string"
						},
						{
							"internalType": "string",
							"name": "location",
							"type": "string"
						},
						{
							"internalType": "uint256",
							"name": "value",
							"type": "uint256"
						},
						{
							"internalType": "address",
							"name": "owner",
							"type": "address"
						},
						{
							"internalType": "bool",
							"name": "isAvailable",
							"type": "bool"
						}
					],
					"stateMutability": "view",
					"type": "function"
				},
				{
					"inputs": [
						{
							"internalType": "uint256",
							"name": "",
							"type": "uint256"
						}
					],
					"name": "propertyOwners",
					"outputs": [
						{
							"internalType": "address",
							"name": "",
							"type": "address"
						}
					],
					"stateMutability": "view",
					"type": "function"
				}
			],
			"devdoc": {
				"kind": "dev",
				"methods": {},
				"version": 1
			},
			"evm": {
				"assembly": "    /* \"contracts/PropertyManagement.sol\":60:1838  contract RealEstate {... */\n  mstore(0x40, 0x80)\n  callvalue\n  dup1\n  iszero\n  tag_1\n  jumpi\n  0x00\n  dup1\n  revert\ntag_1:\n  pop\n  dataSize(sub_0)\n  dup1\n  dataOffset(sub_0)\n  0x00\n  codecopy\n  0x00\n  return\nstop\n\nsub_0: assembly {\n        /* \"contracts/PropertyManagement.sol\":60:1838  contract RealEstate {... */\n      mstore(0x40, 0x80)\n      jumpi(tag_1, lt(calldatasize, 0x04))\n      shr(0xe0, calldataload(0x00))\n      dup1\n      0x32665ffb\n      eq\n      tag_2\n      jumpi\n      dup1\n      0x6fa830a6\n      eq\n      tag_3\n      jumpi\n      dup1\n      0x7f2af083\n      eq\n      tag_4\n      jumpi\n      dup1\n      0x913a8e80\n      eq\n      tag_5\n      jumpi\n      dup1\n      0xf7b10808\n      eq\n      tag_6\n      jumpi\n    tag_1:\n      0x00\n      dup1\n      revert\n        /* \"contracts/PropertyManagement.sol\":736:1201  function getProperty(uint256 _propertyId) external view returns (... */\n    tag_2:\n      callvalue\n      dup1\n      iszero\n      tag_7\n      jumpi\n      0x00\n      dup1\n      revert\n    tag_7:\n      pop\n      tag_8\n      0x04\n      dup1\n      calldatasize\n      sub\n      dup2\n      add\n      swap1\n      tag_9\n      swap2\n      swap1\n      tag_10\n      jump\t// in\n    tag_9:\n      tag_11\n      jump\t// in\n    tag_8:\n      mload(0x40)\n      tag_12\n      swap6\n      swap5\n      swap4\n      swap3\n      swap2\n      swap1\n      tag_13\n      jump\t// in\n    tag_12:\n      mload(0x40)\n      dup1\n      swap2\n      sub\n      swap1\n      return\n        /* \"contracts/PropertyManagement.sol\":1213:1835  function buyProperty(uint256 _propertyId) external payable {... */\n    tag_3:\n      tag_14\n      0x04\n      dup1\n      calldatasize\n      sub\n      dup2\n      add\n      swap1\n      tag_15\n      swap2\n      swap1\n      tag_10\n      jump\t// in\n    tag_15:\n      tag_16\n      jump\t// in\n    tag_14:\n      stop\n        /* \"contracts/PropertyManagement.sol\":362:411  mapping(uint256 => address) public propertyOwners */\n    tag_4:\n      callvalue\n      dup1\n      iszero\n      tag_17\n      jumpi\n      0x00\n      dup1\n      revert\n    tag_17:\n      pop\n      tag_18\n      0x04\n      dup1\n      calldatasize\n      sub\n      dup2\n      add\n      swap1\n      tag_19\n      swap2\n      swap1\n      tag_10\n      jump\t// in\n    tag_19:\n      tag_20\n      jump\t// in\n    tag_18:\n      mload(0x40)\n      tag_21\n      swap2\n      swap1\n      tag_22\n      jump\t// in\n    tag_21:\n      mload(0x40)\n      dup1\n      swap2\n      sub\n      swap1\n      return\n        /* \"contracts/PropertyManagement.sol\":424:724  function addProperty(string memory _name, string memory _location, uint256 _value) external {... */\n    tag_5:\n      callvalue\n      dup1\n      iszero\n      tag_23\n      jumpi\n      0x00\n      dup1\n      revert\n    tag_23:\n      pop\n      tag_24\n      0x04\n      dup1\n      calldatasize\n      sub\n      dup2\n      add\n      swap1\n      tag_25\n      swap2\n      swap1\n      tag_26\n      jump\t// in\n    tag_25:\n      tag_27\n      jump\t// in\n    tag_24:\n      stop\n        /* \"contracts/PropertyManagement.sol\":327:355  Property[] public properties */\n    tag_6:\n      callvalue\n      dup1\n      iszero\n      tag_28\n      jumpi\n      0x00\n      dup1\n      revert\n    tag_28:\n      pop\n      tag_29\n      0x04\n      dup1\n      calldatasize\n      sub\n      dup2\n      add\n      swap1\n      tag_30\n      swap2\n      swap1\n      tag_10\n      jump\t// in\n    tag_30:\n      tag_31\n      jump\t// in\n    tag_29:\n      mload(0x40)\n      tag_32\n      swap7\n      swap6\n      swap5\n      swap4\n      swap3\n      swap2\n      swap1\n      tag_33\n      jump\t// in\n    tag_32:\n      mload(0x40)\n      dup1\n      swap2\n      sub\n      swap1\n      return\n        /* \"contracts/PropertyManagement.sol\":736:1201  function getProperty(uint256 _propertyId) external view returns (... */\n    tag_11:\n        /* \"contracts/PropertyManagement.sol\":811:829  string memory name */\n      0x60\n        /* \"contracts/PropertyManagement.sol\":840:862  string memory location */\n      dup1\n        /* \"contracts/PropertyManagement.sol\":873:886  uint256 value */\n      0x00\n        /* \"contracts/PropertyManagement.sol\":897:910  address owner */\n      dup1\n        /* \"contracts/PropertyManagement.sol\":921:937  bool isAvailable */\n      0x00\n        /* \"contracts/PropertyManagement.sol\":978:988  properties */\n      dup1\n        /* \"contracts/PropertyManagement.sol\":978:995  properties.length */\n      dup1\n      sload\n      swap1\n      pop\n        /* \"contracts/PropertyManagement.sol\":964:975  _propertyId */\n      dup7\n        /* \"contracts/PropertyManagement.sol\":964:995  _propertyId < properties.length */\n      lt\n        /* \"contracts/PropertyManagement.sol\":956:1026  require(_propertyId < properties.length, \"Property ID does not exist\") */\n      tag_35\n      jumpi\n      mload(0x40)\n      0x08c379a000000000000000000000000000000000000000000000000000000000\n      dup2\n      mstore\n      0x04\n      add\n      tag_36\n      swap1\n      tag_37\n      jump\t// in\n    tag_36:\n      mload(0x40)\n      dup1\n      swap2\n      sub\n      swap1\n      revert\n    tag_35:\n        /* \"contracts/PropertyManagement.sol\":1037:1061  Property memory property */\n      0x00\n        /* \"contracts/PropertyManagement.sol\":1064:1074  properties */\n      dup1\n        /* \"contracts/PropertyManagement.sol\":1075:1086  _propertyId */\n      dup8\n        /* \"contracts/PropertyManagement.sol\":1064:1087  properties[_propertyId] */\n      dup2\n      sload\n      dup2\n      lt\n      tag_38\n      jumpi\n      tag_39\n      tag_40\n      jump\t// in\n    tag_39:\n    tag_38:\n      swap1\n      0x00\n      mstore\n      keccak256(0x00, 0x20)\n      swap1\n      0x05\n      mul\n      add\n        /* \"contracts/PropertyManagement.sol\":1037:1087  Property memory property = properties[_propertyId] */\n      mload(0x40)\n      dup1\n      0xc0\n      add\n      0x40\n      mstore\n      swap1\n      dup2\n      0x00\n      dup3\n      add\n      sload\n      dup2\n      mstore\n      0x20\n      add\n      0x01\n      dup3\n      add\n      dup1\n      sload\n      tag_42\n      swap1\n      tag_43\n      jump\t// in\n    tag_42:\n      dup1\n      0x1f\n      add\n      0x20\n      dup1\n      swap2\n      div\n      mul\n      0x20\n      add\n      mload(0x40)\n      swap1\n      dup2\n      add\n      0x40\n      mstore\n      dup1\n      swap3\n      swap2\n      swap1\n      dup2\n      dup2\n      mstore\n      0x20\n      add\n      dup3\n      dup1\n      sload\n      tag_44\n      swap1\n      tag_43\n      jump\t// in\n    tag_44:\n      dup1\n      iszero\n      tag_45\n      jumpi\n      dup1\n      0x1f\n      lt\n      tag_46\n      jumpi\n      0x0100\n      dup1\n      dup4\n      sload\n      div\n      mul\n      dup4\n      mstore\n      swap2\n      0x20\n      add\n      swap2\n      jump(tag_45)\n    tag_46:\n      dup3\n      add\n      swap2\n      swap1\n      0x00\n      mstore\n      keccak256(0x00, 0x20)\n      swap1\n    tag_47:\n      dup2\n      sload\n      dup2\n      mstore\n      swap1\n      0x01\n      add\n      swap1\n      0x20\n      add\n      dup1\n      dup4\n      gt\n      tag_47\n      jumpi\n      dup3\n      swap1\n      sub\n      0x1f\n      and\n      dup3\n      add\n      swap2\n    tag_45:\n      pop\n      pop\n      pop\n      pop\n      pop\n      dup2\n      mstore\n      0x20\n      add\n      0x02\n      dup3\n      add\n      dup1\n      sload\n      tag_48\n      swap1\n      tag_43\n      jump\t// in\n    tag_48:\n      dup1\n      0x1f\n      add\n      0x20\n      dup1\n      swap2\n      div\n      mul\n      0x20\n      add\n      mload(0x40)\n      swap1\n      dup2\n      add\n      0x40\n      mstore\n      dup1\n      swap3\n      swap2\n      swap1\n      dup2\n      dup2\n      mstore\n      0x20\n      add\n      dup3\n      dup1\n      sload\n      tag_49\n      swap1\n      tag_43\n      jump\t// in\n    tag_49:\n      dup1\n      iszero\n      tag_50\n      jumpi\n      dup1\n      0x1f\n      lt\n      tag_51\n      jumpi\n      0x0100\n      dup1\n      dup4\n      sload\n      div\n      mul\n      dup4\n      mstore\n      swap2\n      0x20\n      add\n      swap2\n      jump(tag_50)\n    tag_51:\n      dup3\n      add\n      swap2\n      swap1\n      0x00\n      mstore\n      keccak256(0x00, 0x20)\n      swap1\n    tag_52:\n      dup2\n      sload\n      dup2\n      mstore\n      swap1\n      0x01\n      add\n      swap1\n      0x20\n      add\n      dup1\n      dup4\n      gt\n      tag_52\n      jumpi\n      dup3\n      swap1\n      sub\n      0x1f\n      and\n      dup3\n      add\n      swap2\n    tag_50:\n      pop\n      pop\n      pop\n      pop\n      pop\n      dup2\n      mstore\n      0x20\n      add\n      0x03\n      dup3\n      add\n      sload\n      dup2\n      mstore\n      0x20\n      add\n      0x04\n      dup3\n      add\n      0x00\n      swap1\n      sload\n      swap1\n      0x0100\n      exp\n      swap1\n      div\n      0xffffffffffffffffffffffffffffffffffffffff\n      and\n      0xffffffffffffffffffffffffffffffffffffffff\n      and\n      0xffffffffffffffffffffffffffffffffffffffff\n      and\n      dup2\n      mstore\n      0x20\n      add\n      0x04\n      dup3\n      add\n      0x14\n      swap1\n      sload\n      swap1\n      0x0100\n      exp\n      swap1\n      div\n      0xff\n      and\n      iszero\n      iszero\n      iszero\n      iszero\n      dup2\n      mstore\n      pop\n      pop\n      swap1\n      pop\n        /* \"contracts/PropertyManagement.sol\":1106:1114  property */\n      dup1\n        /* \"contracts/PropertyManagement.sol\":1106:1119  property.name */\n      0x20\n      add\n      mload\n        /* \"contracts/PropertyManagement.sol\":1121:1129  property */\n      dup2\n        /* \"contracts/PropertyManagement.sol\":1121:1138  property.location */\n      0x40\n      add\n      mload\n        /* \"contracts/PropertyManagement.sol\":1140:1148  property */\n      dup3\n        /* \"contracts/PropertyManagement.sol\":1140:1154  property.value */\n      0x60\n      add\n      mload\n        /* \"contracts/PropertyManagement.sol\":1156:1164  property */\n      dup4\n        /* \"contracts/PropertyManagement.sol\":1156:1170  property.owner */\n      0x80\n      add\n      mload\n        /* \"contracts/PropertyManagement.sol\":1172:1180  property */\n      dup5\n        /* \"contracts/PropertyManagement.sol\":1172:1192  property.isAvailable */\n      0xa0\n      add\n      mload\n        /* \"contracts/PropertyManagement.sol\":1098:1193  return (property.name, property.location, property.value, property.owner, property.isAvailable) */\n      swap6\n      pop\n      swap6\n      pop\n      swap6\n      pop\n      swap6\n      pop\n      swap6\n      pop\n      pop\n        /* \"contracts/PropertyManagement.sol\":736:1201  function getProperty(uint256 _propertyId) external view returns (... */\n      swap2\n      swap4\n      swap6\n      swap1\n      swap3\n      swap5\n      pop\n      jump\t// out\n        /* \"contracts/PropertyManagement.sol\":1213:1835  function buyProperty(uint256 _propertyId) external payable {... */\n    tag_16:\n        /* \"contracts/PropertyManagement.sol\":1330:1331  0 */\n      0x00\n        /* \"contracts/PropertyManagement.sol\":1291:1332  propertyOwners[_propertyId] != address(0) */\n      0xffffffffffffffffffffffffffffffffffffffff\n      and\n        /* \"contracts/PropertyManagement.sol\":1291:1305  propertyOwners */\n      0x01\n        /* \"contracts/PropertyManagement.sol\":1291:1318  propertyOwners[_propertyId] */\n      0x00\n        /* \"contracts/PropertyManagement.sol\":1306:1317  _propertyId */\n      dup4\n        /* \"contracts/PropertyManagement.sol\":1291:1318  propertyOwners[_propertyId] */\n      dup2\n      mstore\n      0x20\n      add\n      swap1\n      dup2\n      mstore\n      0x20\n      add\n      0x00\n      keccak256\n      0x00\n      swap1\n      sload\n      swap1\n      0x0100\n      exp\n      swap1\n      div\n      0xffffffffffffffffffffffffffffffffffffffff\n      and\n        /* \"contracts/PropertyManagement.sol\":1291:1332  propertyOwners[_propertyId] != address(0) */\n      0xffffffffffffffffffffffffffffffffffffffff\n      and\n      sub\n        /* \"contracts/PropertyManagement.sol\":1283:1360  require(propertyOwners[_propertyId] != address(0), \"Property does not exist\") */\n      tag_54\n      jumpi\n      mload(0x40)\n      0x08c379a000000000000000000000000000000000000000000000000000000000\n      dup2\n      mstore\n      0x04\n      add\n      tag_55\n      swap1\n      tag_56\n      jump\t// in\n    tag_55:\n      mload(0x40)\n      dup1\n      swap2\n      sub\n      swap1\n      revert\n    tag_54:\n        /* \"contracts/PropertyManagement.sol\":1379:1389  properties */\n      0x00\n        /* \"contracts/PropertyManagement.sol\":1390:1401  _propertyId */\n      dup2\n        /* \"contracts/PropertyManagement.sol\":1379:1402  properties[_propertyId] */\n      dup2\n      sload\n      dup2\n      lt\n      tag_57\n      jumpi\n      tag_58\n      tag_40\n      jump\t// in\n    tag_58:\n    tag_57:\n      swap1\n      0x00\n      mstore\n      keccak256(0x00, 0x20)\n      swap1\n      0x05\n      mul\n      add\n        /* \"contracts/PropertyManagement.sol\":1379:1414  properties[_propertyId].isAvailable */\n      0x04\n      add\n      0x14\n      swap1\n      sload\n      swap1\n      0x0100\n      exp\n      swap1\n      div\n      0xff\n      and\n        /* \"contracts/PropertyManagement.sol\":1371:1444  require(properties[_propertyId].isAvailable, \"Property is not available\") */\n      tag_60\n      jumpi\n      mload(0x40)\n      0x08c379a000000000000000000000000000000000000000000000000000000000\n      dup2\n      mstore\n      0x04\n      add\n      tag_61\n      swap1\n      tag_62\n      jump\t// in\n    tag_61:\n      mload(0x40)\n      dup1\n      swap2\n      sub\n      swap1\n      revert\n    tag_60:\n        /* \"contracts/PropertyManagement.sol\":1476:1486  properties */\n      0x00\n        /* \"contracts/PropertyManagement.sol\":1487:1498  _propertyId */\n      dup2\n        /* \"contracts/PropertyManagement.sol\":1476:1499  properties[_propertyId] */\n      dup2\n      sload\n      dup2\n      lt\n      tag_63\n      jumpi\n      tag_64\n      tag_40\n      jump\t// in\n    tag_64:\n    tag_63:\n      swap1\n      0x00\n      mstore\n      keccak256(0x00, 0x20)\n      swap1\n      0x05\n      mul\n      add\n        /* \"contracts/PropertyManagement.sol\":1476:1505  properties[_propertyId].value */\n      0x03\n      add\n      sload\n        /* \"contracts/PropertyManagement.sol\":1463:1472  msg.value */\n      callvalue\n        /* \"contracts/PropertyManagement.sol\":1463:1505  msg.value >= properties[_propertyId].value */\n      lt\n      iszero\n        /* \"contracts/PropertyManagement.sol\":1455:1528  require(msg.value >= properties[_propertyId].value, \"Insufficient funds\") */\n      tag_66\n      jumpi\n      mload(0x40)\n      0x08c379a000000000000000000000000000000000000000000000000000000000\n      dup2\n      mstore\n      0x04\n      add\n      tag_67\n      swap1\n      tag_68\n      jump\t// in\n    tag_67:\n      mload(0x40)\n      dup1\n      swap2\n      sub\n      swap1\n      revert\n    tag_66:\n        /* \"contracts/PropertyManagement.sol\":1549:1577  address payable currentOwner */\n      0x00\n        /* \"contracts/PropertyManagement.sol\":1588:1602  propertyOwners */\n      0x01\n        /* \"contracts/PropertyManagement.sol\":1588:1615  propertyOwners[_propertyId] */\n      0x00\n        /* \"contracts/PropertyManagement.sol\":1603:1614  _propertyId */\n      dup4\n        /* \"contracts/PropertyManagement.sol\":1588:1615  propertyOwners[_propertyId] */\n      dup2\n      mstore\n      0x20\n      add\n      swap1\n      dup2\n      mstore\n      0x20\n      add\n      0x00\n      keccak256\n      0x00\n      swap1\n      sload\n      swap1\n      0x0100\n      exp\n      swap1\n      div\n      0xffffffffffffffffffffffffffffffffffffffff\n      and\n        /* \"contracts/PropertyManagement.sol\":1549:1616  address payable currentOwner = payable(propertyOwners[_propertyId]) */\n      swap1\n      pop\n        /* \"contracts/PropertyManagement.sol\":1627:1639  currentOwner */\n      dup1\n        /* \"contracts/PropertyManagement.sol\":1627:1648  currentOwner.transfer */\n      0xffffffffffffffffffffffffffffffffffffffff\n      and\n        /* \"contracts/PropertyManagement.sol\":1627:1659  currentOwner.transfer(msg.value) */\n      0x08fc\n        /* \"contracts/PropertyManagement.sol\":1649:1658  msg.value */\n      callvalue\n        /* \"contracts/PropertyManagement.sol\":1627:1659  currentOwner.transfer(msg.value) */\n      swap1\n      dup2\n      iszero\n      mul\n      swap1\n      mload(0x40)\n      0x00\n      mload(0x40)\n      dup1\n      dup4\n      sub\n      dup2\n      dup6\n      dup9\n      dup9\n      call\n      swap4\n      pop\n      pop\n      pop\n      pop\n      iszero\n      dup1\n      iszero\n      tag_70\n      jumpi\n      returndatasize\n      0x00\n      dup1\n      returndatacopy\n      revert(0x00, returndatasize)\n    tag_70:\n      pop\n        /* \"contracts/PropertyManagement.sol\":1712:1722  msg.sender */\n      caller\n        /* \"contracts/PropertyManagement.sol\":1680:1690  properties */\n      0x00\n        /* \"contracts/PropertyManagement.sol\":1691:1702  _propertyId */\n      dup4\n        /* \"contracts/PropertyManagement.sol\":1680:1703  properties[_propertyId] */\n      dup2\n      sload\n      dup2\n      lt\n      tag_71\n      jumpi\n      tag_72\n      tag_40\n      jump\t// in\n    tag_72:\n    tag_71:\n      swap1\n      0x00\n      mstore\n      keccak256(0x00, 0x20)\n      swap1\n      0x05\n      mul\n      add\n        /* \"contracts/PropertyManagement.sol\":1680:1709  properties[_propertyId].owner */\n      0x04\n      add\n      0x00\n        /* \"contracts/PropertyManagement.sol\":1680:1722  properties[_propertyId].owner = msg.sender */\n      0x0100\n      exp\n      dup2\n      sload\n      dup2\n      0xffffffffffffffffffffffffffffffffffffffff\n      mul\n      not\n      and\n      swap1\n      dup4\n      0xffffffffffffffffffffffffffffffffffffffff\n      and\n      mul\n      or\n      swap1\n      sstore\n      pop\n        /* \"contracts/PropertyManagement.sol\":1771:1776  false */\n      0x00\n        /* \"contracts/PropertyManagement.sol\":1733:1743  properties */\n      dup1\n        /* \"contracts/PropertyManagement.sol\":1744:1755  _propertyId */\n      dup4\n        /* \"contracts/PropertyManagement.sol\":1733:1756  properties[_propertyId] */\n      dup2\n      sload\n      dup2\n      lt\n      tag_74\n      jumpi\n      tag_75\n      tag_40\n      jump\t// in\n    tag_75:\n    tag_74:\n      swap1\n      0x00\n      mstore\n      keccak256(0x00, 0x20)\n      swap1\n      0x05\n      mul\n      add\n        /* \"contracts/PropertyManagement.sol\":1733:1768  properties[_propertyId].isAvailable */\n      0x04\n      add\n      0x14\n        /* \"contracts/PropertyManagement.sol\":1733:1776  properties[_propertyId].isAvailable = false */\n      0x0100\n      exp\n      dup2\n      sload\n      dup2\n      0xff\n      mul\n      not\n      and\n      swap1\n      dup4\n      iszero\n      iszero\n      mul\n      or\n      swap1\n      sstore\n      pop\n        /* \"contracts/PropertyManagement.sol\":1817:1827  msg.sender */\n      caller\n        /* \"contracts/PropertyManagement.sol\":1787:1801  propertyOwners */\n      0x01\n        /* \"contracts/PropertyManagement.sol\":1787:1814  propertyOwners[_propertyId] */\n      0x00\n        /* \"contracts/PropertyManagement.sol\":1802:1813  _propertyId */\n      dup5\n        /* \"contracts/PropertyManagement.sol\":1787:1814  propertyOwners[_propertyId] */\n      dup2\n      mstore\n      0x20\n      add\n      swap1\n      dup2\n      mstore\n      0x20\n      add\n      0x00\n      keccak256\n      0x00\n        /* \"contracts/PropertyManagement.sol\":1787:1827  propertyOwners[_propertyId] = msg.sender */\n      0x0100\n      exp\n      dup2\n      sload\n      dup2\n      0xffffffffffffffffffffffffffffffffffffffff\n      mul\n      not\n      and\n      swap1\n      dup4\n      0xffffffffffffffffffffffffffffffffffffffff\n      and\n      mul\n      or\n      swap1\n      sstore\n      pop\n        /* \"contracts/PropertyManagement.sol\":1272:1835  {... */\n      pop\n        /* \"contracts/PropertyManagement.sol\":1213:1835  function buyProperty(uint256 _propertyId) external payable {... */\n      pop\n      jump\t// out\n        /* \"contracts/PropertyManagement.sol\":362:411  mapping(uint256 => address) public propertyOwners */\n    tag_20:\n      mstore(0x20, 0x01)\n      dup1\n      0x00\n      mstore\n      keccak256(0x00, 0x40)\n      0x00\n      swap2\n      pop\n      sload\n      swap1\n      0x0100\n      exp\n      swap1\n      div\n      0xffffffffffffffffffffffffffffffffffffffff\n      and\n      dup2\n      jump\t// out\n        /* \"contracts/PropertyManagement.sol\":424:724  function addProperty(string memory _name, string memory _location, uint256 _value) external {... */\n    tag_27:\n        /* \"contracts/PropertyManagement.sol\":527:548  uint256 newPropertyId */\n      0x00\n        /* \"contracts/PropertyManagement.sol\":551:561  properties */\n      dup1\n        /* \"contracts/PropertyManagement.sol\":551:568  properties.length */\n      dup1\n      sload\n      swap1\n      pop\n        /* \"contracts/PropertyManagement.sol\":527:568  uint256 newPropertyId = properties.length */\n      swap1\n      pop\n        /* \"contracts/PropertyManagement.sol\":579:589  properties */\n      0x00\n        /* \"contracts/PropertyManagement.sol\":595:662  Property(newPropertyId, _name, _location, _value, msg.sender, true) */\n      mload(0x40)\n      dup1\n      0xc0\n      add\n      0x40\n      mstore\n      dup1\n        /* \"contracts/PropertyManagement.sol\":604:617  newPropertyId */\n      dup4\n        /* \"contracts/PropertyManagement.sol\":595:662  Property(newPropertyId, _name, _location, _value, msg.sender, true) */\n      dup2\n      mstore\n      0x20\n      add\n        /* \"contracts/PropertyManagement.sol\":619:624  _name */\n      dup7\n        /* \"contracts/PropertyManagement.sol\":595:662  Property(newPropertyId, _name, _location, _value, msg.sender, true) */\n      dup2\n      mstore\n      0x20\n      add\n        /* \"contracts/PropertyManagement.sol\":626:635  _location */\n      dup6\n        /* \"contracts/PropertyManagement.sol\":595:662  Property(newPropertyId, _name, _location, _value, msg.sender, true) */\n      dup2\n      mstore\n      0x20\n      add\n        /* \"contracts/PropertyManagement.sol\":637:643  _value */\n      dup5\n        /* \"contracts/PropertyManagement.sol\":595:662  Property(newPropertyId, _name, _location, _value, msg.sender, true) */\n      dup2\n      mstore\n      0x20\n      add\n        /* \"contracts/PropertyManagement.sol\":645:655  msg.sender */\n      caller\n        /* \"contracts/PropertyManagement.sol\":595:662  Property(newPropertyId, _name, _location, _value, msg.sender, true) */\n      0xffffffffffffffffffffffffffffffffffffffff\n      and\n      dup2\n      mstore\n      0x20\n      add\n        /* \"contracts/PropertyManagement.sol\":657:661  true */\n      0x01\n        /* \"contracts/PropertyManagement.sol\":595:662  Property(newPropertyId, _name, _location, _value, msg.sender, true) */\n      iszero\n      iszero\n      dup2\n      mstore\n      pop\n        /* \"contracts/PropertyManagement.sol\":579:663  properties.push(Property(newPropertyId, _name, _location, _value, msg.sender, true)) */\n      swap1\n      dup1\n      0x01\n      dup2\n      sload\n      add\n      dup1\n      dup3\n      sstore\n      dup1\n      swap2\n      pop\n      pop\n      0x01\n      swap1\n      sub\n      swap1\n      0x00\n      mstore\n      keccak256(0x00, 0x20)\n      swap1\n      0x05\n      mul\n      add\n      0x00\n      swap1\n      swap2\n      swap1\n      swap2\n      swap1\n      swap2\n      pop\n      0x00\n      dup3\n      add\n      mload\n      dup2\n      0x00\n      add\n      sstore\n      0x20\n      dup3\n      add\n      mload\n      dup2\n      0x01\n      add\n      swap1\n      dup2\n      tag_79\n      swap2\n      swap1\n      tag_80\n      jump\t// in\n    tag_79:\n      pop\n      0x40\n      dup3\n      add\n      mload\n      dup2\n      0x02\n      add\n      swap1\n      dup2\n      tag_81\n      swap2\n      swap1\n      tag_80\n      jump\t// in\n    tag_81:\n      pop\n      0x60\n      dup3\n      add\n      mload\n      dup2\n      0x03\n      add\n      sstore\n      0x80\n      dup3\n      add\n      mload\n      dup2\n      0x04\n      add\n      exp(0x0100, 0x00)\n      dup2\n      sload\n      dup2\n      0xffffffffffffffffffffffffffffffffffffffff\n      mul\n      not\n      and\n      swap1\n      dup4\n      0xffffffffffffffffffffffffffffffffffffffff\n      and\n      mul\n      or\n      swap1\n      sstore\n      pop\n      0xa0\n      dup3\n      add\n      mload\n      dup2\n      0x04\n      add\n      exp(0x0100, 0x14)\n      dup2\n      sload\n      dup2\n      0xff\n      mul\n      not\n      and\n      swap1\n      dup4\n      iszero\n      iszero\n      mul\n      or\n      swap1\n      sstore\n      pop\n      pop\n      pop\n        /* \"contracts/PropertyManagement.sol\":706:716  msg.sender */\n      caller\n        /* \"contracts/PropertyManagement.sol\":674:688  propertyOwners */\n      0x01\n        /* \"contracts/PropertyManagement.sol\":674:703  propertyOwners[newPropertyId] */\n      0x00\n        /* \"contracts/PropertyManagement.sol\":689:702  newPropertyId */\n      dup4\n        /* \"contracts/PropertyManagement.sol\":674:703  propertyOwners[newPropertyId] */\n      dup2\n      mstore\n      0x20\n      add\n      swap1\n      dup2\n      mstore\n      0x20\n      add\n      0x00\n      keccak256\n      0x00\n        /* \"contracts/PropertyManagement.sol\":674:716  propertyOwners[newPropertyId] = msg.sender */\n      0x0100\n      exp\n      dup2\n      sload\n      dup2\n      0xffffffffffffffffffffffffffffffffffffffff\n      mul\n      not\n      and\n      swap1\n      dup4\n      0xffffffffffffffffffffffffffffffffffffffff\n      and\n      mul\n      or\n      swap1\n      sstore\n      pop\n        /* \"contracts/PropertyManagement.sol\":516:724  {... */\n      pop\n        /* \"contracts/PropertyManagement.sol\":424:724  function addProperty(string memory _name, string memory _location, uint256 _value) external {... */\n      pop\n      pop\n      pop\n      jump\t// out\n        /* \"contracts/PropertyManagement.sol\":327:355  Property[] public properties */\n    tag_31:\n      0x00\n      dup2\n      dup2\n      sload\n      dup2\n      lt\n      tag_82\n      jumpi\n      0x00\n      dup1\n      revert\n    tag_82:\n      swap1\n      0x00\n      mstore\n      keccak256(0x00, 0x20)\n      swap1\n      0x05\n      mul\n      add\n      0x00\n      swap2\n      pop\n      swap1\n      pop\n      dup1\n      0x00\n      add\n      sload\n      swap1\n      dup1\n      0x01\n      add\n      dup1\n      sload\n      tag_84\n      swap1\n      tag_43\n      jump\t// in\n    tag_84:\n      dup1\n      0x1f\n      add\n      0x20\n      dup1\n      swap2\n      div\n      mul\n      0x20\n      add\n      mload(0x40)\n      swap1\n      dup2\n      add\n      0x40\n      mstore\n      dup1\n      swap3\n      swap2\n      swap1\n      dup2\n      dup2\n      mstore\n      0x20\n      add\n      dup3\n      dup1\n      sload\n      tag_85\n      swap1\n      tag_43\n      jump\t// in\n    tag_85:\n      dup1\n      iszero\n      tag_86\n      jumpi\n      dup1\n      0x1f\n      lt\n      tag_87\n      jumpi\n      0x0100\n      dup1\n      dup4\n      sload\n      div\n      mul\n      dup4\n      mstore\n      swap2\n      0x20\n      add\n      swap2\n      jump(tag_86)\n    tag_87:\n      dup3\n      add\n      swap2\n      swap1\n      0x00\n      mstore\n      keccak256(0x00, 0x20)\n      swap1\n    tag_88:\n      dup2\n      sload\n      dup2\n      mstore\n      swap1\n      0x01\n      add\n      swap1\n      0x20\n      add\n      dup1\n      dup4\n      gt\n      tag_88\n      jumpi\n      dup3\n      swap1\n      sub\n      0x1f\n      and\n      dup3\n      add\n      swap2\n    tag_86:\n      pop\n      pop\n      pop\n      pop\n      pop\n      swap1\n      dup1\n      0x02\n      add\n      dup1\n      sload\n      tag_89\n      swap1\n      tag_43\n      jump\t// in\n    tag_89:\n      dup1\n      0x1f\n      add\n      0x20\n      dup1\n      swap2\n      div\n      mul\n      0x20\n      add\n      mload(0x40)\n      swap1\n      dup2\n      add\n      0x40\n      mstore\n      dup1\n      swap3\n      swap2\n      swap1\n      dup2\n      dup2\n      mstore\n      0x20\n      add\n      dup3\n      dup1\n      sload\n      tag_90\n      swap1\n      tag_43\n      jump\t// in\n    tag_90:\n      dup1\n      iszero\n      tag_91\n      jumpi\n      dup1\n      0x1f\n      lt\n      tag_92\n      jumpi\n      0x0100\n      dup1\n      dup4\n      sload\n      div\n      mul\n      dup4\n      mstore\n      swap2\n      0x20\n      add\n      swap2\n      jump(tag_91)\n    tag_92:\n      dup3\n      add\n      swap2\n      swap1\n      0x00\n      mstore\n      keccak256(0x00, 0x20)\n      swap1\n    tag_93:\n      dup2\n      sload\n      dup2\n      mstore\n      swap1\n      0x01\n      add\n      swap1\n      0x20\n      add\n      dup1\n      dup4\n      gt\n      tag_93\n      jumpi\n      dup3\n      swap1\n      sub\n      0x1f\n      and\n      dup3\n      add\n      swap2\n    tag_91:\n      pop\n      pop\n      pop\n      pop\n      pop\n      swap1\n      dup1\n      0x03\n      add\n      sload\n      swap1\n      dup1\n      0x04\n      add\n      0x00\n      swap1\n      sload\n      swap1\n      0x0100\n      exp\n      swap1\n      div\n      0xffffffffffffffffffffffffffffffffffffffff\n      and\n      swap1\n      dup1\n      0x04\n      add\n      0x14\n      swap1\n      sload\n      swap1\n      0x0100\n      exp\n      swap1\n      div\n      0xff\n      and\n      swap1\n      pop\n      dup7\n      jump\t// out\n        /* \"#utility.yul\":7:82   */\n    tag_94:\n        /* \"#utility.yul\":40:46   */\n      0x00\n        /* \"#utility.yul\":73:75   */\n      0x40\n        /* \"#utility.yul\":67:76   */\n      mload\n        /* \"#utility.yul\":57:76   */\n      swap1\n      pop\n        /* \"#utility.yul\":7:82   */\n      swap1\n      jump\t// out\n        /* \"#utility.yul\":88:205   */\n    tag_95:\n        /* \"#utility.yul\":197:198   */\n      0x00\n        /* \"#utility.yul\":194:195   */\n      dup1\n        /* \"#utility.yul\":187:199   */\n      revert\n        /* \"#utility.yul\":211:328   */\n    tag_96:\n        /* \"#utility.yul\":320:321   */\n      0x00\n        /* \"#utility.yul\":317:318   */\n      dup1\n        /* \"#utility.yul\":310:322   */\n      revert\n        /* \"#utility.yul\":334:411   */\n    tag_97:\n        /* \"#utility.yul\":371:378   */\n      0x00\n        /* \"#utility.yul\":400:405   */\n      dup2\n        /* \"#utility.yul\":389:405   */\n      swap1\n      pop\n        /* \"#utility.yul\":334:411   */\n      swap2\n      swap1\n      pop\n      jump\t// out\n        /* \"#utility.yul\":417:539   */\n    tag_98:\n        /* \"#utility.yul\":490:514   */\n      tag_150\n        /* \"#utility.yul\":508:513   */\n      dup2\n        /* \"#utility.yul\":490:514   */\n      tag_97\n      jump\t// in\n    tag_150:\n        /* \"#utility.yul\":483:488   */\n      dup2\n        /* \"#utility.yul\":480:515   */\n      eq\n        /* \"#utility.yul\":470:533   */\n      tag_151\n      jumpi\n        /* \"#utility.yul\":529:530   */\n      0x00\n        /* \"#utility.yul\":526:527   */\n      dup1\n        /* \"#utility.yul\":519:531   */\n      revert\n        /* \"#utility.yul\":470:533   */\n    tag_151:\n        /* \"#utility.yul\":417:539   */\n      pop\n      jump\t// out\n        /* \"#utility.yul\":545:684   */\n    tag_99:\n        /* \"#utility.yul\":591:596   */\n      0x00\n        /* \"#utility.yul\":629:635   */\n      dup2\n        /* \"#utility.yul\":616:636   */\n      calldataload\n        /* \"#utility.yul\":607:636   */\n      swap1\n      pop\n        /* \"#utility.yul\":645:678   */\n      tag_153\n        /* \"#utility.yul\":672:677   */\n      dup2\n        /* \"#utility.yul\":645:678   */\n      tag_98\n      jump\t// in\n    tag_153:\n        /* \"#utility.yul\":545:684   */\n      swap3\n      swap2\n      pop\n      pop\n      jump\t// out\n        /* \"#utility.yul\":690:1019   */\n    tag_10:\n        /* \"#utility.yul\":749:755   */\n      0x00\n        /* \"#utility.yul\":798:800   */\n      0x20\n        /* \"#utility.yul\":786:795   */\n      dup3\n        /* \"#utility.yul\":777:784   */\n      dup5\n        /* \"#utility.yul\":773:796   */\n      sub\n        /* \"#utility.yul\":769:801   */\n      slt\n        /* \"#utility.yul\":766:885   */\n      iszero\n      tag_155\n      jumpi\n        /* \"#utility.yul\":804:883   */\n      tag_156\n      tag_95\n      jump\t// in\n    tag_156:\n        /* \"#utility.yul\":766:885   */\n    tag_155:\n        /* \"#utility.yul\":924:925   */\n      0x00\n        /* \"#utility.yul\":949:1002   */\n      tag_157\n        /* \"#utility.yul\":994:1001   */\n      dup5\n        /* \"#utility.yul\":985:991   */\n      dup3\n        /* \"#utility.yul\":974:983   */\n      dup6\n        /* \"#utility.yul\":970:992   */\n      add\n        /* \"#utility.yul\":949:1002   */\n      tag_99\n      jump\t// in\n    tag_157:\n        /* \"#utility.yul\":939:1002   */\n      swap2\n      pop\n        /* \"#utility.yul\":895:1012   */\n      pop\n        /* \"#utility.yul\":690:1019   */\n      swap3\n      swap2\n      pop\n      pop\n      jump\t// out\n        /* \"#utility.yul\":1025:1124   */\n    tag_100:\n        /* \"#utility.yul\":1077:1083   */\n      0x00\n        /* \"#utility.yul\":1111:1116   */\n      dup2\n        /* \"#utility.yul\":1105:1117   */\n      mload\n        /* \"#utility.yul\":1095:1117   */\n      swap1\n      pop\n        /* \"#utility.yul\":1025:1124   */\n      swap2\n      swap1\n      pop\n      jump\t// out\n        /* \"#utility.yul\":1130:1299   */\n    tag_101:\n        /* \"#utility.yul\":1214:1225   */\n      0x00\n        /* \"#utility.yul\":1248:1254   */\n      dup3\n        /* \"#utility.yul\":1243:1246   */\n      dup3\n        /* \"#utility.yul\":1236:1255   */\n      mstore\n        /* \"#utility.yul\":1288:1292   */\n      0x20\n        /* \"#utility.yul\":1283:1286   */\n      dup3\n        /* \"#utility.yul\":1279:1293   */\n      add\n        /* \"#utility.yul\":1264:1293   */\n      swap1\n      pop\n        /* \"#utility.yul\":1130:1299   */\n      swap3\n      swap2\n      pop\n      pop\n      jump\t// out\n        /* \"#utility.yul\":1305:1444   */\n    tag_102:\n        /* \"#utility.yul\":1394:1400   */\n      dup3\n        /* \"#utility.yul\":1389:1392   */\n      dup2\n        /* \"#utility.yul\":1384:1387   */\n      dup4\n        /* \"#utility.yul\":1378:1401   */\n      mcopy\n        /* \"#utility.yul\":1435:1436   */\n      0x00\n        /* \"#utility.yul\":1426:1432   */\n      dup4\n        /* \"#utility.yul\":1421:1424   */\n      dup4\n        /* \"#utility.yul\":1417:1433   */\n      add\n        /* \"#utility.yul\":1410:1437   */\n      mstore\n        /* \"#utility.yul\":1305:1444   */\n      pop\n      pop\n      pop\n      jump\t// out\n        /* \"#utility.yul\":1450:1552   */\n    tag_103:\n        /* \"#utility.yul\":1491:1497   */\n      0x00\n        /* \"#utility.yul\":1542:1544   */\n      0x1f\n        /* \"#utility.yul\":1538:1545   */\n      not\n        /* \"#utility.yul\":1533:1535   */\n      0x1f\n        /* \"#utility.yul\":1526:1531   */\n      dup4\n        /* \"#utility.yul\":1522:1536   */\n      add\n        /* \"#utility.yul\":1518:1546   */\n      and\n        /* \"#utility.yul\":1508:1546   */\n      swap1\n      pop\n        /* \"#utility.yul\":1450:1552   */\n      swap2\n      swap1\n      pop\n      jump\t// out\n        /* \"#utility.yul\":1558:1935   */\n    tag_104:\n        /* \"#utility.yul\":1646:1649   */\n      0x00\n        /* \"#utility.yul\":1674:1713   */\n      tag_163\n        /* \"#utility.yul\":1707:1712   */\n      dup3\n        /* \"#utility.yul\":1674:1713   */\n      tag_100\n      jump\t// in\n    tag_163:\n        /* \"#utility.yul\":1729:1800   */\n      tag_164\n        /* \"#utility.yul\":1793:1799   */\n      dup2\n        /* \"#utility.yul\":1788:1791   */\n      dup6\n        /* \"#utility.yul\":1729:1800   */\n      tag_101\n      jump\t// in\n    tag_164:\n        /* \"#utility.yul\":1722:1800   */\n      swap4\n      pop\n        /* \"#utility.yul\":1809:1874   */\n      tag_165\n        /* \"#utility.yul\":1867:1873   */\n      dup2\n        /* \"#utility.yul\":1862:1865   */\n      dup6\n        /* \"#utility.yul\":1855:1859   */\n      0x20\n        /* \"#utility.yul\":1848:1853   */\n      dup7\n        /* \"#utility.yul\":1844:1860   */\n      add\n        /* \"#utility.yul\":1809:1874   */\n      tag_102\n      jump\t// in\n    tag_165:\n        /* \"#utility.yul\":1899:1928   */\n      tag_166\n        /* \"#utility.yul\":1921:1927   */\n      dup2\n        /* \"#utility.yul\":1899:1928   */\n      tag_103\n      jump\t// in\n    tag_166:\n        /* \"#utility.yul\":1894:1897   */\n      dup5\n        /* \"#utility.yul\":1890:1929   */\n      add\n        /* \"#utility.yul\":1883:1929   */\n      swap2\n      pop\n        /* \"#utility.yul\":1650:1935   */\n      pop\n        /* \"#utility.yul\":1558:1935   */\n      swap3\n      swap2\n      pop\n      pop\n      jump\t// out\n        /* \"#utility.yul\":1941:2059   */\n    tag_105:\n        /* \"#utility.yul\":2028:2052   */\n      tag_168\n        /* \"#utility.yul\":2046:2051   */\n      dup2\n        /* \"#utility.yul\":2028:2052   */\n      tag_97\n      jump\t// in\n    tag_168:\n        /* \"#utility.yul\":2023:2026   */\n      dup3\n        /* \"#utility.yul\":2016:2053   */\n      mstore\n        /* \"#utility.yul\":1941:2059   */\n      pop\n      pop\n      jump\t// out\n        /* \"#utility.yul\":2065:2191   */\n    tag_106:\n        /* \"#utility.yul\":2102:2109   */\n      0x00\n        /* \"#utility.yul\":2142:2184   */\n      0xffffffffffffffffffffffffffffffffffffffff\n        /* \"#utility.yul\":2135:2140   */\n      dup3\n        /* \"#utility.yul\":2131:2185   */\n      and\n        /* \"#utility.yul\":2120:2185   */\n      swap1\n      pop\n        /* \"#utility.yul\":2065:2191   */\n      swap2\n      swap1\n      pop\n      jump\t// out\n        /* \"#utility.yul\":2197:2293   */\n    tag_107:\n        /* \"#utility.yul\":2234:2241   */\n      0x00\n        /* \"#utility.yul\":2263:2287   */\n      tag_171\n        /* \"#utility.yul\":2281:2286   */\n      dup3\n        /* \"#utility.yul\":2263:2287   */\n      tag_106\n      jump\t// in\n    tag_171:\n        /* \"#utility.yul\":2252:2287   */\n      swap1\n      pop\n        /* \"#utility.yul\":2197:2293   */\n      swap2\n      swap1\n      pop\n      jump\t// out\n        /* \"#utility.yul\":2299:2417   */\n    tag_108:\n        /* \"#utility.yul\":2386:2410   */\n      tag_173\n        /* \"#utility.yul\":2404:2409   */\n      dup2\n        /* \"#utility.yul\":2386:2410   */\n      tag_107\n      jump\t// in\n    tag_173:\n        /* \"#utility.yul\":2381:2384   */\n      dup3\n        /* \"#utility.yul\":2374:2411   */\n      mstore\n        /* \"#utility.yul\":2299:2417   */\n      pop\n      pop\n      jump\t// out\n        /* \"#utility.yul\":2423:2513   */\n    tag_109:\n        /* \"#utility.yul\":2457:2464   */\n      0x00\n        /* \"#utility.yul\":2500:2505   */\n      dup2\n        /* \"#utility.yul\":2493:2506   */\n      iszero\n        /* \"#utility.yul\":2486:2507   */\n      iszero\n        /* \"#utility.yul\":2475:2507   */\n      swap1\n      pop\n        /* \"#utility.yul\":2423:2513   */\n      swap2\n      swap1\n      pop\n      jump\t// out\n        /* \"#utility.yul\":2519:2628   */\n    tag_110:\n        /* \"#utility.yul\":2600:2621   */\n      tag_176\n        /* \"#utility.yul\":2615:2620   */\n      dup2\n        /* \"#utility.yul\":2600:2621   */\n      tag_109\n      jump\t// in\n    tag_176:\n        /* \"#utility.yul\":2595:2598   */\n      dup3\n        /* \"#utility.yul\":2588:2622   */\n      mstore\n        /* \"#utility.yul\":2519:2628   */\n      pop\n      pop\n      jump\t// out\n        /* \"#utility.yul\":2634:3468   */\n    tag_13:\n        /* \"#utility.yul\":2873:2877   */\n      0x00\n        /* \"#utility.yul\":2911:2914   */\n      0xa0\n        /* \"#utility.yul\":2900:2909   */\n      dup3\n        /* \"#utility.yul\":2896:2915   */\n      add\n        /* \"#utility.yul\":2888:2915   */\n      swap1\n      pop\n        /* \"#utility.yul\":2961:2970   */\n      dup2\n        /* \"#utility.yul\":2955:2959   */\n      dup2\n        /* \"#utility.yul\":2951:2971   */\n      sub\n        /* \"#utility.yul\":2947:2948   */\n      0x00\n        /* \"#utility.yul\":2936:2945   */\n      dup4\n        /* \"#utility.yul\":2932:2949   */\n      add\n        /* \"#utility.yul\":2925:2972   */\n      mstore\n        /* \"#utility.yul\":2989:3067   */\n      tag_178\n        /* \"#utility.yul\":3062:3066   */\n      dup2\n        /* \"#utility.yul\":3053:3059   */\n      dup9\n        /* \"#utility.yul\":2989:3067   */\n      tag_104\n      jump\t// in\n    tag_178:\n        /* \"#utility.yul\":2981:3067   */\n      swap1\n      pop\n        /* \"#utility.yul\":3114:3123   */\n      dup2\n        /* \"#utility.yul\":3108:3112   */\n      dup2\n        /* \"#utility.yul\":3104:3124   */\n      sub\n        /* \"#utility.yul\":3099:3101   */\n      0x20\n        /* \"#utility.yul\":3088:3097   */\n      dup4\n        /* \"#utility.yul\":3084:3102   */\n      add\n        /* \"#utility.yul\":3077:3125   */\n      mstore\n        /* \"#utility.yul\":3142:3220   */\n      tag_179\n        /* \"#utility.yul\":3215:3219   */\n      dup2\n        /* \"#utility.yul\":3206:3212   */\n      dup8\n        /* \"#utility.yul\":3142:3220   */\n      tag_104\n      jump\t// in\n    tag_179:\n        /* \"#utility.yul\":3134:3220   */\n      swap1\n      pop\n        /* \"#utility.yul\":3230:3302   */\n      tag_180\n        /* \"#utility.yul\":3298:3300   */\n      0x40\n        /* \"#utility.yul\":3287:3296   */\n      dup4\n        /* \"#utility.yul\":3283:3301   */\n      add\n        /* \"#utility.yul\":3274:3280   */\n      dup7\n        /* \"#utility.yul\":3230:3302   */\n      tag_105\n      jump\t// in\n    tag_180:\n        /* \"#utility.yul\":3312:3384   */\n      tag_181\n        /* \"#utility.yul\":3380:3382   */\n      0x60\n        /* \"#utility.yul\":3369:3378   */\n      dup4\n        /* \"#utility.yul\":3365:3383   */\n      add\n        /* \"#utility.yul\":3356:3362   */\n      dup6\n        /* \"#utility.yul\":3312:3384   */\n      tag_108\n      jump\t// in\n    tag_181:\n        /* \"#utility.yul\":3394:3461   */\n      tag_182\n        /* \"#utility.yul\":3456:3459   */\n      0x80\n        /* \"#utility.yul\":3445:3454   */\n      dup4\n        /* \"#utility.yul\":3441:3460   */\n      add\n        /* \"#utility.yul\":3432:3438   */\n      dup5\n        /* \"#utility.yul\":3394:3461   */\n      tag_110\n      jump\t// in\n    tag_182:\n        /* \"#utility.yul\":2634:3468   */\n      swap7\n      swap6\n      pop\n      pop\n      pop\n      pop\n      pop\n      pop\n      jump\t// out\n        /* \"#utility.yul\":3474:3696   */\n    tag_22:\n        /* \"#utility.yul\":3567:3571   */\n      0x00\n        /* \"#utility.yul\":3605:3607   */\n      0x20\n        /* \"#utility.yul\":3594:3603   */\n      dup3\n        /* \"#utility.yul\":3590:3608   */\n      add\n        /* \"#utility.yul\":3582:3608   */\n      swap1\n      pop\n        /* \"#utility.yul\":3618:3689   */\n      tag_184\n        /* \"#utility.yul\":3686:3687   */\n      0x00\n        /* \"#utility.yul\":3675:3684   */\n      dup4\n        /* \"#utility.yul\":3671:3688   */\n      add\n        /* \"#utility.yul\":3662:3668   */\n      dup5\n        /* \"#utility.yul\":3618:3689   */\n      tag_108\n      jump\t// in\n    tag_184:\n        /* \"#utility.yul\":3474:3696   */\n      swap3\n      swap2\n      pop\n      pop\n      jump\t// out\n        /* \"#utility.yul\":3702:3819   */\n    tag_111:\n        /* \"#utility.yul\":3811:3812   */\n      0x00\n        /* \"#utility.yul\":3808:3809   */\n      dup1\n        /* \"#utility.yul\":3801:3813   */\n      revert\n        /* \"#utility.yul\":3825:3942   */\n    tag_112:\n        /* \"#utility.yul\":3934:3935   */\n      0x00\n        /* \"#utility.yul\":3931:3932   */\n      dup1\n        /* \"#utility.yul\":3924:3936   */\n      revert\n        /* \"#utility.yul\":3948:4128   */\n    tag_113:\n        /* \"#utility.yul\":3996:4073   */\n      0x4e487b7100000000000000000000000000000000000000000000000000000000\n        /* \"#utility.yul\":3993:3994   */\n      0x00\n        /* \"#utility.yul\":3986:4074   */\n      mstore\n        /* \"#utility.yul\":4093:4097   */\n      0x41\n        /* \"#utility.yul\":4090:4091   */\n      0x04\n        /* \"#utility.yul\":4083:4098   */\n      mstore\n        /* \"#utility.yul\":4117:4121   */\n      0x24\n        /* \"#utility.yul\":4114:4115   */\n      0x00\n        /* \"#utility.yul\":4107:4122   */\n      revert\n        /* \"#utility.yul\":4134:4415   */\n    tag_114:\n        /* \"#utility.yul\":4217:4244   */\n      tag_189\n        /* \"#utility.yul\":4239:4243   */\n      dup3\n        /* \"#utility.yul\":4217:4244   */\n      tag_103\n      jump\t// in\n    tag_189:\n        /* \"#utility.yul\":4209:4215   */\n      dup2\n        /* \"#utility.yul\":4205:4245   */\n      add\n        /* \"#utility.yul\":4347:4353   */\n      dup2\n        /* \"#utility.yul\":4335:4345   */\n      dup2\n        /* \"#utility.yul\":4332:4354   */\n      lt\n        /* \"#utility.yul\":4311:4329   */\n      0xffffffffffffffff\n        /* \"#utility.yul\":4299:4309   */\n      dup3\n        /* \"#utility.yul\":4296:4330   */\n      gt\n        /* \"#utility.yul\":4293:4355   */\n      or\n        /* \"#utility.yul\":4290:4378   */\n      iszero\n      tag_190\n      jumpi\n        /* \"#utility.yul\":4358:4376   */\n      tag_191\n      tag_113\n      jump\t// in\n    tag_191:\n        /* \"#utility.yul\":4290:4378   */\n    tag_190:\n        /* \"#utility.yul\":4398:4408   */\n      dup1\n        /* \"#utility.yul\":4394:4396   */\n      0x40\n        /* \"#utility.yul\":4387:4409   */\n      mstore\n        /* \"#utility.yul\":4177:4415   */\n      pop\n        /* \"#utility.yul\":4134:4415   */\n      pop\n      pop\n      jump\t// out\n        /* \"#utility.yul\":4421:4550   */\n    tag_115:\n        /* \"#utility.yul\":4455:4461   */\n      0x00\n        /* \"#utility.yul\":4482:4502   */\n      tag_193\n      tag_94\n      jump\t// in\n    tag_193:\n        /* \"#utility.yul\":4472:4502   */\n      swap1\n      pop\n        /* \"#utility.yul\":4511:4544   */\n      tag_194\n        /* \"#utility.yul\":4539:4543   */\n      dup3\n        /* \"#utility.yul\":4531:4537   */\n      dup3\n        /* \"#utility.yul\":4511:4544   */\n      tag_114\n      jump\t// in\n    tag_194:\n        /* \"#utility.yul\":4421:4550   */\n      swap2\n      swap1\n      pop\n      jump\t// out\n        /* \"#utility.yul\":4556:4864   */\n    tag_116:\n        /* \"#utility.yul\":4618:4622   */\n      0x00\n        /* \"#utility.yul\":4708:4726   */\n      0xffffffffffffffff\n        /* \"#utility.yul\":4700:4706   */\n      dup3\n        /* \"#utility.yul\":4697:4727   */\n      gt\n        /* \"#utility.yul\":4694:4750   */\n      iszero\n      tag_196\n      jumpi\n        /* \"#utility.yul\":4730:4748   */\n      tag_197\n      tag_113\n      jump\t// in\n    tag_197:\n        /* \"#utility.yul\":4694:4750   */\n    tag_196:\n        /* \"#utility.yul\":4768:4797   */\n      tag_198\n        /* \"#utility.yul\":4790:4796   */\n      dup3\n        /* \"#utility.yul\":4768:4797   */\n      tag_103\n      jump\t// in\n    tag_198:\n        /* \"#utility.yul\":4760:4797   */\n      swap1\n      pop\n        /* \"#utility.yul\":4852:4856   */\n      0x20\n        /* \"#utility.yul\":4846:4850   */\n      dup2\n        /* \"#utility.yul\":4842:4857   */\n      add\n        /* \"#utility.yul\":4834:4857   */\n      swap1\n      pop\n        /* \"#utility.yul\":4556:4864   */\n      swap2\n      swap1\n      pop\n      jump\t// out\n        /* \"#utility.yul\":4870:5018   */\n    tag_117:\n        /* \"#utility.yul\":4968:4974   */\n      dup3\n        /* \"#utility.yul\":4963:4966   */\n      dup2\n        /* \"#utility.yul\":4958:4961   */\n      dup4\n        /* \"#utility.yul\":4945:4975   */\n      calldatacopy\n        /* \"#utility.yul\":5009:5010   */\n      0x00\n        /* \"#utility.yul\":5000:5006   */\n      dup4\n        /* \"#utility.yul\":4995:4998   */\n      dup4\n        /* \"#utility.yul\":4991:5007   */\n      add\n        /* \"#utility.yul\":4984:5011   */\n      mstore\n        /* \"#utility.yul\":4870:5018   */\n      pop\n      pop\n      pop\n      jump\t// out\n        /* \"#utility.yul\":5024:5449   */\n    tag_118:\n        /* \"#utility.yul\":5102:5107   */\n      0x00\n        /* \"#utility.yul\":5127:5193   */\n      tag_201\n        /* \"#utility.yul\":5143:5192   */\n      tag_202\n        /* \"#utility.yul\":5185:5191   */\n      dup5\n        /* \"#utility.yul\":5143:5192   */\n      tag_116\n      jump\t// in\n    tag_202:\n        /* \"#utility.yul\":5127:5193   */\n      tag_115\n      jump\t// in\n    tag_201:\n        /* \"#utility.yul\":5118:5193   */\n      swap1\n      pop\n        /* \"#utility.yul\":5216:5222   */\n      dup3\n        /* \"#utility.yul\":5209:5214   */\n      dup2\n        /* \"#utility.yul\":5202:5223   */\n      mstore\n        /* \"#utility.yul\":5254:5258   */\n      0x20\n        /* \"#utility.yul\":5247:5252   */\n      dup2\n        /* \"#utility.yul\":5243:5259   */\n      add\n        /* \"#utility.yul\":5292:5295   */\n      dup5\n        /* \"#utility.yul\":5283:5289   */\n      dup5\n        /* \"#utility.yul\":5278:5281   */\n      dup5\n        /* \"#utility.yul\":5274:5290   */\n      add\n        /* \"#utility.yul\":5271:5296   */\n      gt\n        /* \"#utility.yul\":5268:5380   */\n      iszero\n      tag_203\n      jumpi\n        /* \"#utility.yul\":5299:5378   */\n      tag_204\n      tag_112\n      jump\t// in\n    tag_204:\n        /* \"#utility.yul\":5268:5380   */\n    tag_203:\n        /* \"#utility.yul\":5389:5443   */\n      tag_205\n        /* \"#utility.yul\":5436:5442   */\n      dup5\n        /* \"#utility.yul\":5431:5434   */\n      dup3\n        /* \"#utility.yul\":5426:5429   */\n      dup6\n        /* \"#utility.yul\":5389:5443   */\n      tag_117\n      jump\t// in\n    tag_205:\n        /* \"#utility.yul\":5108:5449   */\n      pop\n        /* \"#utility.yul\":5024:5449   */\n      swap4\n      swap3\n      pop\n      pop\n      pop\n      jump\t// out\n        /* \"#utility.yul\":5469:5809   */\n    tag_119:\n        /* \"#utility.yul\":5525:5530   */\n      0x00\n        /* \"#utility.yul\":5574:5577   */\n      dup3\n        /* \"#utility.yul\":5567:5571   */\n      0x1f\n        /* \"#utility.yul\":5559:5565   */\n      dup4\n        /* \"#utility.yul\":5555:5572   */\n      add\n        /* \"#utility.yul\":5551:5578   */\n      slt\n        /* \"#utility.yul\":5541:5663   */\n      tag_207\n      jumpi\n        /* \"#utility.yul\":5582:5661   */\n      tag_208\n      tag_111\n      jump\t// in\n    tag_208:\n        /* \"#utility.yul\":5541:5663   */\n    tag_207:\n        /* \"#utility.yul\":5699:5705   */\n      dup2\n        /* \"#utility.yul\":5686:5706   */\n      calldataload\n        /* \"#utility.yul\":5724:5803   */\n      tag_209\n        /* \"#utility.yul\":5799:5802   */\n      dup5\n        /* \"#utility.yul\":5791:5797   */\n      dup3\n        /* \"#utility.yul\":5784:5788   */\n      0x20\n        /* \"#utility.yul\":5776:5782   */\n      dup7\n        /* \"#utility.yul\":5772:5789   */\n      add\n        /* \"#utility.yul\":5724:5803   */\n      tag_118\n      jump\t// in\n    tag_209:\n        /* \"#utility.yul\":5715:5803   */\n      swap2\n      pop\n        /* \"#utility.yul\":5531:5809   */\n      pop\n        /* \"#utility.yul\":5469:5809   */\n      swap3\n      swap2\n      pop\n      pop\n      jump\t// out\n        /* \"#utility.yul\":5815:6794   */\n    tag_26:\n        /* \"#utility.yul\":5912:5918   */\n      0x00\n        /* \"#utility.yul\":5920:5926   */\n      dup1\n        /* \"#utility.yul\":5928:5934   */\n      0x00\n        /* \"#utility.yul\":5977:5979   */\n      0x60\n        /* \"#utility.yul\":5965:5974   */\n      dup5\n        /* \"#utility.yul\":5956:5963   */\n      dup7\n        /* \"#utility.yul\":5952:5975   */\n      sub\n        /* \"#utility.yul\":5948:5980   */\n      slt\n        /* \"#utility.yul\":5945:6064   */\n      iszero\n      tag_211\n      jumpi\n        /* \"#utility.yul\":5983:6062   */\n      tag_212\n      tag_95\n      jump\t// in\n    tag_212:\n        /* \"#utility.yul\":5945:6064   */\n    tag_211:\n        /* \"#utility.yul\":6131:6132   */\n      0x00\n        /* \"#utility.yul\":6120:6129   */\n      dup5\n        /* \"#utility.yul\":6116:6133   */\n      add\n        /* \"#utility.yul\":6103:6134   */\n      calldataload\n        /* \"#utility.yul\":6161:6179   */\n      0xffffffffffffffff\n        /* \"#utility.yul\":6153:6159   */\n      dup2\n        /* \"#utility.yul\":6150:6180   */\n      gt\n        /* \"#utility.yul\":6147:6264   */\n      iszero\n      tag_213\n      jumpi\n        /* \"#utility.yul\":6183:6262   */\n      tag_214\n      tag_96\n      jump\t// in\n    tag_214:\n        /* \"#utility.yul\":6147:6264   */\n    tag_213:\n        /* \"#utility.yul\":6288:6351   */\n      tag_215\n        /* \"#utility.yul\":6343:6350   */\n      dup7\n        /* \"#utility.yul\":6334:6340   */\n      dup3\n        /* \"#utility.yul\":6323:6332   */\n      dup8\n        /* \"#utility.yul\":6319:6341   */\n      add\n        /* \"#utility.yul\":6288:6351   */\n      tag_119\n      jump\t// in\n    tag_215:\n        /* \"#utility.yul\":6278:6351   */\n      swap4\n      pop\n        /* \"#utility.yul\":6074:6361   */\n      pop\n        /* \"#utility.yul\":6428:6430   */\n      0x20\n        /* \"#utility.yul\":6417:6426   */\n      dup5\n        /* \"#utility.yul\":6413:6431   */\n      add\n        /* \"#utility.yul\":6400:6432   */\n      calldataload\n        /* \"#utility.yul\":6459:6477   */\n      0xffffffffffffffff\n        /* \"#utility.yul\":6451:6457   */\n      dup2\n        /* \"#utility.yul\":6448:6478   */\n      gt\n        /* \"#utility.yul\":6445:6562   */\n      iszero\n      tag_216\n      jumpi\n        /* \"#utility.yul\":6481:6560   */\n      tag_217\n      tag_96\n      jump\t// in\n    tag_217:\n        /* \"#utility.yul\":6445:6562   */\n    tag_216:\n        /* \"#utility.yul\":6586:6649   */\n      tag_218\n        /* \"#utility.yul\":6641:6648   */\n      dup7\n        /* \"#utility.yul\":6632:6638   */\n      dup3\n        /* \"#utility.yul\":6621:6630   */\n      dup8\n        /* \"#utility.yul\":6617:6639   */\n      add\n        /* \"#utility.yul\":6586:6649   */\n      tag_119\n      jump\t// in\n    tag_218:\n        /* \"#utility.yul\":6576:6649   */\n      swap3\n      pop\n        /* \"#utility.yul\":6371:6659   */\n      pop\n        /* \"#utility.yul\":6698:6700   */\n      0x40\n        /* \"#utility.yul\":6724:6777   */\n      tag_219\n        /* \"#utility.yul\":6769:6776   */\n      dup7\n        /* \"#utility.yul\":6760:6766   */\n      dup3\n        /* \"#utility.yul\":6749:6758   */\n      dup8\n        /* \"#utility.yul\":6745:6767   */\n      add\n        /* \"#utility.yul\":6724:6777   */\n      tag_99\n      jump\t// in\n    tag_219:\n        /* \"#utility.yul\":6714:6777   */\n      swap2\n      pop\n        /* \"#utility.yul\":6669:6787   */\n      pop\n        /* \"#utility.yul\":5815:6794   */\n      swap3\n      pop\n      swap3\n      pop\n      swap3\n      jump\t// out\n        /* \"#utility.yul\":6800:7745   */\n    tag_33:\n        /* \"#utility.yul\":7067:7071   */\n      0x00\n        /* \"#utility.yul\":7105:7108   */\n      0xc0\n        /* \"#utility.yul\":7094:7103   */\n      dup3\n        /* \"#utility.yul\":7090:7109   */\n      add\n        /* \"#utility.yul\":7082:7109   */\n      swap1\n      pop\n        /* \"#utility.yul\":7119:7190   */\n      tag_221\n        /* \"#utility.yul\":7187:7188   */\n      0x00\n        /* \"#utility.yul\":7176:7185   */\n      dup4\n        /* \"#utility.yul\":7172:7189   */\n      add\n        /* \"#utility.yul\":7163:7169   */\n      dup10\n        /* \"#utility.yul\":7119:7190   */\n      tag_105\n      jump\t// in\n    tag_221:\n        /* \"#utility.yul\":7237:7246   */\n      dup2\n        /* \"#utility.yul\":7231:7235   */\n      dup2\n        /* \"#utility.yul\":7227:7247   */\n      sub\n        /* \"#utility.yul\":7222:7224   */\n      0x20\n        /* \"#utility.yul\":7211:7220   */\n      dup4\n        /* \"#utility.yul\":7207:7225   */\n      add\n        /* \"#utility.yul\":7200:7248   */\n      mstore\n        /* \"#utility.yul\":7265:7343   */\n      tag_222\n        /* \"#utility.yul\":7338:7342   */\n      dup2\n        /* \"#utility.yul\":7329:7335   */\n      dup9\n        /* \"#utility.yul\":7265:7343   */\n      tag_104\n      jump\t// in\n    tag_222:\n        /* \"#utility.yul\":7257:7343   */\n      swap1\n      pop\n        /* \"#utility.yul\":7390:7399   */\n      dup2\n        /* \"#utility.yul\":7384:7388   */\n      dup2\n        /* \"#utility.yul\":7380:7400   */\n      sub\n        /* \"#utility.yul\":7375:7377   */\n      0x40\n        /* \"#utility.yul\":7364:7373   */\n      dup4\n        /* \"#utility.yul\":7360:7378   */\n      add\n        /* \"#utility.yul\":7353:7401   */\n      mstore\n        /* \"#utility.yul\":7418:7496   */\n      tag_223\n        /* \"#utility.yul\":7491:7495   */\n      dup2\n        /* \"#utility.yul\":7482:7488   */\n      dup8\n        /* \"#utility.yul\":7418:7496   */\n      tag_104\n      jump\t// in\n    tag_223:\n        /* \"#utility.yul\":7410:7496   */\n      swap1\n      pop\n        /* \"#utility.yul\":7506:7578   */\n      tag_224\n        /* \"#utility.yul\":7574:7576   */\n      0x60\n        /* \"#utility.yul\":7563:7572   */\n      dup4\n        /* \"#utility.yul\":7559:7577   */\n      add\n        /* \"#utility.yul\":7550:7556   */\n      dup7\n        /* \"#utility.yul\":7506:7578   */\n      tag_105\n      jump\t// in\n    tag_224:\n        /* \"#utility.yul\":7588:7661   */\n      tag_225\n        /* \"#utility.yul\":7656:7659   */\n      0x80\n        /* \"#utility.yul\":7645:7654   */\n      dup4\n        /* \"#utility.yul\":7641:7660   */\n      add\n        /* \"#utility.yul\":7632:7638   */\n      dup6\n        /* \"#utility.yul\":7588:7661   */\n      tag_108\n      jump\t// in\n    tag_225:\n        /* \"#utility.yul\":7671:7738   */\n      tag_226\n        /* \"#utility.yul\":7733:7736   */\n      0xa0\n        /* \"#utility.yul\":7722:7731   */\n      dup4\n        /* \"#utility.yul\":7718:7737   */\n      add\n        /* \"#utility.yul\":7709:7715   */\n      dup5\n        /* \"#utility.yul\":7671:7738   */\n      tag_110\n      jump\t// in\n    tag_226:\n        /* \"#utility.yul\":6800:7745   */\n      swap8\n      swap7\n      pop\n      pop\n      pop\n      pop\n      pop\n      pop\n      pop\n      jump\t// out\n        /* \"#utility.yul\":7751:7927   */\n    tag_120:\n        /* \"#utility.yul\":7891:7919   */\n      0x50726f706572747920494420646f6573206e6f74206578697374000000000000\n        /* \"#utility.yul\":7887:7888   */\n      0x00\n        /* \"#utility.yul\":7879:7885   */\n      dup3\n        /* \"#utility.yul\":7875:7889   */\n      add\n        /* \"#utility.yul\":7868:7920   */\n      mstore\n        /* \"#utility.yul\":7751:7927   */\n      pop\n      jump\t// out\n        /* \"#utility.yul\":7933:8299   */\n    tag_121:\n        /* \"#utility.yul\":8075:8078   */\n      0x00\n        /* \"#utility.yul\":8096:8163   */\n      tag_229\n        /* \"#utility.yul\":8160:8162   */\n      0x1a\n        /* \"#utility.yul\":8155:8158   */\n      dup4\n        /* \"#utility.yul\":8096:8163   */\n      tag_101\n      jump\t// in\n    tag_229:\n        /* \"#utility.yul\":8089:8163   */\n      swap2\n      pop\n        /* \"#utility.yul\":8172:8265   */\n      tag_230\n        /* \"#utility.yul\":8261:8264   */\n      dup3\n        /* \"#utility.yul\":8172:8265   */\n      tag_120\n      jump\t// in\n    tag_230:\n        /* \"#utility.yul\":8290:8292   */\n      0x20\n        /* \"#utility.yul\":8285:8288   */\n      dup3\n        /* \"#utility.yul\":8281:8293   */\n      add\n        /* \"#utility.yul\":8274:8293   */\n      swap1\n      pop\n        /* \"#utility.yul\":7933:8299   */\n      swap2\n      swap1\n      pop\n      jump\t// out\n        /* \"#utility.yul\":8305:8724   */\n    tag_37:\n        /* \"#utility.yul\":8471:8475   */\n      0x00\n        /* \"#utility.yul\":8509:8511   */\n      0x20\n        /* \"#utility.yul\":8498:8507   */\n      dup3\n        /* \"#utility.yul\":8494:8512   */\n      add\n        /* \"#utility.yul\":8486:8512   */\n      swap1\n      pop\n        /* \"#utility.yul\":8558:8567   */\n      dup2\n        /* \"#utility.yul\":8552:8556   */\n      dup2\n        /* \"#utility.yul\":8548:8568   */\n      sub\n        /* \"#utility.yul\":8544:8545   */\n      0x00\n        /* \"#utility.yul\":8533:8542   */\n      dup4\n        /* \"#utility.yul\":8529:8546   */\n      add\n        /* \"#utility.yul\":8522:8569   */\n      mstore\n        /* \"#utility.yul\":8586:8717   */\n      tag_232\n        /* \"#utility.yul\":8712:8716   */\n      dup2\n        /* \"#utility.yul\":8586:8717   */\n      tag_121\n      jump\t// in\n    tag_232:\n        /* \"#utility.yul\":8578:8717   */\n      swap1\n      pop\n        /* \"#utility.yul\":8305:8724   */\n      swap2\n      swap1\n      pop\n      jump\t// out\n        /* \"#utility.yul\":8730:8910   */\n    tag_40:\n        /* \"#utility.yul\":8778:8855   */\n      0x4e487b7100000000000000000000000000000000000000000000000000000000\n        /* \"#utility.yul\":8775:8776   */\n      0x00\n        /* \"#utility.yul\":8768:8856   */\n      mstore\n        /* \"#utility.yul\":8875:8879   */\n      0x32\n        /* \"#utility.yul\":8872:8873   */\n      0x04\n        /* \"#utility.yul\":8865:8880   */\n      mstore\n        /* \"#utility.yul\":8899:8903   */\n      0x24\n        /* \"#utility.yul\":8896:8897   */\n      0x00\n        /* \"#utility.yul\":8889:8904   */\n      revert\n        /* \"#utility.yul\":8916:9096   */\n    tag_122:\n        /* \"#utility.yul\":8964:9041   */\n      0x4e487b7100000000000000000000000000000000000000000000000000000000\n        /* \"#utility.yul\":8961:8962   */\n      0x00\n        /* \"#utility.yul\":8954:9042   */\n      mstore\n        /* \"#utility.yul\":9061:9065   */\n      0x22\n        /* \"#utility.yul\":9058:9059   */\n      0x04\n        /* \"#utility.yul\":9051:9066   */\n      mstore\n        /* \"#utility.yul\":9085:9089   */\n      0x24\n        /* \"#utility.yul\":9082:9083   */\n      0x00\n        /* \"#utility.yul\":9075:9090   */\n      revert\n        /* \"#utility.yul\":9102:9422   */\n    tag_43:\n        /* \"#utility.yul\":9146:9152   */\n      0x00\n        /* \"#utility.yul\":9183:9184   */\n      0x02\n        /* \"#utility.yul\":9177:9181   */\n      dup3\n        /* \"#utility.yul\":9173:9185   */\n      div\n        /* \"#utility.yul\":9163:9185   */\n      swap1\n      pop\n        /* \"#utility.yul\":9230:9231   */\n      0x01\n        /* \"#utility.yul\":9224:9228   */\n      dup3\n        /* \"#utility.yul\":9220:9232   */\n      and\n        /* \"#utility.yul\":9251:9269   */\n      dup1\n        /* \"#utility.yul\":9241:9322   */\n      tag_236\n      jumpi\n        /* \"#utility.yul\":9307:9311   */\n      0x7f\n        /* \"#utility.yul\":9299:9305   */\n      dup3\n        /* \"#utility.yul\":9295:9312   */\n      and\n        /* \"#utility.yul\":9285:9312   */\n      swap2\n      pop\n        /* \"#utility.yul\":9241:9322   */\n    tag_236:\n        /* \"#utility.yul\":9369:9371   */\n      0x20\n        /* \"#utility.yul\":9361:9367   */\n      dup3\n        /* \"#utility.yul\":9358:9372   */\n      lt\n        /* \"#utility.yul\":9338:9356   */\n      dup2\n        /* \"#utility.yul\":9335:9373   */\n      sub\n        /* \"#utility.yul\":9332:9416   */\n      tag_237\n      jumpi\n        /* \"#utility.yul\":9388:9406   */\n      tag_238\n      tag_122\n      jump\t// in\n    tag_238:\n        /* \"#utility.yul\":9332:9416   */\n    tag_237:\n        /* \"#utility.yul\":9153:9422   */\n      pop\n        /* \"#utility.yul\":9102:9422   */\n      swap2\n      swap1\n      pop\n      jump\t// out\n        /* \"#utility.yul\":9428:9601   */\n    tag_123:\n        /* \"#utility.yul\":9568:9593   */\n      0x50726f706572747920646f6573206e6f74206578697374000000000000000000\n        /* \"#utility.yul\":9564:9565   */\n      0x00\n        /* \"#utility.yul\":9556:9562   */\n      dup3\n        /* \"#utility.yul\":9552:9566   */\n      add\n        /* \"#utility.yul\":9545:9594   */\n      mstore\n        /* \"#utility.yul\":9428:9601   */\n      pop\n      jump\t// out\n        /* \"#utility.yul\":9607:9973   */\n    tag_124:\n        /* \"#utility.yul\":9749:9752   */\n      0x00\n        /* \"#utility.yul\":9770:9837   */\n      tag_241\n        /* \"#utility.yul\":9834:9836   */\n      0x17\n        /* \"#utility.yul\":9829:9832   */\n      dup4\n        /* \"#utility.yul\":9770:9837   */\n      tag_101\n      jump\t// in\n    tag_241:\n        /* \"#utility.yul\":9763:9837   */\n      swap2\n      pop\n        /* \"#utility.yul\":9846:9939   */\n      tag_242\n        /* \"#utility.yul\":9935:9938   */\n      dup3\n        /* \"#utility.yul\":9846:9939   */\n      tag_123\n      jump\t// in\n    tag_242:\n        /* \"#utility.yul\":9964:9966   */\n      0x20\n        /* \"#utility.yul\":9959:9962   */\n      dup3\n        /* \"#utility.yul\":9955:9967   */\n      add\n        /* \"#utility.yul\":9948:9967   */\n      swap1\n      pop\n        /* \"#utility.yul\":9607:9973   */\n      swap2\n      swap1\n      pop\n      jump\t// out\n        /* \"#utility.yul\":9979:10398   */\n    tag_56:\n        /* \"#utility.yul\":10145:10149   */\n      0x00\n        /* \"#utility.yul\":10183:10185   */\n      0x20\n        /* \"#utility.yul\":10172:10181   */\n      dup3\n        /* \"#utility.yul\":10168:10186   */\n      add\n        /* \"#utility.yul\":10160:10186   */\n      swap1\n      pop\n        /* \"#utility.yul\":10232:10241   */\n      dup2\n        /* \"#utility.yul\":10226:10230   */\n      dup2\n        /* \"#utility.yul\":10222:10242   */\n      sub\n        /* \"#utility.yul\":10218:10219   */\n      0x00\n        /* \"#utility.yul\":10207:10216   */\n      dup4\n        /* \"#utility.yul\":10203:10220   */\n      add\n        /* \"#utility.yul\":10196:10243   */\n      mstore\n        /* \"#utility.yul\":10260:10391   */\n      tag_244\n        /* \"#utility.yul\":10386:10390   */\n      dup2\n        /* \"#utility.yul\":10260:10391   */\n      tag_124\n      jump\t// in\n    tag_244:\n        /* \"#utility.yul\":10252:10391   */\n      swap1\n      pop\n        /* \"#utility.yul\":9979:10398   */\n      swap2\n      swap1\n      pop\n      jump\t// out\n        /* \"#utility.yul\":10404:10579   */\n    tag_125:\n        /* \"#utility.yul\":10544:10571   */\n      0x50726f7065727479206973206e6f7420617661696c61626c6500000000000000\n        /* \"#utility.yul\":10540:10541   */\n      0x00\n        /* \"#utility.yul\":10532:10538   */\n      dup3\n        /* \"#utility.yul\":10528:10542   */\n      add\n        /* \"#utility.yul\":10521:10572   */\n      mstore\n        /* \"#utility.yul\":10404:10579   */\n      pop\n      jump\t// out\n        /* \"#utility.yul\":10585:10951   */\n    tag_126:\n        /* \"#utility.yul\":10727:10730   */\n      0x00\n        /* \"#utility.yul\":10748:10815   */\n      tag_247\n        /* \"#utility.yul\":10812:10814   */\n      0x19\n        /* \"#utility.yul\":10807:10810   */\n      dup4\n        /* \"#utility.yul\":10748:10815   */\n      tag_101\n      jump\t// in\n    tag_247:\n        /* \"#utility.yul\":10741:10815   */\n      swap2\n      pop\n        /* \"#utility.yul\":10824:10917   */\n      tag_248\n        /* \"#utility.yul\":10913:10916   */\n      dup3\n        /* \"#utility.yul\":10824:10917   */\n      tag_125\n      jump\t// in\n    tag_248:\n        /* \"#utility.yul\":10942:10944   */\n      0x20\n        /* \"#utility.yul\":10937:10940   */\n      dup3\n        /* \"#utility.yul\":10933:10945   */\n      add\n        /* \"#utility.yul\":10926:10945   */\n      swap1\n      pop\n        /* \"#utility.yul\":10585:10951   */\n      swap2\n      swap1\n      pop\n      jump\t// out\n        /* \"#utility.yul\":10957:11376   */\n    tag_62:\n        /* \"#utility.yul\":11123:11127   */\n      0x00\n        /* \"#utility.yul\":11161:11163   */\n      0x20\n        /* \"#utility.yul\":11150:11159   */\n      dup3\n        /* \"#utility.yul\":11146:11164   */\n      add\n        /* \"#utility.yul\":11138:11164   */\n      swap1\n      pop\n        /* \"#utility.yul\":11210:11219   */\n      dup2\n        /* \"#utility.yul\":11204:11208   */\n      dup2\n        /* \"#utility.yul\":11200:11220   */\n      sub\n        /* \"#utility.yul\":11196:11197   */\n      0x00\n        /* \"#utility.yul\":11185:11194   */\n      dup4\n        /* \"#utility.yul\":11181:11198   */\n      add\n        /* \"#utility.yul\":11174:11221   */\n      mstore\n        /* \"#utility.yul\":11238:11369   */\n      tag_250\n        /* \"#utility.yul\":11364:11368   */\n      dup2\n        /* \"#utility.yul\":11238:11369   */\n      tag_126\n      jump\t// in\n    tag_250:\n        /* \"#utility.yul\":11230:11369   */\n      swap1\n      pop\n        /* \"#utility.yul\":10957:11376   */\n      swap2\n      swap1\n      pop\n      jump\t// out\n        /* \"#utility.yul\":11382:11550   */\n    tag_127:\n        /* \"#utility.yul\":11522:11542   */\n      0x496e73756666696369656e742066756e64730000000000000000000000000000\n        /* \"#utility.yul\":11518:11519   */\n      0x00\n        /* \"#utility.yul\":11510:11516   */\n      dup3\n        /* \"#utility.yul\":11506:11520   */\n      add\n        /* \"#utility.yul\":11499:11543   */\n      mstore\n        /* \"#utility.yul\":11382:11550   */\n      pop\n      jump\t// out\n        /* \"#utility.yul\":11556:11922   */\n    tag_128:\n        /* \"#utility.yul\":11698:11701   */\n      0x00\n        /* \"#utility.yul\":11719:11786   */\n      tag_253\n        /* \"#utility.yul\":11783:11785   */\n      0x12\n        /* \"#utility.yul\":11778:11781   */\n      dup4\n        /* \"#utility.yul\":11719:11786   */\n      tag_101\n      jump\t// in\n    tag_253:\n        /* \"#utility.yul\":11712:11786   */\n      swap2\n      pop\n        /* \"#utility.yul\":11795:11888   */\n      tag_254\n        /* \"#utility.yul\":11884:11887   */\n      dup3\n        /* \"#utility.yul\":11795:11888   */\n      tag_127\n      jump\t// in\n    tag_254:\n        /* \"#utility.yul\":11913:11915   */\n      0x20\n        /* \"#utility.yul\":11908:11911   */\n      dup3\n        /* \"#utility.yul\":11904:11916   */\n      add\n        /* \"#utility.yul\":11897:11916   */\n      swap1\n      pop\n        /* \"#utility.yul\":11556:11922   */\n      swap2\n      swap1\n      pop\n      jump\t// out\n        /* \"#utility.yul\":11928:12347   */\n    tag_68:\n        /* \"#utility.yul\":12094:12098   */\n      0x00\n        /* \"#utility.yul\":12132:12134   */\n      0x20\n        /* \"#utility.yul\":12121:12130   */\n      dup3\n        /* \"#utility.yul\":12117:12135   */\n      add\n        /* \"#utility.yul\":12109:12135   */\n      swap1\n      pop\n        /* \"#utility.yul\":12181:12190   */\n      dup2\n        /* \"#utility.yul\":12175:12179   */\n      dup2\n        /* \"#utility.yul\":12171:12191   */\n      sub\n        /* \"#utility.yul\":12167:12168   */\n      0x00\n        /* \"#utility.yul\":12156:12165   */\n      dup4\n        /* \"#utility.yul\":12152:12169   */\n      add\n        /* \"#utility.yul\":12145:12192   */\n      mstore\n        /* \"#utility.yul\":12209:12340   */\n      tag_256\n        /* \"#utility.yul\":12335:12339   */\n      dup2\n        /* \"#utility.yul\":12209:12340   */\n      tag_128\n      jump\t// in\n    tag_256:\n        /* \"#utility.yul\":12201:12340   */\n      swap1\n      pop\n        /* \"#utility.yul\":11928:12347   */\n      swap2\n      swap1\n      pop\n      jump\t// out\n        /* \"#utility.yul\":12353:12494   */\n    tag_129:\n        /* \"#utility.yul\":12402:12406   */\n      0x00\n        /* \"#utility.yul\":12425:12428   */\n      dup2\n        /* \"#utility.yul\":12417:12428   */\n      swap1\n      pop\n        /* \"#utility.yul\":12448:12451   */\n      dup2\n        /* \"#utility.yul\":12445:12446   */\n      0x00\n        /* \"#utility.yul\":12438:12452   */\n      mstore\n        /* \"#utility.yul\":12482:12486   */\n      0x20\n        /* \"#utility.yul\":12479:12480   */\n      0x00\n        /* \"#utility.yul\":12469:12487   */\n      keccak256\n        /* \"#utility.yul\":12461:12487   */\n      swap1\n      pop\n        /* \"#utility.yul\":12353:12494   */\n      swap2\n      swap1\n      pop\n      jump\t// out\n        /* \"#utility.yul\":12500:12593   */\n    tag_130:\n        /* \"#utility.yul\":12537:12543   */\n      0x00\n        /* \"#utility.yul\":12584:12586   */\n      0x20\n        /* \"#utility.yul\":12579:12581   */\n      0x1f\n        /* \"#utility.yul\":12572:12577   */\n      dup4\n        /* \"#utility.yul\":12568:12582   */\n      add\n        /* \"#utility.yul\":12564:12587   */\n      div\n        /* \"#utility.yul\":12554:12587   */\n      swap1\n      pop\n        /* \"#utility.yul\":12500:12593   */\n      swap2\n      swap1\n      pop\n      jump\t// out\n        /* \"#utility.yul\":12599:12706   */\n    tag_131:\n        /* \"#utility.yul\":12643:12651   */\n      0x00\n        /* \"#utility.yul\":12693:12698   */\n      dup3\n        /* \"#utility.yul\":12687:12691   */\n      dup3\n        /* \"#utility.yul\":12683:12699   */\n      shl\n        /* \"#utility.yul\":12662:12699   */\n      swap1\n      pop\n        /* \"#utility.yul\":12599:12706   */\n      swap3\n      swap2\n      pop\n      pop\n      jump\t// out\n        /* \"#utility.yul\":12712:13105   */\n    tag_132:\n        /* \"#utility.yul\":12781:12787   */\n      0x00\n        /* \"#utility.yul\":12831:12832   */\n      0x08\n        /* \"#utility.yul\":12819:12829   */\n      dup4\n        /* \"#utility.yul\":12815:12833   */\n      mul\n        /* \"#utility.yul\":12854:12951   */\n      tag_261\n        /* \"#utility.yul\":12884:12950   */\n      0xffffffffffffffffffffffffffffffffffffffffffffffffffffffffffffffff\n        /* \"#utility.yul\":12873:12882   */\n      dup3\n        /* \"#utility.yul\":12854:12951   */\n      tag_131\n      jump\t// in\n    tag_261:\n        /* \"#utility.yul\":12972:13011   */\n      tag_262\n        /* \"#utility.yul\":13002:13010   */\n      dup7\n        /* \"#utility.yul\":12991:13000   */\n      dup4\n        /* \"#utility.yul\":12972:13011   */\n      tag_131\n      jump\t// in\n    tag_262:\n        /* \"#utility.yul\":12960:13011   */\n      swap6\n      pop\n        /* \"#utility.yul\":13044:13048   */\n      dup1\n        /* \"#utility.yul\":13040:13049   */\n      not\n        /* \"#utility.yul\":13033:13038   */\n      dup5\n        /* \"#utility.yul\":13029:13050   */\n      and\n        /* \"#utility.yul\":13020:13050   */\n      swap4\n      pop\n        /* \"#utility.yul\":13093:13097   */\n      dup1\n        /* \"#utility.yul\":13083:13091   */\n      dup7\n        /* \"#utility.yul\":13079:13098   */\n      and\n        /* \"#utility.yul\":13072:13077   */\n      dup5\n        /* \"#utility.yul\":13069:13099   */\n      or\n        /* \"#utility.yul\":13059:13099   */\n      swap3\n      pop\n        /* \"#utility.yul\":12788:13105   */\n      pop\n      pop\n        /* \"#utility.yul\":12712:13105   */\n      swap4\n      swap3\n      pop\n      pop\n      pop\n      jump\t// out\n        /* \"#utility.yul\":13111:13171   */\n    tag_133:\n        /* \"#utility.yul\":13139:13142   */\n      0x00\n        /* \"#utility.yul\":13160:13165   */\n      dup2\n        /* \"#utility.yul\":13153:13165   */\n      swap1\n      pop\n        /* \"#utility.yul\":13111:13171   */\n      swap2\n      swap1\n      pop\n      jump\t// out\n        /* \"#utility.yul\":13177:13319   */\n    tag_134:\n        /* \"#utility.yul\":13227:13236   */\n      0x00\n        /* \"#utility.yul\":13260:13313   */\n      tag_265\n        /* \"#utility.yul\":13278:13312   */\n      tag_266\n        /* \"#utility.yul\":13287:13311   */\n      tag_267\n        /* \"#utility.yul\":13305:13310   */\n      dup5\n        /* \"#utility.yul\":13287:13311   */\n      tag_97\n      jump\t// in\n    tag_267:\n        /* \"#utility.yul\":13278:13312   */\n      tag_133\n      jump\t// in\n    tag_266:\n        /* \"#utility.yul\":13260:13313   */\n      tag_97\n      jump\t// in\n    tag_265:\n        /* \"#utility.yul\":13247:13313   */\n      swap1\n      pop\n        /* \"#utility.yul\":13177:13319   */\n      swap2\n      swap1\n      pop\n      jump\t// out\n        /* \"#utility.yul\":13325:13400   */\n    tag_135:\n        /* \"#utility.yul\":13368:13371   */\n      0x00\n        /* \"#utility.yul\":13389:13394   */\n      dup2\n        /* \"#utility.yul\":13382:13394   */\n      swap1\n      pop\n        /* \"#utility.yul\":13325:13400   */\n      swap2\n      swap1\n      pop\n      jump\t// out\n        /* \"#utility.yul\":13406:13675   */\n    tag_136:\n        /* \"#utility.yul\":13516:13555   */\n      tag_270\n        /* \"#utility.yul\":13547:13554   */\n      dup4\n        /* \"#utility.yul\":13516:13555   */\n      tag_134\n      jump\t// in\n    tag_270:\n        /* \"#utility.yul\":13577:13668   */\n      tag_271\n        /* \"#utility.yul\":13626:13667   */\n      tag_272\n        /* \"#utility.yul\":13650:13666   */\n      dup3\n        /* \"#utility.yul\":13626:13667   */\n      tag_135\n      jump\t// in\n    tag_272:\n        /* \"#utility.yul\":13618:13624   */\n      dup5\n        /* \"#utility.yul\":13611:13615   */\n      dup5\n        /* \"#utility.yul\":13605:13616   */\n      sload\n        /* \"#utility.yul\":13577:13668   */\n      tag_132\n      jump\t// in\n    tag_271:\n        /* \"#utility.yul\":13571:13575   */\n      dup3\n        /* \"#utility.yul\":13564:13669   */\n      sstore\n        /* \"#utility.yul\":13482:13675   */\n      pop\n        /* \"#utility.yul\":13406:13675   */\n      pop\n      pop\n      pop\n      jump\t// out\n        /* \"#utility.yul\":13681:13754   */\n    tag_137:\n        /* \"#utility.yul\":13726:13729   */\n      0x00\n        /* \"#utility.yul\":13681:13754   */\n      swap1\n      jump\t// out\n        /* \"#utility.yul\":13760:13949   */\n    tag_138:\n        /* \"#utility.yul\":13837:13869   */\n      tag_275\n      tag_137\n      jump\t// in\n    tag_275:\n        /* \"#utility.yul\":13878:13943   */\n      tag_276\n        /* \"#utility.yul\":13936:13942   */\n      dup2\n        /* \"#utility.yul\":13928:13934   */\n      dup5\n        /* \"#utility.yul\":13922:13926   */\n      dup5\n        /* \"#utility.yul\":13878:13943   */\n      tag_136\n      jump\t// in\n    tag_276:\n        /* \"#utility.yul\":13813:13949   */\n      pop\n        /* \"#utility.yul\":13760:13949   */\n      pop\n      pop\n      jump\t// out\n        /* \"#utility.yul\":13955:14141   */\n    tag_139:\n        /* \"#utility.yul\":14015:14135   */\n    tag_278:\n        /* \"#utility.yul\":14032:14035   */\n      dup2\n        /* \"#utility.yul\":14025:14030   */\n      dup2\n        /* \"#utility.yul\":14022:14036   */\n      lt\n        /* \"#utility.yul\":14015:14135   */\n      iszero\n      tag_280\n      jumpi\n        /* \"#utility.yul\":14086:14125   */\n      tag_281\n        /* \"#utility.yul\":14123:14124   */\n      0x00\n        /* \"#utility.yul\":14116:14121   */\n      dup3\n        /* \"#utility.yul\":14086:14125   */\n      tag_138\n      jump\t// in\n    tag_281:\n        /* \"#utility.yul\":14059:14060   */\n      0x01\n        /* \"#utility.yul\":14052:14057   */\n      dup2\n        /* \"#utility.yul\":14048:14061   */\n      add\n        /* \"#utility.yul\":14039:14061   */\n      swap1\n      pop\n        /* \"#utility.yul\":14015:14135   */\n      jump(tag_278)\n    tag_280:\n        /* \"#utility.yul\":13955:14141   */\n      pop\n      pop\n      jump\t// out\n        /* \"#utility.yul\":14147:14690   */\n    tag_140:\n        /* \"#utility.yul\":14248:14250   */\n      0x1f\n        /* \"#utility.yul\":14243:14246   */\n      dup3\n        /* \"#utility.yul\":14240:14251   */\n      gt\n        /* \"#utility.yul\":14237:14683   */\n      iszero\n      tag_283\n      jumpi\n        /* \"#utility.yul\":14282:14320   */\n      tag_284\n        /* \"#utility.yul\":14314:14319   */\n      dup2\n        /* \"#utility.yul\":14282:14320   */\n      tag_129\n      jump\t// in\n    tag_284:\n        /* \"#utility.yul\":14366:14395   */\n      tag_285\n        /* \"#utility.yul\":14384:14394   */\n      dup5\n        /* \"#utility.yul\":14366:14395   */\n      tag_130\n      jump\t// in\n    tag_285:\n        /* \"#utility.yul\":14356:14364   */\n      dup2\n        /* \"#utility.yul\":14352:14396   */\n      add\n        /* \"#utility.yul\":14549:14551   */\n      0x20\n        /* \"#utility.yul\":14537:14547   */\n      dup6\n        /* \"#utility.yul\":14534:14552   */\n      lt\n        /* \"#utility.yul\":14531:14580   */\n      iszero\n      tag_286\n      jumpi\n        /* \"#utility.yul\":14570:14578   */\n      dup2\n        /* \"#utility.yul\":14555:14578   */\n      swap1\n      pop\n        /* \"#utility.yul\":14531:14580   */\n    tag_286:\n        /* \"#utility.yul\":14593:14673   */\n      tag_287\n        /* \"#utility.yul\":14649:14671   */\n      tag_288\n        /* \"#utility.yul\":14667:14670   */\n      dup6\n        /* \"#utility.yul\":14649:14671   */\n      tag_130\n      jump\t// in\n    tag_288:\n        /* \"#utility.yul\":14639:14647   */\n      dup4\n        /* \"#utility.yul\":14635:14672   */\n      add\n        /* \"#utility.yul\":14622:14633   */\n      dup3\n        /* \"#utility.yul\":14593:14673   */\n      tag_139\n      jump\t// in\n    tag_287:\n        /* \"#utility.yul\":14252:14683   */\n      pop\n      pop\n        /* \"#utility.yul\":14237:14683   */\n    tag_283:\n        /* \"#utility.yul\":14147:14690   */\n      pop\n      pop\n      pop\n      jump\t// out\n        /* \"#utility.yul\":14696:14813   */\n    tag_141:\n        /* \"#utility.yul\":14750:14758   */\n      0x00\n        /* \"#utility.yul\":14800:14805   */\n      dup3\n        /* \"#utility.yul\":14794:14798   */\n      dup3\n        /* \"#utility.yul\":14790:14806   */\n      shr\n        /* \"#utility.yul\":14769:14806   */\n      swap1\n      pop\n        /* \"#utility.yul\":14696:14813   */\n      swap3\n      swap2\n      pop\n      pop\n      jump\t// out\n        /* \"#utility.yul\":14819:14988   */\n    tag_142:\n        /* \"#utility.yul\":14863:14869   */\n      0x00\n        /* \"#utility.yul\":14896:14947   */\n      tag_291\n        /* \"#utility.yul\":14944:14945   */\n      0x00\n        /* \"#utility.yul\":14940:14946   */\n      not\n        /* \"#utility.yul\":14932:14937   */\n      dup5\n        /* \"#utility.yul\":14929:14930   */\n      0x08\n        /* \"#utility.yul\":14925:14938   */\n      mul\n        /* \"#utility.yul\":14896:14947   */\n      tag_141\n      jump\t// in\n    tag_291:\n        /* \"#utility.yul\":14892:14948   */\n      not\n        /* \"#utility.yul\":14977:14981   */\n      dup1\n        /* \"#utility.yul\":14971:14975   */\n      dup4\n        /* \"#utility.yul\":14967:14982   */\n      and\n        /* \"#utility.yul\":14957:14982   */\n      swap2\n      pop\n        /* \"#utility.yul\":14870:14988   */\n      pop\n        /* \"#utility.yul\":14819:14988   */\n      swap3\n      swap2\n      pop\n      pop\n      jump\t// out\n        /* \"#utility.yul\":14993:15288   */\n    tag_143:\n        /* \"#utility.yul\":15069:15073   */\n      0x00\n        /* \"#utility.yul\":15215:15244   */\n      tag_293\n        /* \"#utility.yul\":15240:15243   */\n      dup4\n        /* \"#utility.yul\":15234:15238   */\n      dup4\n        /* \"#utility.yul\":15215:15244   */\n      tag_142\n      jump\t// in\n    tag_293:\n        /* \"#utility.yul\":15207:15244   */\n      swap2\n      pop\n        /* \"#utility.yul\":15277:15280   */\n      dup3\n        /* \"#utility.yul\":15274:15275   */\n      0x02\n        /* \"#utility.yul\":15270:15281   */\n      mul\n        /* \"#utility.yul\":15264:15268   */\n      dup3\n        /* \"#utility.yul\":15261:15282   */\n      or\n        /* \"#utility.yul\":15253:15282   */\n      swap1\n      pop\n        /* \"#utility.yul\":14993:15288   */\n      swap3\n      swap2\n      pop\n      pop\n      jump\t// out\n        /* \"#utility.yul\":15293:16688   */\n    tag_80:\n        /* \"#utility.yul\":15410:15447   */\n      tag_295\n        /* \"#utility.yul\":15443:15446   */\n      dup3\n        /* \"#utility.yul\":15410:15447   */\n      tag_100\n      jump\t// in\n    tag_295:\n        /* \"#utility.yul\":15512:15530   */\n      0xffffffffffffffff\n        /* \"#utility.yul\":15504:15510   */\n      dup2\n        /* \"#utility.yul\":15501:15531   */\n      gt\n        /* \"#utility.yul\":15498:15554   */\n      iszero\n      tag_296\n      jumpi\n        /* \"#utility.yul\":15534:15552   */\n      tag_297\n      tag_113\n      jump\t// in\n    tag_297:\n        /* \"#utility.yul\":15498:15554   */\n    tag_296:\n        /* \"#utility.yul\":15578:15616   */\n      tag_298\n        /* \"#utility.yul\":15610:15614   */\n      dup3\n        /* \"#utility.yul\":15604:15615   */\n      sload\n        /* \"#utility.yul\":15578:15616   */\n      tag_43\n      jump\t// in\n    tag_298:\n        /* \"#utility.yul\":15663:15730   */\n      tag_299\n        /* \"#utility.yul\":15723:15729   */\n      dup3\n        /* \"#utility.yul\":15715:15721   */\n      dup3\n        /* \"#utility.yul\":15709:15713   */\n      dup6\n        /* \"#utility.yul\":15663:15730   */\n      tag_140\n      jump\t// in\n    tag_299:\n        /* \"#utility.yul\":15757:15758   */\n      0x00\n        /* \"#utility.yul\":15781:15785   */\n      0x20\n        /* \"#utility.yul\":15768:15785   */\n      swap1\n      pop\n        /* \"#utility.yul\":15813:15815   */\n      0x1f\n        /* \"#utility.yul\":15805:15811   */\n      dup4\n        /* \"#utility.yul\":15802:15816   */\n      gt\n        /* \"#utility.yul\":15830:15831   */\n      0x01\n        /* \"#utility.yul\":15825:16443   */\n      dup2\n      eq\n      tag_301\n      jumpi\n        /* \"#utility.yul\":16487:16488   */\n      0x00\n        /* \"#utility.yul\":16504:16510   */\n      dup5\n        /* \"#utility.yul\":16501:16578   */\n      iszero\n      tag_302\n      jumpi\n        /* \"#utility.yul\":16553:16562   */\n      dup3\n        /* \"#utility.yul\":16548:16551   */\n      dup8\n        /* \"#utility.yul\":16544:16563   */\n      add\n        /* \"#utility.yul\":16538:16564   */\n      mload\n        /* \"#utility.yul\":16529:16564   */\n      swap1\n      pop\n        /* \"#utility.yul\":16501:16578   */\n    tag_302:\n        /* \"#utility.yul\":16604:16671   */\n      tag_303\n        /* \"#utility.yul\":16664:16670   */\n      dup6\n        /* \"#utility.yul\":16657:16662   */\n      dup3\n        /* \"#utility.yul\":16604:16671   */\n      tag_143\n      jump\t// in\n    tag_303:\n        /* \"#utility.yul\":16598:16602   */\n      dup7\n        /* \"#utility.yul\":16591:16672   */\n      sstore\n        /* \"#utility.yul\":16460:16682   */\n      pop\n        /* \"#utility.yul\":15795:16682   */\n      jump(tag_300)\n        /* \"#utility.yul\":15825:16443   */\n    tag_301:\n        /* \"#utility.yul\":15877:15881   */\n      0x1f\n        /* \"#utility.yul\":15873:15882   */\n      not\n        /* \"#utility.yul\":15865:15871   */\n      dup5\n        /* \"#utility.yul\":15861:15883   */\n      and\n        /* \"#utility.yul\":15911:15948   */\n      tag_304\n        /* \"#utility.yul\":15943:15947   */\n      dup7\n        /* \"#utility.yul\":15911:15948   */\n      tag_129\n      jump\t// in\n    tag_304:\n        /* \"#utility.yul\":15970:15971   */\n      0x00\n        /* \"#utility.yul\":15984:16192   */\n    tag_305:\n        /* \"#utility.yul\":15998:16005   */\n      dup3\n        /* \"#utility.yul\":15995:15996   */\n      dup2\n        /* \"#utility.yul\":15992:16006   */\n      lt\n        /* \"#utility.yul\":15984:16192   */\n      iszero\n      tag_307\n      jumpi\n        /* \"#utility.yul\":16077:16086   */\n      dup5\n        /* \"#utility.yul\":16072:16075   */\n      dup10\n        /* \"#utility.yul\":16068:16087   */\n      add\n        /* \"#utility.yul\":16062:16088   */\n      mload\n        /* \"#utility.yul\":16054:16060   */\n      dup3\n        /* \"#utility.yul\":16047:16089   */\n      sstore\n        /* \"#utility.yul\":16128:16129   */\n      0x01\n        /* \"#utility.yul\":16120:16126   */\n      dup3\n        /* \"#utility.yul\":16116:16130   */\n      add\n        /* \"#utility.yul\":16106:16130   */\n      swap2\n      pop\n        /* \"#utility.yul\":16175:16177   */\n      0x20\n        /* \"#utility.yul\":16164:16173   */\n      dup6\n        /* \"#utility.yul\":16160:16178   */\n      add\n        /* \"#utility.yul\":16147:16178   */\n      swap5\n      pop\n        /* \"#utility.yul\":16021:16025   */\n      0x20\n        /* \"#utility.yul\":16018:16019   */\n      dup2\n        /* \"#utility.yul\":16014:16026   */\n      add\n        /* \"#utility.yul\":16009:16026   */\n      swap1\n      pop\n        /* \"#utility.yul\":15984:16192   */\n      jump(tag_305)\n    tag_307:\n        /* \"#utility.yul\":16220:16226   */\n      dup7\n        /* \"#utility.yul\":16211:16218   */\n      dup4\n        /* \"#utility.yul\":16208:16227   */\n      lt\n        /* \"#utility.yul\":16205:16384   */\n      iszero\n      tag_308\n      jumpi\n        /* \"#utility.yul\":16278:16287   */\n      dup5\n        /* \"#utility.yul\":16273:16276   */\n      dup10\n        /* \"#utility.yul\":16269:16288   */\n      add\n        /* \"#utility.yul\":16263:16289   */\n      mload\n        /* \"#utility.yul\":16321:16369   */\n      tag_309\n        /* \"#utility.yul\":16363:16367   */\n      0x1f\n        /* \"#utility.yul\":16355:16361   */\n      dup10\n        /* \"#utility.yul\":16351:16368   */\n      and\n        /* \"#utility.yul\":16340:16349   */\n      dup3\n        /* \"#utility.yul\":16321:16369   */\n      tag_142\n      jump\t// in\n    tag_309:\n        /* \"#utility.yul\":16313:16319   */\n      dup4\n        /* \"#utility.yul\":16306:16370   */\n      sstore\n        /* \"#utility.yul\":16228:16384   */\n      pop\n        /* \"#utility.yul\":16205:16384   */\n    tag_308:\n        /* \"#utility.yul\":16430:16431   */\n      0x01\n        /* \"#utility.yul\":16426:16427   */\n      0x02\n        /* \"#utility.yul\":16418:16424   */\n      dup9\n        /* \"#utility.yul\":16414:16428   */\n      mul\n        /* \"#utility.yul\":16410:16432   */\n      add\n        /* \"#utility.yul\":16404:16408   */\n      dup9\n        /* \"#utility.yul\":16397:16433   */\n      sstore\n        /* \"#utility.yul\":15832:16443   */\n      pop\n      pop\n      pop\n        /* \"#utility.yul\":15795:16682   */\n    tag_300:\n      pop\n        /* \"#utility.yul\":15385:16688   */\n      pop\n      pop\n      pop\n        /* \"#utility.yul\":15293:16688   */\n      pop\n      pop\n      jump\t// out\n\n    auxdata: 0xa2646970667358221220c090de891be0cf7b450377be863aebd539e2566e0835eca9980503d5394ed7d664736f6c634300081a0033\n}\n",
				"bytecode": {
					"linkReferences": {},
					"object": "6080604052348015600e575f80fd5b506112388061001c5f395ff3fe608060405260043610610049575f3560e01c806332665ffb1461004d5780636fa830a61461008d5780637f2af083146100a9578063913a8e80146100e5578063f7b108081461010d575b5f80fd5b348015610058575f80fd5b50610073600480360381019061006e91906109d0565b61014e565b604051610084959493929190610ad3565b60405180910390f35b6100a760048036038101906100a291906109d0565b610397565b005b3480156100b4575f80fd5b506100cf60048036038101906100ca91906109d0565b61066e565b6040516100dc9190610b32565b60405180910390f35b3480156100f0575f80fd5b5061010b60048036038101906101069190610c77565b61069e565b005b348015610118575f80fd5b50610133600480360381019061012e91906109d0565b61080e565b60405161014596959493929190610cff565b60405180910390f35b6060805f805f8080549050861061019a576040517f08c379a000000000000000000000000000000000000000000000000000000000815260040161019190610db6565b60405180910390fd5b5f8087815481106101ae576101ad610dd4565b5b905f5260205f2090600502016040518060c00160405290815f82015481526020016001820180546101de90610e2e565b80601f016020809104026020016040519081016040528092919081815260200182805461020a90610e2e565b80156102555780601f1061022c57610100808354040283529160200191610255565b820191905f5260205f20905b81548152906001019060200180831161023857829003601f168201915b5050505050815260200160028201805461026e90610e2e565b80601f016020809104026020016040519081016040528092919081815260200182805461029a90610e2e565b80156102e55780601f106102bc576101008083540402835291602001916102e5565b820191905f5260205f20905b8154815290600101906020018083116102c857829003601f168201915b5050505050815260200160038201548152602001600482015f9054906101000a900473ffffffffffffffffffffffffffffffffffffffff1673ffffffffffffffffffffffffffffffffffffffff1673ffffffffffffffffffffffffffffffffffffffff1681526020016004820160149054906101000a900460ff161515151581525050905080602001518160400151826060015183608001518460a00151955095509550955095505091939590929450565b5f73ffffffffffffffffffffffffffffffffffffffff1660015f8381526020019081526020015f205f9054906101000a900473ffffffffffffffffffffffffffffffffffffffff1673ffffffffffffffffffffffffffffffffffffffff1603610435576040517f08c379a000000000000000000000000000000000000000000000000000000000815260040161042c90610ea8565b60405180910390fd5b5f818154811061044857610447610dd4565b5b905f5260205f20906005020160040160149054906101000a900460ff166104a4576040517f08c379a000000000000000000000000000000000000000000000000000000000815260040161049b90610f10565b60405180910390fd5b5f81815481106104b7576104b6610dd4565b5b905f5260205f20906005020160030154341015610509576040517f08c379a000000000000000000000000000000000000000000000000000000000815260040161050090610f78565b60405180910390fd5b5f60015f8381526020019081526020015f205f9054906101000a900473ffffffffffffffffffffffffffffffffffffffff1690508073ffffffffffffffffffffffffffffffffffffffff166108fc3490811502906040515f60405180830381858888f19350505050158015610580573d5f803e3d5ffd5b50335f838154811061059557610594610dd4565b5b905f5260205f2090600502016004015f6101000a81548173ffffffffffffffffffffffffffffffffffffffff021916908373ffffffffffffffffffffffffffffffffffffffff1602179055505f8083815481106105f5576105f4610dd4565b5b905f5260205f20906005020160040160146101000a81548160ff0219169083151502179055503360015f8481526020019081526020015f205f6101000a81548173ffffffffffffffffffffffffffffffffffffffff021916908373ffffffffffffffffffffffffffffffffffffffff1602179055505050565b6001602052805f5260405f205f915054906101000a900473ffffffffffffffffffffffffffffffffffffffff1681565b5f808054905090505f6040518060c001604052808381526020018681526020018581526020018481526020013373ffffffffffffffffffffffffffffffffffffffff16815260200160011515815250908060018154018082558091505060019003905f5260205f2090600502015f909190919091505f820151815f015560208201518160010190816107309190611133565b5060408201518160020190816107469190611133565b50606082015181600301556080820151816004015f6101000a81548173ffffffffffffffffffffffffffffffffffffffff021916908373ffffffffffffffffffffffffffffffffffffffff16021790555060a08201518160040160146101000a81548160ff02191690831515021790555050503360015f8381526020019081526020015f205f6101000a81548173ffffffffffffffffffffffffffffffffffffffff021916908373ffffffffffffffffffffffffffffffffffffffff16021790555050505050565b5f818154811061081c575f80fd5b905f5260205f2090600502015f91509050805f01549080600101805461084190610e2e565b80601f016020809104026020016040519081016040528092919081815260200182805461086d90610e2e565b80156108b85780601f1061088f576101008083540402835291602001916108b8565b820191905f5260205f20905b81548152906001019060200180831161089b57829003601f168201915b5050505050908060020180546108cd90610e2e565b80601f01602080910402602001604051908101604052809291908181526020018280546108f990610e2e565b80156109445780601f1061091b57610100808354040283529160200191610944565b820191905f5260205f20905b81548152906001019060200180831161092757829003601f168201915b505050505090806003015490806004015f9054906101000a900473ffffffffffffffffffffffffffffffffffffffff16908060040160149054906101000a900460ff16905086565b5f604051905090565b5f80fd5b5f80fd5b5f819050919050565b6109af8161099d565b81146109b9575f80fd5b50565b5f813590506109ca816109a6565b92915050565b5f602082840312156109e5576109e4610995565b5b5f6109f2848285016109bc565b91505092915050565b5f81519050919050565b5f82825260208201905092915050565b8281835e5f83830152505050565b5f601f19601f8301169050919050565b5f610a3d826109fb565b610a478185610a05565b9350610a57818560208601610a15565b610a6081610a23565b840191505092915050565b610a748161099d565b82525050565b5f73ffffffffffffffffffffffffffffffffffffffff82169050919050565b5f610aa382610a7a565b9050919050565b610ab381610a99565b82525050565b5f8115159050919050565b610acd81610ab9565b82525050565b5f60a0820190508181035f830152610aeb8188610a33565b90508181036020830152610aff8187610a33565b9050610b0e6040830186610a6b565b610b1b6060830185610aaa565b610b286080830184610ac4565b9695505050505050565b5f602082019050610b455f830184610aaa565b92915050565b5f80fd5b5f80fd5b7f4e487b71000000000000000000000000000000000000000000000000000000005f52604160045260245ffd5b610b8982610a23565b810181811067ffffffffffffffff82111715610ba857610ba7610b53565b5b80604052505050565b5f610bba61098c565b9050610bc68282610b80565b919050565b5f67ffffffffffffffff821115610be557610be4610b53565b5b610bee82610a23565b9050602081019050919050565b828183375f83830152505050565b5f610c1b610c1684610bcb565b610bb1565b905082815260208101848484011115610c3757610c36610b4f565b5b610c42848285610bfb565b509392505050565b5f82601f830112610c5e57610c5d610b4b565b5b8135610c6e848260208601610c09565b91505092915050565b5f805f60608486031215610c8e57610c8d610995565b5b5f84013567ffffffffffffffff811115610cab57610caa610999565b5b610cb786828701610c4a565b935050602084013567ffffffffffffffff811115610cd857610cd7610999565b5b610ce486828701610c4a565b9250506040610cf5868287016109bc565b9150509250925092565b5f60c082019050610d125f830189610a6b565b8181036020830152610d248188610a33565b90508181036040830152610d388187610a33565b9050610d476060830186610a6b565b610d546080830185610aaa565b610d6160a0830184610ac4565b979650505050505050565b7f50726f706572747920494420646f6573206e6f742065786973740000000000005f82015250565b5f610da0601a83610a05565b9150610dab82610d6c565b602082019050919050565b5f6020820190508181035f830152610dcd81610d94565b9050919050565b7f4e487b71000000000000000000000000000000000000000000000000000000005f52603260045260245ffd5b7f4e487b71000000000000000000000000000000000000000000000000000000005f52602260045260245ffd5b5f6002820490506001821680610e4557607f821691505b602082108103610e5857610e57610e01565b5b50919050565b7f50726f706572747920646f6573206e6f742065786973740000000000000000005f82015250565b5f610e92601783610a05565b9150610e9d82610e5e565b602082019050919050565b5f6020820190508181035f830152610ebf81610e86565b9050919050565b7f50726f7065727479206973206e6f7420617661696c61626c65000000000000005f82015250565b5f610efa601983610a05565b9150610f0582610ec6565b602082019050919050565b5f6020820190508181035f830152610f2781610eee565b9050919050565b7f496e73756666696369656e742066756e647300000000000000000000000000005f82015250565b5f610f62601283610a05565b9150610f6d82610f2e565b602082019050919050565b5f6020820190508181035f830152610f8f81610f56565b9050919050565b5f819050815f5260205f209050919050565b5f6020601f8301049050919050565b5f82821b905092915050565b5f60088302610ff27fffffffffffffffffffffffffffffffffffffffffffffffffffffffffffffffff82610fb7565b610ffc8683610fb7565b95508019841693508086168417925050509392505050565b5f819050919050565b5f61103761103261102d8461099d565b611014565b61099d565b9050919050565b5f819050919050565b6110508361101d565b61106461105c8261103e565b848454610fc3565b825550505050565b5f90565b61107861106c565b611083818484611047565b505050565b5b818110156110a65761109b5f82611070565b600181019050611089565b5050565b601f8211156110eb576110bc81610f96565b6110c584610fa8565b810160208510156110d4578190505b6110e86110e085610fa8565b830182611088565b50505b505050565b5f82821c905092915050565b5f61110b5f19846008026110f0565b1980831691505092915050565b5f61112383836110fc565b9150826002028217905092915050565b61113c826109fb565b67ffffffffffffffff81111561115557611154610b53565b5b61115f8254610e2e565b61116a8282856110aa565b5f60209050601f83116001811461119b575f8415611189578287015190505b6111938582611118565b8655506111fa565b601f1984166111a986610f96565b5f5b828110156111d0578489015182556001820191506020850194506020810190506111ab565b868310156111ed57848901516111e9601f8916826110fc565b8355505b6001600288020188555050505b50505050505056fea2646970667358221220c090de891be0cf7b450377be863aebd539e2566e0835eca9980503d5394ed7d664736f6c634300081a0033",
					"opcodes": "PUSH1 0x80 PUSH1 0x40 MSTORE CALLVALUE DUP1 ISZERO PUSH1 0xE JUMPI PUSH0 DUP1 REVERT JUMPDEST POP PUSH2 0x1238 DUP1 PUSH2 0x1C PUSH0 CODECOPY PUSH0 RETURN INVALID PUSH1 0x80 PUSH1 0x40 MSTORE PUSH1 0x4 CALLDATASIZE LT PUSH2 0x49 JUMPI PUSH0 CALLDATALOAD PUSH1 0xE0 SHR DUP1 PUSH4 0x32665FFB EQ PUSH2 0x4D JUMPI DUP1 PUSH4 0x6FA830A6 EQ PUSH2 0x8D JUMPI DUP1 PUSH4 0x7F2AF083 EQ PUSH2 0xA9 JUMPI DUP1 PUSH4 0x913A8E80 EQ PUSH2 0xE5 JUMPI DUP1 PUSH4 0xF7B10808 EQ PUSH2 0x10D JUMPI JUMPDEST PUSH0 DUP1 REVERT JUMPDEST CALLVALUE DUP1 ISZERO PUSH2 0x58 JUMPI PUSH0 DUP1 REVERT JUMPDEST POP PUSH2 0x73 PUSH1 0x4 DUP1 CALLDATASIZE SUB DUP2 ADD SWAP1 PUSH2 0x6E SWAP2 SWAP1 PUSH2 0x9D0 JUMP JUMPDEST PUSH2 0x14E JUMP JUMPDEST PUSH1 0x40 MLOAD PUSH2 0x84 SWAP6 SWAP5 SWAP4 SWAP3 SWAP2 SWAP1 PUSH2 0xAD3 JUMP JUMPDEST PUSH1 0x40 MLOAD DUP1 SWAP2 SUB SWAP1 RETURN JUMPDEST PUSH2 0xA7 PUSH1 0x4 DUP1 CALLDATASIZE SUB DUP2 ADD SWAP1 PUSH2 0xA2 SWAP2 SWAP1 PUSH2 0x9D0 JUMP JUMPDEST PUSH2 0x397 JUMP JUMPDEST STOP JUMPDEST CALLVALUE DUP1 ISZERO PUSH2 0xB4 JUMPI PUSH0 DUP1 REVERT JUMPDEST POP PUSH2 0xCF PUSH1 0x4 DUP1 CALLDATASIZE SUB DUP2 ADD SWAP1 PUSH2 0xCA SWAP2 SWAP1 PUSH2 0x9D0 JUMP JUMPDEST PUSH2 0x66E JUMP JUMPDEST PUSH1 0x40 MLOAD PUSH2 0xDC SWAP2 SWAP1 PUSH2 0xB32 JUMP JUMPDEST PUSH1 0x40 MLOAD DUP1 SWAP2 SUB SWAP1 RETURN JUMPDEST CALLVALUE DUP1 ISZERO PUSH2 0xF0 JUMPI PUSH0 DUP1 REVERT JUMPDEST POP PUSH2 0x10B PUSH1 0x4 DUP1 CALLDATASIZE SUB DUP2 ADD SWAP1 PUSH2 0x106 SWAP2 SWAP1 PUSH2 0xC77 JUMP JUMPDEST PUSH2 0x69E JUMP JUMPDEST STOP JUMPDEST CALLVALUE DUP1 ISZERO PUSH2 0x118 JUMPI PUSH0 DUP1 REVERT JUMPDEST POP PUSH2 0x133 PUSH1 0x4 DUP1 CALLDATASIZE SUB DUP2 ADD SWAP1 PUSH2 0x12E SWAP2 SWAP1 PUSH2 0x9D0 JUMP JUMPDEST PUSH2 0x80E JUMP JUMPDEST PUSH1 0x40 MLOAD PUSH2 0x145 SWAP7 SWAP6 SWAP5 SWAP4 SWAP3 SWAP2 SWAP1 PUSH2 0xCFF JUMP JUMPDEST PUSH1 0x40 MLOAD DUP1 SWAP2 SUB SWAP1 RETURN JUMPDEST PUSH1 0x60 DUP1 PUSH0 DUP1 PUSH0 DUP1 DUP1 SLOAD SWAP1 POP DUP7 LT PUSH2 0x19A JUMPI PUSH1 0x40 MLOAD PUSH32 0x8C379A000000000000000000000000000000000000000000000000000000000 DUP2 MSTORE PUSH1 0x4 ADD PUSH2 0x191 SWAP1 PUSH2 0xDB6 JUMP JUMPDEST PUSH1 0x40 MLOAD DUP1 SWAP2 SUB SWAP1 REVERT JUMPDEST PUSH0 DUP1 DUP8 DUP2 SLOAD DUP2 LT PUSH2 0x1AE JUMPI PUSH2 0x1AD PUSH2 0xDD4 JUMP JUMPDEST JUMPDEST SWAP1 PUSH0 MSTORE PUSH1 0x20 PUSH0 KECCAK256 SWAP1 PUSH1 0x5 MUL ADD PUSH1 0x40 MLOAD DUP1 PUSH1 0xC0 ADD PUSH1 0x40 MSTORE SWAP1 DUP2 PUSH0 DUP3 ADD SLOAD DUP2 MSTORE PUSH1 0x20 ADD PUSH1 0x1 DUP3 ADD DUP1 SLOAD PUSH2 0x1DE SWAP1 PUSH2 0xE2E JUMP JUMPDEST DUP1 PUSH1 0x1F ADD PUSH1 0x20 DUP1 SWAP2 DIV MUL PUSH1 0x20 ADD PUSH1 0x40 MLOAD SWAP1 DUP2 ADD PUSH1 0x40 MSTORE DUP1 SWAP3 SWAP2 SWAP1 DUP2 DUP2 MSTORE PUSH1 0x20 ADD DUP3 DUP1 SLOAD PUSH2 0x20A SWAP1 PUSH2 0xE2E JUMP JUMPDEST DUP1 ISZERO PUSH2 0x255 JUMPI DUP1 PUSH1 0x1F LT PUSH2 0x22C JUMPI PUSH2 0x100 DUP1 DUP4 SLOAD DIV MUL DUP4 MSTORE SWAP2 PUSH1 0x20 ADD SWAP2 PUSH2 0x255 JUMP JUMPDEST DUP3 ADD SWAP2 SWAP1 PUSH0 MSTORE PUSH1 0x20 PUSH0 KECCAK256 SWAP1 JUMPDEST DUP2 SLOAD DUP2 MSTORE SWAP1 PUSH1 0x1 ADD SWAP1 PUSH1 0x20 ADD DUP1 DUP4 GT PUSH2 0x238 JUMPI DUP3 SWAP1 SUB PUSH1 0x1F AND DUP3 ADD SWAP2 JUMPDEST POP POP POP POP POP DUP2 MSTORE PUSH1 0x20 ADD PUSH1 0x2 DUP3 ADD DUP1 SLOAD PUSH2 0x26E SWAP1 PUSH2 0xE2E JUMP JUMPDEST DUP1 PUSH1 0x1F ADD PUSH1 0x20 DUP1 SWAP2 DIV MUL PUSH1 0x20 ADD PUSH1 0x40 MLOAD SWAP1 DUP2 ADD PUSH1 0x40 MSTORE DUP1 SWAP3 SWAP2 SWAP1 DUP2 DUP2 MSTORE PUSH1 0x20 ADD DUP3 DUP1 SLOAD PUSH2 0x29A SWAP1 PUSH2 0xE2E JUMP JUMPDEST DUP1 ISZERO PUSH2 0x2E5 JUMPI DUP1 PUSH1 0x1F LT PUSH2 0x2BC JUMPI PUSH2 0x100 DUP1 DUP4 SLOAD DIV MUL DUP4 MSTORE SWAP2 PUSH1 0x20 ADD SWAP2 PUSH2 0x2E5 JUMP JUMPDEST DUP3 ADD SWAP2 SWAP1 PUSH0 MSTORE PUSH1 0x20 PUSH0 KECCAK256 SWAP1 JUMPDEST DUP2 SLOAD DUP2 MSTORE SWAP1 PUSH1 0x1 ADD SWAP1 PUSH1 0x20 ADD DUP1 DUP4 GT PUSH2 0x2C8 JUMPI DUP3 SWAP1 SUB PUSH1 0x1F AND DUP3 ADD SWAP2 JUMPDEST POP POP POP POP POP DUP2 MSTORE PUSH1 0x20 ADD PUSH1 0x3 DUP3 ADD SLOAD DUP2 MSTORE PUSH1 0x20 ADD PUSH1 0x4 DUP3 ADD PUSH0 SWAP1 SLOAD SWAP1 PUSH2 0x100 EXP SWAP1 DIV PUSH20 0xFFFFFFFFFFFFFFFFFFFFFFFFFFFFFFFFFFFFFFFF AND PUSH20 0xFFFFFFFFFFFFFFFFFFFFFFFFFFFFFFFFFFFFFFFF AND PUSH20 0xFFFFFFFFFFFFFFFFFFFFFFFFFFFFFFFFFFFFFFFF AND DUP2 MSTORE PUSH1 0x20 ADD PUSH1 0x4 DUP3 ADD PUSH1 0x14 SWAP1 SLOAD SWAP1 PUSH2 0x100 EXP SWAP1 DIV PUSH1 0xFF AND ISZERO ISZERO ISZERO ISZERO DUP2 MSTORE POP POP SWAP1 POP DUP1 PUSH1 0x20 ADD MLOAD DUP2 PUSH1 0x40 ADD MLOAD DUP3 PUSH1 0x60 ADD MLOAD DUP4 PUSH1 0x80 ADD MLOAD DUP5 PUSH1 0xA0 ADD MLOAD SWAP6 POP SWAP6 POP SWAP6 POP SWAP6 POP SWAP6 POP POP SWAP2 SWAP4 SWAP6 SWAP1 SWAP3 SWAP5 POP JUMP JUMPDEST PUSH0 PUSH20 0xFFFFFFFFFFFFFFFFFFFFFFFFFFFFFFFFFFFFFFFF AND PUSH1 0x1 PUSH0 DUP4 DUP2 MSTORE PUSH1 0x20 ADD SWAP1 DUP2 MSTORE PUSH1 0x20 ADD PUSH0 KECCAK256 PUSH0 SWAP1 SLOAD SWAP1 PUSH2 0x100 EXP SWAP1 DIV PUSH20 0xFFFFFFFFFFFFFFFFFFFFFFFFFFFFFFFFFFFFFFFF AND PUSH20 0xFFFFFFFFFFFFFFFFFFFFFFFFFFFFFFFFFFFFFFFF AND SUB PUSH2 0x435 JUMPI PUSH1 0x40 MLOAD PUSH32 0x8C379A000000000000000000000000000000000000000000000000000000000 DUP2 MSTORE PUSH1 0x4 ADD PUSH2 0x42C SWAP1 PUSH2 0xEA8 JUMP JUMPDEST PUSH1 0x40 MLOAD DUP1 SWAP2 SUB SWAP1 REVERT JUMPDEST PUSH0 DUP2 DUP2 SLOAD DUP2 LT PUSH2 0x448 JUMPI PUSH2 0x447 PUSH2 0xDD4 JUMP JUMPDEST JUMPDEST SWAP1 PUSH0 MSTORE PUSH1 0x20 PUSH0 KECCAK256 SWAP1 PUSH1 0x5 MUL ADD PUSH1 0x4 ADD PUSH1 0x14 SWAP1 SLOAD SWAP1 PUSH2 0x100 EXP SWAP1 DIV PUSH1 0xFF AND PUSH2 0x4A4 JUMPI PUSH1 0x40 MLOAD PUSH32 0x8C379A000000000000000000000000000000000000000000000000000000000 DUP2 MSTORE PUSH1 0x4 ADD PUSH2 0x49B SWAP1 PUSH2 0xF10 JUMP JUMPDEST PUSH1 0x40 MLOAD DUP1 SWAP2 SUB SWAP1 REVERT JUMPDEST PUSH0 DUP2 DUP2 SLOAD DUP2 LT PUSH2 0x4B7 JUMPI PUSH2 0x4B6 PUSH2 0xDD4 JUMP JUMPDEST JUMPDEST SWAP1 PUSH0 MSTORE PUSH1 0x20 PUSH0 KECCAK256 SWAP1 PUSH1 0x5 MUL ADD PUSH1 0x3 ADD SLOAD CALLVALUE LT ISZERO PUSH2 0x509 JUMPI PUSH1 0x40 MLOAD PUSH32 0x8C379A000000000000000000000000000000000000000000000000000000000 DUP2 MSTORE PUSH1 0x4 ADD PUSH2 0x500 SWAP1 PUSH2 0xF78 JUMP JUMPDEST PUSH1 0x40 MLOAD DUP1 SWAP2 SUB SWAP1 REVERT JUMPDEST PUSH0 PUSH1 0x1 PUSH0 DUP4 DUP2 MSTORE PUSH1 0x20 ADD SWAP1 DUP2 MSTORE PUSH1 0x20 ADD PUSH0 KECCAK256 PUSH0 SWAP1 SLOAD SWAP1 PUSH2 0x100 EXP SWAP1 DIV PUSH20 0xFFFFFFFFFFFFFFFFFFFFFFFFFFFFFFFFFFFFFFFF AND SWAP1 POP DUP1 PUSH20 0xFFFFFFFFFFFFFFFFFFFFFFFFFFFFFFFFFFFFFFFF AND PUSH2 0x8FC CALLVALUE SWAP1 DUP2 ISZERO MUL SWAP1 PUSH1 0x40 MLOAD PUSH0 PUSH1 0x40 MLOAD DUP1 DUP4 SUB DUP2 DUP6 DUP9 DUP9 CALL SWAP4 POP POP POP POP ISZERO DUP1 ISZERO PUSH2 0x580 JUMPI RETURNDATASIZE PUSH0 DUP1 RETURNDATACOPY RETURNDATASIZE PUSH0 REVERT JUMPDEST POP CALLER PUSH0 DUP4 DUP2 SLOAD DUP2 LT PUSH2 0x595 JUMPI PUSH2 0x594 PUSH2 0xDD4 JUMP JUMPDEST JUMPDEST SWAP1 PUSH0 MSTORE PUSH1 0x20 PUSH0 KECCAK256 SWAP1 PUSH1 0x5 MUL ADD PUSH1 0x4 ADD PUSH0 PUSH2 0x100 EXP DUP2 SLOAD DUP2 PUSH20 0xFFFFFFFFFFFFFFFFFFFFFFFFFFFFFFFFFFFFFFFF MUL NOT AND SWAP1 DUP4 PUSH20 0xFFFFFFFFFFFFFFFFFFFFFFFFFFFFFFFFFFFFFFFF AND MUL OR SWAP1 SSTORE POP PUSH0 DUP1 DUP4 DUP2 SLOAD DUP2 LT PUSH2 0x5F5 JUMPI PUSH2 0x5F4 PUSH2 0xDD4 JUMP JUMPDEST JUMPDEST SWAP1 PUSH0 MSTORE PUSH1 0x20 PUSH0 KECCAK256 SWAP1 PUSH1 0x5 MUL ADD PUSH1 0x4 ADD PUSH1 0x14 PUSH2 0x100 EXP DUP2 SLOAD DUP2 PUSH1 0xFF MUL NOT AND SWAP1 DUP4 ISZERO ISZERO MUL OR SWAP1 SSTORE POP CALLER PUSH1 0x1 PUSH0 DUP5 DUP2 MSTORE PUSH1 0x20 ADD SWAP1 DUP2 MSTORE PUSH1 0x20 ADD PUSH0 KECCAK256 PUSH0 PUSH2 0x100 EXP DUP2 SLOAD DUP2 PUSH20 0xFFFFFFFFFFFFFFFFFFFFFFFFFFFFFFFFFFFFFFFF MUL NOT AND SWAP1 DUP4 PUSH20 0xFFFFFFFFFFFFFFFFFFFFFFFFFFFFFFFFFFFFFFFF AND MUL OR SWAP1 SSTORE POP POP POP JUMP JUMPDEST PUSH1 0x1 PUSH1 0x20 MSTORE DUP1 PUSH0 MSTORE PUSH1 0x40 PUSH0 KECCAK256 PUSH0 SWAP2 POP SLOAD SWAP1 PUSH2 0x100 EXP SWAP1 DIV PUSH20 0xFFFFFFFFFFFFFFFFFFFFFFFFFFFFFFFFFFFFFFFF AND DUP2 JUMP JUMPDEST PUSH0 DUP1 DUP1 SLOAD SWAP1 POP SWAP1 POP PUSH0 PUSH1 0x40 MLOAD DUP1 PUSH1 0xC0 ADD PUSH1 0x40 MSTORE DUP1 DUP4 DUP2 MSTORE PUSH1 0x20 ADD DUP7 DUP2 MSTORE PUSH1 0x20 ADD DUP6 DUP2 MSTORE PUSH1 0x20 ADD DUP5 DUP2 MSTORE PUSH1 0x20 ADD CALLER PUSH20 0xFFFFFFFFFFFFFFFFFFFFFFFFFFFFFFFFFFFFFFFF AND DUP2 MSTORE PUSH1 0x20 ADD PUSH1 0x1 ISZERO ISZERO DUP2 MSTORE POP SWAP1 DUP1 PUSH1 0x1 DUP2 SLOAD ADD DUP1 DUP3 SSTORE DUP1 SWAP2 POP POP PUSH1 0x1 SWAP1 SUB SWAP1 PUSH0 MSTORE PUSH1 0x20 PUSH0 KECCAK256 SWAP1 PUSH1 0x5 MUL ADD PUSH0 SWAP1 SWAP2 SWAP1 SWAP2 SWAP1 SWAP2 POP PUSH0 DUP3 ADD MLOAD DUP2 PUSH0 ADD SSTORE PUSH1 0x20 DUP3 ADD MLOAD DUP2 PUSH1 0x1 ADD SWAP1 DUP2 PUSH2 0x730 SWAP2 SWAP1 PUSH2 0x1133 JUMP JUMPDEST POP PUSH1 0x40 DUP3 ADD MLOAD DUP2 PUSH1 0x2 ADD SWAP1 DUP2 PUSH2 0x746 SWAP2 SWAP1 PUSH2 0x1133 JUMP JUMPDEST POP PUSH1 0x60 DUP3 ADD MLOAD DUP2 PUSH1 0x3 ADD SSTORE PUSH1 0x80 DUP3 ADD MLOAD DUP2 PUSH1 0x4 ADD PUSH0 PUSH2 0x100 EXP DUP2 SLOAD DUP2 PUSH20 0xFFFFFFFFFFFFFFFFFFFFFFFFFFFFFFFFFFFFFFFF MUL NOT AND SWAP1 DUP4 PUSH20 0xFFFFFFFFFFFFFFFFFFFFFFFFFFFFFFFFFFFFFFFF AND MUL OR SWAP1 SSTORE POP PUSH1 0xA0 DUP3 ADD MLOAD DUP2 PUSH1 0x4 ADD PUSH1 0x14 PUSH2 0x100 EXP DUP2 SLOAD DUP2 PUSH1 0xFF MUL NOT AND SWAP1 DUP4 ISZERO ISZERO MUL OR SWAP1 SSTORE POP POP POP CALLER PUSH1 0x1 PUSH0 DUP4 DUP2 MSTORE PUSH1 0x20 ADD SWAP1 DUP2 MSTORE PUSH1 0x20 ADD PUSH0 KECCAK256 PUSH0 PUSH2 0x100 EXP DUP2 SLOAD DUP2 PUSH20 0xFFFFFFFFFFFFFFFFFFFFFFFFFFFFFFFFFFFFFFFF MUL NOT AND SWAP1 DUP4 PUSH20 0xFFFFFFFFFFFFFFFFFFFFFFFFFFFFFFFFFFFFFFFF AND MUL OR SWAP1 SSTORE POP POP POP POP POP JUMP JUMPDEST PUSH0 DUP2 DUP2 SLOAD DUP2 LT PUSH2 0x81C JUMPI PUSH0 DUP1 REVERT JUMPDEST SWAP1 PUSH0 MSTORE PUSH1 0x20 PUSH0 KECCAK256 SWAP1 PUSH1 0x5 MUL ADD PUSH0 SWAP2 POP SWAP1 POP DUP1 PUSH0 ADD SLOAD SWAP1 DUP1 PUSH1 0x1 ADD DUP1 SLOAD PUSH2 0x841 SWAP1 PUSH2 0xE2E JUMP JUMPDEST DUP1 PUSH1 0x1F ADD PUSH1 0x20 DUP1 SWAP2 DIV MUL PUSH1 0x20 ADD PUSH1 0x40 MLOAD SWAP1 DUP2 ADD PUSH1 0x40 MSTORE DUP1 SWAP3 SWAP2 SWAP1 DUP2 DUP2 MSTORE PUSH1 0x20 ADD DUP3 DUP1 SLOAD PUSH2 0x86D SWAP1 PUSH2 0xE2E JUMP JUMPDEST DUP1 ISZERO PUSH2 0x8B8 JUMPI DUP1 PUSH1 0x1F LT PUSH2 0x88F JUMPI PUSH2 0x100 DUP1 DUP4 SLOAD DIV MUL DUP4 MSTORE SWAP2 PUSH1 0x20 ADD SWAP2 PUSH2 0x8B8 JUMP JUMPDEST DUP3 ADD SWAP2 SWAP1 PUSH0 MSTORE PUSH1 0x20 PUSH0 KECCAK256 SWAP1 JUMPDEST DUP2 SLOAD DUP2 MSTORE SWAP1 PUSH1 0x1 ADD SWAP1 PUSH1 0x20 ADD DUP1 DUP4 GT PUSH2 0x89B JUMPI DUP3 SWAP1 SUB PUSH1 0x1F AND DUP3 ADD SWAP2 JUMPDEST POP POP POP POP POP SWAP1 DUP1 PUSH1 0x2 ADD DUP1 SLOAD PUSH2 0x8CD SWAP1 PUSH2 0xE2E JUMP JUMPDEST DUP1 PUSH1 0x1F ADD PUSH1 0x20 DUP1 SWAP2 DIV MUL PUSH1 0x20 ADD PUSH1 0x40 MLOAD SWAP1 DUP2 ADD PUSH1 0x40 MSTORE DUP1 SWAP3 SWAP2 SWAP1 DUP2 DUP2 MSTORE PUSH1 0x20 ADD DUP3 DUP1 SLOAD PUSH2 0x8F9 SWAP1 PUSH2 0xE2E JUMP JUMPDEST DUP1 ISZERO PUSH2 0x944 JUMPI DUP1 PUSH1 0x1F LT PUSH2 0x91B JUMPI PUSH2 0x100 DUP1 DUP4 SLOAD DIV MUL DUP4 MSTORE SWAP2 PUSH1 0x20 ADD SWAP2 PUSH2 0x944 JUMP JUMPDEST DUP3 ADD SWAP2 SWAP1 PUSH0 MSTORE PUSH1 0x20 PUSH0 KECCAK256 SWAP1 JUMPDEST DUP2 SLOAD DUP2 MSTORE SWAP1 PUSH1 0x1 ADD SWAP1 PUSH1 0x20 ADD DUP1 DUP4 GT PUSH2 0x927 JUMPI DUP3 SWAP1 SUB PUSH1 0x1F AND DUP3 ADD SWAP2 JUMPDEST POP POP POP POP POP SWAP1 DUP1 PUSH1 0x3 ADD SLOAD SWAP1 DUP1 PUSH1 0x4 ADD PUSH0 SWAP1 SLOAD SWAP1 PUSH2 0x100 EXP SWAP1 DIV PUSH20 0xFFFFFFFFFFFFFFFFFFFFFFFFFFFFFFFFFFFFFFFF AND SWAP1 DUP1 PUSH1 0x4 ADD PUSH1 0x14 SWAP1 SLOAD SWAP1 PUSH2 0x100 EXP SWAP1 DIV PUSH1 0xFF AND SWAP1 POP DUP7 JUMP JUMPDEST PUSH0 PUSH1 0x40 MLOAD SWAP1 POP SWAP1 JUMP JUMPDEST PUSH0 DUP1 REVERT JUMPDEST PUSH0 DUP1 REVERT JUMPDEST PUSH0 DUP2 SWAP1 POP SWAP2 SWAP1 POP JUMP JUMPDEST PUSH2 0x9AF DUP2 PUSH2 0x99D JUMP JUMPDEST DUP2 EQ PUSH2 0x9B9 JUMPI PUSH0 DUP1 REVERT JUMPDEST POP JUMP JUMPDEST PUSH0 DUP2 CALLDATALOAD SWAP1 POP PUSH2 0x9CA DUP2 PUSH2 0x9A6 JUMP JUMPDEST SWAP3 SWAP2 POP POP JUMP JUMPDEST PUSH0 PUSH1 0x20 DUP3 DUP5 SUB SLT ISZERO PUSH2 0x9E5 JUMPI PUSH2 0x9E4 PUSH2 0x995 JUMP JUMPDEST JUMPDEST PUSH0 PUSH2 0x9F2 DUP5 DUP3 DUP6 ADD PUSH2 0x9BC JUMP JUMPDEST SWAP2 POP POP SWAP3 SWAP2 POP POP JUMP JUMPDEST PUSH0 DUP2 MLOAD SWAP1 POP SWAP2 SWAP1 POP JUMP JUMPDEST PUSH0 DUP3 DUP3 MSTORE PUSH1 0x20 DUP3 ADD SWAP1 POP SWAP3 SWAP2 POP POP JUMP JUMPDEST DUP3 DUP2 DUP4 MCOPY PUSH0 DUP4 DUP4 ADD MSTORE POP POP POP JUMP JUMPDEST PUSH0 PUSH1 0x1F NOT PUSH1 0x1F DUP4 ADD AND SWAP1 POP SWAP2 SWAP1 POP JUMP JUMPDEST PUSH0 PUSH2 0xA3D DUP3 PUSH2 0x9FB JUMP JUMPDEST PUSH2 0xA47 DUP2 DUP6 PUSH2 0xA05 JUMP JUMPDEST SWAP4 POP PUSH2 0xA57 DUP2 DUP6 PUSH1 0x20 DUP7 ADD PUSH2 0xA15 JUMP JUMPDEST PUSH2 0xA60 DUP2 PUSH2 0xA23 JUMP JUMPDEST DUP5 ADD SWAP2 POP POP SWAP3 SWAP2 POP POP JUMP JUMPDEST PUSH2 0xA74 DUP2 PUSH2 0x99D JUMP JUMPDEST DUP3 MSTORE POP POP JUMP JUMPDEST PUSH0 PUSH20 0xFFFFFFFFFFFFFFFFFFFFFFFFFFFFFFFFFFFFFFFF DUP3 AND SWAP1 POP SWAP2 SWAP1 POP JUMP JUMPDEST PUSH0 PUSH2 0xAA3 DUP3 PUSH2 0xA7A JUMP JUMPDEST SWAP1 POP SWAP2 SWAP1 POP JUMP JUMPDEST PUSH2 0xAB3 DUP2 PUSH2 0xA99 JUMP JUMPDEST DUP3 MSTORE POP POP JUMP JUMPDEST PUSH0 DUP2 ISZERO ISZERO SWAP1 POP SWAP2 SWAP1 POP JUMP JUMPDEST PUSH2 0xACD DUP2 PUSH2 0xAB9 JUMP JUMPDEST DUP3 MSTORE POP POP JUMP JUMPDEST PUSH0 PUSH1 0xA0 DUP3 ADD SWAP1 POP DUP2 DUP2 SUB PUSH0 DUP4 ADD MSTORE PUSH2 0xAEB DUP2 DUP9 PUSH2 0xA33 JUMP JUMPDEST SWAP1 POP DUP2 DUP2 SUB PUSH1 0x20 DUP4 ADD MSTORE PUSH2 0xAFF DUP2 DUP8 PUSH2 0xA33 JUMP JUMPDEST SWAP1 POP PUSH2 0xB0E PUSH1 0x40 DUP4 ADD DUP7 PUSH2 0xA6B JUMP JUMPDEST PUSH2 0xB1B PUSH1 0x60 DUP4 ADD DUP6 PUSH2 0xAAA JUMP JUMPDEST PUSH2 0xB28 PUSH1 0x80 DUP4 ADD DUP5 PUSH2 0xAC4 JUMP JUMPDEST SWAP7 SWAP6 POP POP POP POP POP POP JUMP JUMPDEST PUSH0 PUSH1 0x20 DUP3 ADD SWAP1 POP PUSH2 0xB45 PUSH0 DUP4 ADD DUP5 PUSH2 0xAAA JUMP JUMPDEST SWAP3 SWAP2 POP POP JUMP JUMPDEST PUSH0 DUP1 REVERT JUMPDEST PUSH0 DUP1 REVERT JUMPDEST PUSH32 0x4E487B7100000000000000000000000000000000000000000000000000000000 PUSH0 MSTORE PUSH1 0x41 PUSH1 0x4 MSTORE PUSH1 0x24 PUSH0 REVERT JUMPDEST PUSH2 0xB89 DUP3 PUSH2 0xA23 JUMP JUMPDEST DUP2 ADD DUP2 DUP2 LT PUSH8 0xFFFFFFFFFFFFFFFF DUP3 GT OR ISZERO PUSH2 0xBA8 JUMPI PUSH2 0xBA7 PUSH2 0xB53 JUMP JUMPDEST JUMPDEST DUP1 PUSH1 0x40 MSTORE POP POP POP JUMP JUMPDEST PUSH0 PUSH2 0xBBA PUSH2 0x98C JUMP JUMPDEST SWAP1 POP PUSH2 0xBC6 DUP3 DUP3 PUSH2 0xB80 JUMP JUMPDEST SWAP2 SWAP1 POP JUMP JUMPDEST PUSH0 PUSH8 0xFFFFFFFFFFFFFFFF DUP3 GT ISZERO PUSH2 0xBE5 JUMPI PUSH2 0xBE4 PUSH2 0xB53 JUMP JUMPDEST JUMPDEST PUSH2 0xBEE DUP3 PUSH2 0xA23 JUMP JUMPDEST SWAP1 POP PUSH1 0x20 DUP2 ADD SWAP1 POP SWAP2 SWAP1 POP JUMP JUMPDEST DUP3 DUP2 DUP4 CALLDATACOPY PUSH0 DUP4 DUP4 ADD MSTORE POP POP POP JUMP JUMPDEST PUSH0 PUSH2 0xC1B PUSH2 0xC16 DUP5 PUSH2 0xBCB JUMP JUMPDEST PUSH2 0xBB1 JUMP JUMPDEST SWAP1 POP DUP3 DUP2 MSTORE PUSH1 0x20 DUP2 ADD DUP5 DUP5 DUP5 ADD GT ISZERO PUSH2 0xC37 JUMPI PUSH2 0xC36 PUSH2 0xB4F JUMP JUMPDEST JUMPDEST PUSH2 0xC42 DUP5 DUP3 DUP6 PUSH2 0xBFB JUMP JUMPDEST POP SWAP4 SWAP3 POP POP POP JUMP JUMPDEST PUSH0 DUP3 PUSH1 0x1F DUP4 ADD SLT PUSH2 0xC5E JUMPI PUSH2 0xC5D PUSH2 0xB4B JUMP JUMPDEST JUMPDEST DUP2 CALLDATALOAD PUSH2 0xC6E DUP5 DUP3 PUSH1 0x20 DUP7 ADD PUSH2 0xC09 JUMP JUMPDEST SWAP2 POP POP SWAP3 SWAP2 POP POP JUMP JUMPDEST PUSH0 DUP1 PUSH0 PUSH1 0x60 DUP5 DUP7 SUB SLT ISZERO PUSH2 0xC8E JUMPI PUSH2 0xC8D PUSH2 0x995 JUMP JUMPDEST JUMPDEST PUSH0 DUP5 ADD CALLDATALOAD PUSH8 0xFFFFFFFFFFFFFFFF DUP2 GT ISZERO PUSH2 0xCAB JUMPI PUSH2 0xCAA PUSH2 0x999 JUMP JUMPDEST JUMPDEST PUSH2 0xCB7 DUP7 DUP3 DUP8 ADD PUSH2 0xC4A JUMP JUMPDEST SWAP4 POP POP PUSH1 0x20 DUP5 ADD CALLDATALOAD PUSH8 0xFFFFFFFFFFFFFFFF DUP2 GT ISZERO PUSH2 0xCD8 JUMPI PUSH2 0xCD7 PUSH2 0x999 JUMP JUMPDEST JUMPDEST PUSH2 0xCE4 DUP7 DUP3 DUP8 ADD PUSH2 0xC4A JUMP JUMPDEST SWAP3 POP POP PUSH1 0x40 PUSH2 0xCF5 DUP7 DUP3 DUP8 ADD PUSH2 0x9BC JUMP JUMPDEST SWAP2 POP POP SWAP3 POP SWAP3 POP SWAP3 JUMP JUMPDEST PUSH0 PUSH1 0xC0 DUP3 ADD SWAP1 POP PUSH2 0xD12 PUSH0 DUP4 ADD DUP10 PUSH2 0xA6B JUMP JUMPDEST DUP2 DUP2 SUB PUSH1 0x20 DUP4 ADD MSTORE PUSH2 0xD24 DUP2 DUP9 PUSH2 0xA33 JUMP JUMPDEST SWAP1 POP DUP2 DUP2 SUB PUSH1 0x40 DUP4 ADD MSTORE PUSH2 0xD38 DUP2 DUP8 PUSH2 0xA33 JUMP JUMPDEST SWAP1 POP PUSH2 0xD47 PUSH1 0x60 DUP4 ADD DUP7 PUSH2 0xA6B JUMP JUMPDEST PUSH2 0xD54 PUSH1 0x80 DUP4 ADD DUP6 PUSH2 0xAAA JUMP JUMPDEST PUSH2 0xD61 PUSH1 0xA0 DUP4 ADD DUP5 PUSH2 0xAC4 JUMP JUMPDEST SWAP8 SWAP7 POP POP POP POP POP POP POP JUMP JUMPDEST PUSH32 0x50726F706572747920494420646F6573206E6F74206578697374000000000000 PUSH0 DUP3 ADD MSTORE POP JUMP JUMPDEST PUSH0 PUSH2 0xDA0 PUSH1 0x1A DUP4 PUSH2 0xA05 JUMP JUMPDEST SWAP2 POP PUSH2 0xDAB DUP3 PUSH2 0xD6C JUMP JUMPDEST PUSH1 0x20 DUP3 ADD SWAP1 POP SWAP2 SWAP1 POP JUMP JUMPDEST PUSH0 PUSH1 0x20 DUP3 ADD SWAP1 POP DUP2 DUP2 SUB PUSH0 DUP4 ADD MSTORE PUSH2 0xDCD DUP2 PUSH2 0xD94 JUMP JUMPDEST SWAP1 POP SWAP2 SWAP1 POP JUMP JUMPDEST PUSH32 0x4E487B7100000000000000000000000000000000000000000000000000000000 PUSH0 MSTORE PUSH1 0x32 PUSH1 0x4 MSTORE PUSH1 0x24 PUSH0 REVERT JUMPDEST PUSH32 0x4E487B7100000000000000000000000000000000000000000000000000000000 PUSH0 MSTORE PUSH1 0x22 PUSH1 0x4 MSTORE PUSH1 0x24 PUSH0 REVERT JUMPDEST PUSH0 PUSH1 0x2 DUP3 DIV SWAP1 POP PUSH1 0x1 DUP3 AND DUP1 PUSH2 0xE45 JUMPI PUSH1 0x7F DUP3 AND SWAP2 POP JUMPDEST PUSH1 0x20 DUP3 LT DUP2 SUB PUSH2 0xE58 JUMPI PUSH2 0xE57 PUSH2 0xE01 JUMP JUMPDEST JUMPDEST POP SWAP2 SWAP1 POP JUMP JUMPDEST PUSH32 0x50726F706572747920646F6573206E6F74206578697374000000000000000000 PUSH0 DUP3 ADD MSTORE POP JUMP JUMPDEST PUSH0 PUSH2 0xE92 PUSH1 0x17 DUP4 PUSH2 0xA05 JUMP JUMPDEST SWAP2 POP PUSH2 0xE9D DUP3 PUSH2 0xE5E JUMP JUMPDEST PUSH1 0x20 DUP3 ADD SWAP1 POP SWAP2 SWAP1 POP JUMP JUMPDEST PUSH0 PUSH1 0x20 DUP3 ADD SWAP1 POP DUP2 DUP2 SUB PUSH0 DUP4 ADD MSTORE PUSH2 0xEBF DUP2 PUSH2 0xE86 JUMP JUMPDEST SWAP1 POP SWAP2 SWAP1 POP JUMP JUMPDEST PUSH32 0x50726F7065727479206973206E6F7420617661696C61626C6500000000000000 PUSH0 DUP3 ADD MSTORE POP JUMP JUMPDEST PUSH0 PUSH2 0xEFA PUSH1 0x19 DUP4 PUSH2 0xA05 JUMP JUMPDEST SWAP2 POP PUSH2 0xF05 DUP3 PUSH2 0xEC6 JUMP JUMPDEST PUSH1 0x20 DUP3 ADD SWAP1 POP SWAP2 SWAP1 POP JUMP JUMPDEST PUSH0 PUSH1 0x20 DUP3 ADD SWAP1 POP DUP2 DUP2 SUB PUSH0 DUP4 ADD MSTORE PUSH2 0xF27 DUP2 PUSH2 0xEEE JUMP JUMPDEST SWAP1 POP SWAP2 SWAP1 POP JUMP JUMPDEST PUSH32 0x496E73756666696369656E742066756E64730000000000000000000000000000 PUSH0 DUP3 ADD MSTORE POP JUMP JUMPDEST PUSH0 PUSH2 0xF62 PUSH1 0x12 DUP4 PUSH2 0xA05 JUMP JUMPDEST SWAP2 POP PUSH2 0xF6D DUP3 PUSH2 0xF2E JUMP JUMPDEST PUSH1 0x20 DUP3 ADD SWAP1 POP SWAP2 SWAP1 POP JUMP JUMPDEST PUSH0 PUSH1 0x20 DUP3 ADD SWAP1 POP DUP2 DUP2 SUB PUSH0 DUP4 ADD MSTORE PUSH2 0xF8F DUP2 PUSH2 0xF56 JUMP JUMPDEST SWAP1 POP SWAP2 SWAP1 POP JUMP JUMPDEST PUSH0 DUP2 SWAP1 POP DUP2 PUSH0 MSTORE PUSH1 0x20 PUSH0 KECCAK256 SWAP1 POP SWAP2 SWAP1 POP JUMP JUMPDEST PUSH0 PUSH1 0x20 PUSH1 0x1F DUP4 ADD DIV SWAP1 POP SWAP2 SWAP1 POP JUMP JUMPDEST PUSH0 DUP3 DUP3 SHL SWAP1 POP SWAP3 SWAP2 POP POP JUMP JUMPDEST PUSH0 PUSH1 0x8 DUP4 MUL PUSH2 0xFF2 PUSH32 0xFFFFFFFFFFFFFFFFFFFFFFFFFFFFFFFFFFFFFFFFFFFFFFFFFFFFFFFFFFFFFFFF DUP3 PUSH2 0xFB7 JUMP JUMPDEST PUSH2 0xFFC DUP7 DUP4 PUSH2 0xFB7 JUMP JUMPDEST SWAP6 POP DUP1 NOT DUP5 AND SWAP4 POP DUP1 DUP7 AND DUP5 OR SWAP3 POP POP POP SWAP4 SWAP3 POP POP POP JUMP JUMPDEST PUSH0 DUP2 SWAP1 POP SWAP2 SWAP1 POP JUMP JUMPDEST PUSH0 PUSH2 0x1037 PUSH2 0x1032 PUSH2 0x102D DUP5 PUSH2 0x99D JUMP JUMPDEST PUSH2 0x1014 JUMP JUMPDEST PUSH2 0x99D JUMP JUMPDEST SWAP1 POP SWAP2 SWAP1 POP JUMP JUMPDEST PUSH0 DUP2 SWAP1 POP SWAP2 SWAP1 POP JUMP JUMPDEST PUSH2 0x1050 DUP4 PUSH2 0x101D JUMP JUMPDEST PUSH2 0x1064 PUSH2 0x105C DUP3 PUSH2 0x103E JUMP JUMPDEST DUP5 DUP5 SLOAD PUSH2 0xFC3 JUMP JUMPDEST DUP3 SSTORE POP POP POP POP JUMP JUMPDEST PUSH0 SWAP1 JUMP JUMPDEST PUSH2 0x1078 PUSH2 0x106C JUMP JUMPDEST PUSH2 0x1083 DUP2 DUP5 DUP5 PUSH2 0x1047 JUMP JUMPDEST POP POP POP JUMP JUMPDEST JUMPDEST DUP2 DUP2 LT ISZERO PUSH2 0x10A6 JUMPI PUSH2 0x109B PUSH0 DUP3 PUSH2 0x1070 JUMP JUMPDEST PUSH1 0x1 DUP2 ADD SWAP1 POP PUSH2 0x1089 JUMP JUMPDEST POP POP JUMP JUMPDEST PUSH1 0x1F DUP3 GT ISZERO PUSH2 0x10EB JUMPI PUSH2 0x10BC DUP2 PUSH2 0xF96 JUMP JUMPDEST PUSH2 0x10C5 DUP5 PUSH2 0xFA8 JUMP JUMPDEST DUP2 ADD PUSH1 0x20 DUP6 LT ISZERO PUSH2 0x10D4 JUMPI DUP2 SWAP1 POP JUMPDEST PUSH2 0x10E8 PUSH2 0x10E0 DUP6 PUSH2 0xFA8 JUMP JUMPDEST DUP4 ADD DUP3 PUSH2 0x1088 JUMP JUMPDEST POP POP JUMPDEST POP POP POP JUMP JUMPDEST PUSH0 DUP3 DUP3 SHR SWAP1 POP SWAP3 SWAP2 POP POP JUMP JUMPDEST PUSH0 PUSH2 0x110B PUSH0 NOT DUP5 PUSH1 0x8 MUL PUSH2 0x10F0 JUMP JUMPDEST NOT DUP1 DUP4 AND SWAP2 POP POP SWAP3 SWAP2 POP POP JUMP JUMPDEST PUSH0 PUSH2 0x1123 DUP4 DUP4 PUSH2 0x10FC JUMP JUMPDEST SWAP2 POP DUP3 PUSH1 0x2 MUL DUP3 OR SWAP1 POP SWAP3 SWAP2 POP POP JUMP JUMPDEST PUSH2 0x113C DUP3 PUSH2 0x9FB JUMP JUMPDEST PUSH8 0xFFFFFFFFFFFFFFFF DUP2 GT ISZERO PUSH2 0x1155 JUMPI PUSH2 0x1154 PUSH2 0xB53 JUMP JUMPDEST JUMPDEST PUSH2 0x115F DUP3 SLOAD PUSH2 0xE2E JUMP JUMPDEST PUSH2 0x116A DUP3 DUP3 DUP6 PUSH2 0x10AA JUMP JUMPDEST PUSH0 PUSH1 0x20 SWAP1 POP PUSH1 0x1F DUP4 GT PUSH1 0x1 DUP2 EQ PUSH2 0x119B JUMPI PUSH0 DUP5 ISZERO PUSH2 0x1189 JUMPI DUP3 DUP8 ADD MLOAD SWAP1 POP JUMPDEST PUSH2 0x1193 DUP6 DUP3 PUSH2 0x1118 JUMP JUMPDEST DUP7 SSTORE POP PUSH2 0x11FA JUMP JUMPDEST PUSH1 0x1F NOT DUP5 AND PUSH2 0x11A9 DUP7 PUSH2 0xF96 JUMP JUMPDEST PUSH0 JUMPDEST DUP3 DUP2 LT ISZERO PUSH2 0x11D0 JUMPI DUP5 DUP10 ADD MLOAD DUP3 SSTORE PUSH1 0x1 DUP3 ADD SWAP2 POP PUSH1 0x20 DUP6 ADD SWAP5 POP PUSH1 0x20 DUP2 ADD SWAP1 POP PUSH2 0x11AB JUMP JUMPDEST DUP7 DUP4 LT ISZERO PUSH2 0x11ED JUMPI DUP5 DUP10 ADD MLOAD PUSH2 0x11E9 PUSH1 0x1F DUP10 AND DUP3 PUSH2 0x10FC JUMP JUMPDEST DUP4 SSTORE POP JUMPDEST PUSH1 0x1 PUSH1 0x2 DUP9 MUL ADD DUP9 SSTORE POP POP POP JUMPDEST POP POP POP POP POP POP JUMP INVALID LOG2 PUSH5 0x6970667358 0x22 SLT KECCAK256 0xC0 SWAP1 0xDE DUP10 SHL 0xE0 0xCF PUSH28 0x450377BE863AEBD539E2566E0835ECA9980503D5394ED7D664736F6C PUSH4 0x4300081A STOP CALLER "
				},
				"gasEstimates": {
					"creation": {
						"codeDepositCost": "932800",
						"executionCost": "966",
						"totalCost": "933766"
					},
					"external": {
						"addProperty(string,string,uint256)": "infinite",
						"buyProperty(uint256)": "infinite",
						"getProperty(uint256)": "infinite",
						"properties(uint256)": "infinite",
						"propertyOwners(uint256)": "2849"
					}
				},
				"methodIdentifiers": {
					"addProperty(string,string,uint256)": "913a8e80",
					"buyProperty(uint256)": "6fa830a6",
					"getProperty(uint256)": "32665ffb",
					"properties(uint256)": "f7b10808",
					"propertyOwners(uint256)": "7f2af083"
				}
			},
			"storageLayout": {
				"storage": [
					{
						"astId": 18,
						"contract": "contracts/PropertyManagement.sol:RealEstate",
						"label": "properties",
						"offset": 0,
						"slot": "0",
						"type": "t_array(t_struct(Property)14_storage)dyn_storage"
					},
					{
						"astId": 22,
						"contract": "contracts/PropertyManagement.sol:RealEstate",
						"label": "propertyOwners",
						"offset": 0,
						"slot": "1",
						"type": "t_mapping(t_uint256,t_address)"
					}
				],
				"types": {
					"t_address": {
						"encoding": "inplace",
						"label": "address",
						"numberOfBytes": "20"
					},
					"t_array(t_struct(Property)14_storage)dyn_storage": {
						"base": "t_struct(Property)14_storage",
						"encoding": "dynamic_array",
						"label": "struct RealEstate.Property[]",
						"numberOfBytes": "32"
					},
					"t_bool": {
						"encoding": "inplace",
						"label": "bool",
						"numberOfBytes": "1"
					},
					"t_mapping(t_uint256,t_address)": {
						"encoding": "mapping",
						"key": "t_uint256",
						"label": "mapping(uint256 => address)",
						"numberOfBytes": "32",
						"value": "t_address"
					},
					"t_string_storage": {
						"encoding": "bytes",
						"label": "string",
						"numberOfBytes": "32"
					},
					"t_struct(Property)14_storage": {
						"encoding": "inplace",
						"label": "struct RealEstate.Property",
						"members": [
							{
								"astId": 3,
								"contract": "contracts/PropertyManagement.sol:RealEstate",
								"label": "id",
								"offset": 0,
								"slot": "0",
								"type": "t_uint256"
							},
							{
								"astId": 5,
								"contract": "contracts/PropertyManagement.sol:RealEstate",
								"label": "name",
								"offset": 0,
								"slot": "1",
								"type": "t_string_storage"
							},
							{
								"astId": 7,
								"contract": "contracts/PropertyManagement.sol:RealEstate",
								"label": "location",
								"offset": 0,
								"slot": "2",
								"type": "t_string_storage"
							},
							{
								"astId": 9,
								"contract": "contracts/PropertyManagement.sol:RealEstate",
								"label": "value",
								"offset": 0,
								"slot": "3",
								"type": "t_uint256"
							},
							{
								"astId": 11,
								"contract": "contracts/PropertyManagement.sol:RealEstate",
								"label": "owner",
								"offset": 0,
								"slot": "4",
								"type": "t_address"
							},
							{
								"astId": 13,
								"contract": "contracts/PropertyManagement.sol:RealEstate",
								"label": "isAvailable",
								"offset": 20,
								"slot": "4",
								"type": "t_bool"
							}
						],
						"numberOfBytes": "160"
					},
					"t_uint256": {
						"encoding": "inplace",
						"label": "uint256",
						"numberOfBytes": "32"
					}
				}
			},
			"userdoc": {
				"kind": "user",
				"methods": {},
				"version": 1
			}
		}
	}
}