{
	"contracts/BookLovers.sol": {
		"BookLoversDAO": {
			"abi": [
				{
					"anonymous": false,
					"inputs": [
						{
							"indexed": true,
							"internalType": "uint256",
							"name": "id",
							"type": "uint256"
						},
						{
							"indexed": false,
							"internalType": "string",
							"name": "title",
							"type": "string"
						},
						{
							"indexed": false,
							"internalType": "string",
							"name": "author",
							"type": "string"
						},
						{
							"indexed": false,
							"internalType": "string",
							"name": "ISBN",
							"type": "string"
						},
						{
							"indexed": false,
							"internalType": "bool",
							"name": "isPhysical",
							"type": "bool"
						}
					],
					"name": "BookAdded",
					"type": "event"
				},
				{
					"anonymous": false,
					"inputs": [
						{
							"indexed": true,
							"internalType": "uint256",
							"name": "id",
							"type": "uint256"
						},
						{
							"indexed": true,
							"internalType": "address",
							"name": "borrower",
							"type": "address"
						}
					],
					"name": "BookBorrowed",
					"type": "event"
				},
				{
					"anonymous": false,
					"inputs": [
						{
							"indexed": true,
							"internalType": "uint256",
							"name": "id",
							"type": "uint256"
						}
					],
					"name": "BookReturned",
					"type": "event"
				},
				{
					"inputs": [
						{
							"internalType": "string",
							"name": "_title",
							"type": "string"
						},
						{
							"internalType": "string",
							"name": "_author",
							"type": "string"
						},
						{
							"internalType": "string",
							"name": "_ISBN",
							"type": "string"
						},
						{
							"internalType": "bool",
							"name": "_isPhysical",
							"type": "bool"
						}
					],
					"name": "addBook",
					"outputs": [],
					"stateMutability": "nonpayable",
					"type": "function"
				},
				{
					"inputs": [
						{
							"internalType": "uint256",
							"name": "",
							"type": "uint256"
						}
					],
					"name": "bookOwners",
					"outputs": [
						{
							"internalType": "address",
							"name": "",
							"type": "address"
						}
					],
					"stateMutability": "view",
					"type": "function"
				},
				{
					"inputs": [
						{
							"internalType": "uint256",
							"name": "",
							"type": "uint256"
						}
					],
					"name": "books",
					"outputs": [
						{
							"internalType": "uint256",
							"name": "id",
							"type": "uint256"
						},
						{
							"internalType": "string",
							"name": "title",
							"type": "string"
						},
						{
							"internalType": "string",
							"name": "author",
							"type": "string"
						},
						{
							"internalType": "string",
							"name": "ISBN",
							"type": "string"
						},
						{
							"internalType": "address",
							"name": "owner",
							"type": "address"
						},
						{
							"internalType": "bool",
							"name": "isPhysical",
							"type": "bool"
						},
						{
							"internalType": "bool",
							"name": "isAvailable",
							"type": "bool"
						}
					],
					"stateMutability": "view",
					"type": "function"
				},
				{
					"inputs": [
						{
							"internalType": "uint256",
							"name": "_bookId",
							"type": "uint256"
						}
					],
					"name": "borrowBook",
					"outputs": [],
					"stateMutability": "nonpayable",
					"type": "function"
				},
				{
					"inputs": [
						{
							"internalType": "uint256",
							"name": "_bookId",
							"type": "uint256"
						}
					],
					"name": "getBookDetails",
					"outputs": [
						{
							"internalType": "string",
							"name": "title",
							"type": "string"
						},
						{
							"internalType": "string",
							"name": "author",
							"type": "string"
						},
						{
							"internalType": "string",
							"name": "ISBN",
							"type": "string"
						},
						{
							"internalType": "address",
							"name": "owner",
							"type": "address"
						},
						{
							"internalType": "bool",
							"name": "isPhysical",
							"type": "bool"
						},
						{
							"internalType": "bool",
							"name": "isAvailable",
							"type": "bool"
						}
					],
					"stateMutability": "view",
					"type": "function"
				},
				{
					"inputs": [],
					"name": "getTotalBooks",
					"outputs": [
						{
							"internalType": "uint256",
							"name": "",
							"type": "uint256"
						}
					],
					"stateMutability": "view",
					"type": "function"
				},
				{
					"inputs": [
						{
							"internalType": "uint256",
							"name": "_bookId",
							"type": "uint256"
						}
					],
					"name": "returnBook",
					"outputs": [],
					"stateMutability": "nonpayable",
					"type": "function"
				}
			],
			"devdoc": {
				"kind": "dev",
				"methods": {},
				"version": 1
			},
			"evm": {
				"assembly": "    /* \"contracts/BookLovers.sol\":60:2718  contract BookLoversDAO {... */\n  mstore(0x40, 0x80)\n  callvalue\n  dup1\n  iszero\n  tag_1\n  jumpi\n  0x00\n  dup1\n  revert\ntag_1:\n  pop\n  dataSize(sub_0)\n  dup1\n  dataOffset(sub_0)\n  0x00\n  codecopy\n  0x00\n  return\nstop\n\nsub_0: assembly {\n        /* \"contracts/BookLovers.sol\":60:2718  contract BookLoversDAO {... */\n      mstore(0x40, 0x80)\n      callvalue\n      dup1\n      iszero\n      tag_1\n      jumpi\n      0x00\n      dup1\n      revert\n    tag_1:\n      pop\n      jumpi(tag_2, lt(calldatasize, 0x04))\n      shr(0xe0, calldataload(0x00))\n      dup1\n      0x7e490a9e\n      gt\n      tag_10\n      jumpi\n      dup1\n      0x7e490a9e\n      eq\n      tag_6\n      jumpi\n      dup1\n      0xbe8fd2ea\n      eq\n      tag_7\n      jumpi\n      dup1\n      0xc0a4465c\n      eq\n      tag_8\n      jumpi\n      dup1\n      0xca5140c9\n      eq\n      tag_9\n      jumpi\n      jump(tag_2)\n    tag_10:\n      dup1\n      0x68744046\n      eq\n      tag_3\n      jumpi\n      dup1\n      0x68931b21\n      eq\n      tag_4\n      jumpi\n      dup1\n      0x74ff4818\n      eq\n      tag_5\n      jumpi\n    tag_2:\n      0x00\n      dup1\n      revert\n        /* \"contracts/BookLovers.sol\":539:558  Book[] public books */\n    tag_3:\n      tag_11\n      0x04\n      dup1\n      calldatasize\n      sub\n      dup2\n      add\n      swap1\n      tag_12\n      swap2\n      swap1\n      tag_13\n      jump\t// in\n    tag_12:\n      tag_14\n      jump\t// in\n    tag_11:\n      mload(0x40)\n      tag_15\n      swap8\n      swap7\n      swap6\n      swap5\n      swap4\n      swap3\n      swap2\n      swap1\n      tag_16\n      jump\t// in\n    tag_15:\n      mload(0x40)\n      dup1\n      swap2\n      sub\n      swap1\n      return\n        /* \"contracts/BookLovers.sol\":2102:2197  function getTotalBooks() external view returns (uint256) {... */\n    tag_4:\n      tag_17\n      tag_18\n      jump\t// in\n    tag_17:\n      mload(0x40)\n      tag_19\n      swap2\n      swap1\n      tag_20\n      jump\t// in\n    tag_19:\n      mload(0x40)\n      dup1\n      swap2\n      sub\n      swap1\n      return\n        /* \"contracts/BookLovers.sol\":2256:2715  function getBookDetails(uint256 _bookId) external view returns (... */\n    tag_5:\n      tag_21\n      0x04\n      dup1\n      calldatasize\n      sub\n      dup2\n      add\n      swap1\n      tag_22\n      swap2\n      swap1\n      tag_13\n      jump\t// in\n    tag_22:\n      tag_23\n      jump\t// in\n    tag_21:\n      mload(0x40)\n      tag_24\n      swap7\n      swap6\n      swap5\n      swap4\n      swap3\n      swap2\n      swap1\n      tag_25\n      jump\t// in\n    tag_24:\n      mload(0x40)\n      dup1\n      swap2\n      sub\n      swap1\n      return\n        /* \"contracts/BookLovers.sol\":1397:1757  function borrowBook(uint256 _bookId) external {... */\n    tag_6:\n      tag_26\n      0x04\n      dup1\n      calldatasize\n      sub\n      dup2\n      add\n      swap1\n      tag_27\n      swap2\n      swap1\n      tag_13\n      jump\t// in\n    tag_27:\n      tag_28\n      jump\t// in\n    tag_26:\n      stop\n        /* \"contracts/BookLovers.sol\":620:665  mapping(uint256 => address) public bookOwners */\n    tag_7:\n      tag_29\n      0x04\n      dup1\n      calldatasize\n      sub\n      dup2\n      add\n      swap1\n      tag_30\n      swap2\n      swap1\n      tag_13\n      jump\t// in\n    tag_30:\n      tag_31\n      jump\t// in\n    tag_29:\n      mload(0x40)\n      tag_32\n      swap2\n      swap1\n      tag_33\n      jump\t// in\n    tag_32:\n      mload(0x40)\n      dup1\n      swap2\n      sub\n      swap1\n      return\n        /* \"contracts/BookLovers.sol\":974:1346  function addBook(string memory _title, string memory _author, string memory _ISBN, bool _isPhysical) external {... */\n    tag_8:\n      tag_34\n      0x04\n      dup1\n      calldatasize\n      sub\n      dup2\n      add\n      swap1\n      tag_35\n      swap2\n      swap1\n      tag_36\n      jump\t// in\n    tag_35:\n      tag_37\n      jump\t// in\n    tag_34:\n      stop\n        /* \"contracts/BookLovers.sol\":1808:2037  function returnBook(uint256 _bookId) external {... */\n    tag_9:\n      tag_38\n      0x04\n      dup1\n      calldatasize\n      sub\n      dup2\n      add\n      swap1\n      tag_39\n      swap2\n      swap1\n      tag_13\n      jump\t// in\n    tag_39:\n      tag_40\n      jump\t// in\n    tag_38:\n      stop\n        /* \"contracts/BookLovers.sol\":539:558  Book[] public books */\n    tag_14:\n      0x00\n      dup2\n      dup2\n      sload\n      dup2\n      lt\n      tag_41\n      jumpi\n      0x00\n      dup1\n      revert\n    tag_41:\n      swap1\n      0x00\n      mstore\n      keccak256(0x00, 0x20)\n      swap1\n      0x05\n      mul\n      add\n      0x00\n      swap2\n      pop\n      swap1\n      pop\n      dup1\n      0x00\n      add\n      sload\n      swap1\n      dup1\n      0x01\n      add\n      dup1\n      sload\n      tag_43\n      swap1\n      tag_44\n      jump\t// in\n    tag_43:\n      dup1\n      0x1f\n      add\n      0x20\n      dup1\n      swap2\n      div\n      mul\n      0x20\n      add\n      mload(0x40)\n      swap1\n      dup2\n      add\n      0x40\n      mstore\n      dup1\n      swap3\n      swap2\n      swap1\n      dup2\n      dup2\n      mstore\n      0x20\n      add\n      dup3\n      dup1\n      sload\n      tag_45\n      swap1\n      tag_44\n      jump\t// in\n    tag_45:\n      dup1\n      iszero\n      tag_46\n      jumpi\n      dup1\n      0x1f\n      lt\n      tag_47\n      jumpi\n      0x0100\n      dup1\n      dup4\n      sload\n      div\n      mul\n      dup4\n      mstore\n      swap2\n      0x20\n      add\n      swap2\n      jump(tag_46)\n    tag_47:\n      dup3\n      add\n      swap2\n      swap1\n      0x00\n      mstore\n      keccak256(0x00, 0x20)\n      swap1\n    tag_48:\n      dup2\n      sload\n      dup2\n      mstore\n      swap1\n      0x01\n      add\n      swap1\n      0x20\n      add\n      dup1\n      dup4\n      gt\n      tag_48\n      jumpi\n      dup3\n      swap1\n      sub\n      0x1f\n      and\n      dup3\n      add\n      swap2\n    tag_46:\n      pop\n      pop\n      pop\n      pop\n      pop\n      swap1\n      dup1\n      0x02\n      add\n      dup1\n      sload\n      tag_49\n      swap1\n      tag_44\n      jump\t// in\n    tag_49:\n      dup1\n      0x1f\n      add\n      0x20\n      dup1\n      swap2\n      div\n      mul\n      0x20\n      add\n      mload(0x40)\n      swap1\n      dup2\n      add\n      0x40\n      mstore\n      dup1\n      swap3\n      swap2\n      swap1\n      dup2\n      dup2\n      mstore\n      0x20\n      add\n      dup3\n      dup1\n      sload\n      tag_50\n      swap1\n      tag_44\n      jump\t// in\n    tag_50:\n      dup1\n      iszero\n      tag_51\n      jumpi\n      dup1\n      0x1f\n      lt\n      tag_52\n      jumpi\n      0x0100\n      dup1\n      dup4\n      sload\n      div\n      mul\n      dup4\n      mstore\n      swap2\n      0x20\n      add\n      swap2\n      jump(tag_51)\n    tag_52:\n      dup3\n      add\n      swap2\n      swap1\n      0x00\n      mstore\n      keccak256(0x00, 0x20)\n      swap1\n    tag_53:\n      dup2\n      sload\n      dup2\n      mstore\n      swap1\n      0x01\n      add\n      swap1\n      0x20\n      add\n      dup1\n      dup4\n      gt\n      tag_53\n      jumpi\n      dup3\n      swap1\n      sub\n      0x1f\n      and\n      dup3\n      add\n      swap2\n    tag_51:\n      pop\n      pop\n      pop\n      pop\n      pop\n      swap1\n      dup1\n      0x03\n      add\n      dup1\n      sload\n      tag_54\n      swap1\n      tag_44\n      jump\t// in\n    tag_54:\n      dup1\n      0x1f\n      add\n      0x20\n      dup1\n      swap2\n      div\n      mul\n      0x20\n      add\n      mload(0x40)\n      swap1\n      dup2\n      add\n      0x40\n      mstore\n      dup1\n      swap3\n      swap2\n      swap1\n      dup2\n      dup2\n      mstore\n      0x20\n      add\n      dup3\n      dup1\n      sload\n      tag_55\n      swap1\n      tag_44\n      jump\t// in\n    tag_55:\n      dup1\n      iszero\n      tag_56\n      jumpi\n      dup1\n      0x1f\n      lt\n      tag_57\n      jumpi\n      0x0100\n      dup1\n      dup4\n      sload\n      div\n      mul\n      dup4\n      mstore\n      swap2\n      0x20\n      add\n      swap2\n      jump(tag_56)\n    tag_57:\n      dup3\n      add\n      swap2\n      swap1\n      0x00\n      mstore\n      keccak256(0x00, 0x20)\n      swap1\n    tag_58:\n      dup2\n      sload\n      dup2\n      mstore\n      swap1\n      0x01\n      add\n      swap1\n      0x20\n      add\n      dup1\n      dup4\n      gt\n      tag_58\n      jumpi\n      dup3\n      swap1\n      sub\n      0x1f\n      and\n      dup3\n      add\n      swap2\n    tag_56:\n      pop\n      pop\n      pop\n      pop\n      pop\n      swap1\n      dup1\n      0x04\n      add\n      0x00\n      swap1\n      sload\n      swap1\n      0x0100\n      exp\n      swap1\n      div\n      0xffffffffffffffffffffffffffffffffffffffff\n      and\n      swap1\n      dup1\n      0x04\n      add\n      0x14\n      swap1\n      sload\n      swap1\n      0x0100\n      exp\n      swap1\n      div\n      0xff\n      and\n      swap1\n      dup1\n      0x04\n      add\n      0x15\n      swap1\n      sload\n      swap1\n      0x0100\n      exp\n      swap1\n      div\n      0xff\n      and\n      swap1\n      pop\n      dup8\n      jump\t// out\n        /* \"contracts/BookLovers.sol\":2102:2197  function getTotalBooks() external view returns (uint256) {... */\n    tag_18:\n        /* \"contracts/BookLovers.sol\":2150:2157  uint256 */\n      0x00\n        /* \"contracts/BookLovers.sol\":2177:2182  books */\n      dup1\n        /* \"contracts/BookLovers.sol\":2177:2189  books.length */\n      dup1\n      sload\n      swap1\n      pop\n        /* \"contracts/BookLovers.sol\":2170:2189  return books.length */\n      swap1\n      pop\n        /* \"contracts/BookLovers.sol\":2102:2197  function getTotalBooks() external view returns (uint256) {... */\n      swap1\n      jump\t// out\n        /* \"contracts/BookLovers.sol\":2256:2715  function getBookDetails(uint256 _bookId) external view returns (... */\n    tag_23:\n        /* \"contracts/BookLovers.sol\":2330:2349  string memory title */\n      0x60\n        /* \"contracts/BookLovers.sol\":2360:2380  string memory author */\n      dup1\n        /* \"contracts/BookLovers.sol\":2391:2409  string memory ISBN */\n      0x60\n        /* \"contracts/BookLovers.sol\":2420:2433  address owner */\n      0x00\n        /* \"contracts/BookLovers.sol\":2444:2459  bool isPhysical */\n      dup1\n        /* \"contracts/BookLovers.sol\":2470:2486  bool isAvailable */\n      0x00\n        /* \"contracts/BookLovers.sol\":2523:2528  books */\n      dup1\n        /* \"contracts/BookLovers.sol\":2523:2535  books.length */\n      dup1\n      sload\n      swap1\n      pop\n        /* \"contracts/BookLovers.sol\":2513:2520  _bookId */\n      dup8\n        /* \"contracts/BookLovers.sol\":2513:2535  _bookId < books.length */\n      lt\n        /* \"contracts/BookLovers.sol\":2505:2562  require(_bookId < books.length, \"Book ID does not exist\") */\n      tag_61\n      jumpi\n      mload(0x40)\n      0x08c379a000000000000000000000000000000000000000000000000000000000\n      dup2\n      mstore\n      0x04\n      add\n      tag_62\n      swap1\n      tag_63\n      jump\t// in\n    tag_62:\n      mload(0x40)\n      dup1\n      swap2\n      sub\n      swap1\n      revert\n    tag_61:\n        /* \"contracts/BookLovers.sol\":2573:2589  Book memory book */\n      0x00\n        /* \"contracts/BookLovers.sol\":2592:2597  books */\n      dup1\n        /* \"contracts/BookLovers.sol\":2598:2605  _bookId */\n      dup9\n        /* \"contracts/BookLovers.sol\":2592:2606  books[_bookId] */\n      dup2\n      sload\n      dup2\n      lt\n      tag_64\n      jumpi\n      tag_65\n      tag_66\n      jump\t// in\n    tag_65:\n    tag_64:\n      swap1\n      0x00\n      mstore\n      keccak256(0x00, 0x20)\n      swap1\n      0x05\n      mul\n      add\n        /* \"contracts/BookLovers.sol\":2573:2606  Book memory book = books[_bookId] */\n      mload(0x40)\n      dup1\n      0xe0\n      add\n      0x40\n      mstore\n      swap1\n      dup2\n      0x00\n      dup3\n      add\n      sload\n      dup2\n      mstore\n      0x20\n      add\n      0x01\n      dup3\n      add\n      dup1\n      sload\n      tag_68\n      swap1\n      tag_44\n      jump\t// in\n    tag_68:\n      dup1\n      0x1f\n      add\n      0x20\n      dup1\n      swap2\n      div\n      mul\n      0x20\n      add\n      mload(0x40)\n      swap1\n      dup2\n      add\n      0x40\n      mstore\n      dup1\n      swap3\n      swap2\n      swap1\n      dup2\n      dup2\n      mstore\n      0x20\n      add\n      dup3\n      dup1\n      sload\n      tag_69\n      swap1\n      tag_44\n      jump\t// in\n    tag_69:\n      dup1\n      iszero\n      tag_70\n      jumpi\n      dup1\n      0x1f\n      lt\n      tag_71\n      jumpi\n      0x0100\n      dup1\n      dup4\n      sload\n      div\n      mul\n      dup4\n      mstore\n      swap2\n      0x20\n      add\n      swap2\n      jump(tag_70)\n    tag_71:\n      dup3\n      add\n      swap2\n      swap1\n      0x00\n      mstore\n      keccak256(0x00, 0x20)\n      swap1\n    tag_72:\n      dup2\n      sload\n      dup2\n      mstore\n      swap1\n      0x01\n      add\n      swap1\n      0x20\n      add\n      dup1\n      dup4\n      gt\n      tag_72\n      jumpi\n      dup3\n      swap1\n      sub\n      0x1f\n      and\n      dup3\n      add\n      swap2\n    tag_70:\n      pop\n      pop\n      pop\n      pop\n      pop\n      dup2\n      mstore\n      0x20\n      add\n      0x02\n      dup3\n      add\n      dup1\n      sload\n      tag_73\n      swap1\n      tag_44\n      jump\t// in\n    tag_73:\n      dup1\n      0x1f\n      add\n      0x20\n      dup1\n      swap2\n      div\n      mul\n      0x20\n      add\n      mload(0x40)\n      swap1\n      dup2\n      add\n      0x40\n      mstore\n      dup1\n      swap3\n      swap2\n      swap1\n      dup2\n      dup2\n      mstore\n      0x20\n      add\n      dup3\n      dup1\n      sload\n      tag_74\n      swap1\n      tag_44\n      jump\t// in\n    tag_74:\n      dup1\n      iszero\n      tag_75\n      jumpi\n      dup1\n      0x1f\n      lt\n      tag_76\n      jumpi\n      0x0100\n      dup1\n      dup4\n      sload\n      div\n      mul\n      dup4\n      mstore\n      swap2\n      0x20\n      add\n      swap2\n      jump(tag_75)\n    tag_76:\n      dup3\n      add\n      swap2\n      swap1\n      0x00\n      mstore\n      keccak256(0x00, 0x20)\n      swap1\n    tag_77:\n      dup2\n      sload\n      dup2\n      mstore\n      swap1\n      0x01\n      add\n      swap1\n      0x20\n      add\n      dup1\n      dup4\n      gt\n      tag_77\n      jumpi\n      dup3\n      swap1\n      sub\n      0x1f\n      and\n      dup3\n      add\n      swap2\n    tag_75:\n      pop\n      pop\n      pop\n      pop\n      pop\n      dup2\n      mstore\n      0x20\n      add\n      0x03\n      dup3\n      add\n      dup1\n      sload\n      tag_78\n      swap1\n      tag_44\n      jump\t// in\n    tag_78:\n      dup1\n      0x1f\n      add\n      0x20\n      dup1\n      swap2\n      div\n      mul\n      0x20\n      add\n      mload(0x40)\n      swap1\n      dup2\n      add\n      0x40\n      mstore\n      dup1\n      swap3\n      swap2\n      swap1\n      dup2\n      dup2\n      mstore\n      0x20\n      add\n      dup3\n      dup1\n      sload\n      tag_79\n      swap1\n      tag_44\n      jump\t// in\n    tag_79:\n      dup1\n      iszero\n      tag_80\n      jumpi\n      dup1\n      0x1f\n      lt\n      tag_81\n      jumpi\n      0x0100\n      dup1\n      dup4\n      sload\n      div\n      mul\n      dup4\n      mstore\n      swap2\n      0x20\n      add\n      swap2\n      jump(tag_80)\n    tag_81:\n      dup3\n      add\n      swap2\n      swap1\n      0x00\n      mstore\n      keccak256(0x00, 0x20)\n      swap1\n    tag_82:\n      dup2\n      sload\n      dup2\n      mstore\n      swap1\n      0x01\n      add\n      swap1\n      0x20\n      add\n      dup1\n      dup4\n      gt\n      tag_82\n      jumpi\n      dup3\n      swap1\n      sub\n      0x1f\n      and\n      dup3\n      add\n      swap2\n    tag_80:\n      pop\n      pop\n      pop\n      pop\n      pop\n      dup2\n      mstore\n      0x20\n      add\n      0x04\n      dup3\n      add\n      0x00\n      swap1\n      sload\n      swap1\n      0x0100\n      exp\n      swap1\n      div\n      0xffffffffffffffffffffffffffffffffffffffff\n      and\n      0xffffffffffffffffffffffffffffffffffffffff\n      and\n      0xffffffffffffffffffffffffffffffffffffffff\n      and\n      dup2\n      mstore\n      0x20\n      add\n      0x04\n      dup3\n      add\n      0x14\n      swap1\n      sload\n      swap1\n      0x0100\n      exp\n      swap1\n      div\n      0xff\n      and\n      iszero\n      iszero\n      iszero\n      iszero\n      dup2\n      mstore\n      0x20\n      add\n      0x04\n      dup3\n      add\n      0x15\n      swap1\n      sload\n      swap1\n      0x0100\n      exp\n      swap1\n      div\n      0xff\n      and\n      iszero\n      iszero\n      iszero\n      iszero\n      dup2\n      mstore\n      pop\n      pop\n      swap1\n      pop\n        /* \"contracts/BookLovers.sol\":2625:2629  book */\n      dup1\n        /* \"contracts/BookLovers.sol\":2625:2635  book.title */\n      0x20\n      add\n      mload\n        /* \"contracts/BookLovers.sol\":2637:2641  book */\n      dup2\n        /* \"contracts/BookLovers.sol\":2637:2648  book.author */\n      0x40\n      add\n      mload\n        /* \"contracts/BookLovers.sol\":2650:2654  book */\n      dup3\n        /* \"contracts/BookLovers.sol\":2650:2659  book.ISBN */\n      0x60\n      add\n      mload\n        /* \"contracts/BookLovers.sol\":2661:2665  book */\n      dup4\n        /* \"contracts/BookLovers.sol\":2661:2671  book.owner */\n      0x80\n      add\n      mload\n        /* \"contracts/BookLovers.sol\":2673:2677  book */\n      dup5\n        /* \"contracts/BookLovers.sol\":2673:2688  book.isPhysical */\n      0xa0\n      add\n      mload\n        /* \"contracts/BookLovers.sol\":2690:2694  book */\n      dup6\n        /* \"contracts/BookLovers.sol\":2690:2706  book.isAvailable */\n      0xc0\n      add\n      mload\n        /* \"contracts/BookLovers.sol\":2617:2707  return (book.title, book.author, book.ISBN, book.owner, book.isPhysical, book.isAvailable) */\n      swap7\n      pop\n      swap7\n      pop\n      swap7\n      pop\n      swap7\n      pop\n      swap7\n      pop\n      swap7\n      pop\n      pop\n        /* \"contracts/BookLovers.sol\":2256:2715  function getBookDetails(uint256 _bookId) external view returns (... */\n      swap2\n      swap4\n      swap6\n      pop\n      swap2\n      swap4\n      swap6\n      jump\t// out\n        /* \"contracts/BookLovers.sol\":1397:1757  function borrowBook(uint256 _bookId) external {... */\n    tag_28:\n        /* \"contracts/BookLovers.sol\":1462:1467  books */\n      0x00\n        /* \"contracts/BookLovers.sol\":1468:1475  _bookId */\n      dup2\n        /* \"contracts/BookLovers.sol\":1462:1476  books[_bookId] */\n      dup2\n      sload\n      dup2\n      lt\n      tag_84\n      jumpi\n      tag_85\n      tag_66\n      jump\t// in\n    tag_85:\n    tag_84:\n      swap1\n      0x00\n      mstore\n      keccak256(0x00, 0x20)\n      swap1\n      0x05\n      mul\n      add\n        /* \"contracts/BookLovers.sol\":1462:1487  books[_bookId].isPhysical */\n      0x04\n      add\n      0x14\n      swap1\n      sload\n      swap1\n      0x0100\n      exp\n      swap1\n      div\n      0xff\n      and\n        /* \"contracts/BookLovers.sol\":1454:1527  require(books[_bookId].isPhysical, \"Only physical books can be borrowed\") */\n      tag_87\n      jumpi\n      mload(0x40)\n      0x08c379a000000000000000000000000000000000000000000000000000000000\n      dup2\n      mstore\n      0x04\n      add\n      tag_88\n      swap1\n      tag_89\n      jump\t// in\n    tag_88:\n      mload(0x40)\n      dup1\n      swap2\n      sub\n      swap1\n      revert\n    tag_87:\n        /* \"contracts/BookLovers.sol\":1546:1551  books */\n      0x00\n        /* \"contracts/BookLovers.sol\":1552:1559  _bookId */\n      dup2\n        /* \"contracts/BookLovers.sol\":1546:1560  books[_bookId] */\n      dup2\n      sload\n      dup2\n      lt\n      tag_90\n      jumpi\n      tag_91\n      tag_66\n      jump\t// in\n    tag_91:\n    tag_90:\n      swap1\n      0x00\n      mstore\n      keccak256(0x00, 0x20)\n      swap1\n      0x05\n      mul\n      add\n        /* \"contracts/BookLovers.sol\":1546:1572  books[_bookId].isAvailable */\n      0x04\n      add\n      0x15\n      swap1\n      sload\n      swap1\n      0x0100\n      exp\n      swap1\n      div\n      0xff\n      and\n        /* \"contracts/BookLovers.sol\":1538:1612  require(books[_bookId].isAvailable, \"Book is not available for borrowing\") */\n      tag_93\n      jumpi\n      mload(0x40)\n      0x08c379a000000000000000000000000000000000000000000000000000000000\n      dup2\n      mstore\n      0x04\n      add\n      tag_94\n      swap1\n      tag_95\n      jump\t// in\n    tag_94:\n      mload(0x40)\n      dup1\n      swap2\n      sub\n      swap1\n      revert\n    tag_93:\n        /* \"contracts/BookLovers.sol\":1652:1657  false */\n      0x00\n        /* \"contracts/BookLovers.sol\":1623:1628  books */\n      dup1\n        /* \"contracts/BookLovers.sol\":1629:1636  _bookId */\n      dup3\n        /* \"contracts/BookLovers.sol\":1623:1637  books[_bookId] */\n      dup2\n      sload\n      dup2\n      lt\n      tag_96\n      jumpi\n      tag_97\n      tag_66\n      jump\t// in\n    tag_97:\n    tag_96:\n      swap1\n      0x00\n      mstore\n      keccak256(0x00, 0x20)\n      swap1\n      0x05\n      mul\n      add\n        /* \"contracts/BookLovers.sol\":1623:1649  books[_bookId].isAvailable */\n      0x04\n      add\n      0x15\n        /* \"contracts/BookLovers.sol\":1623:1657  books[_bookId].isAvailable = false */\n      0x0100\n      exp\n      dup2\n      sload\n      dup2\n      0xff\n      mul\n      not\n      and\n      swap1\n      dup4\n      iszero\n      iszero\n      mul\n      or\n      swap1\n      sstore\n      pop\n        /* \"contracts/BookLovers.sol\":1690:1700  msg.sender */\n      caller\n        /* \"contracts/BookLovers.sol\":1668:1678  bookOwners */\n      0x01\n        /* \"contracts/BookLovers.sol\":1668:1687  bookOwners[_bookId] */\n      0x00\n        /* \"contracts/BookLovers.sol\":1679:1686  _bookId */\n      dup4\n        /* \"contracts/BookLovers.sol\":1668:1687  bookOwners[_bookId] */\n      dup2\n      mstore\n      0x20\n      add\n      swap1\n      dup2\n      mstore\n      0x20\n      add\n      0x00\n      keccak256\n      0x00\n        /* \"contracts/BookLovers.sol\":1668:1700  bookOwners[_bookId] = msg.sender */\n      0x0100\n      exp\n      dup2\n      sload\n      dup2\n      0xffffffffffffffffffffffffffffffffffffffff\n      mul\n      not\n      and\n      swap1\n      dup4\n      0xffffffffffffffffffffffffffffffffffffffff\n      and\n      mul\n      or\n      swap1\n      sstore\n      pop\n        /* \"contracts/BookLovers.sol\":1738:1748  msg.sender */\n      caller\n        /* \"contracts/BookLovers.sol\":1716:1749  BookBorrowed(_bookId, msg.sender) */\n      0xffffffffffffffffffffffffffffffffffffffff\n      and\n        /* \"contracts/BookLovers.sol\":1729:1736  _bookId */\n      dup2\n        /* \"contracts/BookLovers.sol\":1716:1749  BookBorrowed(_bookId, msg.sender) */\n      0x7534124779d4d1eaf9cabba5f94b2b281856aba81c295cde4c9e69483b04b8cc\n      mload(0x40)\n      mload(0x40)\n      dup1\n      swap2\n      sub\n      swap1\n      log3\n        /* \"contracts/BookLovers.sol\":1397:1757  function borrowBook(uint256 _bookId) external {... */\n      pop\n      jump\t// out\n        /* \"contracts/BookLovers.sol\":620:665  mapping(uint256 => address) public bookOwners */\n    tag_31:\n      mstore(0x20, 0x01)\n      dup1\n      0x00\n      mstore\n      keccak256(0x00, 0x40)\n      0x00\n      swap2\n      pop\n      sload\n      swap1\n      0x0100\n      exp\n      swap1\n      div\n      0xffffffffffffffffffffffffffffffffffffffff\n      and\n      dup2\n      jump\t// out\n        /* \"contracts/BookLovers.sol\":974:1346  function addBook(string memory _title, string memory _author, string memory _ISBN, bool _isPhysical) external {... */\n    tag_37:\n        /* \"contracts/BookLovers.sol\":1095:1112  uint256 newBookId */\n      0x00\n        /* \"contracts/BookLovers.sol\":1115:1120  books */\n      dup1\n        /* \"contracts/BookLovers.sol\":1115:1127  books.length */\n      dup1\n      sload\n      swap1\n      pop\n        /* \"contracts/BookLovers.sol\":1095:1127  uint256 newBookId = books.length */\n      swap1\n      pop\n        /* \"contracts/BookLovers.sol\":1138:1143  books */\n      0x00\n        /* \"contracts/BookLovers.sol\":1149:1219  Book(newBookId, _title, _author, _ISBN, msg.sender, _isPhysical, true) */\n      mload(0x40)\n      dup1\n      0xe0\n      add\n      0x40\n      mstore\n      dup1\n        /* \"contracts/BookLovers.sol\":1154:1163  newBookId */\n      dup4\n        /* \"contracts/BookLovers.sol\":1149:1219  Book(newBookId, _title, _author, _ISBN, msg.sender, _isPhysical, true) */\n      dup2\n      mstore\n      0x20\n      add\n        /* \"contracts/BookLovers.sol\":1165:1171  _title */\n      dup8\n        /* \"contracts/BookLovers.sol\":1149:1219  Book(newBookId, _title, _author, _ISBN, msg.sender, _isPhysical, true) */\n      dup2\n      mstore\n      0x20\n      add\n        /* \"contracts/BookLovers.sol\":1173:1180  _author */\n      dup7\n        /* \"contracts/BookLovers.sol\":1149:1219  Book(newBookId, _title, _author, _ISBN, msg.sender, _isPhysical, true) */\n      dup2\n      mstore\n      0x20\n      add\n        /* \"contracts/BookLovers.sol\":1182:1187  _ISBN */\n      dup6\n        /* \"contracts/BookLovers.sol\":1149:1219  Book(newBookId, _title, _author, _ISBN, msg.sender, _isPhysical, true) */\n      dup2\n      mstore\n      0x20\n      add\n        /* \"contracts/BookLovers.sol\":1189:1199  msg.sender */\n      caller\n        /* \"contracts/BookLovers.sol\":1149:1219  Book(newBookId, _title, _author, _ISBN, msg.sender, _isPhysical, true) */\n      0xffffffffffffffffffffffffffffffffffffffff\n      and\n      dup2\n      mstore\n      0x20\n      add\n        /* \"contracts/BookLovers.sol\":1201:1212  _isPhysical */\n      dup5\n        /* \"contracts/BookLovers.sol\":1149:1219  Book(newBookId, _title, _author, _ISBN, msg.sender, _isPhysical, true) */\n      iszero\n      iszero\n      dup2\n      mstore\n      0x20\n      add\n        /* \"contracts/BookLovers.sol\":1214:1218  true */\n      0x01\n        /* \"contracts/BookLovers.sol\":1149:1219  Book(newBookId, _title, _author, _ISBN, msg.sender, _isPhysical, true) */\n      iszero\n      iszero\n      dup2\n      mstore\n      pop\n        /* \"contracts/BookLovers.sol\":1138:1220  books.push(Book(newBookId, _title, _author, _ISBN, msg.sender, _isPhysical, true)) */\n      swap1\n      dup1\n      0x01\n      dup2\n      sload\n      add\n      dup1\n      dup3\n      sstore\n      dup1\n      swap2\n      pop\n      pop\n      0x01\n      swap1\n      sub\n      swap1\n      0x00\n      mstore\n      keccak256(0x00, 0x20)\n      swap1\n      0x05\n      mul\n      add\n      0x00\n      swap1\n      swap2\n      swap1\n      swap2\n      swap1\n      swap2\n      pop\n      0x00\n      dup3\n      add\n      mload\n      dup2\n      0x00\n      add\n      sstore\n      0x20\n      dup3\n      add\n      mload\n      dup2\n      0x01\n      add\n      swap1\n      dup2\n      tag_101\n      swap2\n      swap1\n      tag_102\n      jump\t// in\n    tag_101:\n      pop\n      0x40\n      dup3\n      add\n      mload\n      dup2\n      0x02\n      add\n      swap1\n      dup2\n      tag_103\n      swap2\n      swap1\n      tag_102\n      jump\t// in\n    tag_103:\n      pop\n      0x60\n      dup3\n      add\n      mload\n      dup2\n      0x03\n      add\n      swap1\n      dup2\n      tag_104\n      swap2\n      swap1\n      tag_102\n      jump\t// in\n    tag_104:\n      pop\n      0x80\n      dup3\n      add\n      mload\n      dup2\n      0x04\n      add\n      exp(0x0100, 0x00)\n      dup2\n      sload\n      dup2\n      0xffffffffffffffffffffffffffffffffffffffff\n      mul\n      not\n      and\n      swap1\n      dup4\n      0xffffffffffffffffffffffffffffffffffffffff\n      and\n      mul\n      or\n      swap1\n      sstore\n      pop\n      0xa0\n      dup3\n      add\n      mload\n      dup2\n      0x04\n      add\n      exp(0x0100, 0x14)\n      dup2\n      sload\n      dup2\n      0xff\n      mul\n      not\n      and\n      swap1\n      dup4\n      iszero\n      iszero\n      mul\n      or\n      swap1\n      sstore\n      pop\n      0xc0\n      dup3\n      add\n      mload\n      dup2\n      0x04\n      add\n      exp(0x0100, 0x15)\n      dup2\n      sload\n      dup2\n      0xff\n      mul\n      not\n      and\n      swap1\n      dup4\n      iszero\n      iszero\n      mul\n      or\n      swap1\n      sstore\n      pop\n      pop\n      pop\n        /* \"contracts/BookLovers.sol\":1255:1265  msg.sender */\n      caller\n        /* \"contracts/BookLovers.sol\":1231:1241  bookOwners */\n      0x01\n        /* \"contracts/BookLovers.sol\":1231:1252  bookOwners[newBookId] */\n      0x00\n        /* \"contracts/BookLovers.sol\":1242:1251  newBookId */\n      dup4\n        /* \"contracts/BookLovers.sol\":1231:1252  bookOwners[newBookId] */\n      dup2\n      mstore\n      0x20\n      add\n      swap1\n      dup2\n      mstore\n      0x20\n      add\n      0x00\n      keccak256\n      0x00\n        /* \"contracts/BookLovers.sol\":1231:1265  bookOwners[newBookId] = msg.sender */\n      0x0100\n      exp\n      dup2\n      sload\n      dup2\n      0xffffffffffffffffffffffffffffffffffffffff\n      mul\n      not\n      and\n      swap1\n      dup4\n      0xffffffffffffffffffffffffffffffffffffffff\n      and\n      mul\n      or\n      swap1\n      sstore\n      pop\n        /* \"contracts/BookLovers.sol\":1291:1300  newBookId */\n      dup1\n        /* \"contracts/BookLovers.sol\":1281:1338  BookAdded(newBookId, _title, _author, _ISBN, _isPhysical) */\n      0xaed083692aa149896a51fcfc0f1f25c2a2d87c0b2df6bdedba189837fab1c165\n        /* \"contracts/BookLovers.sol\":1302:1308  _title */\n      dup7\n        /* \"contracts/BookLovers.sol\":1310:1317  _author */\n      dup7\n        /* \"contracts/BookLovers.sol\":1319:1324  _ISBN */\n      dup7\n        /* \"contracts/BookLovers.sol\":1326:1337  _isPhysical */\n      dup7\n        /* \"contracts/BookLovers.sol\":1281:1338  BookAdded(newBookId, _title, _author, _ISBN, _isPhysical) */\n      mload(0x40)\n      tag_105\n      swap5\n      swap4\n      swap3\n      swap2\n      swap1\n      tag_106\n      jump\t// in\n    tag_105:\n      mload(0x40)\n      dup1\n      swap2\n      sub\n      swap1\n      log2\n        /* \"contracts/BookLovers.sol\":1084:1346  {... */\n      pop\n        /* \"contracts/BookLovers.sol\":974:1346  function addBook(string memory _title, string memory _author, string memory _ISBN, bool _isPhysical) external {... */\n      pop\n      pop\n      pop\n      pop\n      jump\t// out\n        /* \"contracts/BookLovers.sol\":1808:2037  function returnBook(uint256 _bookId) external {... */\n    tag_40:\n        /* \"contracts/BookLovers.sol\":1896:1906  msg.sender */\n      caller\n        /* \"contracts/BookLovers.sol\":1873:1906  bookOwners[_bookId] == msg.sender */\n      0xffffffffffffffffffffffffffffffffffffffff\n      and\n        /* \"contracts/BookLovers.sol\":1873:1883  bookOwners */\n      0x01\n        /* \"contracts/BookLovers.sol\":1873:1892  bookOwners[_bookId] */\n      0x00\n        /* \"contracts/BookLovers.sol\":1884:1891  _bookId */\n      dup4\n        /* \"contracts/BookLovers.sol\":1873:1892  bookOwners[_bookId] */\n      dup2\n      mstore\n      0x20\n      add\n      swap1\n      dup2\n      mstore\n      0x20\n      add\n      0x00\n      keccak256\n      0x00\n      swap1\n      sload\n      swap1\n      0x0100\n      exp\n      swap1\n      div\n      0xffffffffffffffffffffffffffffffffffffffff\n      and\n        /* \"contracts/BookLovers.sol\":1873:1906  bookOwners[_bookId] == msg.sender */\n      0xffffffffffffffffffffffffffffffffffffffff\n      and\n      eq\n        /* \"contracts/BookLovers.sol\":1865:1948  require(bookOwners[_bookId] == msg.sender, \"You are not the borrower of this book\") */\n      tag_108\n      jumpi\n      mload(0x40)\n      0x08c379a000000000000000000000000000000000000000000000000000000000\n      dup2\n      mstore\n      0x04\n      add\n      tag_109\n      swap1\n      tag_110\n      jump\t// in\n    tag_109:\n      mload(0x40)\n      dup1\n      swap2\n      sub\n      swap1\n      revert\n    tag_108:\n        /* \"contracts/BookLovers.sol\":1988:1992  true */\n      0x01\n        /* \"contracts/BookLovers.sol\":1959:1964  books */\n      0x00\n        /* \"contracts/BookLovers.sol\":1965:1972  _bookId */\n      dup3\n        /* \"contracts/BookLovers.sol\":1959:1973  books[_bookId] */\n      dup2\n      sload\n      dup2\n      lt\n      tag_111\n      jumpi\n      tag_112\n      tag_66\n      jump\t// in\n    tag_112:\n    tag_111:\n      swap1\n      0x00\n      mstore\n      keccak256(0x00, 0x20)\n      swap1\n      0x05\n      mul\n      add\n        /* \"contracts/BookLovers.sol\":1959:1985  books[_bookId].isAvailable */\n      0x04\n      add\n      0x15\n        /* \"contracts/BookLovers.sol\":1959:1992  books[_bookId].isAvailable = true */\n      0x0100\n      exp\n      dup2\n      sload\n      dup2\n      0xff\n      mul\n      not\n      and\n      swap1\n      dup4\n      iszero\n      iszero\n      mul\n      or\n      swap1\n      sstore\n      pop\n        /* \"contracts/BookLovers.sol\":2021:2028  _bookId */\n      dup1\n        /* \"contracts/BookLovers.sol\":2008:2029  BookReturned(_bookId) */\n      0x70495d83ba5ba5c54086a9955a8c68fa91f4439242054fbe5a64b3d553006917\n      mload(0x40)\n      mload(0x40)\n      dup1\n      swap2\n      sub\n      swap1\n      log2\n        /* \"contracts/BookLovers.sol\":1808:2037  function returnBook(uint256 _bookId) external {... */\n      pop\n      jump\t// out\n        /* \"#utility.yul\":7:82   */\n    tag_114:\n        /* \"#utility.yul\":40:46   */\n      0x00\n        /* \"#utility.yul\":73:75   */\n      0x40\n        /* \"#utility.yul\":67:76   */\n      mload\n        /* \"#utility.yul\":57:76   */\n      swap1\n      pop\n        /* \"#utility.yul\":7:82   */\n      swap1\n      jump\t// out\n        /* \"#utility.yul\":88:205   */\n    tag_115:\n        /* \"#utility.yul\":197:198   */\n      0x00\n        /* \"#utility.yul\":194:195   */\n      dup1\n        /* \"#utility.yul\":187:199   */\n      revert\n        /* \"#utility.yul\":211:328   */\n    tag_116:\n        /* \"#utility.yul\":320:321   */\n      0x00\n        /* \"#utility.yul\":317:318   */\n      dup1\n        /* \"#utility.yul\":310:322   */\n      revert\n        /* \"#utility.yul\":334:411   */\n    tag_117:\n        /* \"#utility.yul\":371:378   */\n      0x00\n        /* \"#utility.yul\":400:405   */\n      dup2\n        /* \"#utility.yul\":389:405   */\n      swap1\n      pop\n        /* \"#utility.yul\":334:411   */\n      swap2\n      swap1\n      pop\n      jump\t// out\n        /* \"#utility.yul\":417:539   */\n    tag_118:\n        /* \"#utility.yul\":490:514   */\n      tag_172\n        /* \"#utility.yul\":508:513   */\n      dup2\n        /* \"#utility.yul\":490:514   */\n      tag_117\n      jump\t// in\n    tag_172:\n        /* \"#utility.yul\":483:488   */\n      dup2\n        /* \"#utility.yul\":480:515   */\n      eq\n        /* \"#utility.yul\":470:533   */\n      tag_173\n      jumpi\n        /* \"#utility.yul\":529:530   */\n      0x00\n        /* \"#utility.yul\":526:527   */\n      dup1\n        /* \"#utility.yul\":519:531   */\n      revert\n        /* \"#utility.yul\":470:533   */\n    tag_173:\n        /* \"#utility.yul\":417:539   */\n      pop\n      jump\t// out\n        /* \"#utility.yul\":545:684   */\n    tag_119:\n        /* \"#utility.yul\":591:596   */\n      0x00\n        /* \"#utility.yul\":629:635   */\n      dup2\n        /* \"#utility.yul\":616:636   */\n      calldataload\n        /* \"#utility.yul\":607:636   */\n      swap1\n      pop\n        /* \"#utility.yul\":645:678   */\n      tag_175\n        /* \"#utility.yul\":672:677   */\n      dup2\n        /* \"#utility.yul\":645:678   */\n      tag_118\n      jump\t// in\n    tag_175:\n        /* \"#utility.yul\":545:684   */\n      swap3\n      swap2\n      pop\n      pop\n      jump\t// out\n        /* \"#utility.yul\":690:1019   */\n    tag_13:\n        /* \"#utility.yul\":749:755   */\n      0x00\n        /* \"#utility.yul\":798:800   */\n      0x20\n        /* \"#utility.yul\":786:795   */\n      dup3\n        /* \"#utility.yul\":777:784   */\n      dup5\n        /* \"#utility.yul\":773:796   */\n      sub\n        /* \"#utility.yul\":769:801   */\n      slt\n        /* \"#utility.yul\":766:885   */\n      iszero\n      tag_177\n      jumpi\n        /* \"#utility.yul\":804:883   */\n      tag_178\n      tag_115\n      jump\t// in\n    tag_178:\n        /* \"#utility.yul\":766:885   */\n    tag_177:\n        /* \"#utility.yul\":924:925   */\n      0x00\n        /* \"#utility.yul\":949:1002   */\n      tag_179\n        /* \"#utility.yul\":994:1001   */\n      dup5\n        /* \"#utility.yul\":985:991   */\n      dup3\n        /* \"#utility.yul\":974:983   */\n      dup6\n        /* \"#utility.yul\":970:992   */\n      add\n        /* \"#utility.yul\":949:1002   */\n      tag_119\n      jump\t// in\n    tag_179:\n        /* \"#utility.yul\":939:1002   */\n      swap2\n      pop\n        /* \"#utility.yul\":895:1012   */\n      pop\n        /* \"#utility.yul\":690:1019   */\n      swap3\n      swap2\n      pop\n      pop\n      jump\t// out\n        /* \"#utility.yul\":1025:1143   */\n    tag_120:\n        /* \"#utility.yul\":1112:1136   */\n      tag_181\n        /* \"#utility.yul\":1130:1135   */\n      dup2\n        /* \"#utility.yul\":1112:1136   */\n      tag_117\n      jump\t// in\n    tag_181:\n        /* \"#utility.yul\":1107:1110   */\n      dup3\n        /* \"#utility.yul\":1100:1137   */\n      mstore\n        /* \"#utility.yul\":1025:1143   */\n      pop\n      pop\n      jump\t// out\n        /* \"#utility.yul\":1149:1248   */\n    tag_121:\n        /* \"#utility.yul\":1201:1207   */\n      0x00\n        /* \"#utility.yul\":1235:1240   */\n      dup2\n        /* \"#utility.yul\":1229:1241   */\n      mload\n        /* \"#utility.yul\":1219:1241   */\n      swap1\n      pop\n        /* \"#utility.yul\":1149:1248   */\n      swap2\n      swap1\n      pop\n      jump\t// out\n        /* \"#utility.yul\":1254:1423   */\n    tag_122:\n        /* \"#utility.yul\":1338:1349   */\n      0x00\n        /* \"#utility.yul\":1372:1378   */\n      dup3\n        /* \"#utility.yul\":1367:1370   */\n      dup3\n        /* \"#utility.yul\":1360:1379   */\n      mstore\n        /* \"#utility.yul\":1412:1416   */\n      0x20\n        /* \"#utility.yul\":1407:1410   */\n      dup3\n        /* \"#utility.yul\":1403:1417   */\n      add\n        /* \"#utility.yul\":1388:1417   */\n      swap1\n      pop\n        /* \"#utility.yul\":1254:1423   */\n      swap3\n      swap2\n      pop\n      pop\n      jump\t// out\n        /* \"#utility.yul\":1429:1568   */\n    tag_123:\n        /* \"#utility.yul\":1518:1524   */\n      dup3\n        /* \"#utility.yul\":1513:1516   */\n      dup2\n        /* \"#utility.yul\":1508:1511   */\n      dup4\n        /* \"#utility.yul\":1502:1525   */\n      mcopy\n        /* \"#utility.yul\":1559:1560   */\n      0x00\n        /* \"#utility.yul\":1550:1556   */\n      dup4\n        /* \"#utility.yul\":1545:1548   */\n      dup4\n        /* \"#utility.yul\":1541:1557   */\n      add\n        /* \"#utility.yul\":1534:1561   */\n      mstore\n        /* \"#utility.yul\":1429:1568   */\n      pop\n      pop\n      pop\n      jump\t// out\n        /* \"#utility.yul\":1574:1676   */\n    tag_124:\n        /* \"#utility.yul\":1615:1621   */\n      0x00\n        /* \"#utility.yul\":1666:1668   */\n      0x1f\n        /* \"#utility.yul\":1662:1669   */\n      not\n        /* \"#utility.yul\":1657:1659   */\n      0x1f\n        /* \"#utility.yul\":1650:1655   */\n      dup4\n        /* \"#utility.yul\":1646:1660   */\n      add\n        /* \"#utility.yul\":1642:1670   */\n      and\n        /* \"#utility.yul\":1632:1670   */\n      swap1\n      pop\n        /* \"#utility.yul\":1574:1676   */\n      swap2\n      swap1\n      pop\n      jump\t// out\n        /* \"#utility.yul\":1682:2059   */\n    tag_125:\n        /* \"#utility.yul\":1770:1773   */\n      0x00\n        /* \"#utility.yul\":1798:1837   */\n      tag_187\n        /* \"#utility.yul\":1831:1836   */\n      dup3\n        /* \"#utility.yul\":1798:1837   */\n      tag_121\n      jump\t// in\n    tag_187:\n        /* \"#utility.yul\":1853:1924   */\n      tag_188\n        /* \"#utility.yul\":1917:1923   */\n      dup2\n        /* \"#utility.yul\":1912:1915   */\n      dup6\n        /* \"#utility.yul\":1853:1924   */\n      tag_122\n      jump\t// in\n    tag_188:\n        /* \"#utility.yul\":1846:1924   */\n      swap4\n      pop\n        /* \"#utility.yul\":1933:1998   */\n      tag_189\n        /* \"#utility.yul\":1991:1997   */\n      dup2\n        /* \"#utility.yul\":1986:1989   */\n      dup6\n        /* \"#utility.yul\":1979:1983   */\n      0x20\n        /* \"#utility.yul\":1972:1977   */\n      dup7\n        /* \"#utility.yul\":1968:1984   */\n      add\n        /* \"#utility.yul\":1933:1998   */\n      tag_123\n      jump\t// in\n    tag_189:\n        /* \"#utility.yul\":2023:2052   */\n      tag_190\n        /* \"#utility.yul\":2045:2051   */\n      dup2\n        /* \"#utility.yul\":2023:2052   */\n      tag_124\n      jump\t// in\n    tag_190:\n        /* \"#utility.yul\":2018:2021   */\n      dup5\n        /* \"#utility.yul\":2014:2053   */\n      add\n        /* \"#utility.yul\":2007:2053   */\n      swap2\n      pop\n        /* \"#utility.yul\":1774:2059   */\n      pop\n        /* \"#utility.yul\":1682:2059   */\n      swap3\n      swap2\n      pop\n      pop\n      jump\t// out\n        /* \"#utility.yul\":2065:2191   */\n    tag_126:\n        /* \"#utility.yul\":2102:2109   */\n      0x00\n        /* \"#utility.yul\":2142:2184   */\n      0xffffffffffffffffffffffffffffffffffffffff\n        /* \"#utility.yul\":2135:2140   */\n      dup3\n        /* \"#utility.yul\":2131:2185   */\n      and\n        /* \"#utility.yul\":2120:2185   */\n      swap1\n      pop\n        /* \"#utility.yul\":2065:2191   */\n      swap2\n      swap1\n      pop\n      jump\t// out\n        /* \"#utility.yul\":2197:2293   */\n    tag_127:\n        /* \"#utility.yul\":2234:2241   */\n      0x00\n        /* \"#utility.yul\":2263:2287   */\n      tag_193\n        /* \"#utility.yul\":2281:2286   */\n      dup3\n        /* \"#utility.yul\":2263:2287   */\n      tag_126\n      jump\t// in\n    tag_193:\n        /* \"#utility.yul\":2252:2287   */\n      swap1\n      pop\n        /* \"#utility.yul\":2197:2293   */\n      swap2\n      swap1\n      pop\n      jump\t// out\n        /* \"#utility.yul\":2299:2417   */\n    tag_128:\n        /* \"#utility.yul\":2386:2410   */\n      tag_195\n        /* \"#utility.yul\":2404:2409   */\n      dup2\n        /* \"#utility.yul\":2386:2410   */\n      tag_127\n      jump\t// in\n    tag_195:\n        /* \"#utility.yul\":2381:2384   */\n      dup3\n        /* \"#utility.yul\":2374:2411   */\n      mstore\n        /* \"#utility.yul\":2299:2417   */\n      pop\n      pop\n      jump\t// out\n        /* \"#utility.yul\":2423:2513   */\n    tag_129:\n        /* \"#utility.yul\":2457:2464   */\n      0x00\n        /* \"#utility.yul\":2500:2505   */\n      dup2\n        /* \"#utility.yul\":2493:2506   */\n      iszero\n        /* \"#utility.yul\":2486:2507   */\n      iszero\n        /* \"#utility.yul\":2475:2507   */\n      swap1\n      pop\n        /* \"#utility.yul\":2423:2513   */\n      swap2\n      swap1\n      pop\n      jump\t// out\n        /* \"#utility.yul\":2519:2628   */\n    tag_130:\n        /* \"#utility.yul\":2600:2621   */\n      tag_198\n        /* \"#utility.yul\":2615:2620   */\n      dup2\n        /* \"#utility.yul\":2600:2621   */\n      tag_129\n      jump\t// in\n    tag_198:\n        /* \"#utility.yul\":2595:2598   */\n      dup3\n        /* \"#utility.yul\":2588:2622   */\n      mstore\n        /* \"#utility.yul\":2519:2628   */\n      pop\n      pop\n      jump\t// out\n        /* \"#utility.yul\":2634:3769   */\n    tag_16:\n        /* \"#utility.yul\":2943:2947   */\n      0x00\n        /* \"#utility.yul\":2981:2984   */\n      0xe0\n        /* \"#utility.yul\":2970:2979   */\n      dup3\n        /* \"#utility.yul\":2966:2985   */\n      add\n        /* \"#utility.yul\":2958:2985   */\n      swap1\n      pop\n        /* \"#utility.yul\":2995:3066   */\n      tag_200\n        /* \"#utility.yul\":3063:3064   */\n      0x00\n        /* \"#utility.yul\":3052:3061   */\n      dup4\n        /* \"#utility.yul\":3048:3065   */\n      add\n        /* \"#utility.yul\":3039:3045   */\n      dup11\n        /* \"#utility.yul\":2995:3066   */\n      tag_120\n      jump\t// in\n    tag_200:\n        /* \"#utility.yul\":3113:3122   */\n      dup2\n        /* \"#utility.yul\":3107:3111   */\n      dup2\n        /* \"#utility.yul\":3103:3123   */\n      sub\n        /* \"#utility.yul\":3098:3100   */\n      0x20\n        /* \"#utility.yul\":3087:3096   */\n      dup4\n        /* \"#utility.yul\":3083:3101   */\n      add\n        /* \"#utility.yul\":3076:3124   */\n      mstore\n        /* \"#utility.yul\":3141:3219   */\n      tag_201\n        /* \"#utility.yul\":3214:3218   */\n      dup2\n        /* \"#utility.yul\":3205:3211   */\n      dup10\n        /* \"#utility.yul\":3141:3219   */\n      tag_125\n      jump\t// in\n    tag_201:\n        /* \"#utility.yul\":3133:3219   */\n      swap1\n      pop\n        /* \"#utility.yul\":3266:3275   */\n      dup2\n        /* \"#utility.yul\":3260:3264   */\n      dup2\n        /* \"#utility.yul\":3256:3276   */\n      sub\n        /* \"#utility.yul\":3251:3253   */\n      0x40\n        /* \"#utility.yul\":3240:3249   */\n      dup4\n        /* \"#utility.yul\":3236:3254   */\n      add\n        /* \"#utility.yul\":3229:3277   */\n      mstore\n        /* \"#utility.yul\":3294:3372   */\n      tag_202\n        /* \"#utility.yul\":3367:3371   */\n      dup2\n        /* \"#utility.yul\":3358:3364   */\n      dup9\n        /* \"#utility.yul\":3294:3372   */\n      tag_125\n      jump\t// in\n    tag_202:\n        /* \"#utility.yul\":3286:3372   */\n      swap1\n      pop\n        /* \"#utility.yul\":3419:3428   */\n      dup2\n        /* \"#utility.yul\":3413:3417   */\n      dup2\n        /* \"#utility.yul\":3409:3429   */\n      sub\n        /* \"#utility.yul\":3404:3406   */\n      0x60\n        /* \"#utility.yul\":3393:3402   */\n      dup4\n        /* \"#utility.yul\":3389:3407   */\n      add\n        /* \"#utility.yul\":3382:3430   */\n      mstore\n        /* \"#utility.yul\":3447:3525   */\n      tag_203\n        /* \"#utility.yul\":3520:3524   */\n      dup2\n        /* \"#utility.yul\":3511:3517   */\n      dup8\n        /* \"#utility.yul\":3447:3525   */\n      tag_125\n      jump\t// in\n    tag_203:\n        /* \"#utility.yul\":3439:3525   */\n      swap1\n      pop\n        /* \"#utility.yul\":3535:3608   */\n      tag_204\n        /* \"#utility.yul\":3603:3606   */\n      0x80\n        /* \"#utility.yul\":3592:3601   */\n      dup4\n        /* \"#utility.yul\":3588:3607   */\n      add\n        /* \"#utility.yul\":3579:3585   */\n      dup7\n        /* \"#utility.yul\":3535:3608   */\n      tag_128\n      jump\t// in\n    tag_204:\n        /* \"#utility.yul\":3618:3685   */\n      tag_205\n        /* \"#utility.yul\":3680:3683   */\n      0xa0\n        /* \"#utility.yul\":3669:3678   */\n      dup4\n        /* \"#utility.yul\":3665:3684   */\n      add\n        /* \"#utility.yul\":3656:3662   */\n      dup6\n        /* \"#utility.yul\":3618:3685   */\n      tag_130\n      jump\t// in\n    tag_205:\n        /* \"#utility.yul\":3695:3762   */\n      tag_206\n        /* \"#utility.yul\":3757:3760   */\n      0xc0\n        /* \"#utility.yul\":3746:3755   */\n      dup4\n        /* \"#utility.yul\":3742:3761   */\n      add\n        /* \"#utility.yul\":3733:3739   */\n      dup5\n        /* \"#utility.yul\":3695:3762   */\n      tag_130\n      jump\t// in\n    tag_206:\n        /* \"#utility.yul\":2634:3769   */\n      swap9\n      swap8\n      pop\n      pop\n      pop\n      pop\n      pop\n      pop\n      pop\n      pop\n      jump\t// out\n        /* \"#utility.yul\":3775:3997   */\n    tag_20:\n        /* \"#utility.yul\":3868:3872   */\n      0x00\n        /* \"#utility.yul\":3906:3908   */\n      0x20\n        /* \"#utility.yul\":3895:3904   */\n      dup3\n        /* \"#utility.yul\":3891:3909   */\n      add\n        /* \"#utility.yul\":3883:3909   */\n      swap1\n      pop\n        /* \"#utility.yul\":3919:3990   */\n      tag_208\n        /* \"#utility.yul\":3987:3988   */\n      0x00\n        /* \"#utility.yul\":3976:3985   */\n      dup4\n        /* \"#utility.yul\":3972:3989   */\n      add\n        /* \"#utility.yul\":3963:3969   */\n      dup5\n        /* \"#utility.yul\":3919:3990   */\n      tag_120\n      jump\t// in\n    tag_208:\n        /* \"#utility.yul\":3775:3997   */\n      swap3\n      swap2\n      pop\n      pop\n      jump\t// out\n        /* \"#utility.yul\":4003:5027   */\n    tag_25:\n        /* \"#utility.yul\":4284:4288   */\n      0x00\n        /* \"#utility.yul\":4322:4325   */\n      0xc0\n        /* \"#utility.yul\":4311:4320   */\n      dup3\n        /* \"#utility.yul\":4307:4326   */\n      add\n        /* \"#utility.yul\":4299:4326   */\n      swap1\n      pop\n        /* \"#utility.yul\":4372:4381   */\n      dup2\n        /* \"#utility.yul\":4366:4370   */\n      dup2\n        /* \"#utility.yul\":4362:4382   */\n      sub\n        /* \"#utility.yul\":4358:4359   */\n      0x00\n        /* \"#utility.yul\":4347:4356   */\n      dup4\n        /* \"#utility.yul\":4343:4360   */\n      add\n        /* \"#utility.yul\":4336:4383   */\n      mstore\n        /* \"#utility.yul\":4400:4478   */\n      tag_210\n        /* \"#utility.yul\":4473:4477   */\n      dup2\n        /* \"#utility.yul\":4464:4470   */\n      dup10\n        /* \"#utility.yul\":4400:4478   */\n      tag_125\n      jump\t// in\n    tag_210:\n        /* \"#utility.yul\":4392:4478   */\n      swap1\n      pop\n        /* \"#utility.yul\":4525:4534   */\n      dup2\n        /* \"#utility.yul\":4519:4523   */\n      dup2\n        /* \"#utility.yul\":4515:4535   */\n      sub\n        /* \"#utility.yul\":4510:4512   */\n      0x20\n        /* \"#utility.yul\":4499:4508   */\n      dup4\n        /* \"#utility.yul\":4495:4513   */\n      add\n        /* \"#utility.yul\":4488:4536   */\n      mstore\n        /* \"#utility.yul\":4553:4631   */\n      tag_211\n        /* \"#utility.yul\":4626:4630   */\n      dup2\n        /* \"#utility.yul\":4617:4623   */\n      dup9\n        /* \"#utility.yul\":4553:4631   */\n      tag_125\n      jump\t// in\n    tag_211:\n        /* \"#utility.yul\":4545:4631   */\n      swap1\n      pop\n        /* \"#utility.yul\":4678:4687   */\n      dup2\n        /* \"#utility.yul\":4672:4676   */\n      dup2\n        /* \"#utility.yul\":4668:4688   */\n      sub\n        /* \"#utility.yul\":4663:4665   */\n      0x40\n        /* \"#utility.yul\":4652:4661   */\n      dup4\n        /* \"#utility.yul\":4648:4666   */\n      add\n        /* \"#utility.yul\":4641:4689   */\n      mstore\n        /* \"#utility.yul\":4706:4784   */\n      tag_212\n        /* \"#utility.yul\":4779:4783   */\n      dup2\n        /* \"#utility.yul\":4770:4776   */\n      dup8\n        /* \"#utility.yul\":4706:4784   */\n      tag_125\n      jump\t// in\n    tag_212:\n        /* \"#utility.yul\":4698:4784   */\n      swap1\n      pop\n        /* \"#utility.yul\":4794:4866   */\n      tag_213\n        /* \"#utility.yul\":4862:4864   */\n      0x60\n        /* \"#utility.yul\":4851:4860   */\n      dup4\n        /* \"#utility.yul\":4847:4865   */\n      add\n        /* \"#utility.yul\":4838:4844   */\n      dup7\n        /* \"#utility.yul\":4794:4866   */\n      tag_128\n      jump\t// in\n    tag_213:\n        /* \"#utility.yul\":4876:4943   */\n      tag_214\n        /* \"#utility.yul\":4938:4941   */\n      0x80\n        /* \"#utility.yul\":4927:4936   */\n      dup4\n        /* \"#utility.yul\":4923:4942   */\n      add\n        /* \"#utility.yul\":4914:4920   */\n      dup6\n        /* \"#utility.yul\":4876:4943   */\n      tag_130\n      jump\t// in\n    tag_214:\n        /* \"#utility.yul\":4953:5020   */\n      tag_215\n        /* \"#utility.yul\":5015:5018   */\n      0xa0\n        /* \"#utility.yul\":5004:5013   */\n      dup4\n        /* \"#utility.yul\":5000:5019   */\n      add\n        /* \"#utility.yul\":4991:4997   */\n      dup5\n        /* \"#utility.yul\":4953:5020   */\n      tag_130\n      jump\t// in\n    tag_215:\n        /* \"#utility.yul\":4003:5027   */\n      swap8\n      swap7\n      pop\n      pop\n      pop\n      pop\n      pop\n      pop\n      pop\n      jump\t// out\n        /* \"#utility.yul\":5033:5255   */\n    tag_33:\n        /* \"#utility.yul\":5126:5130   */\n      0x00\n        /* \"#utility.yul\":5164:5166   */\n      0x20\n        /* \"#utility.yul\":5153:5162   */\n      dup3\n        /* \"#utility.yul\":5149:5167   */\n      add\n        /* \"#utility.yul\":5141:5167   */\n      swap1\n      pop\n        /* \"#utility.yul\":5177:5248   */\n      tag_217\n        /* \"#utility.yul\":5245:5246   */\n      0x00\n        /* \"#utility.yul\":5234:5243   */\n      dup4\n        /* \"#utility.yul\":5230:5247   */\n      add\n        /* \"#utility.yul\":5221:5227   */\n      dup5\n        /* \"#utility.yul\":5177:5248   */\n      tag_128\n      jump\t// in\n    tag_217:\n        /* \"#utility.yul\":5033:5255   */\n      swap3\n      swap2\n      pop\n      pop\n      jump\t// out\n        /* \"#utility.yul\":5261:5378   */\n    tag_131:\n        /* \"#utility.yul\":5370:5371   */\n      0x00\n        /* \"#utility.yul\":5367:5368   */\n      dup1\n        /* \"#utility.yul\":5360:5372   */\n      revert\n        /* \"#utility.yul\":5384:5501   */\n    tag_132:\n        /* \"#utility.yul\":5493:5494   */\n      0x00\n        /* \"#utility.yul\":5490:5491   */\n      dup1\n        /* \"#utility.yul\":5483:5495   */\n      revert\n        /* \"#utility.yul\":5507:5687   */\n    tag_133:\n        /* \"#utility.yul\":5555:5632   */\n      0x4e487b7100000000000000000000000000000000000000000000000000000000\n        /* \"#utility.yul\":5552:5553   */\n      0x00\n        /* \"#utility.yul\":5545:5633   */\n      mstore\n        /* \"#utility.yul\":5652:5656   */\n      0x41\n        /* \"#utility.yul\":5649:5650   */\n      0x04\n        /* \"#utility.yul\":5642:5657   */\n      mstore\n        /* \"#utility.yul\":5676:5680   */\n      0x24\n        /* \"#utility.yul\":5673:5674   */\n      0x00\n        /* \"#utility.yul\":5666:5681   */\n      revert\n        /* \"#utility.yul\":5693:5974   */\n    tag_134:\n        /* \"#utility.yul\":5776:5803   */\n      tag_222\n        /* \"#utility.yul\":5798:5802   */\n      dup3\n        /* \"#utility.yul\":5776:5803   */\n      tag_124\n      jump\t// in\n    tag_222:\n        /* \"#utility.yul\":5768:5774   */\n      dup2\n        /* \"#utility.yul\":5764:5804   */\n      add\n        /* \"#utility.yul\":5906:5912   */\n      dup2\n        /* \"#utility.yul\":5894:5904   */\n      dup2\n        /* \"#utility.yul\":5891:5913   */\n      lt\n        /* \"#utility.yul\":5870:5888   */\n      0xffffffffffffffff\n        /* \"#utility.yul\":5858:5868   */\n      dup3\n        /* \"#utility.yul\":5855:5889   */\n      gt\n        /* \"#utility.yul\":5852:5914   */\n      or\n        /* \"#utility.yul\":5849:5937   */\n      iszero\n      tag_223\n      jumpi\n        /* \"#utility.yul\":5917:5935   */\n      tag_224\n      tag_133\n      jump\t// in\n    tag_224:\n        /* \"#utility.yul\":5849:5937   */\n    tag_223:\n        /* \"#utility.yul\":5957:5967   */\n      dup1\n        /* \"#utility.yul\":5953:5955   */\n      0x40\n        /* \"#utility.yul\":5946:5968   */\n      mstore\n        /* \"#utility.yul\":5736:5974   */\n      pop\n        /* \"#utility.yul\":5693:5974   */\n      pop\n      pop\n      jump\t// out\n        /* \"#utility.yul\":5980:6109   */\n    tag_135:\n        /* \"#utility.yul\":6014:6020   */\n      0x00\n        /* \"#utility.yul\":6041:6061   */\n      tag_226\n      tag_114\n      jump\t// in\n    tag_226:\n        /* \"#utility.yul\":6031:6061   */\n      swap1\n      pop\n        /* \"#utility.yul\":6070:6103   */\n      tag_227\n        /* \"#utility.yul\":6098:6102   */\n      dup3\n        /* \"#utility.yul\":6090:6096   */\n      dup3\n        /* \"#utility.yul\":6070:6103   */\n      tag_134\n      jump\t// in\n    tag_227:\n        /* \"#utility.yul\":5980:6109   */\n      swap2\n      swap1\n      pop\n      jump\t// out\n        /* \"#utility.yul\":6115:6423   */\n    tag_136:\n        /* \"#utility.yul\":6177:6181   */\n      0x00\n        /* \"#utility.yul\":6267:6285   */\n      0xffffffffffffffff\n        /* \"#utility.yul\":6259:6265   */\n      dup3\n        /* \"#utility.yul\":6256:6286   */\n      gt\n        /* \"#utility.yul\":6253:6309   */\n      iszero\n      tag_229\n      jumpi\n        /* \"#utility.yul\":6289:6307   */\n      tag_230\n      tag_133\n      jump\t// in\n    tag_230:\n        /* \"#utility.yul\":6253:6309   */\n    tag_229:\n        /* \"#utility.yul\":6327:6356   */\n      tag_231\n        /* \"#utility.yul\":6349:6355   */\n      dup3\n        /* \"#utility.yul\":6327:6356   */\n      tag_124\n      jump\t// in\n    tag_231:\n        /* \"#utility.yul\":6319:6356   */\n      swap1\n      pop\n        /* \"#utility.yul\":6411:6415   */\n      0x20\n        /* \"#utility.yul\":6405:6409   */\n      dup2\n        /* \"#utility.yul\":6401:6416   */\n      add\n        /* \"#utility.yul\":6393:6416   */\n      swap1\n      pop\n        /* \"#utility.yul\":6115:6423   */\n      swap2\n      swap1\n      pop\n      jump\t// out\n        /* \"#utility.yul\":6429:6577   */\n    tag_137:\n        /* \"#utility.yul\":6527:6533   */\n      dup3\n        /* \"#utility.yul\":6522:6525   */\n      dup2\n        /* \"#utility.yul\":6517:6520   */\n      dup4\n        /* \"#utility.yul\":6504:6534   */\n      calldatacopy\n        /* \"#utility.yul\":6568:6569   */\n      0x00\n        /* \"#utility.yul\":6559:6565   */\n      dup4\n        /* \"#utility.yul\":6554:6557   */\n      dup4\n        /* \"#utility.yul\":6550:6566   */\n      add\n        /* \"#utility.yul\":6543:6570   */\n      mstore\n        /* \"#utility.yul\":6429:6577   */\n      pop\n      pop\n      pop\n      jump\t// out\n        /* \"#utility.yul\":6583:7008   */\n    tag_138:\n        /* \"#utility.yul\":6661:6666   */\n      0x00\n        /* \"#utility.yul\":6686:6752   */\n      tag_234\n        /* \"#utility.yul\":6702:6751   */\n      tag_235\n        /* \"#utility.yul\":6744:6750   */\n      dup5\n        /* \"#utility.yul\":6702:6751   */\n      tag_136\n      jump\t// in\n    tag_235:\n        /* \"#utility.yul\":6686:6752   */\n      tag_135\n      jump\t// in\n    tag_234:\n        /* \"#utility.yul\":6677:6752   */\n      swap1\n      pop\n        /* \"#utility.yul\":6775:6781   */\n      dup3\n        /* \"#utility.yul\":6768:6773   */\n      dup2\n        /* \"#utility.yul\":6761:6782   */\n      mstore\n        /* \"#utility.yul\":6813:6817   */\n      0x20\n        /* \"#utility.yul\":6806:6811   */\n      dup2\n        /* \"#utility.yul\":6802:6818   */\n      add\n        /* \"#utility.yul\":6851:6854   */\n      dup5\n        /* \"#utility.yul\":6842:6848   */\n      dup5\n        /* \"#utility.yul\":6837:6840   */\n      dup5\n        /* \"#utility.yul\":6833:6849   */\n      add\n        /* \"#utility.yul\":6830:6855   */\n      gt\n        /* \"#utility.yul\":6827:6939   */\n      iszero\n      tag_236\n      jumpi\n        /* \"#utility.yul\":6858:6937   */\n      tag_237\n      tag_132\n      jump\t// in\n    tag_237:\n        /* \"#utility.yul\":6827:6939   */\n    tag_236:\n        /* \"#utility.yul\":6948:7002   */\n      tag_238\n        /* \"#utility.yul\":6995:7001   */\n      dup5\n        /* \"#utility.yul\":6990:6993   */\n      dup3\n        /* \"#utility.yul\":6985:6988   */\n      dup6\n        /* \"#utility.yul\":6948:7002   */\n      tag_137\n      jump\t// in\n    tag_238:\n        /* \"#utility.yul\":6667:7008   */\n      pop\n        /* \"#utility.yul\":6583:7008   */\n      swap4\n      swap3\n      pop\n      pop\n      pop\n      jump\t// out\n        /* \"#utility.yul\":7028:7368   */\n    tag_139:\n        /* \"#utility.yul\":7084:7089   */\n      0x00\n        /* \"#utility.yul\":7133:7136   */\n      dup3\n        /* \"#utility.yul\":7126:7130   */\n      0x1f\n        /* \"#utility.yul\":7118:7124   */\n      dup4\n        /* \"#utility.yul\":7114:7131   */\n      add\n        /* \"#utility.yul\":7110:7137   */\n      slt\n        /* \"#utility.yul\":7100:7222   */\n      tag_240\n      jumpi\n        /* \"#utility.yul\":7141:7220   */\n      tag_241\n      tag_131\n      jump\t// in\n    tag_241:\n        /* \"#utility.yul\":7100:7222   */\n    tag_240:\n        /* \"#utility.yul\":7258:7264   */\n      dup2\n        /* \"#utility.yul\":7245:7265   */\n      calldataload\n        /* \"#utility.yul\":7283:7362   */\n      tag_242\n        /* \"#utility.yul\":7358:7361   */\n      dup5\n        /* \"#utility.yul\":7350:7356   */\n      dup3\n        /* \"#utility.yul\":7343:7347   */\n      0x20\n        /* \"#utility.yul\":7335:7341   */\n      dup7\n        /* \"#utility.yul\":7331:7348   */\n      add\n        /* \"#utility.yul\":7283:7362   */\n      tag_138\n      jump\t// in\n    tag_242:\n        /* \"#utility.yul\":7274:7362   */\n      swap2\n      pop\n        /* \"#utility.yul\":7090:7368   */\n      pop\n        /* \"#utility.yul\":7028:7368   */\n      swap3\n      swap2\n      pop\n      pop\n      jump\t// out\n        /* \"#utility.yul\":7374:7490   */\n    tag_140:\n        /* \"#utility.yul\":7444:7465   */\n      tag_244\n        /* \"#utility.yul\":7459:7464   */\n      dup2\n        /* \"#utility.yul\":7444:7465   */\n      tag_129\n      jump\t// in\n    tag_244:\n        /* \"#utility.yul\":7437:7442   */\n      dup2\n        /* \"#utility.yul\":7434:7466   */\n      eq\n        /* \"#utility.yul\":7424:7484   */\n      tag_245\n      jumpi\n        /* \"#utility.yul\":7480:7481   */\n      0x00\n        /* \"#utility.yul\":7477:7478   */\n      dup1\n        /* \"#utility.yul\":7470:7482   */\n      revert\n        /* \"#utility.yul\":7424:7484   */\n    tag_245:\n        /* \"#utility.yul\":7374:7490   */\n      pop\n      jump\t// out\n        /* \"#utility.yul\":7496:7629   */\n    tag_141:\n        /* \"#utility.yul\":7539:7544   */\n      0x00\n        /* \"#utility.yul\":7577:7583   */\n      dup2\n        /* \"#utility.yul\":7564:7584   */\n      calldataload\n        /* \"#utility.yul\":7555:7584   */\n      swap1\n      pop\n        /* \"#utility.yul\":7593:7623   */\n      tag_247\n        /* \"#utility.yul\":7617:7622   */\n      dup2\n        /* \"#utility.yul\":7593:7623   */\n      tag_140\n      jump\t// in\n    tag_247:\n        /* \"#utility.yul\":7496:7629   */\n      swap3\n      swap2\n      pop\n      pop\n      jump\t// out\n        /* \"#utility.yul\":7635:8934   */\n    tag_36:\n        /* \"#utility.yul\":7748:7754   */\n      0x00\n        /* \"#utility.yul\":7756:7762   */\n      dup1\n        /* \"#utility.yul\":7764:7770   */\n      0x00\n        /* \"#utility.yul\":7772:7778   */\n      dup1\n        /* \"#utility.yul\":7821:7824   */\n      0x80\n        /* \"#utility.yul\":7809:7818   */\n      dup6\n        /* \"#utility.yul\":7800:7807   */\n      dup8\n        /* \"#utility.yul\":7796:7819   */\n      sub\n        /* \"#utility.yul\":7792:7825   */\n      slt\n        /* \"#utility.yul\":7789:7909   */\n      iszero\n      tag_249\n      jumpi\n        /* \"#utility.yul\":7828:7907   */\n      tag_250\n      tag_115\n      jump\t// in\n    tag_250:\n        /* \"#utility.yul\":7789:7909   */\n    tag_249:\n        /* \"#utility.yul\":7976:7977   */\n      0x00\n        /* \"#utility.yul\":7965:7974   */\n      dup6\n        /* \"#utility.yul\":7961:7978   */\n      add\n        /* \"#utility.yul\":7948:7979   */\n      calldataload\n        /* \"#utility.yul\":8006:8024   */\n      0xffffffffffffffff\n        /* \"#utility.yul\":7998:8004   */\n      dup2\n        /* \"#utility.yul\":7995:8025   */\n      gt\n        /* \"#utility.yul\":7992:8109   */\n      iszero\n      tag_251\n      jumpi\n        /* \"#utility.yul\":8028:8107   */\n      tag_252\n      tag_116\n      jump\t// in\n    tag_252:\n        /* \"#utility.yul\":7992:8109   */\n    tag_251:\n        /* \"#utility.yul\":8133:8196   */\n      tag_253\n        /* \"#utility.yul\":8188:8195   */\n      dup8\n        /* \"#utility.yul\":8179:8185   */\n      dup3\n        /* \"#utility.yul\":8168:8177   */\n      dup9\n        /* \"#utility.yul\":8164:8186   */\n      add\n        /* \"#utility.yul\":8133:8196   */\n      tag_139\n      jump\t// in\n    tag_253:\n        /* \"#utility.yul\":8123:8196   */\n      swap5\n      pop\n        /* \"#utility.yul\":7919:8206   */\n      pop\n        /* \"#utility.yul\":8273:8275   */\n      0x20\n        /* \"#utility.yul\":8262:8271   */\n      dup6\n        /* \"#utility.yul\":8258:8276   */\n      add\n        /* \"#utility.yul\":8245:8277   */\n      calldataload\n        /* \"#utility.yul\":8304:8322   */\n      0xffffffffffffffff\n        /* \"#utility.yul\":8296:8302   */\n      dup2\n        /* \"#utility.yul\":8293:8323   */\n      gt\n        /* \"#utility.yul\":8290:8407   */\n      iszero\n      tag_254\n      jumpi\n        /* \"#utility.yul\":8326:8405   */\n      tag_255\n      tag_116\n      jump\t// in\n    tag_255:\n        /* \"#utility.yul\":8290:8407   */\n    tag_254:\n        /* \"#utility.yul\":8431:8494   */\n      tag_256\n        /* \"#utility.yul\":8486:8493   */\n      dup8\n        /* \"#utility.yul\":8477:8483   */\n      dup3\n        /* \"#utility.yul\":8466:8475   */\n      dup9\n        /* \"#utility.yul\":8462:8484   */\n      add\n        /* \"#utility.yul\":8431:8494   */\n      tag_139\n      jump\t// in\n    tag_256:\n        /* \"#utility.yul\":8421:8494   */\n      swap4\n      pop\n        /* \"#utility.yul\":8216:8504   */\n      pop\n        /* \"#utility.yul\":8571:8573   */\n      0x40\n        /* \"#utility.yul\":8560:8569   */\n      dup6\n        /* \"#utility.yul\":8556:8574   */\n      add\n        /* \"#utility.yul\":8543:8575   */\n      calldataload\n        /* \"#utility.yul\":8602:8620   */\n      0xffffffffffffffff\n        /* \"#utility.yul\":8594:8600   */\n      dup2\n        /* \"#utility.yul\":8591:8621   */\n      gt\n        /* \"#utility.yul\":8588:8705   */\n      iszero\n      tag_257\n      jumpi\n        /* \"#utility.yul\":8624:8703   */\n      tag_258\n      tag_116\n      jump\t// in\n    tag_258:\n        /* \"#utility.yul\":8588:8705   */\n    tag_257:\n        /* \"#utility.yul\":8729:8792   */\n      tag_259\n        /* \"#utility.yul\":8784:8791   */\n      dup8\n        /* \"#utility.yul\":8775:8781   */\n      dup3\n        /* \"#utility.yul\":8764:8773   */\n      dup9\n        /* \"#utility.yul\":8760:8782   */\n      add\n        /* \"#utility.yul\":8729:8792   */\n      tag_139\n      jump\t// in\n    tag_259:\n        /* \"#utility.yul\":8719:8792   */\n      swap3\n      pop\n        /* \"#utility.yul\":8514:8802   */\n      pop\n        /* \"#utility.yul\":8841:8843   */\n      0x60\n        /* \"#utility.yul\":8867:8917   */\n      tag_260\n        /* \"#utility.yul\":8909:8916   */\n      dup8\n        /* \"#utility.yul\":8900:8906   */\n      dup3\n        /* \"#utility.yul\":8889:8898   */\n      dup9\n        /* \"#utility.yul\":8885:8907   */\n      add\n        /* \"#utility.yul\":8867:8917   */\n      tag_141\n      jump\t// in\n    tag_260:\n        /* \"#utility.yul\":8857:8917   */\n      swap2\n      pop\n        /* \"#utility.yul\":8812:8927   */\n      pop\n        /* \"#utility.yul\":7635:8934   */\n      swap3\n      swap6\n      swap2\n      swap5\n      pop\n      swap3\n      pop\n      jump\t// out\n        /* \"#utility.yul\":8940:9120   */\n    tag_142:\n        /* \"#utility.yul\":8988:9065   */\n      0x4e487b7100000000000000000000000000000000000000000000000000000000\n        /* \"#utility.yul\":8985:8986   */\n      0x00\n        /* \"#utility.yul\":8978:9066   */\n      mstore\n        /* \"#utility.yul\":9085:9089   */\n      0x22\n        /* \"#utility.yul\":9082:9083   */\n      0x04\n        /* \"#utility.yul\":9075:9090   */\n      mstore\n        /* \"#utility.yul\":9109:9113   */\n      0x24\n        /* \"#utility.yul\":9106:9107   */\n      0x00\n        /* \"#utility.yul\":9099:9114   */\n      revert\n        /* \"#utility.yul\":9126:9446   */\n    tag_44:\n        /* \"#utility.yul\":9170:9176   */\n      0x00\n        /* \"#utility.yul\":9207:9208   */\n      0x02\n        /* \"#utility.yul\":9201:9205   */\n      dup3\n        /* \"#utility.yul\":9197:9209   */\n      div\n        /* \"#utility.yul\":9187:9209   */\n      swap1\n      pop\n        /* \"#utility.yul\":9254:9255   */\n      0x01\n        /* \"#utility.yul\":9248:9252   */\n      dup3\n        /* \"#utility.yul\":9244:9256   */\n      and\n        /* \"#utility.yul\":9275:9293   */\n      dup1\n        /* \"#utility.yul\":9265:9346   */\n      tag_263\n      jumpi\n        /* \"#utility.yul\":9331:9335   */\n      0x7f\n        /* \"#utility.yul\":9323:9329   */\n      dup3\n        /* \"#utility.yul\":9319:9336   */\n      and\n        /* \"#utility.yul\":9309:9336   */\n      swap2\n      pop\n        /* \"#utility.yul\":9265:9346   */\n    tag_263:\n        /* \"#utility.yul\":9393:9395   */\n      0x20\n        /* \"#utility.yul\":9385:9391   */\n      dup3\n        /* \"#utility.yul\":9382:9396   */\n      lt\n        /* \"#utility.yul\":9362:9380   */\n      dup2\n        /* \"#utility.yul\":9359:9397   */\n      sub\n        /* \"#utility.yul\":9356:9440   */\n      tag_264\n      jumpi\n        /* \"#utility.yul\":9412:9430   */\n      tag_265\n      tag_142\n      jump\t// in\n    tag_265:\n        /* \"#utility.yul\":9356:9440   */\n    tag_264:\n        /* \"#utility.yul\":9177:9446   */\n      pop\n        /* \"#utility.yul\":9126:9446   */\n      swap2\n      swap1\n      pop\n      jump\t// out\n        /* \"#utility.yul\":9452:9624   */\n    tag_143:\n        /* \"#utility.yul\":9592:9616   */\n      0x426f6f6b20494420646f6573206e6f7420657869737400000000000000000000\n        /* \"#utility.yul\":9588:9589   */\n      0x00\n        /* \"#utility.yul\":9580:9586   */\n      dup3\n        /* \"#utility.yul\":9576:9590   */\n      add\n        /* \"#utility.yul\":9569:9617   */\n      mstore\n        /* \"#utility.yul\":9452:9624   */\n      pop\n      jump\t// out\n        /* \"#utility.yul\":9630:9996   */\n    tag_144:\n        /* \"#utility.yul\":9772:9775   */\n      0x00\n        /* \"#utility.yul\":9793:9860   */\n      tag_268\n        /* \"#utility.yul\":9857:9859   */\n      0x16\n        /* \"#utility.yul\":9852:9855   */\n      dup4\n        /* \"#utility.yul\":9793:9860   */\n      tag_122\n      jump\t// in\n    tag_268:\n        /* \"#utility.yul\":9786:9860   */\n      swap2\n      pop\n        /* \"#utility.yul\":9869:9962   */\n      tag_269\n        /* \"#utility.yul\":9958:9961   */\n      dup3\n        /* \"#utility.yul\":9869:9962   */\n      tag_143\n      jump\t// in\n    tag_269:\n        /* \"#utility.yul\":9987:9989   */\n      0x20\n        /* \"#utility.yul\":9982:9985   */\n      dup3\n        /* \"#utility.yul\":9978:9990   */\n      add\n        /* \"#utility.yul\":9971:9990   */\n      swap1\n      pop\n        /* \"#utility.yul\":9630:9996   */\n      swap2\n      swap1\n      pop\n      jump\t// out\n        /* \"#utility.yul\":10002:10421   */\n    tag_63:\n        /* \"#utility.yul\":10168:10172   */\n      0x00\n        /* \"#utility.yul\":10206:10208   */\n      0x20\n        /* \"#utility.yul\":10195:10204   */\n      dup3\n        /* \"#utility.yul\":10191:10209   */\n      add\n        /* \"#utility.yul\":10183:10209   */\n      swap1\n      pop\n        /* \"#utility.yul\":10255:10264   */\n      dup2\n        /* \"#utility.yul\":10249:10253   */\n      dup2\n        /* \"#utility.yul\":10245:10265   */\n      sub\n        /* \"#utility.yul\":10241:10242   */\n      0x00\n        /* \"#utility.yul\":10230:10239   */\n      dup4\n        /* \"#utility.yul\":10226:10243   */\n      add\n        /* \"#utility.yul\":10219:10266   */\n      mstore\n        /* \"#utility.yul\":10283:10414   */\n      tag_271\n        /* \"#utility.yul\":10409:10413   */\n      dup2\n        /* \"#utility.yul\":10283:10414   */\n      tag_144\n      jump\t// in\n    tag_271:\n        /* \"#utility.yul\":10275:10414   */\n      swap1\n      pop\n        /* \"#utility.yul\":10002:10421   */\n      swap2\n      swap1\n      pop\n      jump\t// out\n        /* \"#utility.yul\":10427:10607   */\n    tag_66:\n        /* \"#utility.yul\":10475:10552   */\n      0x4e487b7100000000000000000000000000000000000000000000000000000000\n        /* \"#utility.yul\":10472:10473   */\n      0x00\n        /* \"#utility.yul\":10465:10553   */\n      mstore\n        /* \"#utility.yul\":10572:10576   */\n      0x32\n        /* \"#utility.yul\":10569:10570   */\n      0x04\n        /* \"#utility.yul\":10562:10577   */\n      mstore\n        /* \"#utility.yul\":10596:10600   */\n      0x24\n        /* \"#utility.yul\":10593:10594   */\n      0x00\n        /* \"#utility.yul\":10586:10601   */\n      revert\n        /* \"#utility.yul\":10613:10835   */\n    tag_145:\n        /* \"#utility.yul\":10753:10787   */\n      0x4f6e6c7920706879736963616c20626f6f6b732063616e20626520626f72726f\n        /* \"#utility.yul\":10749:10750   */\n      0x00\n        /* \"#utility.yul\":10741:10747   */\n      dup3\n        /* \"#utility.yul\":10737:10751   */\n      add\n        /* \"#utility.yul\":10730:10788   */\n      mstore\n        /* \"#utility.yul\":10822:10827   */\n      0x7765640000000000000000000000000000000000000000000000000000000000\n        /* \"#utility.yul\":10817:10819   */\n      0x20\n        /* \"#utility.yul\":10809:10815   */\n      dup3\n        /* \"#utility.yul\":10805:10820   */\n      add\n        /* \"#utility.yul\":10798:10828   */\n      mstore\n        /* \"#utility.yul\":10613:10835   */\n      pop\n      jump\t// out\n        /* \"#utility.yul\":10841:11207   */\n    tag_146:\n        /* \"#utility.yul\":10983:10986   */\n      0x00\n        /* \"#utility.yul\":11004:11071   */\n      tag_275\n        /* \"#utility.yul\":11068:11070   */\n      0x23\n        /* \"#utility.yul\":11063:11066   */\n      dup4\n        /* \"#utility.yul\":11004:11071   */\n      tag_122\n      jump\t// in\n    tag_275:\n        /* \"#utility.yul\":10997:11071   */\n      swap2\n      pop\n        /* \"#utility.yul\":11080:11173   */\n      tag_276\n        /* \"#utility.yul\":11169:11172   */\n      dup3\n        /* \"#utility.yul\":11080:11173   */\n      tag_145\n      jump\t// in\n    tag_276:\n        /* \"#utility.yul\":11198:11200   */\n      0x40\n        /* \"#utility.yul\":11193:11196   */\n      dup3\n        /* \"#utility.yul\":11189:11201   */\n      add\n        /* \"#utility.yul\":11182:11201   */\n      swap1\n      pop\n        /* \"#utility.yul\":10841:11207   */\n      swap2\n      swap1\n      pop\n      jump\t// out\n        /* \"#utility.yul\":11213:11632   */\n    tag_89:\n        /* \"#utility.yul\":11379:11383   */\n      0x00\n        /* \"#utility.yul\":11417:11419   */\n      0x20\n        /* \"#utility.yul\":11406:11415   */\n      dup3\n        /* \"#utility.yul\":11402:11420   */\n      add\n        /* \"#utility.yul\":11394:11420   */\n      swap1\n      pop\n        /* \"#utility.yul\":11466:11475   */\n      dup2\n        /* \"#utility.yul\":11460:11464   */\n      dup2\n        /* \"#utility.yul\":11456:11476   */\n      sub\n        /* \"#utility.yul\":11452:11453   */\n      0x00\n        /* \"#utility.yul\":11441:11450   */\n      dup4\n        /* \"#utility.yul\":11437:11454   */\n      add\n        /* \"#utility.yul\":11430:11477   */\n      mstore\n        /* \"#utility.yul\":11494:11625   */\n      tag_278\n        /* \"#utility.yul\":11620:11624   */\n      dup2\n        /* \"#utility.yul\":11494:11625   */\n      tag_146\n      jump\t// in\n    tag_278:\n        /* \"#utility.yul\":11486:11625   */\n      swap1\n      pop\n        /* \"#utility.yul\":11213:11632   */\n      swap2\n      swap1\n      pop\n      jump\t// out\n        /* \"#utility.yul\":11638:11860   */\n    tag_147:\n        /* \"#utility.yul\":11778:11812   */\n      0x426f6f6b206973206e6f7420617661696c61626c6520666f7220626f72726f77\n        /* \"#utility.yul\":11774:11775   */\n      0x00\n        /* \"#utility.yul\":11766:11772   */\n      dup3\n        /* \"#utility.yul\":11762:11776   */\n      add\n        /* \"#utility.yul\":11755:11813   */\n      mstore\n        /* \"#utility.yul\":11847:11852   */\n      0x696e670000000000000000000000000000000000000000000000000000000000\n        /* \"#utility.yul\":11842:11844   */\n      0x20\n        /* \"#utility.yul\":11834:11840   */\n      dup3\n        /* \"#utility.yul\":11830:11845   */\n      add\n        /* \"#utility.yul\":11823:11853   */\n      mstore\n        /* \"#utility.yul\":11638:11860   */\n      pop\n      jump\t// out\n        /* \"#utility.yul\":11866:12232   */\n    tag_148:\n        /* \"#utility.yul\":12008:12011   */\n      0x00\n        /* \"#utility.yul\":12029:12096   */\n      tag_281\n        /* \"#utility.yul\":12093:12095   */\n      0x23\n        /* \"#utility.yul\":12088:12091   */\n      dup4\n        /* \"#utility.yul\":12029:12096   */\n      tag_122\n      jump\t// in\n    tag_281:\n        /* \"#utility.yul\":12022:12096   */\n      swap2\n      pop\n        /* \"#utility.yul\":12105:12198   */\n      tag_282\n        /* \"#utility.yul\":12194:12197   */\n      dup3\n        /* \"#utility.yul\":12105:12198   */\n      tag_147\n      jump\t// in\n    tag_282:\n        /* \"#utility.yul\":12223:12225   */\n      0x40\n        /* \"#utility.yul\":12218:12221   */\n      dup3\n        /* \"#utility.yul\":12214:12226   */\n      add\n        /* \"#utility.yul\":12207:12226   */\n      swap1\n      pop\n        /* \"#utility.yul\":11866:12232   */\n      swap2\n      swap1\n      pop\n      jump\t// out\n        /* \"#utility.yul\":12238:12657   */\n    tag_95:\n        /* \"#utility.yul\":12404:12408   */\n      0x00\n        /* \"#utility.yul\":12442:12444   */\n      0x20\n        /* \"#utility.yul\":12431:12440   */\n      dup3\n        /* \"#utility.yul\":12427:12445   */\n      add\n        /* \"#utility.yul\":12419:12445   */\n      swap1\n      pop\n        /* \"#utility.yul\":12491:12500   */\n      dup2\n        /* \"#utility.yul\":12485:12489   */\n      dup2\n        /* \"#utility.yul\":12481:12501   */\n      sub\n        /* \"#utility.yul\":12477:12478   */\n      0x00\n        /* \"#utility.yul\":12466:12475   */\n      dup4\n        /* \"#utility.yul\":12462:12479   */\n      add\n        /* \"#utility.yul\":12455:12502   */\n      mstore\n        /* \"#utility.yul\":12519:12650   */\n      tag_284\n        /* \"#utility.yul\":12645:12649   */\n      dup2\n        /* \"#utility.yul\":12519:12650   */\n      tag_148\n      jump\t// in\n    tag_284:\n        /* \"#utility.yul\":12511:12650   */\n      swap1\n      pop\n        /* \"#utility.yul\":12238:12657   */\n      swap2\n      swap1\n      pop\n      jump\t// out\n        /* \"#utility.yul\":12663:12804   */\n    tag_149:\n        /* \"#utility.yul\":12712:12716   */\n      0x00\n        /* \"#utility.yul\":12735:12738   */\n      dup2\n        /* \"#utility.yul\":12727:12738   */\n      swap1\n      pop\n        /* \"#utility.yul\":12758:12761   */\n      dup2\n        /* \"#utility.yul\":12755:12756   */\n      0x00\n        /* \"#utility.yul\":12748:12762   */\n      mstore\n        /* \"#utility.yul\":12792:12796   */\n      0x20\n        /* \"#utility.yul\":12789:12790   */\n      0x00\n        /* \"#utility.yul\":12779:12797   */\n      keccak256\n        /* \"#utility.yul\":12771:12797   */\n      swap1\n      pop\n        /* \"#utility.yul\":12663:12804   */\n      swap2\n      swap1\n      pop\n      jump\t// out\n        /* \"#utility.yul\":12810:12903   */\n    tag_150:\n        /* \"#utility.yul\":12847:12853   */\n      0x00\n        /* \"#utility.yul\":12894:12896   */\n      0x20\n        /* \"#utility.yul\":12889:12891   */\n      0x1f\n        /* \"#utility.yul\":12882:12887   */\n      dup4\n        /* \"#utility.yul\":12878:12892   */\n      add\n        /* \"#utility.yul\":12874:12897   */\n      div\n        /* \"#utility.yul\":12864:12897   */\n      swap1\n      pop\n        /* \"#utility.yul\":12810:12903   */\n      swap2\n      swap1\n      pop\n      jump\t// out\n        /* \"#utility.yul\":12909:13016   */\n    tag_151:\n        /* \"#utility.yul\":12953:12961   */\n      0x00\n        /* \"#utility.yul\":13003:13008   */\n      dup3\n        /* \"#utility.yul\":12997:13001   */\n      dup3\n        /* \"#utility.yul\":12993:13009   */\n      shl\n        /* \"#utility.yul\":12972:13009   */\n      swap1\n      pop\n        /* \"#utility.yul\":12909:13016   */\n      swap3\n      swap2\n      pop\n      pop\n      jump\t// out\n        /* \"#utility.yul\":13022:13415   */\n    tag_152:\n        /* \"#utility.yul\":13091:13097   */\n      0x00\n        /* \"#utility.yul\":13141:13142   */\n      0x08\n        /* \"#utility.yul\":13129:13139   */\n      dup4\n        /* \"#utility.yul\":13125:13143   */\n      mul\n        /* \"#utility.yul\":13164:13261   */\n      tag_289\n        /* \"#utility.yul\":13194:13260   */\n      0xffffffffffffffffffffffffffffffffffffffffffffffffffffffffffffffff\n        /* \"#utility.yul\":13183:13192   */\n      dup3\n        /* \"#utility.yul\":13164:13261   */\n      tag_151\n      jump\t// in\n    tag_289:\n        /* \"#utility.yul\":13282:13321   */\n      tag_290\n        /* \"#utility.yul\":13312:13320   */\n      dup7\n        /* \"#utility.yul\":13301:13310   */\n      dup4\n        /* \"#utility.yul\":13282:13321   */\n      tag_151\n      jump\t// in\n    tag_290:\n        /* \"#utility.yul\":13270:13321   */\n      swap6\n      pop\n        /* \"#utility.yul\":13354:13358   */\n      dup1\n        /* \"#utility.yul\":13350:13359   */\n      not\n        /* \"#utility.yul\":13343:13348   */\n      dup5\n        /* \"#utility.yul\":13339:13360   */\n      and\n        /* \"#utility.yul\":13330:13360   */\n      swap4\n      pop\n        /* \"#utility.yul\":13403:13407   */\n      dup1\n        /* \"#utility.yul\":13393:13401   */\n      dup7\n        /* \"#utility.yul\":13389:13408   */\n      and\n        /* \"#utility.yul\":13382:13387   */\n      dup5\n        /* \"#utility.yul\":13379:13409   */\n      or\n        /* \"#utility.yul\":13369:13409   */\n      swap3\n      pop\n        /* \"#utility.yul\":13098:13415   */\n      pop\n      pop\n        /* \"#utility.yul\":13022:13415   */\n      swap4\n      swap3\n      pop\n      pop\n      pop\n      jump\t// out\n        /* \"#utility.yul\":13421:13481   */\n    tag_153:\n        /* \"#utility.yul\":13449:13452   */\n      0x00\n        /* \"#utility.yul\":13470:13475   */\n      dup2\n        /* \"#utility.yul\":13463:13475   */\n      swap1\n      pop\n        /* \"#utility.yul\":13421:13481   */\n      swap2\n      swap1\n      pop\n      jump\t// out\n        /* \"#utility.yul\":13487:13629   */\n    tag_154:\n        /* \"#utility.yul\":13537:13546   */\n      0x00\n        /* \"#utility.yul\":13570:13623   */\n      tag_293\n        /* \"#utility.yul\":13588:13622   */\n      tag_294\n        /* \"#utility.yul\":13597:13621   */\n      tag_295\n        /* \"#utility.yul\":13615:13620   */\n      dup5\n        /* \"#utility.yul\":13597:13621   */\n      tag_117\n      jump\t// in\n    tag_295:\n        /* \"#utility.yul\":13588:13622   */\n      tag_153\n      jump\t// in\n    tag_294:\n        /* \"#utility.yul\":13570:13623   */\n      tag_117\n      jump\t// in\n    tag_293:\n        /* \"#utility.yul\":13557:13623   */\n      swap1\n      pop\n        /* \"#utility.yul\":13487:13629   */\n      swap2\n      swap1\n      pop\n      jump\t// out\n        /* \"#utility.yul\":13635:13710   */\n    tag_155:\n        /* \"#utility.yul\":13678:13681   */\n      0x00\n        /* \"#utility.yul\":13699:13704   */\n      dup2\n        /* \"#utility.yul\":13692:13704   */\n      swap1\n      pop\n        /* \"#utility.yul\":13635:13710   */\n      swap2\n      swap1\n      pop\n      jump\t// out\n        /* \"#utility.yul\":13716:13985   */\n    tag_156:\n        /* \"#utility.yul\":13826:13865   */\n      tag_298\n        /* \"#utility.yul\":13857:13864   */\n      dup4\n        /* \"#utility.yul\":13826:13865   */\n      tag_154\n      jump\t// in\n    tag_298:\n        /* \"#utility.yul\":13887:13978   */\n      tag_299\n        /* \"#utility.yul\":13936:13977   */\n      tag_300\n        /* \"#utility.yul\":13960:13976   */\n      dup3\n        /* \"#utility.yul\":13936:13977   */\n      tag_155\n      jump\t// in\n    tag_300:\n        /* \"#utility.yul\":13928:13934   */\n      dup5\n        /* \"#utility.yul\":13921:13925   */\n      dup5\n        /* \"#utility.yul\":13915:13926   */\n      sload\n        /* \"#utility.yul\":13887:13978   */\n      tag_152\n      jump\t// in\n    tag_299:\n        /* \"#utility.yul\":13881:13885   */\n      dup3\n        /* \"#utility.yul\":13874:13979   */\n      sstore\n        /* \"#utility.yul\":13792:13985   */\n      pop\n        /* \"#utility.yul\":13716:13985   */\n      pop\n      pop\n      pop\n      jump\t// out\n        /* \"#utility.yul\":13991:14064   */\n    tag_157:\n        /* \"#utility.yul\":14036:14039   */\n      0x00\n        /* \"#utility.yul\":13991:14064   */\n      swap1\n      jump\t// out\n        /* \"#utility.yul\":14070:14259   */\n    tag_158:\n        /* \"#utility.yul\":14147:14179   */\n      tag_303\n      tag_157\n      jump\t// in\n    tag_303:\n        /* \"#utility.yul\":14188:14253   */\n      tag_304\n        /* \"#utility.yul\":14246:14252   */\n      dup2\n        /* \"#utility.yul\":14238:14244   */\n      dup5\n        /* \"#utility.yul\":14232:14236   */\n      dup5\n        /* \"#utility.yul\":14188:14253   */\n      tag_156\n      jump\t// in\n    tag_304:\n        /* \"#utility.yul\":14123:14259   */\n      pop\n        /* \"#utility.yul\":14070:14259   */\n      pop\n      pop\n      jump\t// out\n        /* \"#utility.yul\":14265:14451   */\n    tag_159:\n        /* \"#utility.yul\":14325:14445   */\n    tag_306:\n        /* \"#utility.yul\":14342:14345   */\n      dup2\n        /* \"#utility.yul\":14335:14340   */\n      dup2\n        /* \"#utility.yul\":14332:14346   */\n      lt\n        /* \"#utility.yul\":14325:14445   */\n      iszero\n      tag_308\n      jumpi\n        /* \"#utility.yul\":14396:14435   */\n      tag_309\n        /* \"#utility.yul\":14433:14434   */\n      0x00\n        /* \"#utility.yul\":14426:14431   */\n      dup3\n        /* \"#utility.yul\":14396:14435   */\n      tag_158\n      jump\t// in\n    tag_309:\n        /* \"#utility.yul\":14369:14370   */\n      0x01\n        /* \"#utility.yul\":14362:14367   */\n      dup2\n        /* \"#utility.yul\":14358:14371   */\n      add\n        /* \"#utility.yul\":14349:14371   */\n      swap1\n      pop\n        /* \"#utility.yul\":14325:14445   */\n      jump(tag_306)\n    tag_308:\n        /* \"#utility.yul\":14265:14451   */\n      pop\n      pop\n      jump\t// out\n        /* \"#utility.yul\":14457:15000   */\n    tag_160:\n        /* \"#utility.yul\":14558:14560   */\n      0x1f\n        /* \"#utility.yul\":14553:14556   */\n      dup3\n        /* \"#utility.yul\":14550:14561   */\n      gt\n        /* \"#utility.yul\":14547:14993   */\n      iszero\n      tag_311\n      jumpi\n        /* \"#utility.yul\":14592:14630   */\n      tag_312\n        /* \"#utility.yul\":14624:14629   */\n      dup2\n        /* \"#utility.yul\":14592:14630   */\n      tag_149\n      jump\t// in\n    tag_312:\n        /* \"#utility.yul\":14676:14705   */\n      tag_313\n        /* \"#utility.yul\":14694:14704   */\n      dup5\n        /* \"#utility.yul\":14676:14705   */\n      tag_150\n      jump\t// in\n    tag_313:\n        /* \"#utility.yul\":14666:14674   */\n      dup2\n        /* \"#utility.yul\":14662:14706   */\n      add\n        /* \"#utility.yul\":14859:14861   */\n      0x20\n        /* \"#utility.yul\":14847:14857   */\n      dup6\n        /* \"#utility.yul\":14844:14862   */\n      lt\n        /* \"#utility.yul\":14841:14890   */\n      iszero\n      tag_314\n      jumpi\n        /* \"#utility.yul\":14880:14888   */\n      dup2\n        /* \"#utility.yul\":14865:14888   */\n      swap1\n      pop\n        /* \"#utility.yul\":14841:14890   */\n    tag_314:\n        /* \"#utility.yul\":14903:14983   */\n      tag_315\n        /* \"#utility.yul\":14959:14981   */\n      tag_316\n        /* \"#utility.yul\":14977:14980   */\n      dup6\n        /* \"#utility.yul\":14959:14981   */\n      tag_150\n      jump\t// in\n    tag_316:\n        /* \"#utility.yul\":14949:14957   */\n      dup4\n        /* \"#utility.yul\":14945:14982   */\n      add\n        /* \"#utility.yul\":14932:14943   */\n      dup3\n        /* \"#utility.yul\":14903:14983   */\n      tag_159\n      jump\t// in\n    tag_315:\n        /* \"#utility.yul\":14562:14993   */\n      pop\n      pop\n        /* \"#utility.yul\":14547:14993   */\n    tag_311:\n        /* \"#utility.yul\":14457:15000   */\n      pop\n      pop\n      pop\n      jump\t// out\n        /* \"#utility.yul\":15006:15123   */\n    tag_161:\n        /* \"#utility.yul\":15060:15068   */\n      0x00\n        /* \"#utility.yul\":15110:15115   */\n      dup3\n        /* \"#utility.yul\":15104:15108   */\n      dup3\n        /* \"#utility.yul\":15100:15116   */\n      shr\n        /* \"#utility.yul\":15079:15116   */\n      swap1\n      pop\n        /* \"#utility.yul\":15006:15123   */\n      swap3\n      swap2\n      pop\n      pop\n      jump\t// out\n        /* \"#utility.yul\":15129:15298   */\n    tag_162:\n        /* \"#utility.yul\":15173:15179   */\n      0x00\n        /* \"#utility.yul\":15206:15257   */\n      tag_319\n        /* \"#utility.yul\":15254:15255   */\n      0x00\n        /* \"#utility.yul\":15250:15256   */\n      not\n        /* \"#utility.yul\":15242:15247   */\n      dup5\n        /* \"#utility.yul\":15239:15240   */\n      0x08\n        /* \"#utility.yul\":15235:15248   */\n      mul\n        /* \"#utility.yul\":15206:15257   */\n      tag_161\n      jump\t// in\n    tag_319:\n        /* \"#utility.yul\":15202:15258   */\n      not\n        /* \"#utility.yul\":15287:15291   */\n      dup1\n        /* \"#utility.yul\":15281:15285   */\n      dup4\n        /* \"#utility.yul\":15277:15292   */\n      and\n        /* \"#utility.yul\":15267:15292   */\n      swap2\n      pop\n        /* \"#utility.yul\":15180:15298   */\n      pop\n        /* \"#utility.yul\":15129:15298   */\n      swap3\n      swap2\n      pop\n      pop\n      jump\t// out\n        /* \"#utility.yul\":15303:15598   */\n    tag_163:\n        /* \"#utility.yul\":15379:15383   */\n      0x00\n        /* \"#utility.yul\":15525:15554   */\n      tag_321\n        /* \"#utility.yul\":15550:15553   */\n      dup4\n        /* \"#utility.yul\":15544:15548   */\n      dup4\n        /* \"#utility.yul\":15525:15554   */\n      tag_162\n      jump\t// in\n    tag_321:\n        /* \"#utility.yul\":15517:15554   */\n      swap2\n      pop\n        /* \"#utility.yul\":15587:15590   */\n      dup3\n        /* \"#utility.yul\":15584:15585   */\n      0x02\n        /* \"#utility.yul\":15580:15591   */\n      mul\n        /* \"#utility.yul\":15574:15578   */\n      dup3\n        /* \"#utility.yul\":15571:15592   */\n      or\n        /* \"#utility.yul\":15563:15592   */\n      swap1\n      pop\n        /* \"#utility.yul\":15303:15598   */\n      swap3\n      swap2\n      pop\n      pop\n      jump\t// out\n        /* \"#utility.yul\":15603:16998   */\n    tag_102:\n        /* \"#utility.yul\":15720:15757   */\n      tag_323\n        /* \"#utility.yul\":15753:15756   */\n      dup3\n        /* \"#utility.yul\":15720:15757   */\n      tag_121\n      jump\t// in\n    tag_323:\n        /* \"#utility.yul\":15822:15840   */\n      0xffffffffffffffff\n        /* \"#utility.yul\":15814:15820   */\n      dup2\n        /* \"#utility.yul\":15811:15841   */\n      gt\n        /* \"#utility.yul\":15808:15864   */\n      iszero\n      tag_324\n      jumpi\n        /* \"#utility.yul\":15844:15862   */\n      tag_325\n      tag_133\n      jump\t// in\n    tag_325:\n        /* \"#utility.yul\":15808:15864   */\n    tag_324:\n        /* \"#utility.yul\":15888:15926   */\n      tag_326\n        /* \"#utility.yul\":15920:15924   */\n      dup3\n        /* \"#utility.yul\":15914:15925   */\n      sload\n        /* \"#utility.yul\":15888:15926   */\n      tag_44\n      jump\t// in\n    tag_326:\n        /* \"#utility.yul\":15973:16040   */\n      tag_327\n        /* \"#utility.yul\":16033:16039   */\n      dup3\n        /* \"#utility.yul\":16025:16031   */\n      dup3\n        /* \"#utility.yul\":16019:16023   */\n      dup6\n        /* \"#utility.yul\":15973:16040   */\n      tag_160\n      jump\t// in\n    tag_327:\n        /* \"#utility.yul\":16067:16068   */\n      0x00\n        /* \"#utility.yul\":16091:16095   */\n      0x20\n        /* \"#utility.yul\":16078:16095   */\n      swap1\n      pop\n        /* \"#utility.yul\":16123:16125   */\n      0x1f\n        /* \"#utility.yul\":16115:16121   */\n      dup4\n        /* \"#utility.yul\":16112:16126   */\n      gt\n        /* \"#utility.yul\":16140:16141   */\n      0x01\n        /* \"#utility.yul\":16135:16753   */\n      dup2\n      eq\n      tag_329\n      jumpi\n        /* \"#utility.yul\":16797:16798   */\n      0x00\n        /* \"#utility.yul\":16814:16820   */\n      dup5\n        /* \"#utility.yul\":16811:16888   */\n      iszero\n      tag_330\n      jumpi\n        /* \"#utility.yul\":16863:16872   */\n      dup3\n        /* \"#utility.yul\":16858:16861   */\n      dup8\n        /* \"#utility.yul\":16854:16873   */\n      add\n        /* \"#utility.yul\":16848:16874   */\n      mload\n        /* \"#utility.yul\":16839:16874   */\n      swap1\n      pop\n        /* \"#utility.yul\":16811:16888   */\n    tag_330:\n        /* \"#utility.yul\":16914:16981   */\n      tag_331\n        /* \"#utility.yul\":16974:16980   */\n      dup6\n        /* \"#utility.yul\":16967:16972   */\n      dup3\n        /* \"#utility.yul\":16914:16981   */\n      tag_163\n      jump\t// in\n    tag_331:\n        /* \"#utility.yul\":16908:16912   */\n      dup7\n        /* \"#utility.yul\":16901:16982   */\n      sstore\n        /* \"#utility.yul\":16770:16992   */\n      pop\n        /* \"#utility.yul\":16105:16992   */\n      jump(tag_328)\n        /* \"#utility.yul\":16135:16753   */\n    tag_329:\n        /* \"#utility.yul\":16187:16191   */\n      0x1f\n        /* \"#utility.yul\":16183:16192   */\n      not\n        /* \"#utility.yul\":16175:16181   */\n      dup5\n        /* \"#utility.yul\":16171:16193   */\n      and\n        /* \"#utility.yul\":16221:16258   */\n      tag_332\n        /* \"#utility.yul\":16253:16257   */\n      dup7\n        /* \"#utility.yul\":16221:16258   */\n      tag_149\n      jump\t// in\n    tag_332:\n        /* \"#utility.yul\":16280:16281   */\n      0x00\n        /* \"#utility.yul\":16294:16502   */\n    tag_333:\n        /* \"#utility.yul\":16308:16315   */\n      dup3\n        /* \"#utility.yul\":16305:16306   */\n      dup2\n        /* \"#utility.yul\":16302:16316   */\n      lt\n        /* \"#utility.yul\":16294:16502   */\n      iszero\n      tag_335\n      jumpi\n        /* \"#utility.yul\":16387:16396   */\n      dup5\n        /* \"#utility.yul\":16382:16385   */\n      dup10\n        /* \"#utility.yul\":16378:16397   */\n      add\n        /* \"#utility.yul\":16372:16398   */\n      mload\n        /* \"#utility.yul\":16364:16370   */\n      dup3\n        /* \"#utility.yul\":16357:16399   */\n      sstore\n        /* \"#utility.yul\":16438:16439   */\n      0x01\n        /* \"#utility.yul\":16430:16436   */\n      dup3\n        /* \"#utility.yul\":16426:16440   */\n      add\n        /* \"#utility.yul\":16416:16440   */\n      swap2\n      pop\n        /* \"#utility.yul\":16485:16487   */\n      0x20\n        /* \"#utility.yul\":16474:16483   */\n      dup6\n        /* \"#utility.yul\":16470:16488   */\n      add\n        /* \"#utility.yul\":16457:16488   */\n      swap5\n      pop\n        /* \"#utility.yul\":16331:16335   */\n      0x20\n        /* \"#utility.yul\":16328:16329   */\n      dup2\n        /* \"#utility.yul\":16324:16336   */\n      add\n        /* \"#utility.yul\":16319:16336   */\n      swap1\n      pop\n        /* \"#utility.yul\":16294:16502   */\n      jump(tag_333)\n    tag_335:\n        /* \"#utility.yul\":16530:16536   */\n      dup7\n        /* \"#utility.yul\":16521:16528   */\n      dup4\n        /* \"#utility.yul\":16518:16537   */\n      lt\n        /* \"#utility.yul\":16515:16694   */\n      iszero\n      tag_336\n      jumpi\n        /* \"#utility.yul\":16588:16597   */\n      dup5\n        /* \"#utility.yul\":16583:16586   */\n      dup10\n        /* \"#utility.yul\":16579:16598   */\n      add\n        /* \"#utility.yul\":16573:16599   */\n      mload\n        /* \"#utility.yul\":16631:16679   */\n      tag_337\n        /* \"#utility.yul\":16673:16677   */\n      0x1f\n        /* \"#utility.yul\":16665:16671   */\n      dup10\n        /* \"#utility.yul\":16661:16678   */\n      and\n        /* \"#utility.yul\":16650:16659   */\n      dup3\n        /* \"#utility.yul\":16631:16679   */\n      tag_162\n      jump\t// in\n    tag_337:\n        /* \"#utility.yul\":16623:16629   */\n      dup4\n        /* \"#utility.yul\":16616:16680   */\n      sstore\n        /* \"#utility.yul\":16538:16694   */\n      pop\n        /* \"#utility.yul\":16515:16694   */\n    tag_336:\n        /* \"#utility.yul\":16740:16741   */\n      0x01\n        /* \"#utility.yul\":16736:16737   */\n      0x02\n        /* \"#utility.yul\":16728:16734   */\n      dup9\n        /* \"#utility.yul\":16724:16738   */\n      mul\n        /* \"#utility.yul\":16720:16742   */\n      add\n        /* \"#utility.yul\":16714:16718   */\n      dup9\n        /* \"#utility.yul\":16707:16743   */\n      sstore\n        /* \"#utility.yul\":16142:16753   */\n      pop\n      pop\n      pop\n        /* \"#utility.yul\":16105:16992   */\n    tag_328:\n      pop\n        /* \"#utility.yul\":15695:16998   */\n      pop\n      pop\n      pop\n        /* \"#utility.yul\":15603:16998   */\n      pop\n      pop\n      jump\t// out\n        /* \"#utility.yul\":17004:17818   */\n    tag_106:\n        /* \"#utility.yul\":17235:17239   */\n      0x00\n        /* \"#utility.yul\":17273:17276   */\n      0x80\n        /* \"#utility.yul\":17262:17271   */\n      dup3\n        /* \"#utility.yul\":17258:17277   */\n      add\n        /* \"#utility.yul\":17250:17277   */\n      swap1\n      pop\n        /* \"#utility.yul\":17323:17332   */\n      dup2\n        /* \"#utility.yul\":17317:17321   */\n      dup2\n        /* \"#utility.yul\":17313:17333   */\n      sub\n        /* \"#utility.yul\":17309:17310   */\n      0x00\n        /* \"#utility.yul\":17298:17307   */\n      dup4\n        /* \"#utility.yul\":17294:17311   */\n      add\n        /* \"#utility.yul\":17287:17334   */\n      mstore\n        /* \"#utility.yul\":17351:17429   */\n      tag_339\n        /* \"#utility.yul\":17424:17428   */\n      dup2\n        /* \"#utility.yul\":17415:17421   */\n      dup8\n        /* \"#utility.yul\":17351:17429   */\n      tag_125\n      jump\t// in\n    tag_339:\n        /* \"#utility.yul\":17343:17429   */\n      swap1\n      pop\n        /* \"#utility.yul\":17476:17485   */\n      dup2\n        /* \"#utility.yul\":17470:17474   */\n      dup2\n        /* \"#utility.yul\":17466:17486   */\n      sub\n        /* \"#utility.yul\":17461:17463   */\n      0x20\n        /* \"#utility.yul\":17450:17459   */\n      dup4\n        /* \"#utility.yul\":17446:17464   */\n      add\n        /* \"#utility.yul\":17439:17487   */\n      mstore\n        /* \"#utility.yul\":17504:17582   */\n      tag_340\n        /* \"#utility.yul\":17577:17581   */\n      dup2\n        /* \"#utility.yul\":17568:17574   */\n      dup7\n        /* \"#utility.yul\":17504:17582   */\n      tag_125\n      jump\t// in\n    tag_340:\n        /* \"#utility.yul\":17496:17582   */\n      swap1\n      pop\n        /* \"#utility.yul\":17629:17638   */\n      dup2\n        /* \"#utility.yul\":17623:17627   */\n      dup2\n        /* \"#utility.yul\":17619:17639   */\n      sub\n        /* \"#utility.yul\":17614:17616   */\n      0x40\n        /* \"#utility.yul\":17603:17612   */\n      dup4\n        /* \"#utility.yul\":17599:17617   */\n      add\n        /* \"#utility.yul\":17592:17640   */\n      mstore\n        /* \"#utility.yul\":17657:17735   */\n      tag_341\n        /* \"#utility.yul\":17730:17734   */\n      dup2\n        /* \"#utility.yul\":17721:17727   */\n      dup6\n        /* \"#utility.yul\":17657:17735   */\n      tag_125\n      jump\t// in\n    tag_341:\n        /* \"#utility.yul\":17649:17735   */\n      swap1\n      pop\n        /* \"#utility.yul\":17745:17811   */\n      tag_342\n        /* \"#utility.yul\":17807:17809   */\n      0x60\n        /* \"#utility.yul\":17796:17805   */\n      dup4\n        /* \"#utility.yul\":17792:17810   */\n      add\n        /* \"#utility.yul\":17783:17789   */\n      dup5\n        /* \"#utility.yul\":17745:17811   */\n      tag_130\n      jump\t// in\n    tag_342:\n        /* \"#utility.yul\":17004:17818   */\n      swap6\n      swap5\n      pop\n      pop\n      pop\n      pop\n      pop\n      jump\t// out\n        /* \"#utility.yul\":17824:18048   */\n    tag_164:\n        /* \"#utility.yul\":17964:17998   */\n      0x596f7520617265206e6f742074686520626f72726f776572206f662074686973\n        /* \"#utility.yul\":17960:17961   */\n      0x00\n        /* \"#utility.yul\":17952:17958   */\n      dup3\n        /* \"#utility.yul\":17948:17962   */\n      add\n        /* \"#utility.yul\":17941:17999   */\n      mstore\n        /* \"#utility.yul\":18033:18040   */\n      0x20626f6f6b000000000000000000000000000000000000000000000000000000\n        /* \"#utility.yul\":18028:18030   */\n      0x20\n        /* \"#utility.yul\":18020:18026   */\n      dup3\n        /* \"#utility.yul\":18016:18031   */\n      add\n        /* \"#utility.yul\":18009:18041   */\n      mstore\n        /* \"#utility.yul\":17824:18048   */\n      pop\n      jump\t// out\n        /* \"#utility.yul\":18054:18420   */\n    tag_165:\n        /* \"#utility.yul\":18196:18199   */\n      0x00\n        /* \"#utility.yul\":18217:18284   */\n      tag_345\n        /* \"#utility.yul\":18281:18283   */\n      0x25\n        /* \"#utility.yul\":18276:18279   */\n      dup4\n        /* \"#utility.yul\":18217:18284   */\n      tag_122\n      jump\t// in\n    tag_345:\n        /* \"#utility.yul\":18210:18284   */\n      swap2\n      pop\n        /* \"#utility.yul\":18293:18386   */\n      tag_346\n        /* \"#utility.yul\":18382:18385   */\n      dup3\n        /* \"#utility.yul\":18293:18386   */\n      tag_164\n      jump\t// in\n    tag_346:\n        /* \"#utility.yul\":18411:18413   */\n      0x40\n        /* \"#utility.yul\":18406:18409   */\n      dup3\n        /* \"#utility.yul\":18402:18414   */\n      add\n        /* \"#utility.yul\":18395:18414   */\n      swap1\n      pop\n        /* \"#utility.yul\":18054:18420   */\n      swap2\n      swap1\n      pop\n      jump\t// out\n        /* \"#utility.yul\":18426:18845   */\n    tag_110:\n        /* \"#utility.yul\":18592:18596   */\n      0x00\n        /* \"#utility.yul\":18630:18632   */\n      0x20\n        /* \"#utility.yul\":18619:18628   */\n      dup3\n        /* \"#utility.yul\":18615:18633   */\n      add\n        /* \"#utility.yul\":18607:18633   */\n      swap1\n      pop\n        /* \"#utility.yul\":18679:18688   */\n      dup2\n        /* \"#utility.yul\":18673:18677   */\n      dup2\n        /* \"#utility.yul\":18669:18689   */\n      sub\n        /* \"#utility.yul\":18665:18666   */\n      0x00\n        /* \"#utility.yul\":18654:18663   */\n      dup4\n        /* \"#utility.yul\":18650:18667   */\n      add\n        /* \"#utility.yul\":18643:18690   */\n      mstore\n        /* \"#utility.yul\":18707:18838   */\n      tag_348\n        /* \"#utility.yul\":18833:18837   */\n      dup2\n        /* \"#utility.yul\":18707:18838   */\n      tag_165\n      jump\t// in\n    tag_348:\n        /* \"#utility.yul\":18699:18838   */\n      swap1\n      pop\n        /* \"#utility.yul\":18426:18845   */\n      swap2\n      swap1\n      pop\n      jump\t// out\n\n    auxdata: 0xa264697066735822122030f8619b9a5c9971933ee0694be807815fc0f6de8a48a2133151bad19cf500a364736f6c634300081a0033\n}\n",
				"bytecode": {
					"linkReferences": {},
					"object": "6080604052348015600e575f80fd5b5061157e8061001c5f395ff3fe608060405234801561000f575f80fd5b506004361061007b575f3560e01c80637e490a9e116100595780637e490a9e14610108578063be8fd2ea14610124578063c0a4465c14610154578063ca5140c9146101705761007b565b8063687440461461007f57806368931b21146100b557806374ff4818146100d3575b5f80fd5b61009960048036038101906100949190610baf565b61018c565b6040516100ac9796959493929190610cb2565b60405180910390f35b6100bd6103a3565b6040516100ca9190610d34565b60405180910390f35b6100ed60048036038101906100e89190610baf565b6103ae565b6040516100ff96959493929190610d4d565b60405180910390f35b610122600480360381019061011d9190610baf565b6106a1565b005b61013e60048036038101906101399190610baf565b61084f565b60405161014b9190610dc1565b60405180910390f35b61016e60048036038101906101699190610f30565b61087f565b005b61018a60048036038101906101859190610baf565b610a62565b005b5f818154811061019a575f80fd5b905f5260205f2090600502015f91509050805f0154908060010180546101bf90611015565b80601f01602080910402602001604051908101604052809291908181526020018280546101eb90611015565b80156102365780601f1061020d57610100808354040283529160200191610236565b820191905f5260205f20905b81548152906001019060200180831161021957829003601f168201915b50505050509080600201805461024b90611015565b80601f016020809104026020016040519081016040528092919081815260200182805461027790611015565b80156102c25780601f10610299576101008083540402835291602001916102c2565b820191905f5260205f20905b8154815290600101906020018083116102a557829003601f168201915b5050505050908060030180546102d790611015565b80601f016020809104026020016040519081016040528092919081815260200182805461030390611015565b801561034e5780601f106103255761010080835404028352916020019161034e565b820191905f5260205f20905b81548152906001019060200180831161033157829003601f168201915b505050505090806004015f9054906101000a900473ffffffffffffffffffffffffffffffffffffffff16908060040160149054906101000a900460ff16908060040160159054906101000a900460ff16905087565b5f8080549050905090565b60608060605f805f808054905087106103fc576040517f08c379a00000000000000000000000000000000000000000000000000000000081526004016103f39061108f565b60405180910390fd5b5f8088815481106104105761040f6110ad565b5b905f5260205f2090600502016040518060e00160405290815f820154815260200160018201805461044090611015565b80601f016020809104026020016040519081016040528092919081815260200182805461046c90611015565b80156104b75780601f1061048e576101008083540402835291602001916104b7565b820191905f5260205f20905b81548152906001019060200180831161049a57829003601f168201915b505050505081526020016002820180546104d090611015565b80601f01602080910402602001604051908101604052809291908181526020018280546104fc90611015565b80156105475780601f1061051e57610100808354040283529160200191610547565b820191905f5260205f20905b81548152906001019060200180831161052a57829003601f168201915b5050505050815260200160038201805461056090611015565b80601f016020809104026020016040519081016040528092919081815260200182805461058c90611015565b80156105d75780601f106105ae576101008083540402835291602001916105d7565b820191905f5260205f20905b8154815290600101906020018083116105ba57829003601f168201915b50505050508152602001600482015f9054906101000a900473ffffffffffffffffffffffffffffffffffffffff1673ffffffffffffffffffffffffffffffffffffffff1673ffffffffffffffffffffffffffffffffffffffff1681526020016004820160149054906101000a900460ff161515151581526020016004820160159054906101000a900460ff161515151581525050905080602001518160400151826060015183608001518460a001518560c001519650965096509650965096505091939550919395565b5f81815481106106b4576106b36110ad565b5b905f5260205f20906005020160040160149054906101000a900460ff16610710576040517f08c379a00000000000000000000000000000000000000000000000000000000081526004016107079061114a565b60405180910390fd5b5f8181548110610723576107226110ad565b5b905f5260205f20906005020160040160159054906101000a900460ff1661077f576040517f08c379a0000000000000000000000000000000000000000000000000000000008152600401610776906111d8565b60405180910390fd5b5f808281548110610793576107926110ad565b5b905f5260205f20906005020160040160156101000a81548160ff0219169083151502179055503360015f8381526020019081526020015f205f6101000a81548173ffffffffffffffffffffffffffffffffffffffff021916908373ffffffffffffffffffffffffffffffffffffffff1602179055503373ffffffffffffffffffffffffffffffffffffffff16817f7534124779d4d1eaf9cabba5f94b2b281856aba81c295cde4c9e69483b04b8cc60405160405180910390a350565b6001602052805f5260405f205f915054906101000a900473ffffffffffffffffffffffffffffffffffffffff1681565b5f808054905090505f6040518060e001604052808381526020018781526020018681526020018581526020013373ffffffffffffffffffffffffffffffffffffffff168152602001841515815260200160011515815250908060018154018082558091505060019003905f5260205f2090600502015f909190919091505f820151815f015560208201518160010190816109199190611393565b50604082015181600201908161092f9190611393565b5060608201518160030190816109459190611393565b506080820151816004015f6101000a81548173ffffffffffffffffffffffffffffffffffffffff021916908373ffffffffffffffffffffffffffffffffffffffff16021790555060a08201518160040160146101000a81548160ff02191690831515021790555060c08201518160040160156101000a81548160ff02191690831515021790555050503360015f8381526020019081526020015f205f6101000a81548173ffffffffffffffffffffffffffffffffffffffff021916908373ffffffffffffffffffffffffffffffffffffffff160217905550807faed083692aa149896a51fcfc0f1f25c2a2d87c0b2df6bdedba189837fab1c16586868686604051610a539493929190611462565b60405180910390a25050505050565b3373ffffffffffffffffffffffffffffffffffffffff1660015f8381526020019081526020015f205f9054906101000a900473ffffffffffffffffffffffffffffffffffffffff1673ffffffffffffffffffffffffffffffffffffffff1614610b00576040517f08c379a0000000000000000000000000000000000000000000000000000000008152600401610af79061152a565b60405180910390fd5b60015f8281548110610b1557610b146110ad565b5b905f5260205f20906005020160040160156101000a81548160ff021916908315150217905550807f70495d83ba5ba5c54086a9955a8c68fa91f4439242054fbe5a64b3d55300691760405160405180910390a250565b5f604051905090565b5f80fd5b5f80fd5b5f819050919050565b610b8e81610b7c565b8114610b98575f80fd5b50565b5f81359050610ba981610b85565b92915050565b5f60208284031215610bc457610bc3610b74565b5b5f610bd184828501610b9b565b91505092915050565b610be381610b7c565b82525050565b5f81519050919050565b5f82825260208201905092915050565b8281835e5f83830152505050565b5f601f19601f8301169050919050565b5f610c2b82610be9565b610c358185610bf3565b9350610c45818560208601610c03565b610c4e81610c11565b840191505092915050565b5f73ffffffffffffffffffffffffffffffffffffffff82169050919050565b5f610c8282610c59565b9050919050565b610c9281610c78565b82525050565b5f8115159050919050565b610cac81610c98565b82525050565b5f60e082019050610cc55f83018a610bda565b8181036020830152610cd78189610c21565b90508181036040830152610ceb8188610c21565b90508181036060830152610cff8187610c21565b9050610d0e6080830186610c89565b610d1b60a0830185610ca3565b610d2860c0830184610ca3565b98975050505050505050565b5f602082019050610d475f830184610bda565b92915050565b5f60c0820190508181035f830152610d658189610c21565b90508181036020830152610d798188610c21565b90508181036040830152610d8d8187610c21565b9050610d9c6060830186610c89565b610da96080830185610ca3565b610db660a0830184610ca3565b979650505050505050565b5f602082019050610dd45f830184610c89565b92915050565b5f80fd5b5f80fd5b7f4e487b71000000000000000000000000000000000000000000000000000000005f52604160045260245ffd5b610e1882610c11565b810181811067ffffffffffffffff82111715610e3757610e36610de2565b5b80604052505050565b5f610e49610b6b565b9050610e558282610e0f565b919050565b5f67ffffffffffffffff821115610e7457610e73610de2565b5b610e7d82610c11565b9050602081019050919050565b828183375f83830152505050565b5f610eaa610ea584610e5a565b610e40565b905082815260208101848484011115610ec657610ec5610dde565b5b610ed1848285610e8a565b509392505050565b5f82601f830112610eed57610eec610dda565b5b8135610efd848260208601610e98565b91505092915050565b610f0f81610c98565b8114610f19575f80fd5b50565b5f81359050610f2a81610f06565b92915050565b5f805f8060808587031215610f4857610f47610b74565b5b5f85013567ffffffffffffffff811115610f6557610f64610b78565b5b610f7187828801610ed9565b945050602085013567ffffffffffffffff811115610f9257610f91610b78565b5b610f9e87828801610ed9565b935050604085013567ffffffffffffffff811115610fbf57610fbe610b78565b5b610fcb87828801610ed9565b9250506060610fdc87828801610f1c565b91505092959194509250565b7f4e487b71000000000000000000000000000000000000000000000000000000005f52602260045260245ffd5b5f600282049050600182168061102c57607f821691505b60208210810361103f5761103e610fe8565b5b50919050565b7f426f6f6b20494420646f6573206e6f74206578697374000000000000000000005f82015250565b5f611079601683610bf3565b915061108482611045565b602082019050919050565b5f6020820190508181035f8301526110a68161106d565b9050919050565b7f4e487b71000000000000000000000000000000000000000000000000000000005f52603260045260245ffd5b7f4f6e6c7920706879736963616c20626f6f6b732063616e20626520626f72726f5f8201527f7765640000000000000000000000000000000000000000000000000000000000602082015250565b5f611134602383610bf3565b915061113f826110da565b604082019050919050565b5f6020820190508181035f83015261116181611128565b9050919050565b7f426f6f6b206973206e6f7420617661696c61626c6520666f7220626f72726f775f8201527f696e670000000000000000000000000000000000000000000000000000000000602082015250565b5f6111c2602383610bf3565b91506111cd82611168565b604082019050919050565b5f6020820190508181035f8301526111ef816111b6565b9050919050565b5f819050815f5260205f209050919050565b5f6020601f8301049050919050565b5f82821b905092915050565b5f600883026112527fffffffffffffffffffffffffffffffffffffffffffffffffffffffffffffffff82611217565b61125c8683611217565b95508019841693508086168417925050509392505050565b5f819050919050565b5f61129761129261128d84610b7c565b611274565b610b7c565b9050919050565b5f819050919050565b6112b08361127d565b6112c46112bc8261129e565b848454611223565b825550505050565b5f90565b6112d86112cc565b6112e38184846112a7565b505050565b5b81811015611306576112fb5f826112d0565b6001810190506112e9565b5050565b601f82111561134b5761131c816111f6565b61132584611208565b81016020851015611334578190505b61134861134085611208565b8301826112e8565b50505b505050565b5f82821c905092915050565b5f61136b5f1984600802611350565b1980831691505092915050565b5f611383838361135c565b9150826002028217905092915050565b61139c82610be9565b67ffffffffffffffff8111156113b5576113b4610de2565b5b6113bf8254611015565b6113ca82828561130a565b5f60209050601f8311600181146113fb575f84156113e9578287015190505b6113f38582611378565b86555061145a565b601f198416611409866111f6565b5f5b828110156114305784890151825560018201915060208501945060208101905061140b565b8683101561144d5784890151611449601f89168261135c565b8355505b6001600288020188555050505b505050505050565b5f6080820190508181035f83015261147a8187610c21565b9050818103602083015261148e8186610c21565b905081810360408301526114a28185610c21565b90506114b16060830184610ca3565b95945050505050565b7f596f7520617265206e6f742074686520626f72726f776572206f6620746869735f8201527f20626f6f6b000000000000000000000000000000000000000000000000000000602082015250565b5f611514602583610bf3565b915061151f826114ba565b604082019050919050565b5f6020820190508181035f83015261154181611508565b905091905056fea264697066735822122030f8619b9a5c9971933ee0694be807815fc0f6de8a48a2133151bad19cf500a364736f6c634300081a0033",
					"opcodes": "PUSH1 0x80 PUSH1 0x40 MSTORE CALLVALUE DUP1 ISZERO PUSH1 0xE JUMPI PUSH0 DUP1 REVERT JUMPDEST POP PUSH2 0x157E DUP1 PUSH2 0x1C PUSH0 CODECOPY PUSH0 RETURN INVALID PUSH1 0x80 PUSH1 0x40 MSTORE CALLVALUE DUP1 ISZERO PUSH2 0xF JUMPI PUSH0 DUP1 REVERT JUMPDEST POP PUSH1 0x4 CALLDATASIZE LT PUSH2 0x7B JUMPI PUSH0 CALLDATALOAD PUSH1 0xE0 SHR DUP1 PUSH4 0x7E490A9E GT PUSH2 0x59 JUMPI DUP1 PUSH4 0x7E490A9E EQ PUSH2 0x108 JUMPI DUP1 PUSH4 0xBE8FD2EA EQ PUSH2 0x124 JUMPI DUP1 PUSH4 0xC0A4465C EQ PUSH2 0x154 JUMPI DUP1 PUSH4 0xCA5140C9 EQ PUSH2 0x170 JUMPI PUSH2 0x7B JUMP JUMPDEST DUP1 PUSH4 0x68744046 EQ PUSH2 0x7F JUMPI DUP1 PUSH4 0x68931B21 EQ PUSH2 0xB5 JUMPI DUP1 PUSH4 0x74FF4818 EQ PUSH2 0xD3 JUMPI JUMPDEST PUSH0 DUP1 REVERT JUMPDEST PUSH2 0x99 PUSH1 0x4 DUP1 CALLDATASIZE SUB DUP2 ADD SWAP1 PUSH2 0x94 SWAP2 SWAP1 PUSH2 0xBAF JUMP JUMPDEST PUSH2 0x18C JUMP JUMPDEST PUSH1 0x40 MLOAD PUSH2 0xAC SWAP8 SWAP7 SWAP6 SWAP5 SWAP4 SWAP3 SWAP2 SWAP1 PUSH2 0xCB2 JUMP JUMPDEST PUSH1 0x40 MLOAD DUP1 SWAP2 SUB SWAP1 RETURN JUMPDEST PUSH2 0xBD PUSH2 0x3A3 JUMP JUMPDEST PUSH1 0x40 MLOAD PUSH2 0xCA SWAP2 SWAP1 PUSH2 0xD34 JUMP JUMPDEST PUSH1 0x40 MLOAD DUP1 SWAP2 SUB SWAP1 RETURN JUMPDEST PUSH2 0xED PUSH1 0x4 DUP1 CALLDATASIZE SUB DUP2 ADD SWAP1 PUSH2 0xE8 SWAP2 SWAP1 PUSH2 0xBAF JUMP JUMPDEST PUSH2 0x3AE JUMP JUMPDEST PUSH1 0x40 MLOAD PUSH2 0xFF SWAP7 SWAP6 SWAP5 SWAP4 SWAP3 SWAP2 SWAP1 PUSH2 0xD4D JUMP JUMPDEST PUSH1 0x40 MLOAD DUP1 SWAP2 SUB SWAP1 RETURN JUMPDEST PUSH2 0x122 PUSH1 0x4 DUP1 CALLDATASIZE SUB DUP2 ADD SWAP1 PUSH2 0x11D SWAP2 SWAP1 PUSH2 0xBAF JUMP JUMPDEST PUSH2 0x6A1 JUMP JUMPDEST STOP JUMPDEST PUSH2 0x13E PUSH1 0x4 DUP1 CALLDATASIZE SUB DUP2 ADD SWAP1 PUSH2 0x139 SWAP2 SWAP1 PUSH2 0xBAF JUMP JUMPDEST PUSH2 0x84F JUMP JUMPDEST PUSH1 0x40 MLOAD PUSH2 0x14B SWAP2 SWAP1 PUSH2 0xDC1 JUMP JUMPDEST PUSH1 0x40 MLOAD DUP1 SWAP2 SUB SWAP1 RETURN JUMPDEST PUSH2 0x16E PUSH1 0x4 DUP1 CALLDATASIZE SUB DUP2 ADD SWAP1 PUSH2 0x169 SWAP2 SWAP1 PUSH2 0xF30 JUMP JUMPDEST PUSH2 0x87F JUMP JUMPDEST STOP JUMPDEST PUSH2 0x18A PUSH1 0x4 DUP1 CALLDATASIZE SUB DUP2 ADD SWAP1 PUSH2 0x185 SWAP2 SWAP1 PUSH2 0xBAF JUMP JUMPDEST PUSH2 0xA62 JUMP JUMPDEST STOP JUMPDEST PUSH0 DUP2 DUP2 SLOAD DUP2 LT PUSH2 0x19A JUMPI PUSH0 DUP1 REVERT JUMPDEST SWAP1 PUSH0 MSTORE PUSH1 0x20 PUSH0 KECCAK256 SWAP1 PUSH1 0x5 MUL ADD PUSH0 SWAP2 POP SWAP1 POP DUP1 PUSH0 ADD SLOAD SWAP1 DUP1 PUSH1 0x1 ADD DUP1 SLOAD PUSH2 0x1BF SWAP1 PUSH2 0x1015 JUMP JUMPDEST DUP1 PUSH1 0x1F ADD PUSH1 0x20 DUP1 SWAP2 DIV MUL PUSH1 0x20 ADD PUSH1 0x40 MLOAD SWAP1 DUP2 ADD PUSH1 0x40 MSTORE DUP1 SWAP3 SWAP2 SWAP1 DUP2 DUP2 MSTORE PUSH1 0x20 ADD DUP3 DUP1 SLOAD PUSH2 0x1EB SWAP1 PUSH2 0x1015 JUMP JUMPDEST DUP1 ISZERO PUSH2 0x236 JUMPI DUP1 PUSH1 0x1F LT PUSH2 0x20D JUMPI PUSH2 0x100 DUP1 DUP4 SLOAD DIV MUL DUP4 MSTORE SWAP2 PUSH1 0x20 ADD SWAP2 PUSH2 0x236 JUMP JUMPDEST DUP3 ADD SWAP2 SWAP1 PUSH0 MSTORE PUSH1 0x20 PUSH0 KECCAK256 SWAP1 JUMPDEST DUP2 SLOAD DUP2 MSTORE SWAP1 PUSH1 0x1 ADD SWAP1 PUSH1 0x20 ADD DUP1 DUP4 GT PUSH2 0x219 JUMPI DUP3 SWAP1 SUB PUSH1 0x1F AND DUP3 ADD SWAP2 JUMPDEST POP POP POP POP POP SWAP1 DUP1 PUSH1 0x2 ADD DUP1 SLOAD PUSH2 0x24B SWAP1 PUSH2 0x1015 JUMP JUMPDEST DUP1 PUSH1 0x1F ADD PUSH1 0x20 DUP1 SWAP2 DIV MUL PUSH1 0x20 ADD PUSH1 0x40 MLOAD SWAP1 DUP2 ADD PUSH1 0x40 MSTORE DUP1 SWAP3 SWAP2 SWAP1 DUP2 DUP2 MSTORE PUSH1 0x20 ADD DUP3 DUP1 SLOAD PUSH2 0x277 SWAP1 PUSH2 0x1015 JUMP JUMPDEST DUP1 ISZERO PUSH2 0x2C2 JUMPI DUP1 PUSH1 0x1F LT PUSH2 0x299 JUMPI PUSH2 0x100 DUP1 DUP4 SLOAD DIV MUL DUP4 MSTORE SWAP2 PUSH1 0x20 ADD SWAP2 PUSH2 0x2C2 JUMP JUMPDEST DUP3 ADD SWAP2 SWAP1 PUSH0 MSTORE PUSH1 0x20 PUSH0 KECCAK256 SWAP1 JUMPDEST DUP2 SLOAD DUP2 MSTORE SWAP1 PUSH1 0x1 ADD SWAP1 PUSH1 0x20 ADD DUP1 DUP4 GT PUSH2 0x2A5 JUMPI DUP3 SWAP1 SUB PUSH1 0x1F AND DUP3 ADD SWAP2 JUMPDEST POP POP POP POP POP SWAP1 DUP1 PUSH1 0x3 ADD DUP1 SLOAD PUSH2 0x2D7 SWAP1 PUSH2 0x1015 JUMP JUMPDEST DUP1 PUSH1 0x1F ADD PUSH1 0x20 DUP1 SWAP2 DIV MUL PUSH1 0x20 ADD PUSH1 0x40 MLOAD SWAP1 DUP2 ADD PUSH1 0x40 MSTORE DUP1 SWAP3 SWAP2 SWAP1 DUP2 DUP2 MSTORE PUSH1 0x20 ADD DUP3 DUP1 SLOAD PUSH2 0x303 SWAP1 PUSH2 0x1015 JUMP JUMPDEST DUP1 ISZERO PUSH2 0x34E JUMPI DUP1 PUSH1 0x1F LT PUSH2 0x325 JUMPI PUSH2 0x100 DUP1 DUP4 SLOAD DIV MUL DUP4 MSTORE SWAP2 PUSH1 0x20 ADD SWAP2 PUSH2 0x34E JUMP JUMPDEST DUP3 ADD SWAP2 SWAP1 PUSH0 MSTORE PUSH1 0x20 PUSH0 KECCAK256 SWAP1 JUMPDEST DUP2 SLOAD DUP2 MSTORE SWAP1 PUSH1 0x1 ADD SWAP1 PUSH1 0x20 ADD DUP1 DUP4 GT PUSH2 0x331 JUMPI DUP3 SWAP1 SUB PUSH1 0x1F AND DUP3 ADD SWAP2 JUMPDEST POP POP POP POP POP SWAP1 DUP1 PUSH1 0x4 ADD PUSH0 SWAP1 SLOAD SWAP1 PUSH2 0x100 EXP SWAP1 DIV PUSH20 0xFFFFFFFFFFFFFFFFFFFFFFFFFFFFFFFFFFFFFFFF AND SWAP1 DUP1 PUSH1 0x4 ADD PUSH1 0x14 SWAP1 SLOAD SWAP1 PUSH2 0x100 EXP SWAP1 DIV PUSH1 0xFF AND SWAP1 DUP1 PUSH1 0x4 ADD PUSH1 0x15 SWAP1 SLOAD SWAP1 PUSH2 0x100 EXP SWAP1 DIV PUSH1 0xFF AND SWAP1 POP DUP8 JUMP JUMPDEST PUSH0 DUP1 DUP1 SLOAD SWAP1 POP SWAP1 POP SWAP1 JUMP JUMPDEST PUSH1 0x60 DUP1 PUSH1 0x60 PUSH0 DUP1 PUSH0 DUP1 DUP1 SLOAD SWAP1 POP DUP8 LT PUSH2 0x3FC JUMPI PUSH1 0x40 MLOAD PUSH32 0x8C379A000000000000000000000000000000000000000000000000000000000 DUP2 MSTORE PUSH1 0x4 ADD PUSH2 0x3F3 SWAP1 PUSH2 0x108F JUMP JUMPDEST PUSH1 0x40 MLOAD DUP1 SWAP2 SUB SWAP1 REVERT JUMPDEST PUSH0 DUP1 DUP9 DUP2 SLOAD DUP2 LT PUSH2 0x410 JUMPI PUSH2 0x40F PUSH2 0x10AD JUMP JUMPDEST JUMPDEST SWAP1 PUSH0 MSTORE PUSH1 0x20 PUSH0 KECCAK256 SWAP1 PUSH1 0x5 MUL ADD PUSH1 0x40 MLOAD DUP1 PUSH1 0xE0 ADD PUSH1 0x40 MSTORE SWAP1 DUP2 PUSH0 DUP3 ADD SLOAD DUP2 MSTORE PUSH1 0x20 ADD PUSH1 0x1 DUP3 ADD DUP1 SLOAD PUSH2 0x440 SWAP1 PUSH2 0x1015 JUMP JUMPDEST DUP1 PUSH1 0x1F ADD PUSH1 0x20 DUP1 SWAP2 DIV MUL PUSH1 0x20 ADD PUSH1 0x40 MLOAD SWAP1 DUP2 ADD PUSH1 0x40 MSTORE DUP1 SWAP3 SWAP2 SWAP1 DUP2 DUP2 MSTORE PUSH1 0x20 ADD DUP3 DUP1 SLOAD PUSH2 0x46C SWAP1 PUSH2 0x1015 JUMP JUMPDEST DUP1 ISZERO PUSH2 0x4B7 JUMPI DUP1 PUSH1 0x1F LT PUSH2 0x48E JUMPI PUSH2 0x100 DUP1 DUP4 SLOAD DIV MUL DUP4 MSTORE SWAP2 PUSH1 0x20 ADD SWAP2 PUSH2 0x4B7 JUMP JUMPDEST DUP3 ADD SWAP2 SWAP1 PUSH0 MSTORE PUSH1 0x20 PUSH0 KECCAK256 SWAP1 JUMPDEST DUP2 SLOAD DUP2 MSTORE SWAP1 PUSH1 0x1 ADD SWAP1 PUSH1 0x20 ADD DUP1 DUP4 GT PUSH2 0x49A JUMPI DUP3 SWAP1 SUB PUSH1 0x1F AND DUP3 ADD SWAP2 JUMPDEST POP POP POP POP POP DUP2 MSTORE PUSH1 0x20 ADD PUSH1 0x2 DUP3 ADD DUP1 SLOAD PUSH2 0x4D0 SWAP1 PUSH2 0x1015 JUMP JUMPDEST DUP1 PUSH1 0x1F ADD PUSH1 0x20 DUP1 SWAP2 DIV MUL PUSH1 0x20 ADD PUSH1 0x40 MLOAD SWAP1 DUP2 ADD PUSH1 0x40 MSTORE DUP1 SWAP3 SWAP2 SWAP1 DUP2 DUP2 MSTORE PUSH1 0x20 ADD DUP3 DUP1 SLOAD PUSH2 0x4FC SWAP1 PUSH2 0x1015 JUMP JUMPDEST DUP1 ISZERO PUSH2 0x547 JUMPI DUP1 PUSH1 0x1F LT PUSH2 0x51E JUMPI PUSH2 0x100 DUP1 DUP4 SLOAD DIV MUL DUP4 MSTORE SWAP2 PUSH1 0x20 ADD SWAP2 PUSH2 0x547 JUMP JUMPDEST DUP3 ADD SWAP2 SWAP1 PUSH0 MSTORE PUSH1 0x20 PUSH0 KECCAK256 SWAP1 JUMPDEST DUP2 SLOAD DUP2 MSTORE SWAP1 PUSH1 0x1 ADD SWAP1 PUSH1 0x20 ADD DUP1 DUP4 GT PUSH2 0x52A JUMPI DUP3 SWAP1 SUB PUSH1 0x1F AND DUP3 ADD SWAP2 JUMPDEST POP POP POP POP POP DUP2 MSTORE PUSH1 0x20 ADD PUSH1 0x3 DUP3 ADD DUP1 SLOAD PUSH2 0x560 SWAP1 PUSH2 0x1015 JUMP JUMPDEST DUP1 PUSH1 0x1F ADD PUSH1 0x20 DUP1 SWAP2 DIV MUL PUSH1 0x20 ADD PUSH1 0x40 MLOAD SWAP1 DUP2 ADD PUSH1 0x40 MSTORE DUP1 SWAP3 SWAP2 SWAP1 DUP2 DUP2 MSTORE PUSH1 0x20 ADD DUP3 DUP1 SLOAD PUSH2 0x58C SWAP1 PUSH2 0x1015 JUMP JUMPDEST DUP1 ISZERO PUSH2 0x5D7 JUMPI DUP1 PUSH1 0x1F LT PUSH2 0x5AE JUMPI PUSH2 0x100 DUP1 DUP4 SLOAD DIV MUL DUP4 MSTORE SWAP2 PUSH1 0x20 ADD SWAP2 PUSH2 0x5D7 JUMP JUMPDEST DUP3 ADD SWAP2 SWAP1 PUSH0 MSTORE PUSH1 0x20 PUSH0 KECCAK256 SWAP1 JUMPDEST DUP2 SLOAD DUP2 MSTORE SWAP1 PUSH1 0x1 ADD SWAP1 PUSH1 0x20 ADD DUP1 DUP4 GT PUSH2 0x5BA JUMPI DUP3 SWAP1 SUB PUSH1 0x1F AND DUP3 ADD SWAP2 JUMPDEST POP POP POP POP POP DUP2 MSTORE PUSH1 0x20 ADD PUSH1 0x4 DUP3 ADD PUSH0 SWAP1 SLOAD SWAP1 PUSH2 0x100 EXP SWAP1 DIV PUSH20 0xFFFFFFFFFFFFFFFFFFFFFFFFFFFFFFFFFFFFFFFF AND PUSH20 0xFFFFFFFFFFFFFFFFFFFFFFFFFFFFFFFFFFFFFFFF AND PUSH20 0xFFFFFFFFFFFFFFFFFFFFFFFFFFFFFFFFFFFFFFFF AND DUP2 MSTORE PUSH1 0x20 ADD PUSH1 0x4 DUP3 ADD PUSH1 0x14 SWAP1 SLOAD SWAP1 PUSH2 0x100 EXP SWAP1 DIV PUSH1 0xFF AND ISZERO ISZERO ISZERO ISZERO DUP2 MSTORE PUSH1 0x20 ADD PUSH1 0x4 DUP3 ADD PUSH1 0x15 SWAP1 SLOAD SWAP1 PUSH2 0x100 EXP SWAP1 DIV PUSH1 0xFF AND ISZERO ISZERO ISZERO ISZERO DUP2 MSTORE POP POP SWAP1 POP DUP1 PUSH1 0x20 ADD MLOAD DUP2 PUSH1 0x40 ADD MLOAD DUP3 PUSH1 0x60 ADD MLOAD DUP4 PUSH1 0x80 ADD MLOAD DUP5 PUSH1 0xA0 ADD MLOAD DUP6 PUSH1 0xC0 ADD MLOAD SWAP7 POP SWAP7 POP SWAP7 POP SWAP7 POP SWAP7 POP SWAP7 POP POP SWAP2 SWAP4 SWAP6 POP SWAP2 SWAP4 SWAP6 JUMP JUMPDEST PUSH0 DUP2 DUP2 SLOAD DUP2 LT PUSH2 0x6B4 JUMPI PUSH2 0x6B3 PUSH2 0x10AD JUMP JUMPDEST JUMPDEST SWAP1 PUSH0 MSTORE PUSH1 0x20 PUSH0 KECCAK256 SWAP1 PUSH1 0x5 MUL ADD PUSH1 0x4 ADD PUSH1 0x14 SWAP1 SLOAD SWAP1 PUSH2 0x100 EXP SWAP1 DIV PUSH1 0xFF AND PUSH2 0x710 JUMPI PUSH1 0x40 MLOAD PUSH32 0x8C379A000000000000000000000000000000000000000000000000000000000 DUP2 MSTORE PUSH1 0x4 ADD PUSH2 0x707 SWAP1 PUSH2 0x114A JUMP JUMPDEST PUSH1 0x40 MLOAD DUP1 SWAP2 SUB SWAP1 REVERT JUMPDEST PUSH0 DUP2 DUP2 SLOAD DUP2 LT PUSH2 0x723 JUMPI PUSH2 0x722 PUSH2 0x10AD JUMP JUMPDEST JUMPDEST SWAP1 PUSH0 MSTORE PUSH1 0x20 PUSH0 KECCAK256 SWAP1 PUSH1 0x5 MUL ADD PUSH1 0x4 ADD PUSH1 0x15 SWAP1 SLOAD SWAP1 PUSH2 0x100 EXP SWAP1 DIV PUSH1 0xFF AND PUSH2 0x77F JUMPI PUSH1 0x40 MLOAD PUSH32 0x8C379A000000000000000000000000000000000000000000000000000000000 DUP2 MSTORE PUSH1 0x4 ADD PUSH2 0x776 SWAP1 PUSH2 0x11D8 JUMP JUMPDEST PUSH1 0x40 MLOAD DUP1 SWAP2 SUB SWAP1 REVERT JUMPDEST PUSH0 DUP1 DUP3 DUP2 SLOAD DUP2 LT PUSH2 0x793 JUMPI PUSH2 0x792 PUSH2 0x10AD JUMP JUMPDEST JUMPDEST SWAP1 PUSH0 MSTORE PUSH1 0x20 PUSH0 KECCAK256 SWAP1 PUSH1 0x5 MUL ADD PUSH1 0x4 ADD PUSH1 0x15 PUSH2 0x100 EXP DUP2 SLOAD DUP2 PUSH1 0xFF MUL NOT AND SWAP1 DUP4 ISZERO ISZERO MUL OR SWAP1 SSTORE POP CALLER PUSH1 0x1 PUSH0 DUP4 DUP2 MSTORE PUSH1 0x20 ADD SWAP1 DUP2 MSTORE PUSH1 0x20 ADD PUSH0 KECCAK256 PUSH0 PUSH2 0x100 EXP DUP2 SLOAD DUP2 PUSH20 0xFFFFFFFFFFFFFFFFFFFFFFFFFFFFFFFFFFFFFFFF MUL NOT AND SWAP1 DUP4 PUSH20 0xFFFFFFFFFFFFFFFFFFFFFFFFFFFFFFFFFFFFFFFF AND MUL OR SWAP1 SSTORE POP CALLER PUSH20 0xFFFFFFFFFFFFFFFFFFFFFFFFFFFFFFFFFFFFFFFF AND DUP2 PUSH32 0x7534124779D4D1EAF9CABBA5F94B2B281856ABA81C295CDE4C9E69483B04B8CC PUSH1 0x40 MLOAD PUSH1 0x40 MLOAD DUP1 SWAP2 SUB SWAP1 LOG3 POP JUMP JUMPDEST PUSH1 0x1 PUSH1 0x20 MSTORE DUP1 PUSH0 MSTORE PUSH1 0x40 PUSH0 KECCAK256 PUSH0 SWAP2 POP SLOAD SWAP1 PUSH2 0x100 EXP SWAP1 DIV PUSH20 0xFFFFFFFFFFFFFFFFFFFFFFFFFFFFFFFFFFFFFFFF AND DUP2 JUMP JUMPDEST PUSH0 DUP1 DUP1 SLOAD SWAP1 POP SWAP1 POP PUSH0 PUSH1 0x40 MLOAD DUP1 PUSH1 0xE0 ADD PUSH1 0x40 MSTORE DUP1 DUP4 DUP2 MSTORE PUSH1 0x20 ADD DUP8 DUP2 MSTORE PUSH1 0x20 ADD DUP7 DUP2 MSTORE PUSH1 0x20 ADD DUP6 DUP2 MSTORE PUSH1 0x20 ADD CALLER PUSH20 0xFFFFFFFFFFFFFFFFFFFFFFFFFFFFFFFFFFFFFFFF AND DUP2 MSTORE PUSH1 0x20 ADD DUP5 ISZERO ISZERO DUP2 MSTORE PUSH1 0x20 ADD PUSH1 0x1 ISZERO ISZERO DUP2 MSTORE POP SWAP1 DUP1 PUSH1 0x1 DUP2 SLOAD ADD DUP1 DUP3 SSTORE DUP1 SWAP2 POP POP PUSH1 0x1 SWAP1 SUB SWAP1 PUSH0 MSTORE PUSH1 0x20 PUSH0 KECCAK256 SWAP1 PUSH1 0x5 MUL ADD PUSH0 SWAP1 SWAP2 SWAP1 SWAP2 SWAP1 SWAP2 POP PUSH0 DUP3 ADD MLOAD DUP2 PUSH0 ADD SSTORE PUSH1 0x20 DUP3 ADD MLOAD DUP2 PUSH1 0x1 ADD SWAP1 DUP2 PUSH2 0x919 SWAP2 SWAP1 PUSH2 0x1393 JUMP JUMPDEST POP PUSH1 0x40 DUP3 ADD MLOAD DUP2 PUSH1 0x2 ADD SWAP1 DUP2 PUSH2 0x92F SWAP2 SWAP1 PUSH2 0x1393 JUMP JUMPDEST POP PUSH1 0x60 DUP3 ADD MLOAD DUP2 PUSH1 0x3 ADD SWAP1 DUP2 PUSH2 0x945 SWAP2 SWAP1 PUSH2 0x1393 JUMP JUMPDEST POP PUSH1 0x80 DUP3 ADD MLOAD DUP2 PUSH1 0x4 ADD PUSH0 PUSH2 0x100 EXP DUP2 SLOAD DUP2 PUSH20 0xFFFFFFFFFFFFFFFFFFFFFFFFFFFFFFFFFFFFFFFF MUL NOT AND SWAP1 DUP4 PUSH20 0xFFFFFFFFFFFFFFFFFFFFFFFFFFFFFFFFFFFFFFFF AND MUL OR SWAP1 SSTORE POP PUSH1 0xA0 DUP3 ADD MLOAD DUP2 PUSH1 0x4 ADD PUSH1 0x14 PUSH2 0x100 EXP DUP2 SLOAD DUP2 PUSH1 0xFF MUL NOT AND SWAP1 DUP4 ISZERO ISZERO MUL OR SWAP1 SSTORE POP PUSH1 0xC0 DUP3 ADD MLOAD DUP2 PUSH1 0x4 ADD PUSH1 0x15 PUSH2 0x100 EXP DUP2 SLOAD DUP2 PUSH1 0xFF MUL NOT AND SWAP1 DUP4 ISZERO ISZERO MUL OR SWAP1 SSTORE POP POP POP CALLER PUSH1 0x1 PUSH0 DUP4 DUP2 MSTORE PUSH1 0x20 ADD SWAP1 DUP2 MSTORE PUSH1 0x20 ADD PUSH0 KECCAK256 PUSH0 PUSH2 0x100 EXP DUP2 SLOAD DUP2 PUSH20 0xFFFFFFFFFFFFFFFFFFFFFFFFFFFFFFFFFFFFFFFF MUL NOT AND SWAP1 DUP4 PUSH20 0xFFFFFFFFFFFFFFFFFFFFFFFFFFFFFFFFFFFFFFFF AND MUL OR SWAP1 SSTORE POP DUP1 PUSH32 0xAED083692AA149896A51FCFC0F1F25C2A2D87C0B2DF6BDEDBA189837FAB1C165 DUP7 DUP7 DUP7 DUP7 PUSH1 0x40 MLOAD PUSH2 0xA53 SWAP5 SWAP4 SWAP3 SWAP2 SWAP1 PUSH2 0x1462 JUMP JUMPDEST PUSH1 0x40 MLOAD DUP1 SWAP2 SUB SWAP1 LOG2 POP POP POP POP POP JUMP JUMPDEST CALLER PUSH20 0xFFFFFFFFFFFFFFFFFFFFFFFFFFFFFFFFFFFFFFFF AND PUSH1 0x1 PUSH0 DUP4 DUP2 MSTORE PUSH1 0x20 ADD SWAP1 DUP2 MSTORE PUSH1 0x20 ADD PUSH0 KECCAK256 PUSH0 SWAP1 SLOAD SWAP1 PUSH2 0x100 EXP SWAP1 DIV PUSH20 0xFFFFFFFFFFFFFFFFFFFFFFFFFFFFFFFFFFFFFFFF AND PUSH20 0xFFFFFFFFFFFFFFFFFFFFFFFFFFFFFFFFFFFFFFFF AND EQ PUSH2 0xB00 JUMPI PUSH1 0x40 MLOAD PUSH32 0x8C379A000000000000000000000000000000000000000000000000000000000 DUP2 MSTORE PUSH1 0x4 ADD PUSH2 0xAF7 SWAP1 PUSH2 0x152A JUMP JUMPDEST PUSH1 0x40 MLOAD DUP1 SWAP2 SUB SWAP1 REVERT JUMPDEST PUSH1 0x1 PUSH0 DUP3 DUP2 SLOAD DUP2 LT PUSH2 0xB15 JUMPI PUSH2 0xB14 PUSH2 0x10AD JUMP JUMPDEST JUMPDEST SWAP1 PUSH0 MSTORE PUSH1 0x20 PUSH0 KECCAK256 SWAP1 PUSH1 0x5 MUL ADD PUSH1 0x4 ADD PUSH1 0x15 PUSH2 0x100 EXP DUP2 SLOAD DUP2 PUSH1 0xFF MUL NOT AND SWAP1 DUP4 ISZERO ISZERO MUL OR SWAP1 SSTORE POP DUP1 PUSH32 0x70495D83BA5BA5C54086A9955A8C68FA91F4439242054FBE5A64B3D553006917 PUSH1 0x40 MLOAD PUSH1 0x40 MLOAD DUP1 SWAP2 SUB SWAP1 LOG2 POP JUMP JUMPDEST PUSH0 PUSH1 0x40 MLOAD SWAP1 POP SWAP1 JUMP JUMPDEST PUSH0 DUP1 REVERT JUMPDEST PUSH0 DUP1 REVERT JUMPDEST PUSH0 DUP2 SWAP1 POP SWAP2 SWAP1 POP JUMP JUMPDEST PUSH2 0xB8E DUP2 PUSH2 0xB7C JUMP JUMPDEST DUP2 EQ PUSH2 0xB98 JUMPI PUSH0 DUP1 REVERT JUMPDEST POP JUMP JUMPDEST PUSH0 DUP2 CALLDATALOAD SWAP1 POP PUSH2 0xBA9 DUP2 PUSH2 0xB85 JUMP JUMPDEST SWAP3 SWAP2 POP POP JUMP JUMPDEST PUSH0 PUSH1 0x20 DUP3 DUP5 SUB SLT ISZERO PUSH2 0xBC4 JUMPI PUSH2 0xBC3 PUSH2 0xB74 JUMP JUMPDEST JUMPDEST PUSH0 PUSH2 0xBD1 DUP5 DUP3 DUP6 ADD PUSH2 0xB9B JUMP JUMPDEST SWAP2 POP POP SWAP3 SWAP2 POP POP JUMP JUMPDEST PUSH2 0xBE3 DUP2 PUSH2 0xB7C JUMP JUMPDEST DUP3 MSTORE POP POP JUMP JUMPDEST PUSH0 DUP2 MLOAD SWAP1 POP SWAP2 SWAP1 POP JUMP JUMPDEST PUSH0 DUP3 DUP3 MSTORE PUSH1 0x20 DUP3 ADD SWAP1 POP SWAP3 SWAP2 POP POP JUMP JUMPDEST DUP3 DUP2 DUP4 MCOPY PUSH0 DUP4 DUP4 ADD MSTORE POP POP POP JUMP JUMPDEST PUSH0 PUSH1 0x1F NOT PUSH1 0x1F DUP4 ADD AND SWAP1 POP SWAP2 SWAP1 POP JUMP JUMPDEST PUSH0 PUSH2 0xC2B DUP3 PUSH2 0xBE9 JUMP JUMPDEST PUSH2 0xC35 DUP2 DUP6 PUSH2 0xBF3 JUMP JUMPDEST SWAP4 POP PUSH2 0xC45 DUP2 DUP6 PUSH1 0x20 DUP7 ADD PUSH2 0xC03 JUMP JUMPDEST PUSH2 0xC4E DUP2 PUSH2 0xC11 JUMP JUMPDEST DUP5 ADD SWAP2 POP POP SWAP3 SWAP2 POP POP JUMP JUMPDEST PUSH0 PUSH20 0xFFFFFFFFFFFFFFFFFFFFFFFFFFFFFFFFFFFFFFFF DUP3 AND SWAP1 POP SWAP2 SWAP1 POP JUMP JUMPDEST PUSH0 PUSH2 0xC82 DUP3 PUSH2 0xC59 JUMP JUMPDEST SWAP1 POP SWAP2 SWAP1 POP JUMP JUMPDEST PUSH2 0xC92 DUP2 PUSH2 0xC78 JUMP JUMPDEST DUP3 MSTORE POP POP JUMP JUMPDEST PUSH0 DUP2 ISZERO ISZERO SWAP1 POP SWAP2 SWAP1 POP JUMP JUMPDEST PUSH2 0xCAC DUP2 PUSH2 0xC98 JUMP JUMPDEST DUP3 MSTORE POP POP JUMP JUMPDEST PUSH0 PUSH1 0xE0 DUP3 ADD SWAP1 POP PUSH2 0xCC5 PUSH0 DUP4 ADD DUP11 PUSH2 0xBDA JUMP JUMPDEST DUP2 DUP2 SUB PUSH1 0x20 DUP4 ADD MSTORE PUSH2 0xCD7 DUP2 DUP10 PUSH2 0xC21 JUMP JUMPDEST SWAP1 POP DUP2 DUP2 SUB PUSH1 0x40 DUP4 ADD MSTORE PUSH2 0xCEB DUP2 DUP9 PUSH2 0xC21 JUMP JUMPDEST SWAP1 POP DUP2 DUP2 SUB PUSH1 0x60 DUP4 ADD MSTORE PUSH2 0xCFF DUP2 DUP8 PUSH2 0xC21 JUMP JUMPDEST SWAP1 POP PUSH2 0xD0E PUSH1 0x80 DUP4 ADD DUP7 PUSH2 0xC89 JUMP JUMPDEST PUSH2 0xD1B PUSH1 0xA0 DUP4 ADD DUP6 PUSH2 0xCA3 JUMP JUMPDEST PUSH2 0xD28 PUSH1 0xC0 DUP4 ADD DUP5 PUSH2 0xCA3 JUMP JUMPDEST SWAP9 SWAP8 POP POP POP POP POP POP POP POP JUMP JUMPDEST PUSH0 PUSH1 0x20 DUP3 ADD SWAP1 POP PUSH2 0xD47 PUSH0 DUP4 ADD DUP5 PUSH2 0xBDA JUMP JUMPDEST SWAP3 SWAP2 POP POP JUMP JUMPDEST PUSH0 PUSH1 0xC0 DUP3 ADD SWAP1 POP DUP2 DUP2 SUB PUSH0 DUP4 ADD MSTORE PUSH2 0xD65 DUP2 DUP10 PUSH2 0xC21 JUMP JUMPDEST SWAP1 POP DUP2 DUP2 SUB PUSH1 0x20 DUP4 ADD MSTORE PUSH2 0xD79 DUP2 DUP9 PUSH2 0xC21 JUMP JUMPDEST SWAP1 POP DUP2 DUP2 SUB PUSH1 0x40 DUP4 ADD MSTORE PUSH2 0xD8D DUP2 DUP8 PUSH2 0xC21 JUMP JUMPDEST SWAP1 POP PUSH2 0xD9C PUSH1 0x60 DUP4 ADD DUP7 PUSH2 0xC89 JUMP JUMPDEST PUSH2 0xDA9 PUSH1 0x80 DUP4 ADD DUP6 PUSH2 0xCA3 JUMP JUMPDEST PUSH2 0xDB6 PUSH1 0xA0 DUP4 ADD DUP5 PUSH2 0xCA3 JUMP JUMPDEST SWAP8 SWAP7 POP POP POP POP POP POP POP JUMP JUMPDEST PUSH0 PUSH1 0x20 DUP3 ADD SWAP1 POP PUSH2 0xDD4 PUSH0 DUP4 ADD DUP5 PUSH2 0xC89 JUMP JUMPDEST SWAP3 SWAP2 POP POP JUMP JUMPDEST PUSH0 DUP1 REVERT JUMPDEST PUSH0 DUP1 REVERT JUMPDEST PUSH32 0x4E487B7100000000000000000000000000000000000000000000000000000000 PUSH0 MSTORE PUSH1 0x41 PUSH1 0x4 MSTORE PUSH1 0x24 PUSH0 REVERT JUMPDEST PUSH2 0xE18 DUP3 PUSH2 0xC11 JUMP JUMPDEST DUP2 ADD DUP2 DUP2 LT PUSH8 0xFFFFFFFFFFFFFFFF DUP3 GT OR ISZERO PUSH2 0xE37 JUMPI PUSH2 0xE36 PUSH2 0xDE2 JUMP JUMPDEST JUMPDEST DUP1 PUSH1 0x40 MSTORE POP POP POP JUMP JUMPDEST PUSH0 PUSH2 0xE49 PUSH2 0xB6B JUMP JUMPDEST SWAP1 POP PUSH2 0xE55 DUP3 DUP3 PUSH2 0xE0F JUMP JUMPDEST SWAP2 SWAP1 POP JUMP JUMPDEST PUSH0 PUSH8 0xFFFFFFFFFFFFFFFF DUP3 GT ISZERO PUSH2 0xE74 JUMPI PUSH2 0xE73 PUSH2 0xDE2 JUMP JUMPDEST JUMPDEST PUSH2 0xE7D DUP3 PUSH2 0xC11 JUMP JUMPDEST SWAP1 POP PUSH1 0x20 DUP2 ADD SWAP1 POP SWAP2 SWAP1 POP JUMP JUMPDEST DUP3 DUP2 DUP4 CALLDATACOPY PUSH0 DUP4 DUP4 ADD MSTORE POP POP POP JUMP JUMPDEST PUSH0 PUSH2 0xEAA PUSH2 0xEA5 DUP5 PUSH2 0xE5A JUMP JUMPDEST PUSH2 0xE40 JUMP JUMPDEST SWAP1 POP DUP3 DUP2 MSTORE PUSH1 0x20 DUP2 ADD DUP5 DUP5 DUP5 ADD GT ISZERO PUSH2 0xEC6 JUMPI PUSH2 0xEC5 PUSH2 0xDDE JUMP JUMPDEST JUMPDEST PUSH2 0xED1 DUP5 DUP3 DUP6 PUSH2 0xE8A JUMP JUMPDEST POP SWAP4 SWAP3 POP POP POP JUMP JUMPDEST PUSH0 DUP3 PUSH1 0x1F DUP4 ADD SLT PUSH2 0xEED JUMPI PUSH2 0xEEC PUSH2 0xDDA JUMP JUMPDEST JUMPDEST DUP2 CALLDATALOAD PUSH2 0xEFD DUP5 DUP3 PUSH1 0x20 DUP7 ADD PUSH2 0xE98 JUMP JUMPDEST SWAP2 POP POP SWAP3 SWAP2 POP POP JUMP JUMPDEST PUSH2 0xF0F DUP2 PUSH2 0xC98 JUMP JUMPDEST DUP2 EQ PUSH2 0xF19 JUMPI PUSH0 DUP1 REVERT JUMPDEST POP JUMP JUMPDEST PUSH0 DUP2 CALLDATALOAD SWAP1 POP PUSH2 0xF2A DUP2 PUSH2 0xF06 JUMP JUMPDEST SWAP3 SWAP2 POP POP JUMP JUMPDEST PUSH0 DUP1 PUSH0 DUP1 PUSH1 0x80 DUP6 DUP8 SUB SLT ISZERO PUSH2 0xF48 JUMPI PUSH2 0xF47 PUSH2 0xB74 JUMP JUMPDEST JUMPDEST PUSH0 DUP6 ADD CALLDATALOAD PUSH8 0xFFFFFFFFFFFFFFFF DUP2 GT ISZERO PUSH2 0xF65 JUMPI PUSH2 0xF64 PUSH2 0xB78 JUMP JUMPDEST JUMPDEST PUSH2 0xF71 DUP8 DUP3 DUP9 ADD PUSH2 0xED9 JUMP JUMPDEST SWAP5 POP POP PUSH1 0x20 DUP6 ADD CALLDATALOAD PUSH8 0xFFFFFFFFFFFFFFFF DUP2 GT ISZERO PUSH2 0xF92 JUMPI PUSH2 0xF91 PUSH2 0xB78 JUMP JUMPDEST JUMPDEST PUSH2 0xF9E DUP8 DUP3 DUP9 ADD PUSH2 0xED9 JUMP JUMPDEST SWAP4 POP POP PUSH1 0x40 DUP6 ADD CALLDATALOAD PUSH8 0xFFFFFFFFFFFFFFFF DUP2 GT ISZERO PUSH2 0xFBF JUMPI PUSH2 0xFBE PUSH2 0xB78 JUMP JUMPDEST JUMPDEST PUSH2 0xFCB DUP8 DUP3 DUP9 ADD PUSH2 0xED9 JUMP JUMPDEST SWAP3 POP POP PUSH1 0x60 PUSH2 0xFDC DUP8 DUP3 DUP9 ADD PUSH2 0xF1C JUMP JUMPDEST SWAP2 POP POP SWAP3 SWAP6 SWAP2 SWAP5 POP SWAP3 POP JUMP JUMPDEST PUSH32 0x4E487B7100000000000000000000000000000000000000000000000000000000 PUSH0 MSTORE PUSH1 0x22 PUSH1 0x4 MSTORE PUSH1 0x24 PUSH0 REVERT JUMPDEST PUSH0 PUSH1 0x2 DUP3 DIV SWAP1 POP PUSH1 0x1 DUP3 AND DUP1 PUSH2 0x102C JUMPI PUSH1 0x7F DUP3 AND SWAP2 POP JUMPDEST PUSH1 0x20 DUP3 LT DUP2 SUB PUSH2 0x103F JUMPI PUSH2 0x103E PUSH2 0xFE8 JUMP JUMPDEST JUMPDEST POP SWAP2 SWAP1 POP JUMP JUMPDEST PUSH32 0x426F6F6B20494420646F6573206E6F7420657869737400000000000000000000 PUSH0 DUP3 ADD MSTORE POP JUMP JUMPDEST PUSH0 PUSH2 0x1079 PUSH1 0x16 DUP4 PUSH2 0xBF3 JUMP JUMPDEST SWAP2 POP PUSH2 0x1084 DUP3 PUSH2 0x1045 JUMP JUMPDEST PUSH1 0x20 DUP3 ADD SWAP1 POP SWAP2 SWAP1 POP JUMP JUMPDEST PUSH0 PUSH1 0x20 DUP3 ADD SWAP1 POP DUP2 DUP2 SUB PUSH0 DUP4 ADD MSTORE PUSH2 0x10A6 DUP2 PUSH2 0x106D JUMP JUMPDEST SWAP1 POP SWAP2 SWAP1 POP JUMP JUMPDEST PUSH32 0x4E487B7100000000000000000000000000000000000000000000000000000000 PUSH0 MSTORE PUSH1 0x32 PUSH1 0x4 MSTORE PUSH1 0x24 PUSH0 REVERT JUMPDEST PUSH32 0x4F6E6C7920706879736963616C20626F6F6B732063616E20626520626F72726F PUSH0 DUP3 ADD MSTORE PUSH32 0x7765640000000000000000000000000000000000000000000000000000000000 PUSH1 0x20 DUP3 ADD MSTORE POP JUMP JUMPDEST PUSH0 PUSH2 0x1134 PUSH1 0x23 DUP4 PUSH2 0xBF3 JUMP JUMPDEST SWAP2 POP PUSH2 0x113F DUP3 PUSH2 0x10DA JUMP JUMPDEST PUSH1 0x40 DUP3 ADD SWAP1 POP SWAP2 SWAP1 POP JUMP JUMPDEST PUSH0 PUSH1 0x20 DUP3 ADD SWAP1 POP DUP2 DUP2 SUB PUSH0 DUP4 ADD MSTORE PUSH2 0x1161 DUP2 PUSH2 0x1128 JUMP JUMPDEST SWAP1 POP SWAP2 SWAP1 POP JUMP JUMPDEST PUSH32 0x426F6F6B206973206E6F7420617661696C61626C6520666F7220626F72726F77 PUSH0 DUP3 ADD MSTORE PUSH32 0x696E670000000000000000000000000000000000000000000000000000000000 PUSH1 0x20 DUP3 ADD MSTORE POP JUMP JUMPDEST PUSH0 PUSH2 0x11C2 PUSH1 0x23 DUP4 PUSH2 0xBF3 JUMP JUMPDEST SWAP2 POP PUSH2 0x11CD DUP3 PUSH2 0x1168 JUMP JUMPDEST PUSH1 0x40 DUP3 ADD SWAP1 POP SWAP2 SWAP1 POP JUMP JUMPDEST PUSH0 PUSH1 0x20 DUP3 ADD SWAP1 POP DUP2 DUP2 SUB PUSH0 DUP4 ADD MSTORE PUSH2 0x11EF DUP2 PUSH2 0x11B6 JUMP JUMPDEST SWAP1 POP SWAP2 SWAP1 POP JUMP JUMPDEST PUSH0 DUP2 SWAP1 POP DUP2 PUSH0 MSTORE PUSH1 0x20 PUSH0 KECCAK256 SWAP1 POP SWAP2 SWAP1 POP JUMP JUMPDEST PUSH0 PUSH1 0x20 PUSH1 0x1F DUP4 ADD DIV SWAP1 POP SWAP2 SWAP1 POP JUMP JUMPDEST PUSH0 DUP3 DUP3 SHL SWAP1 POP SWAP3 SWAP2 POP POP JUMP JUMPDEST PUSH0 PUSH1 0x8 DUP4 MUL PUSH2 0x1252 PUSH32 0xFFFFFFFFFFFFFFFFFFFFFFFFFFFFFFFFFFFFFFFFFFFFFFFFFFFFFFFFFFFFFFFF DUP3 PUSH2 0x1217 JUMP JUMPDEST PUSH2 0x125C DUP7 DUP4 PUSH2 0x1217 JUMP JUMPDEST SWAP6 POP DUP1 NOT DUP5 AND SWAP4 POP DUP1 DUP7 AND DUP5 OR SWAP3 POP POP POP SWAP4 SWAP3 POP POP POP JUMP JUMPDEST PUSH0 DUP2 SWAP1 POP SWAP2 SWAP1 POP JUMP JUMPDEST PUSH0 PUSH2 0x1297 PUSH2 0x1292 PUSH2 0x128D DUP5 PUSH2 0xB7C JUMP JUMPDEST PUSH2 0x1274 JUMP JUMPDEST PUSH2 0xB7C JUMP JUMPDEST SWAP1 POP SWAP2 SWAP1 POP JUMP JUMPDEST PUSH0 DUP2 SWAP1 POP SWAP2 SWAP1 POP JUMP JUMPDEST PUSH2 0x12B0 DUP4 PUSH2 0x127D JUMP JUMPDEST PUSH2 0x12C4 PUSH2 0x12BC DUP3 PUSH2 0x129E JUMP JUMPDEST DUP5 DUP5 SLOAD PUSH2 0x1223 JUMP JUMPDEST DUP3 SSTORE POP POP POP POP JUMP JUMPDEST PUSH0 SWAP1 JUMP JUMPDEST PUSH2 0x12D8 PUSH2 0x12CC JUMP JUMPDEST PUSH2 0x12E3 DUP2 DUP5 DUP5 PUSH2 0x12A7 JUMP JUMPDEST POP POP POP JUMP JUMPDEST JUMPDEST DUP2 DUP2 LT ISZERO PUSH2 0x1306 JUMPI PUSH2 0x12FB PUSH0 DUP3 PUSH2 0x12D0 JUMP JUMPDEST PUSH1 0x1 DUP2 ADD SWAP1 POP PUSH2 0x12E9 JUMP JUMPDEST POP POP JUMP JUMPDEST PUSH1 0x1F DUP3 GT ISZERO PUSH2 0x134B JUMPI PUSH2 0x131C DUP2 PUSH2 0x11F6 JUMP JUMPDEST PUSH2 0x1325 DUP5 PUSH2 0x1208 JUMP JUMPDEST DUP2 ADD PUSH1 0x20 DUP6 LT ISZERO PUSH2 0x1334 JUMPI DUP2 SWAP1 POP JUMPDEST PUSH2 0x1348 PUSH2 0x1340 DUP6 PUSH2 0x1208 JUMP JUMPDEST DUP4 ADD DUP3 PUSH2 0x12E8 JUMP JUMPDEST POP POP JUMPDEST POP POP POP JUMP JUMPDEST PUSH0 DUP3 DUP3 SHR SWAP1 POP SWAP3 SWAP2 POP POP JUMP JUMPDEST PUSH0 PUSH2 0x136B PUSH0 NOT DUP5 PUSH1 0x8 MUL PUSH2 0x1350 JUMP JUMPDEST NOT DUP1 DUP4 AND SWAP2 POP POP SWAP3 SWAP2 POP POP JUMP JUMPDEST PUSH0 PUSH2 0x1383 DUP4 DUP4 PUSH2 0x135C JUMP JUMPDEST SWAP2 POP DUP3 PUSH1 0x2 MUL DUP3 OR SWAP1 POP SWAP3 SWAP2 POP POP JUMP JUMPDEST PUSH2 0x139C DUP3 PUSH2 0xBE9 JUMP JUMPDEST PUSH8 0xFFFFFFFFFFFFFFFF DUP2 GT ISZERO PUSH2 0x13B5 JUMPI PUSH2 0x13B4 PUSH2 0xDE2 JUMP JUMPDEST JUMPDEST PUSH2 0x13BF DUP3 SLOAD PUSH2 0x1015 JUMP JUMPDEST PUSH2 0x13CA DUP3 DUP3 DUP6 PUSH2 0x130A JUMP JUMPDEST PUSH0 PUSH1 0x20 SWAP1 POP PUSH1 0x1F DUP4 GT PUSH1 0x1 DUP2 EQ PUSH2 0x13FB JUMPI PUSH0 DUP5 ISZERO PUSH2 0x13E9 JUMPI DUP3 DUP8 ADD MLOAD SWAP1 POP JUMPDEST PUSH2 0x13F3 DUP6 DUP3 PUSH2 0x1378 JUMP JUMPDEST DUP7 SSTORE POP PUSH2 0x145A JUMP JUMPDEST PUSH1 0x1F NOT DUP5 AND PUSH2 0x1409 DUP7 PUSH2 0x11F6 JUMP JUMPDEST PUSH0 JUMPDEST DUP3 DUP2 LT ISZERO PUSH2 0x1430 JUMPI DUP5 DUP10 ADD MLOAD DUP3 SSTORE PUSH1 0x1 DUP3 ADD SWAP2 POP PUSH1 0x20 DUP6 ADD SWAP5 POP PUSH1 0x20 DUP2 ADD SWAP1 POP PUSH2 0x140B JUMP JUMPDEST DUP7 DUP4 LT ISZERO PUSH2 0x144D JUMPI DUP5 DUP10 ADD MLOAD PUSH2 0x1449 PUSH1 0x1F DUP10 AND DUP3 PUSH2 0x135C JUMP JUMPDEST DUP4 SSTORE POP JUMPDEST PUSH1 0x1 PUSH1 0x2 DUP9 MUL ADD DUP9 SSTORE POP POP POP JUMPDEST POP POP POP POP POP POP JUMP JUMPDEST PUSH0 PUSH1 0x80 DUP3 ADD SWAP1 POP DUP2 DUP2 SUB PUSH0 DUP4 ADD MSTORE PUSH2 0x147A DUP2 DUP8 PUSH2 0xC21 JUMP JUMPDEST SWAP1 POP DUP2 DUP2 SUB PUSH1 0x20 DUP4 ADD MSTORE PUSH2 0x148E DUP2 DUP7 PUSH2 0xC21 JUMP JUMPDEST SWAP1 POP DUP2 DUP2 SUB PUSH1 0x40 DUP4 ADD MSTORE PUSH2 0x14A2 DUP2 DUP6 PUSH2 0xC21 JUMP JUMPDEST SWAP1 POP PUSH2 0x14B1 PUSH1 0x60 DUP4 ADD DUP5 PUSH2 0xCA3 JUMP JUMPDEST SWAP6 SWAP5 POP POP POP POP POP JUMP JUMPDEST PUSH32 0x596F7520617265206E6F742074686520626F72726F776572206F662074686973 PUSH0 DUP3 ADD MSTORE PUSH32 0x20626F6F6B000000000000000000000000000000000000000000000000000000 PUSH1 0x20 DUP3 ADD MSTORE POP JUMP JUMPDEST PUSH0 PUSH2 0x1514 PUSH1 0x25 DUP4 PUSH2 0xBF3 JUMP JUMPDEST SWAP2 POP PUSH2 0x151F DUP3 PUSH2 0x14BA JUMP JUMPDEST PUSH1 0x40 DUP3 ADD SWAP1 POP SWAP2 SWAP1 POP JUMP JUMPDEST PUSH0 PUSH1 0x20 DUP3 ADD SWAP1 POP DUP2 DUP2 SUB PUSH0 DUP4 ADD MSTORE PUSH2 0x1541 DUP2 PUSH2 0x1508 JUMP JUMPDEST SWAP1 POP SWAP2 SWAP1 POP JUMP INVALID LOG2 PUSH5 0x6970667358 0x22 SLT KECCAK256 ADDRESS 0xF8 PUSH2 0x9B9A TLOAD SWAP10 PUSH18 0x933EE0694BE807815FC0F6DE8A48A2133151 0xBA 0xD1 SWAP13 CREATE2 STOP LOG3 PUSH5 0x736F6C6343 STOP ADDMOD BYTE STOP CALLER "
				},
				"gasEstimates": {
					"creation": {
						"codeDepositCost": "1100400",
						"executionCost": "1138",
						"totalCost": "1101538"
					},
					"external": {
						"addBook(string,string,string,bool)": "infinite",
						"bookOwners(uint256)": "2849",
						"books(uint256)": "infinite",
						"borrowBook(uint256)": "61585",
						"getBookDetails(uint256)": "infinite",
						"getTotalBooks()": "2463",
						"returnBook(uint256)": "30378"
					}
				},
				"methodIdentifiers": {
					"addBook(string,string,string,bool)": "c0a4465c",
					"bookOwners(uint256)": "be8fd2ea",
					"books(uint256)": "68744046",
					"borrowBook(uint256)": "7e490a9e",
					"getBookDetails(uint256)": "74ff4818",
					"getTotalBooks()": "68931b21",
					"returnBook(uint256)": "ca5140c9"
				}
			},
			"storageLayout": {
				"storage": [
					{
						"astId": 20,
						"contract": "contracts/BookLovers.sol:BookLoversDAO",
						"label": "books",
						"offset": 0,
						"slot": "0",
						"type": "t_array(t_struct(Book)16_storage)dyn_storage"
					},
					{
						"astId": 24,
						"contract": "contracts/BookLovers.sol:BookLoversDAO",
						"label": "bookOwners",
						"offset": 0,
						"slot": "1",
						"type": "t_mapping(t_uint256,t_address)"
					}
				],
				"types": {
					"t_address": {
						"encoding": "inplace",
						"label": "address",
						"numberOfBytes": "20"
					},
					"t_array(t_struct(Book)16_storage)dyn_storage": {
						"base": "t_struct(Book)16_storage",
						"encoding": "dynamic_array",
						"label": "struct BookLoversDAO.Book[]",
						"numberOfBytes": "32"
					},
					"t_bool": {
						"encoding": "inplace",
						"label": "bool",
						"numberOfBytes": "1"
					},
					"t_mapping(t_uint256,t_address)": {
						"encoding": "mapping",
						"key": "t_uint256",
						"label": "mapping(uint256 => address)",
						"numberOfBytes": "32",
						"value": "t_address"
					},
					"t_string_storage": {
						"encoding": "bytes",
						"label": "string",
						"numberOfBytes": "32"
					},
					"t_struct(Book)16_storage": {
						"encoding": "inplace",
						"label": "struct BookLoversDAO.Book",
						"members": [
							{
								"astId": 3,
								"contract": "contracts/BookLovers.sol:BookLoversDAO",
								"label": "id",
								"offset": 0,
								"slot": "0",
								"type": "t_uint256"
							},
							{
								"astId": 5,
								"contract": "contracts/BookLovers.sol:BookLoversDAO",
								"label": "title",
								"offset": 0,
								"slot": "1",
								"type": "t_string_storage"
							},
							{
								"astId": 7,
								"contract": "contracts/BookLovers.sol:BookLoversDAO",
								"label": "author",
								"offset": 0,
								"slot": "2",
								"type": "t_string_storage"
							},
							{
								"astId": 9,
								"contract": "contracts/BookLovers.sol:BookLoversDAO",
								"label": "ISBN",
								"offset": 0,
								"slot": "3",
								"type": "t_string_storage"
							},
							{
								"astId": 11,
								"contract": "contracts/BookLovers.sol:BookLoversDAO",
								"label": "owner",
								"offset": 0,
								"slot": "4",
								"type": "t_address"
							},
							{
								"astId": 13,
								"contract": "contracts/BookLovers.sol:BookLoversDAO",
								"label": "isPhysical",
								"offset": 20,
								"slot": "4",
								"type": "t_bool"
							},
							{
								"astId": 15,
								"contract": "contracts/BookLovers.sol:BookLoversDAO",
								"label": "isAvailable",
								"offset": 21,
								"slot": "4",
								"type": "t_bool"
							}
						],
						"numberOfBytes": "160"
					},
					"t_uint256": {
						"encoding": "inplace",
						"label": "uint256",
						"numberOfBytes": "32"
					}
				}
			},
			"userdoc": {
				"kind": "user",
				"methods": {},
				"version": 1
			}
		}
	}
}